:020000041000EA
:1000000000B5324B212058609868022188439860DF
:10001000D860186158612E4B002199600221596106
:100020000121F02299502B49196001219960352056
:1000300000F044F80222904214D00621196600F024
:1000400034F8196E01211966002018661A6600F04E
:100050002CF8196E196E196E052000F02FF8012189
:100060000842F9D1002199601B49196000215960AB
:100070001A491B48016001219960EB211966A021F2
:10008000196600F012F800219960164914480160C1
:100090000121996001BC002800D000471248134993
:1000A000086003C880F30888084703B5996A0420EC
:1000B0000142FBD001200142F8D103BD02B5186610
:1000C0001866FFF7F2FF186E186E02BD00000240BE
:1000D000000000180000070000035F00212200005C
:1000E000F4000018222000A00001001008ED00E03C
:1000F00000000000000000000000000074B24E7A12
:1001000000200420F7010010C3010010C5010010F9
:10011000C1010010C1010010C1010010C101001097
:10012000C1010010C1010010C1010010C701001081
:10013000C1010010C1010010C9010010CB01001065
:10014000CD010010CD010010CD010010CD01001037
:10015000CD010010CD010010CD010010CD01001027
:10016000CD010010CD010010CD010010CD01001017
:10017000CD010010CD010010CD010010CD01001007
:10018000CD010010CD010010CD010010CD010010F7
:10019000CD010010CD010010CD010010CD010010E7
:1001A000CD010010CD010010CD010010CD010010D7
:1001B000CD010010CD010010CD010010CD010010C7
:1001C00000BE00BE00BE00BE00BE00BE00F04BF888
:1001D000103800BEF2EB887134F5001058F50010AD
:1001E0003402001090A31AE700202149086006C8D5
:1001F00081F3088810471F48006800282FD10DA4FC
:100200000ECC002902D000F012F8F9E71A491B4A77
:10021000002000E001C19142FCD1194988471949E9
:1002200088471949884700BEFDE701C901C29A42C3
:10023000FBD3704758F50010C000002024050020B3
:10024000BCF900100000042000000420BCF90010DC
:1002500000100420001004200000000070470B482C
:1002600008F0BEFE0047EFF30580C0B27047000003
:1002700008ED00E0000000D02805002074C6022030
:10028000DD7800100D030010CD79001057560000E6
:1002900006005250ABB36053F0F20010060052500B
:1002A000861C030200F30010060052505422A29D47
:1002B00010F3001005005250DE65F468BCF9001020
:1002C000F8B5C04610B5064C2378002B07D1054B76
:1002D000002B02D0044800E000BF0123237010BDB2
:1002E0003808002000000000A8D10010044B10B511
:1002F000002B03D00349044800E000BF10BDC046F6
:10030000000000003C080020A8D1001010B500F04B
:1003100001F8FCE710B500F071F800F039F801F0D1
:100320004DFF05F0F5FB05F05BFBC82104208900BB
:1003300001F0CCFF042005F029F804F089F9002031
:1003400003F048FE04F0FAF900210020054A04F009
:10035000A7FB00210020044A04F0A2FB04F0DEFD0C
:10036000FCE7C046A8D10010B4D100100123D02270
:1003700083401206002901D0536170479361FCE766
:10038000D0231B065B68C340012018407047C0465D
:1003900010B50020D02405F0A5FE01232406A36299
:1003A000012005F09FFE02230220A36205F09AFEC1
:1003B00004230320A36205F095FE08230420A36212
:1003C00005F090FE10230022A3620121002005F019
:1003D00071FE00220121012005F06CFE00220121A6
:1003E000022005F067FE00220121032005F062FED5
:1003F00000220121042005F05DFE10BDF0B5C646C7
:1004000000B584B0314803AB02AA01A907F0AAF9EC
:10041000002803D12D492E4807F0DAFA039A0299F1
:10042000019807F063F909F02DFF0021402006F044
:10043000ABFC0F2005F056FED024802324061B02BF
:100440006362082005F04EFE8023802680275B0033
:100450006362B6010D2005F045FEBF00092066620B
:1004600005F040FE1020676205F03CFE80235B0231
:1004700063621120984605F035FE802380259B029B
:10048000A362ED03162005F02DFE002201211120AC
:10049000656205F00FFE43460E4963610E486761D1
:1004A000666165610CF0BCFB01210A2005F0EAFDE4
:1004B00001210B2005F0E6FD01210C2005F0E2FDF5
:1004C000002004B080BCB846F0BDC04690D0030008
:1004D000C0D1001000093D000000044010B584B0F8
:1004E0006B460F246C44D91D087001232200034879
:1004F0000CF04AFE207804B010BDC0460000044055
:1005000010B582B06B46DC1D991D087001232200D6
:1005100002480CF039FE207802B010BD0000044003
:1005200010B506F049FC10BD7047C046030010B579
:100530000120002B00D010BD05F05AF80028FAD099
:1005400004F084FFFF2004F07DFF04F081FF012010
:10055000F1E7C0460020704770B50D00040011009F
:100560001A1E11D00120002C00D070BD280005F00B
:100570001DF90028F9D004F069FFFF2004F062FFA4
:1005800004F066FF0120F0E70420EEE770B50D00EF
:10059000040011001A1E0AD00120002C00D070BDEA
:1005A000280005F073F9431E9841C0B2F7E7042014
:1005B000F5E7C04670B514000125002808D10229CE
:1005C0000FD007D8002911D004F0DAFF00252060F1
:1005D000280070BD04250329FAD1082300251380C3
:1005E000F6E780239B0000251380F1E70021162009
:1005F000FFF7BCFE04F02EFF431E98410121C5B257
:100600001620FFF7B3FEE3E700207047013AF8B584
:100610001B4BD500AD184833ED00ED18C8234746F5
:10062000CE465B0180B580460E000027994631001A
:10063000404603F057FB01210820FFF797FE2C00EE
:1006400000210920FFF792FE483C2088000AFFF7AE
:1006500045FF20780234FFF741FFAC42F5D1A023DB
:10066000413701369B00FF37B6B2E5184F45DED162
:1006700001210920FFF77AFEC0BCB946B046F8BD9B
:1006800044120020F0B5DE464E464546574600234C
:10069000E0B58146884614009B4683B0092A0BD9F1
:1006A00010000A2108F0F6FC2000CDB20A2108F063
:1006B000F1FCC3B29B462C00384B464614339C4693
:1006C00001938C235B0100279A46A5002D19AD00EC
:1006D00065443100484603F005FB01210820FFF77F
:1006E00045FE2C0000210920FFF740FE143C208825
:1006F000000AFFF7F3FE20780234FFF7EFFEAC426A
:10070000F5D1A023413701369B00FF37B6B2E5187B
:100710005745DED101210920FFF728FE5B46002B5B
:1007200030D09D00019B4E469C468C235B010027E8
:1007300099465D440A3EAD00B6B26544414630007C
:1007400003F0D0FA01210820FFF710FE2C00002151
:100750000920FFF70BFE143C2088000AFFF7BEFEBD
:1007600020780234FFF7BAFEA542F5D141460131A7
:100770008BB29846A0239B009C464137FF376544C7
:100780004F45DBD101210920FFF7F0FD03B0F0BC9C
:10079000BB46B246A946A046F0BDC046804A0020EE
:1007A000F0B5DE4657464E4645469346E0B5674CA3
:1007B0000122A5440290039104A8594601F09AFB36
:1007C000634E644F1E223B00310004A801F05CFC24
:1007D0005946614809F04AFDB188738809041943F4
:1007E0005E4809F043FDB489738924041C43210049
:1007F0005B4809F03BFDB38A728A1B04134319005E
:100800005848009309F032FD338BF28A1B041343DE
:1008100019005548019309F029FDB18B534809F09F
:1008200025FD04A801F05EFC514809F01FFD0122DE
:10083000594604A801F05EFB3B002200310004A8E9
:1008400001F022FC4B4B1B78522B0CD004A801F07A
:1008500049FC01208F239B009D44F0BCBB46B2465F
:10086000A946A046F0BD962292029446424B994674
:1008700063449846B4239B00F418693BFF3B9A46B7
:100880004D46B244B4223B003100520004A801F0AE
:10089000FBFBB4223B005200514604A801F0F4FBDC
:1008A0002800320093785178DB0889084901DB027F
:1008B0000B4311780332C9080B4303800230A24274
:1008C000F0D1E135FF354545DCD16B4603991889F8
:1008D00003F008FA01210820FFF748FD0021092054
:1008E000FFF744FD254926480CF016FA59462548DD
:1008F0000CF0A6FB002815D0594623480CF0A0FBAD
:10090000002819D04C462088000AFFF7E7FD207820
:100910000234FFF7E3FD4445F5D101210920FFF73B
:1009200025FD93E7009A019B13495A43520092B266
:10093000164809F091FA89E7009A019B0E495A433B
:10094000520092B2124809F087FA7FE7C4FDFFFF18
:10095000B40C002054080020F4D10010FCD1001089
:1009600010D2001024D200103CD2001054D200103B
:1009700068D2001008040020E46D002080B2E60E6A
:1009800000000440A8D10010B4D10010441200208F
:10099000804A0020002370B50371013B04000D0064
:1009A000C3624B1C09D00A0021000123407830317A
:1009B000FFF7D2FD00281FD1E562124BE25A124B1D
:1009C0009A421BD122006632538811881B040B43C4
:1009D0000E4A1B021B0A934212D08223E25A0C4B8E
:1009E00082349C466088000410430002000A604480
:1009F000431E9841C0B270BD0320FCE70220FAE715
:100A00000020F8E72E02000055AA000046415400DD
:100A1000BABEABFFF0B5C646C66A04000D0000B50D
:100A20008E4235D0070003793037002B0BD10123DC
:100A30002A0039006078FFF78FFD002826D1E56293
:100A400080BCB846F0BD0123320039004078FFF782
:100A50009DFD00281AD1226AA3692071B21A9A4218
:100A6000E5D2E2789046012A01D8E0E7A369F618BA
:100A70003200012339006078FFF788FD01235B42D3
:100A80009C46E0444346012BF0D1D0E70120D7E754
:100A90000020D5E7F0B54546DE4657464E460023D2
:100AA000E0B50C68150083B00360002C00D1C4E0F1
:100AB0002378303B082B00D8B6E0C84B1C68002CCC
:100AC00000D11DE123780460002B0FD06078FFF780
:100AD00041FDC3070AD4002D00D10DE104231E00FF
:100AE0000640034200D1FFE00A26FDE0002300207B
:100AF0002380FFF71BFDC30700D5FFE0002D01D0C9
:100B00004307F1D400212000FFF744FF060001282D
:100B100000D194E0032800D13AE10025002800D05C
:100B2000E1E022003B321178537880221B029200D0
:100B30000B43934200D0D6E04623E65A002E00D164
:100B4000666D4023A661E25C531EE270012B00D962
:100B5000C9E03D23E75CA770002F00D1C3E07B1EF6
:100B60001F4200D0BFE04123E15C230041335B78AA
:100B70001B020B43984623811B0700D0B3E043239D
:100B8000E15C230043335B781B020B4300D1236DF0
:100B9000E18F8B46002900D1A5E07243110001923C
:100BA00042468A4612095A449244534500D29AE07A
:100BB00052469B1A99463900180008F06BFAB9455D
:100BC00000D290E0864B984200D8E3E0854B9842F3
:100BD00000D821E15B46EB1823625346EB18A36271
:100BE000434602306061E561002B7CD1E36D8000FB
:100BF00063627D4B9C466044400A864273D3012366
:100C00005B422361E36081336371203BE35A012B34
:100C100000D182E00323754A237013880026013334
:100C20009BB21380E3805FE062783A2A00D044E709
:100C300002340C60002B00D13FE70B2654E0F9236F
:100C40005B00E35C0027002B0CD0FB235B00E1186A
:100C5000E25C4B788F781B021A43CB783F04174332
:100C60001B061F43624B0025E35C002B0BD0614B3E
:100C7000E2185178E55C090293782943D5781B0482
:100C800019432D060D4300225B4B9046E35C002B7D
:100C90000CD05A4BE0184278E15C12028378114381
:100CA000C2781B040B4312061A4390460022544B91
:100CB0009146E35C002B0CD0524BE0184278E15C8B
:100CC000120283781143C2781B040B4312061A43A5
:100CD0009146002F45D1002D4BD14346002B4FD1DB
:100CE0004B46002B0ED10D26300003B0F0BCBB46A6
:100CF000B246A946A046F0BD0026F5E70326F3E775
:100D00000C26F1E749462000FFF744FE4D46002837
:100D100000D106E70328E7D0E5E72000691CFFF7CC
:100D200079FE002800D075E743466371364BE25ADE
:100D3000364B9A4200D06DE7354B226B9A4200D079
:100D400068E785229200334BA2589A4200D061E7AF
:100D5000862387229B009200E358A2582361E26019
:100D600058E739002000FFF715FE0028B3D13D00F9
:100D7000D7E629002000FFF70DFE0028ADD1D0E610
:100D800041462000FFF706FE45460028A8D1C8E6E8
:100D90000126A9E75B464146EB18821CE5615544F4
:100DA00062612362A56200299DD0019950008C46A2
:100DB000634463620123801840081A4080180A4A7D
:100DC00094466044400A864200D28CE70122524297
:100DD0002261E260813262711DE7C046580800203E
:100DE000F50F0000F5FF0000FF01000062C60220C1
:100DF00002020000060200001202000016020000BB
:100E000022020000260200002E02000055AA000067
:100E100052526141727241615B464246EB180230A8
:100E2000E561554460612362A562002A00D15AE75A
:100E3000019A40009446634463620223BFE7C046C0
:100E4000F0B5C646077804000D0000B5022F08D0A3
:100E5000032F3FD0012F17D00120404280BCB8465D
:100E6000F0BD036A090A9C466144FFF7D3FD0028E0
:100E7000F2D1FF216D0049000D40641930346378D0
:100E800020781B021843E9E7036A4E089C4676184F
:100E9000710A6144FFF7BEFD0028DDD1F305DB0DCB
:100EA000E31830331B7801369846236A710A9C4652
:100EB00020006144FFF7AEFD0028CDD14346F60582
:100EC000F60DA41930342078000218432F421FD0A9
:100ED0000009C3E7036AC9099C466144FFF79AFD0C
:100EE0000028B9D1FE21AD0049000D402B00303360
:100EF000E318D8789A786419120400063034104345
:100F00005B7822781B021043184300010009A5E713
:100F10000005000DA2E7C046F8B54E46DE4657462E
:100F200045469B468468C368E0B51B1B06000F005E
:100F30009946934200D991464B46002B00D190E050
:100F40002200D305DD0D002B41D13368500A99787A
:100F50004C1E0440E4B2002C00D184E070695A6950
:100F60000238023A904200D38CE0996A9A788C4613
:100F700050436044002800D184E080468021A04492
:100F80008900894500D386E0B26990451AD03500C2
:100F90004024B17928350C420BD058782900012320
:100FA000FFF7F4FA002800D0A0E0B379A343B371AF
:100FB00033685878424601232900FFF7CDFA00280C
:100FC00000D093E04346B361B368DD05ED0D8023A7
:100FD0009B00591B494500D9494602242B00A446D1
:100FE0002933F3180634FB1A9C459B41A446481E3E
:100FF0002A008445A44128325B426442B2181C4254
:1010000000D177E03B0013439B0700D072E0002340
:101010008C08A400D558FD500433A342FAD1032311
:101020000C009C4323001219C01A3C198B4209D0B2
:1010300013782370002805D053786370012801D0FD
:101040009378A370B3685846CA185B461B68B260B1
:101050005B1803604B465B1A99467F18002B00D043
:101060006FE7002011E0002A32D13069012809D948
:10107000431C3BD0336870615A690238023A90428F
:1010800000D272E702230220F371F0BCBB46B246E5
:10109000A946A046F8BD4946490A8A4661188A42CF
:1010A00001D2121B92465246D2B258783900130030
:1010B0004246FFF751FA002818D1B3795B0604D5F0
:1010C0004246B3699B1A9A4530D853465902B9E74C
:1010D000726A9246002A14D171690129D2D95A69DB
:1010E0009142CFD21800FFF7ABFEBFE701230120EA
:1010F000F371CAE70023D05CF85401339942FAD166
:10110000A0E704235344984607F0C4FF53465B68A6
:10111000002BB7D0424604E00832C01A1368002BF7
:10112000B0D09842F8D25368C0189FE7310032001F
:1011300002205B02FB1829312832591A88420BD24F
:1011400019001143890707D151595951802104359C
:1011500089008D42F8D1B8E7515D5955802101359C
:1011600089008D42F8D1B0E7F8B54746CE460678FB
:1011700004000D00904680B5022E0BD0032E45D002
:101180000227012E1AD0012338002371C0BCB946B2
:10119000B046F8BD036A090A9C466144FFF73AFC71
:1011A000071EF0D16B00FF2542466D002B40E3186F
:1011B00030331A7092B2120A5A70E4E74B0899461B
:1011C00089444B46590A036A9C466144FFF722FC56
:1011D000071ED8D14B46DB05DB0DE31830332E421A
:1011E00033D00F2219784D461140424612010A436E
:1011F0001A70236A01359C46690A200026716144F1
:10120000FFF708FC00283DD00700BCE7036AC909C6
:101210009C466144FFF7FEFB071EB4D1FE21AD00E2
:1012200049000D402B0041463033E318DA78651948
:10123000120912070A4391B2090A30352A7059700F
:10124000110C120E9970DA709DE742461A704D46E5
:10125000236A01359C46690A200026716144FFF724
:10126000D9FB0028D0D1ED05ED0D65192B004246C4
:101270000F2130331B78120A8B430A401A43303552
:101280002A7080E74346ED05ED0D1A09D2B26519C3
:10129000F5E7C046F8B503790400002B0BD123789D
:1012A000032B29D0002200216078FFF783F9431E29
:1012B0009841C0B2F8BD0700C56A303701232A0043
:1012C00039004078FFF762F900283AD1226AA36911
:1012D0002071AA1A9A42E2D2E678012E01D8DEE7FE
:1012E000A369ED182A00012339006078013EFFF759
:1012F0004DF9012EF4D1D2E76379012BD2D125002B
:101300008022303500219200280008F09FFD0E4B0E
:101310000E4A2900E2520E4B0E4A236385239B009E
:10132000E25022690433E250E2680433E250E36998
:1013300060785A1CE2620123FFF728F900236371E9
:10134000B0E70120B6E7C0462E02000055AAFFFF15
:101350005252614172724161F0B54E464546DE46D9
:101360005746E0B58946050083B000291ED1C768FD
:101370004369002F34D10137FF2252009346023ACD
:101380003C00924601349C421FD3012F00D891E0CB
:10139000022B1CD902242E78022E00D176E0032ED7
:1013A00057D0012E20D00124644211E001290ED033
:1013B000436999420BD2FFF743FD0400012806D987
:1013C0006B69834204D84F46D6E7012CE3D8012449
:1013D000200003B0F0BCBB46B246A946A046F0BD13
:1013E000BB42C9D80127C7E763089846A0444346D3
:1013F000590A2B6A28009C466144FFF70BFB002822
:10140000D1D14346DB05DB0DEB1830331B782800C8
:10141000019301239C46E0444346590A2B6A9C46AB
:101420006144FFF7F7FA0028BDD14146CB05DB0D3B
:10143000EB1830331B78019A1B02134326423BD032
:101440001B09002B3BD0012BC1D0A74232D06B69C6
:1014500098E72B6AE1099C4628006144FFF7DAFA15
:101460000028A0D15346A2001A401100303169185B
:10147000CB788878AA18303212781B060004034310
:1014800013434A78120213431B01D9E72B6A210A3E
:101490009C4628006144FFF7BDFA002800D082E78F
:1014A0005B4662001A40AA1830325178137809025C
:1014B0000B43C6E700248BE71B051B0DC1E76B69D7
:1014C000A34200D883E721002800134AFFF74CFE0F
:1014D000002803D0012800D165E778E74B46002BB0
:1014E0000DD0012B00D172E76B69994500D36EE7EF
:1014F000220049462800FFF737FE0028EAD12B6971
:10150000EC605A1C00D163E70122013B2B616B792F
:1015100013436B715CE7C046FFFFFF0FF0B5574602
:101520004546DE464E46E0B5856807000C0083B0B0
:10153000C180012D26D006687369AB4222D9002DE7
:1015400057D0B27812019046914200D291E0FF222A
:10155000520093469D4215D233789946022B00D112
:1015600095E0032B5AD0012B14D001200BE0756AB3
:10157000002D41D0B27812019046914200D278E01D
:10158000012DE4D1022003B0F0BCBB46B246A9460F
:10159000A046F0BD6B089A46AA445346590A336ADE
:1015A00030009C466144FFF735FA0028DDD15346F0
:1015B000DB05DB0DF31830331B783000019301237A
:1015C0009C46E2445346590A336A9C466144FFF7FD
:1015D00021FA0028C9D15146CB05DB0DF61830366B
:1015E0003378019A1B0213434A462A4263D01D09ED
:1015F00032E03278032ABAD00023FB603389A34259
:10160000C0D9726A2309944663443B610F210C40A0
:1016100030366401341900207C61B4E7336AE9098B
:101620009C4630006144FFF7F5F900289DD1FE2269
:10163000AB00520013401A003032B218D5789178BE
:10164000F31830331B782D0609040D431D435378DE
:101650001B021D432D012D09012D93D93E6873698D
:10166000AB4200D88EE74246A41AA4B2444500D348
:1016700070E7FD60023B023D9D421FD2B3785D439F
:10168000B36A9C46654423095D193D61BEE7336A30
:10169000290A9C4630006144FFF7BCF9002800D0BD
:1016A00063E75B466D001D407619303673783578F8
:1016B0001B021D43D0E71B051D0DCDE70025E2E70A
:1016C000F8B557464546DE464E46E0B50B78050070
:1016D0008A462F2B53D05C2B51D000245346AC604C
:1016E0001B781F2B54D95646AB6932782F2A01D06C
:1016F0005C2A01D10136F8E720221A705A709A70DC
:10170000DA701A715A719A71DA711A725A729A727F
:101710003278202A19D900218C46083188460221C6
:101720008A4603218B46711E894661469C462B00E2
:1017300000244546012798460B002F2A55D05C2AE5
:1017400053D02E2A2AD09D4206D80620F0BCBB4694
:10175000B246A946A046F8BD51B2002905DA59465D
:101760000C43B449803A8A5CE4B22221B24803E0D7
:1017700041780130002923D08A42F9D1E5E70123DD
:101780009C460024E2445346AC601B781F2BAAD829
:1017900000212800FFF7C2FE6C61D7E7082DD4D1E5
:1017A00008230B25A400E4B24A460137D25D202A63
:1017B000C3D842466346A846F619150004221DE028
:1017C00011004139192906D851460C43E4B261464B
:1017D000CA540133E8E7110061391929F7D801210A
:1017E000203A0C43E4B2D2B2F1E742461900A846CF
:1017F00063461500F6190029A7D000221978E529BB
:1018000001D1E03919704146082900D105E10321D1
:101810002140012901D10F310A430C210C40042C35
:1018200001D104390A4300212800DA72FFF776FE5D
:10183000002800D0F7E02C682F69B0463E00270052
:101840000823FC6A9A46B4420ED0302291463B7976
:10185000B944002B31D10123320049467878FEF794
:101860007BFE002859D1FE626A691478002C5FD093
:1018700050465346D17A08400B4261D0EC8801347F
:10188000A4B2002C54D02E69002E51D00F23234037
:1018900099460F23234242D02F684B465A013B0002
:1018A000EC803033FC6A9B186B61B442DCD0302290
:1018B00091463B79B944002BCDD001232200494603
:1018C0007878FEF763FE002827D13A6ABB69387141
:1018D000A21A9A42BFD2FA789346012ABBD93100A4
:1018E0002A004E465D468946934600E0BB69E418EF
:1018F0002200012331007878013DFEF747FE012DDB
:10190000F4D14B46B1461E00494601233200787897
:101910005D46FEF721FE0028A5D0012016E7E96804
:1019200001362F682E61002954D13B89A342B4D8D7
:10193000AB69DB7A04205B0700D507E7052005E7E4
:10194000AB691F78A74299D157785C78A74295D1A7
:101950009F789478A74291D1D778DC78A7428DD12F
:1019600017791C79A74289D157795C79A74285D12B
:1019700097799C79A74200D080E7D779DC79A74294
:1019800000D07BE7177A1C7AA74200D076E7577A17
:101990005C7AA74200D071E7977A9C7AA74200D080
:1019A0006CE7DC7A4646640700D5CFE6C906C5D5A4
:1019B000D17E907E0902014328680078032801D077
:1019C000A96092E6147D527D120222431204114353
:1019D000A9608AE6BB782209013B1A4200D05CE785
:1019E000012918D07B69994215D23800FFF728FAEF
:1019F000012810D9431C90D02F687B69984297D258
:101A0000E860023B023898420AD2BB785843BB6A6E
:101A1000C6182E6141E7022098E6A400E4B2FCE675
:101A200000262E6139E7AB69DB7A042800D08DE609
:101A300080E7C04684D2001074D20010F8B5454645
:101A4000DE4657464E464369E0B504000D00994214
:101A500000D398E0012914D9FF2326785B0099462A
:101A6000023B98460127022E00D175E0032E38D0A4
:101A7000012E08D00120F0BCBB46B246A946A046C4
:101A8000F8BD0220F7E76B089A46AA445346590A64
:101A9000236A20009C466144FEF7BCFF0028E9D180
:101AA0005346DB05DB0DE31830331B7820009B46E3
:101AB00001239C46E2445346590A236A9C466144EA
:101AC000FEF7A8FF0028D5D153465A46DB05DB0DAB
:101AD000E31830331B781B0213432E4255D01E09E6
:101AE0001CE0236AE9099C4620006144FEF792FF4E
:101AF0000028BFD14246AB0013401A003032A21872
:101B0000D6789178E31830331B78360609040E43F3
:101B10001E4353781B021E4336013609002E32D075
:101B2000012EAED06369AB42ABD900222900200060
:101B3000FFF71AFB00289ED123695A1C20D00133DD
:101B4000236163793B43637163699E421BD2350015
:101B50002678022E00D089E7236A290A9C462000B5
:101B60006144FEF757FF002800D083E74A466B0028
:101B70001340E31830335A781E7812021643CDE72B
:101B80006369B342E3D8002075E71E05360DC5E74B
:101B9000F0B5DE464E4657464546E0B5002185B0D5
:101BA0000600FFF7BBFC041E0AD0042800D107245E
:101BB000200005B0F0BCBB46B246A946A046F0BD29
:101BC0003369356898460F239A46EC6A44450ED02F
:101BD0002F002B793037002B59D101234246390091
:101BE0006878FEF7B9FC002842D14346EB6273697E
:101BF0001B78E52B01D0002B24D131693068FEF72A
:101C000009FF041ED4D120220021706908F01EF9BA
:101C10007369B26919001143890700D0F1E0511CC2
:101C2000591A022900D8ECE011681960516859600E
:101C3000117A1972517A5972927A9A720122336822
:101C40001A71B5E7F4880134A4B2002CAFD033691F
:101C50009846002BABD0574653462740234209D025
:101C600035687B012F003037FF18F4807761ACE7CF
:101C700001249DE701239C46E0444346F168356812
:101C80003361002928D12B89A342EAD88FE70123A9
:101C9000220039006878FEF779FC0028E8D12A6A2A
:101CA000AB692871A21A9A4297D2EA789146012A22
:101CB00093D932002E004D46914600E0B369E418F6
:101CC0002200012339007078013DFEF75FFC012DF1
:101CD000F4D135004E4680E7AB782209013B1A4229
:101CE000BFD1012921D06B6999421ED22800FFF78C
:101CF000A7F802000190012817D9431CB8D0356815
:101D00006B69984213D2023A0292023B019AF26046
:101D1000029A934200D885E0AB785A431300AA6A2E
:101D200090469844434633619BE7022440E72800ED
:101D3000F168FFF711FB031E019000D137E701287E
:101D4000F3D0013394D035682B79002B6DD1280066
:101D5000802200219200303008F078F8019B35682D
:101D60009A1E6B690292023B9A4200D390E01100E6
:101D7000A86AAA788046514388444146E962002A0D
:101D80003CD000230394BB464446B14698462F00FE
:101D9000012330372200390068782B71FEF7F6FBFB
:101DA000002800D064E72A6AAB692871A21A9A4217
:101DB0000ED2EE78012E01D80AE0AB69E4182200B9
:101DC000012339006878013EFEF7E0FB012EF4D1D3
:101DD0004B4647461D680137EB6A5C1CFBB29846D0
:101DE000AB78EC624345D2D84346A04642465F46B4
:101DF0004E46D31A98466B69039C023B4246EA6200
:101E000084E7117819705178597091789970D17868
:101E1000D970117919715179597191799971D17973
:101E2000D97105E7002398467CE7EB6A6878984605
:101E300030239B46AB44424659462F3BFEF7A6FB58
:101E4000002800D014E74246296AAB692871521A6B
:101E50009A421BD2EA789146012A17D942463100AC
:101E6000A0462E0014004D46B9465F468B4600E062
:101E7000B369E4182200012339007078013DFEF7B0
:101E800085FB012DF4D144464F465E4635685EE73A
:101E90000021AA78884670E700B583B00B1E019038
:101EA00000911AD00978303908290FD910490B68E8
:101EB000002B01D000201870019B002B15D00020B2
:101EC0000B601870012A0AD003B000BD58783A2878
:101ED000ECD1023300930029E8D00B20F4E7002274
:101EE000694601A8FEF7D6FDEEE700200B60EBE7A0
:101EF00058080020F0B54746CE4680B58DB00400A6
:101F000017000191002868D000231E2203603A4088
:101F100001A905A8FEF7BEFD051E05D028000DB0DD
:101F2000C0BCB946B046F0BD1F233B40984601995E
:101F300002AB05A80B93FFF7C3FB00280FD10A9E45
:101F4000002E00D19BE01C233B420FD01122F37ADC
:101F50001A4246D17B0700D48DE00825DEE71C231A
:101F60003B4201D004283ED00500D7E7F37ADA06D9
:101F700035D4BA0701D5DB0733D4082205983A4097
:101F800003D0424620231A439046C36A2662E36187
:101F90004346A3710023E371F37EB27E1B02134319
:101FA0000278032A05D1727D377D12023A4312046A
:101FB00013432361717F337FB27F09021943F37F9B
:101FC000120411431B060B43E36000232060A3604F
:101FD000A3616362C388A380A0E709259EE7042567
:101FE0009CE707259AE705A8FFF7D2FD424608239C
:101FF0001A4390460A9E0028B6D1FEF705FB83B22D
:102000001B0AF373030C33740023B073000E707457
:102010000598F77EF37233777377B377F377B27EF1
:1020200003783F021743032B05D1737D317D1B02DB
:102030000B431B041F430023B376F376337573758C
:1020400001330371002F9CD0012F1AD043699F42A6
:1020500017D2C36A39009946FFF7F0FC002883D1F4
:102060000598013F4946C760FEF7D4FC002800D020
:102070007AE7059885E73B07BFD4059885E70625ED
:102080004CE702254AE7C046F8B51D0000230400CE
:102090000E0017002B6000281ED00368002B1BD0F9
:1020A0001A78002A18D08288D9880920914200D055
:1020B000F8BD5878FEF74EFA0123034210D1E079BB
:1020C0000028F5D1A279134208D02B003A00310044
:1020D0002000FEF721FFEBE70920E9E70720E7E70B
:1020E0000320E5E7F8B5041E60D00368002B5DD03F
:1020F0001A78002A5AD0D98882880925914201D0BD
:102100002800F8BD5878FEF725FA01231D00054088
:1021100003424DD1A3799A0645D540261E420CD0E4
:1021200021002368A269587828310123FEF72EFA8E
:1021300000283FD1A379B343A371E1692068FEF77A
:1021400069FC071E01D00500DAE72022266AF37A2F
:102150001343F372E3683377A3891B0A7377E38928
:10216000B377E37BF3772369B3769AB21B0C120A39
:1021700033751B0AF2767375FEF746FA202283B296
:102180001B0AB075F375030C000E33767076B774C6
:10219000F774A37920689343A37101230371FFF7B8
:1021A00079F8002808D100232360A9E70925A7E7CB
:1021B0000325A5E70125A3E70500A1E710B5012147
:1021C0001620FEF7D3F801210920FEF7CFF80121F0
:1021D0001020FEF7CBF80D4901220D48FFF75CFEF9
:1021E0000C4B011E187003D00B4808F03FF810BDCF
:1021F0000A4807F099FF0A4B0A4A19001431FF31C7
:1022000008C20B338B42FBD1F1E7C046BCED001096
:102210004C48002069C60220C0ED0010F8ED001007
:102220002C110020806D002070B5254C2378522B96
:1022300000D070BD431EDBB20025062B31D9214BE7
:102240001871032829D9A022F021520059800820B2
:1022500000211A80FEF78AF800210920FEF786F88F
:102260003620FEF73BF901210920FEF77FF823789D
:1022700001210820522B1CD0FEF778F809200021FC
:10228000FEF774F80020FEF729F92800FEF726F97A
:1022900001210920FEF76AF8CBE7A021F0224900CE
:1022A000D4E7094A5B00D55C064B18710328F4D9C2
:1022B000C9E7FEF75BF800210920FEF757F8E4E7CD
:1022C00008040020FCC5022020EE001070B501219A
:1022D00082B005000F20FEF749F8FA204000FEF713
:1022E0001FF900210F20FEF741F8FA204000FEF709
:1022F00017F901210F20FEF739F8FA204000FEF708
:102300000FF96B469E1D0023002109203370FEF754
:102310002DF800210820FEF729F8DC20FEF7DEF872
:102320006B46DC1D220001233100F4480AF02CFF2B
:1023300001210920FEF71AF82378F14C002108202A
:102340002370522B01D100F000FCFEF70FF80021A2
:102350000920FEF70BF82120FEF7C0F80121092023
:10236000FEF704F800210820FEF700F800210920FC
:10237000FDF7FCFFC220FEF7B1F801210920FDF7AF
:10238000F5FF237801210820522B00D1D6E3FDF779
:10239000EDFF09200021FDF7E9FF0020FEF79EF880
:1023A0003320FEF79BF801210920FDF7DFFF002114
:1023B0000820FDF7DBFF00210920FDF7D7FFC5202E
:1023C000FEF78CF801210920FDF7D0FF23780121C9
:1023D0000820522B01D101F0E1F9FDF7C7FF0920D8
:1023E0000021FDF7C3FF0020FEF778F80020FEF77C
:1023F00075F801210920FDF7B9FF23780121082094
:10240000522B01D101F0C2F9FDF7B0FF09200021E4
:10241000FDF7ACFF0020FEF761F81E20FEF75EF826
:1024200001210920FDF7A2FF237801210820522B6A
:1024300001D101F0A3F9FDF799FF09200021FDF773
:1024400095FF0020FEF74AF88020FEF747F80121AB
:102450000920FDF78BFF00210820FDF787FF0021F1
:102460000920FDF783FFB120FEF738F8012109208C
:10247000FDF77CFF237801210820522B01D101F0C8
:1024800075F9FDF773FF09200021FDF76FFF0020AC
:10249000FEF724F8B020FEF721F801210920FDF70E
:1024A00065FF00210820FDF761FF00210920FDF7ED
:1024B0005DFF3620FEF712F801210920FDF756FFD7
:1024C000237801210820522B01D101F047F9FDF7B3
:1024D0004DFF09200021FDF749FF0020FDF7FEFF19
:1024E0002820FDF7FBFF01210920FDF73FFF002118
:1024F0000820FDF73BFF00210920FDF737FFE02012
:10250000FDF7ECFF01210920FDF730FF23780121C1
:102510000820522B01D101F019F9FDF727FF0920FE
:102520000021FDF723FF0020FDF7D8FF0020FDF775
:10253000D5FF01210920FDF719FF2378012108208B
:10254000522B01D101F0FAF8FDF710FF092000210C
:10255000FDF70CFF0020FDF7C1FF1320FDF7BEFFC4
:1025600001210920FDF702FF237801210820522BC9
:1025700001D101F0DBF8FDF7F9FE09200021FDF79C
:10258000F5FE0020FDF7AAFF1820FDF7A7FF0121A7
:102590000920FDF7EBFE237801210820522B01D101
:1025A00001F0BCF8FDF7E2FE09200021FDF7DEFE98
:1025B0000020FDF793FF0420FDF790FF0121092083
:1025C000FDF7D4FE237801210820522B01D101F020
:1025D0009DF8FDF7CBFE09200021FDF7C7FE002086
:1025E000FDF77CFF0F20FDF779FF01210920FDF7A2
:1025F000BDFE237801210820522B01D101F07EF885
:10260000FDF7B4FE09200021FDF7B0FE0020FDF724
:1026100065FF0620FDF762FF01210920FDF7A6FEF8
:10262000237801210820522B01D101F05FF8FDF73A
:102630009DFE09200021FDF799FE0020FDF74EFFC9
:102640003A20FDF74BFF01210920FDF78FFE23788B
:1026500001210820522B01D101F040F8FDF786FE40
:1026600009200021FDF782FE0020FDF737FF5620EC
:10267000FDF734FF01210920FDF778FE23780121C1
:102680000820522B01D101F021F8FDF76FFE09203F
:102690000021FDF76BFE0020FDF720FF4D20FDF728
:1026A0001DFF01210920FDF761FE2378012108208B
:1026B000522B01D101F002F8FDF758FE092000214C
:1026C000FDF754FE0020FDF709FF0320FDF706FF8C
:1026D00001210920FDF74AFE237801210820522B11
:1026E00001D100F0E3FFFDF741FE09200021FDF7D5
:1026F0003DFE0020FDF7F2FE04E0C046000004406D
:10270000080400200A20FDF7E9FE01210920FDF759
:102710002DFE237801210820522B01D100F0BEFFAD
:10272000FDF724FE09200021FDF720FE0020FDF723
:10273000D5FE0620FDF7D2FE01210920FDF716FE89
:10274000237801210820522B01D100F09FFFFDF7D3
:102750000DFE09200021FDF709FE0020FDF7BEFE59
:102760003020FDF7BBFE01210920FDF7FFFD237896
:1027700001210820522B01D100F080FFFDF7F6FD6A
:1027800009200021FDF7F2FD0020FDF7A7FE3E2005
:10279000FDF7A4FE01210920FDF7E8FD23780121C2
:1027A0000820522B01D100F061FFFDF7DFFD092069
:1027B0000021FDF7DBFD0020FDF790FE0F20FDF767
:1027C0008DFE01210920FDF7D1FD00210820FDF734
:1027D000CDFD00210920FDF7C9FDE120FDF77EFEBA
:1027E00001210920FDF7C2FD237801210820522B89
:1027F00001D100F033FFFDF7B9FD09200021FDF7FD
:10280000B5FD0020FDF76AFE0020FDF767FE0121FF
:102810000920FDF7ABFD237801210820522B01D1BF
:1028200000F014FFFDF7A2FD09200021FDF79EFD39
:102830000020FDF753FE1320FDF750FE0121092073
:10284000FDF794FD237801210820522B01D100F0DF
:10285000F5FEFDF78BFD09200021FDF787FD002027
:10286000FDF73CFE1820FDF739FE01210920FDF798
:102870007DFD237801210820522B01D100F0D6FEE6
:10288000FDF774FD09200021FDF770FD0020FDF724
:1028900025FE0120FDF722FE01210920FDF766FD3E
:1028A000237801210820522B01D100F0B7FEFDF75B
:1028B0005DFD09200021FDF759FD0020FDF70EFE0A
:1028C0001120FDF70BFE01210920FDF74FFD2378B4
:1028D00001210820522B01D100F098FEFDF746FDA2
:1028E00009200021FDF742FD0020FDF7F7FD06203D
:1028F000FDF7F4FD01210920FDF738FD23780121C2
:102900000820522B01D100F079FEFDF72FFD0920A0
:102910000021FDF72BFD0020FDF7E0FD3820FDF73D
:10292000DDFD01210920FDF721FD2378012108208B
:10293000522B01D100F05AFEFDF718FD09200021AD
:10294000FDF714FD0020FDF7C9FD3420FDF7C6FD9D
:1029500001210920FDF70AFD237801210820522BCF
:1029600001D100F03BFEFDF701FD09200021FDF73C
:10297000FDFC0020FDF7B2FD4D20FDF7AFFD01216C
:102980000920FDF7F3FC237801210820522B01D107
:1029900000F01CFEFDF7EAFC09200021FDF7E6FC33
:1029A0000020FDF79BFD0620FDF798FD0121092081
:1029B000FDF7DCFC237801210820522B01D100F027
:1029C000FDFDFDF7D3FC09200021FDF7CFFC002021
:1029D000FDF784FD0D20FDF781FD01210920FDF7A4
:1029E000C5FC237801210820522B01D100F0DEFD27
:1029F000FDF7BCFC09200021FDF7B8FC0020FDF725
:102A00006DFD0B20FDF76AFD01210920FDF7AEFCED
:102A1000237801210820522B01D100F0BFFDFDF7E2
:102A2000A5FC09200021FDF7A1FC0020FDF756FDC3
:102A30003120FDF753FD01210920FDF797FC237894
:102A400001210820522B01D100F0A0FDFDF78EFCE2
:102A500009200021FDF78AFC0020FDF73FFD37200B
:102A6000FDF73CFD01210920FDF780FC23780121C1
:102A70000820522B01D100F081FDFDF777FC0920E1
:102A80000021FDF773FC0020FDF728FD0F20FDF766
:102A900025FD01210920FDF769FC00210820FDF733
:102AA00065FC00210920FDF761FC3A20FDF716FDC9
:102AB00001210920FDF75AFC237801210820522B1F
:102AC00001D100F053FDFDF751FC09200021FDF775
:102AD0004DFC0020FDF702FD5520FDF7FFFC012114
:102AE0000920FDF743FC00210820FDF73FFC0021F1
:102AF0000920FDF73BFC1120FDF7F0FC0920012126
:102B0000FDF734FC7820FDF70BFD00210820FDF7D0
:102B10002DFC00210920FDF729FC2920FDF7DEFC12
:102B200001210920FDF722FC2378522B01D100F06E
:102B3000E6FC3220FDF7F4FC02B070BDFDF716FC98
:102B400000210920FDF712FC2AE4FDF70FFC00210B
:102B50000920FDF70BFC1120FDF7C0FC0121092025
:102B6000FDF704FC6420FDF7DBFC00210820FDF7E5
:102B7000FDFB00210920FDF7F9FB3620FDF7AEFC37
:102B800001210920FDF7F2FB237801210820522BB7
:102B900001D100F06EFFFDF7E9FB09200021FDF7F0
:102BA000E5FB0020FDF79AFC0020FDF797FC0121D2
:102BB0000920FDF7DBFB00210820FDF7D7FB0021F2
:102BC0000920FDF7D3FB3A20FDF788FC01210920FD
:102BD000FDF7CCFB237801210820522B01D100F016
:102BE00040FFFDF7C3FB09200021FDF7BFFB0020DC
:102BF000FDF774FC5520FDF771FC01210920FDF75C
:102C0000B5FB00210820FDF7B1FB00210920FDF7ED
:102C1000ADFBB220FDF762FC01210920FDF7A6FB08
:102C2000237801210820522B01D100F012FFFDF77B
:102C30009DFB09200021FDF799FB0020FDF74EFCCC
:102C40000C20FDF74BFC01210920FDF78FFB2378B9
:102C500001210820522B01D100F0F3FEFDF786FB85
:102C600009200021FDF782FB0020FDF737FC0C2036
:102C7000FDF734FC01210920FDF778FB23780121C1
:102C80000820522B01D100F0D4FEFDF76FFB092084
:102C90000021FDF76BFB0020FDF720FC0020FDF775
:102CA0001DFC01210920FDF761FB2378012108208B
:102CB000522B01D100F0B5FEFDF758FB0920002191
:102CC000FDF754FB0020FDF709FC3320FDF706FC5F
:102CD00001210920FDF74AFB237801210820522B0E
:102CE00001D100F096FEFDF741FB09200021FDF720
:102CF0003DFB0020FDF7F2FB3320FDF7EFFB012148
:102D00000920FDF733FB00210820FDF72FFB0021F0
:102D10000920FDF72BFBB720FDF7E0FB012109207F
:102D2000FDF724FB237801210820522B01D100F06C
:102D300068FEFDF71BFB09200021FDF717FB0020B3
:102D4000FDF7CCFB3520FDF7C9FB01210920FDF77C
:102D50000DFB00210820FDF709FB00210920FDF7EC
:102D600005FBBB20FDF7BAFB01210920FDF7FEFAA8
:102D7000237801210820522B01D100F03AFEFDF703
:102D8000F5FA09200021FDF7F1FA0020FDF7A6FB76
:102D90002820FDF7A3FB01210920FDF7E7FA002118
:102DA0000820FDF7E3FA00210920FDF7DFFAC02033
:102DB000FDF794FB01210920FDF7D8FA23780121C2
:102DC0000820522B01D100F00CFEFDF7CFFA0920AC
:102DD0000021FDF7CBFA0020FDF780FB3C20FDF73A
:102DE0007DFB01210920FDF7C1FA00210820FDF734
:102DF000BDFA00210920FDF7B9FAC220FDF76EFBEC
:102E000001210920FDF7B2FA237801210820522B75
:102E100001D100F0DEFDFDF7A9FA09200021FDF740
:102E2000A5FA0020FDF75AFB0120FDF757FB012111
:102E30000920FDF79BFA00210820FDF797FA0021F1
:102E40000920FDF793FAC320FDF748FB0121092073
:102E5000FDF78CFA237801210820522B01D100F0D4
:102E6000B0FDFDF783FA09200021FDF77FFA00206D
:102E7000FDF734FB0B20FDF731FB01210920FDF7A5
:102E800075FA00210820FDF771FA00210920FDF7ED
:102E90006DFAC420FDF722FB01210920FDF766FA37
:102EA000237801210820522B01D100F082FDFDF78B
:102EB0005DFA09200021FDF759FA0020FDF70EFB0D
:102EC0002020FDF70BFB01210920FDF74FFA00211F
:102ED0000820FDF74BFA00210920FDF747FAC6202C
:102EE000FDF7FCFA01210920FDF740FA23780121C2
:102EF0000820522B01D100F054FDFDF737FA0920CC
:102F00000021FDF733FA0020FDF7E8FA0F20FDF766
:102F1000E5FA01210920FDF729FA00210820FDF733
:102F200025FA00210920FDF721FAD020FDF7D6FA75
:102F300001210920FDF71AFA237801210820522BDC
:102F400001D100F026FDFDF711FA09200021FDF75F
:102F50000DFA0020FDF7C2FAA420FDF7BFFA012107
:102F60000920FDF703FA237801210820522B01D113
:102F700000F007FDFDF7FAF909200021FDF7F6F949
:102F80000020FDF7ABFAA120FDF7A8FA01210920E6
:102F9000FDF7ECF900210820FDF7E8F900210920F0
:102FA000FDF7E4F9E020FDF799FA01210920FDF78A
:102FB000DDF9237801210820522B01D100F0D9FC42
:102FC000FDF7D4F909200021FDF7D0F90020FDF725
:102FD00085FAD020FDF782FA01210920FDF7C6F914
:102FE000237801210820522B01D100F0BAFCFDF713
:102FF000BDF909200021FDF7B9F90020FDF76EFAAF
:103000000120FDF76BFA01210920FDF7AFF92378C4
:1030100001210820522B01D100F09BFCFDF7A6F9FD
:1030200009200021FDF7A2F90020FDF757FA08203A
:10303000FDF754FA01210920FDF798F923780121C1
:103040000820522B01D100F07CFCFDF78FF90920FC
:103050000021FDF78BF90020FDF740FA0F20FDF766
:103060003DFA01210920FDF781F92378012108208B
:10307000522B01D100F05DFCFDF778F90920002109
:10308000FDF774F90020FDF729FA1120FDF726FA63
:1030900001210920FDF76AF9237801210820522B2C
:1030A00001D100F03EFCFDF761F909200021FDF798
:1030B0005DF90020FDF712FA2A20FDF70FFA012131
:1030C0000920FDF753F9237801210820522B01D163
:1030D00000F01FFCFDF74AF909200021FDF746F931
:1030E0000020FDF7FBF93620FDF7F8F90121092052
:1030F000FDF73CF9237801210820522B01D100F083
:1031000000FCFDF733F909200021FDF72FF900201D
:10311000FDF7E4F95520FDF7E1F901210920FDF75C
:1031200025F9237801210820522B00D1E2E3FDF795
:103130001DF909200021FDF719F90020FDF7CEF94E
:103140004420FDF7CBF901210920FDF70FF9237881
:1031500001210820522B00D1C5E3FDF707F9092012
:103160000021FDF703F90020FDF7B8F93A20FDF73B
:10317000B5F901210920FDF7F9F82378012108208C
:10318000522B00D1A8E3FDF7F1F809200021FDF74B
:10319000EDF80020FDF7A2F90B20FDF79FF90121C2
:1031A0000920FDF7E3F8237801210820522B00D1F4
:1031B00086E3FDF7DBF809200021FDF7D7F80020B2
:1031C000FDF78CF90620FDF789F901210920FDF7AB
:1031D000CDF8237801210820522B00D169E3FDF7B7
:1031E000C5F809200021FDF7C1F80020FDF776F9A8
:1031F0001120FDF773F901210920FDF7B7F82378B5
:1032000001210820522B00D14CE3FDF7AFF8092033
:103210000021FDF7ABF80020FDF760F92020FDF755
:103220005DF901210920FDF7A1F800210820FDF733
:103230009DF800210920FDF799F8E120FDF74EF9EE
:1032400001210920FDF792F8237801210820522B53
:1032500000D120E3FDF78AF809200021FDF786F868
:103260000020FDF73BF9D020FDF738F901210920B6
:10327000FDF77CF8237801210820522B00D103E3CD
:10328000FDF774F809200021FDF770F80020FDF724
:1032900025F90220FDF722F901210920FDF766F842
:1032A000237801210820522B00D1E6E2FDF75EF8D9
:1032B00009200021FDF75AF80020FDF70FF907203B
:1032C000FDF70CF901210920FDF750F823780121C1
:1032D0000820522B00D1C9E2FDF748F8092000214F
:1032E000FDF744F80020FDF7F9F80A20FDF7F6F89D
:1032F00001210920FDF73AF8237801210820522BFB
:1033000000D1ACE2FDF732F809200021FDF72EF8DC
:103310000020FDF7E3F80B20FDF7E0F8012109207C
:10332000FDF724F8237801210820522B00D18FE2E9
:10333000FDF71CF809200021FDF718F80020FDF723
:10334000CDF81820FDF7CAF801210920FDF70EF885
:10335000237801210820522B00D172E2FDF706F8F4
:1033600009200021FDF702F80020FDF7B7F834200E
:10337000FDF7B4F801210920FCF7F8FF23780121BB
:103380000820522B00D155E2FCF7F0FF0920002164
:10339000FCF7ECFF0020FDF7A1F84320FDF79EF8B5
:1033A00001210920FCF7E2FF237801210820522B9C
:1033B00000D138E2FCF7DAFF09200021FCF7D6FF44
:1033C0000020FDF78BF84A20FDF788F8012109203D
:1033D000FCF7CCFF237801210820522B00D11BE2FF
:1033E000FCF7C4FF09200021FCF7C0FF0020FDF717
:1033F00075F82B20FDF772F801210920FCF7B6FFC4
:10340000237801210820522B00D1FEE1FCF7AEFF0A
:1034100009200021FCF7AAFF0020FDF75FF81B2020
:10342000FDF75CF801210920FCF7A0FF23780121BA
:103430000820522B00D1E1E1FCF798FF0920002180
:10344000FCF794FF0020FDF749F81C20FDF746F833
:1034500001210920FCF78AFF237801210820522B43
:1034600000D1C4E1FCF782FF09200021FCF77EFFB8
:103470000020FDF733F82220FDF730F80121092064
:10348000FCF774FF237801210820522B00D1A7E11B
:10349000FCF76CFF09200021FCF768FF0020FDF716
:1034A0001DF81F20FDF71AF801210920FCF75EFF27
:1034B00000210820FCF75AFF00210920FCF756FFE5
:1034C0005520FDF70BF801210920FCF74FFF237869
:1034D00001210820522B00D17BE1FCF747FF092096
:1034E0000021FCF743FF0020FCF7F8FFB020FCF7B9
:1034F000F5FF01210920FCF739FFFFF706FB6B1EE2
:10350000DBB20026062B00D854E1F14B1D71032DD0
:1035100000D84BE1A022F021520059800820002160
:103520001A80FCF723FF00210920FCF71FFF36203B
:10353000FCF7D4FF01210920FCF718FF23780121B3
:103540000820522B00D13DE1FCF710FF092000219B
:10355000FCF70CFF0020FCF7C1FF3000FCF7BEFFBA
:1035600001210920FCF702FFFFF7E3FAFCF7FEFE5A
:1035700000210920FCF7FAFEFFF7AEFAFCF7F6FE91
:1035800000210920FCF7F2FEFFF780FAFCF7EEFEBF
:1035900000210920FCF7EAFEFFF761FAFCF7E6FEDE
:1035A00000210920FCF7E2FEFFF742FAFCF7DEFEFD
:1035B00000210920FCF7DAFEFFF723FAFCF7D6FE1C
:1035C00000210920FCF7D2FEFFF704FAFCF7CEFE3B
:1035D00000210920FCF7CAFEFFF7E5F9FCF7C6FE5B
:1035E00000210920FCF7C2FEFFF7C6F9FCF7BEFE7A
:1035F00000210920FCF7BAFEFFF7A7F9FCF7B6FE99
:1036000000210920FCF7B2FEFFF788F9FCF7AEFEB7
:1036100000210920FCF7AAFEFFF769F9FCF7A6FED6
:1036200000210920FCF7A2FEFFF74AF9FCF79EFEF5
:1036300000210920FCF79AFEFFF72BF9FCF796FE14
:1036400000210920FCF792FEFFF70CF9FCF78EFE33
:1036500000210920FCF78AFEFFF7EDF8FCF786FE53
:1036600000210920FCF782FEFFF7CEF8FCF77EFE72
:1036700000210920FCF77AFEFFF7A0F8FCF776FEA0
:1036800000210920FCF772FEFFF781F8FCF76EFEBF
:1036900000210920FCF76AFEFFF762F8FCF766FEDE
:1036A00000210920FCF762FEFFF743F8FCF75EFEFD
:1036B00000210920FCF75AFEFFF724F8FCF756FE1C
:1036C00000210920FCF752FEFEF7FFFFFCF74EFE3B
:1036D00000210920FCF74AFEFEF7E0FFFCF746FE5A
:1036E00000210920FCF742FEFEF7C1FFFCF73EFE79
:1036F00000210920FCF73AFEFEF7A2FFFCF736FE98
:1037000000210920FCF732FEFEF783FFFCF72EFEB6
:1037100000210920FCF72AFEFEF764FFFCF726FED5
:1037200000210920FCF722FEFEF745FFFCF71EFEF4
:1037300000210920FCF71AFEFEF726FFFCF716FE13
:1037400000210920FCF712FEFEF707FFFCF70EFE32
:1037500000210920FCF70AFEFEF7E8FEFCF706FE52
:1037600000210920FCF702FEFEF7BAFEFCF7FEFD81
:1037700000210920FCF7FAFDFEF78CFEFCF7F6FDB0
:1037800000210920FCF7F2FDFEF75EFEFCF7EEFDDE
:1037900000210920FCF7EAFDFEF73FFEFCF7E6FDFD
:1037A00000210920FCF7E2FDFEF720FEA021F02217
:1037B0004900B2E6474A5B00D65C454B1D71032DBC
:1037C000F4D9A7E6FCF7D2FD00210920FCF7CEFDD5
:1037D000C3E6FCF7CBFD00210920FCF7C7FD85E619
:1037E000FCF7C4FD00210920FCF7C0FD59E6FCF7F9
:1037F000BDFD00210920FCF7B9FD3CE6FCF7B6FD54
:1038000000210920FCF7B2FD1FE6FCF7AFFD002107
:103810000920FCF7ABFD02E6FCF7A8FD002109201A
:10382000FCF7A4FDE5E5FCF7A1FD00210920FCF76C
:103830009DFDC8E5FCF79AFD00210920FCF796FDE7
:10384000ABE5FCF793FD00210920FCF78FFD8EE529
:10385000FCF78CFD00210920FCF788FD71E5FCF7E1
:1038600085FD00210920FCF781FD54E5FCF77EFD74
:1038700000210920FCF77AFD37E5FCF777FD0021F0
:103880000920FCF773FD1AE5FCF770FD0021092003
:10389000FCF76CFDFDE4FCF769FD00210920FCF755
:1038A00065FDE0E4FCF762FD00210920FCF75EFD08
:1038B000B4E4FCF75BFD00210920FCF757FD97E419
:1038C000FCF754FD00210920FCF750FD7AE4C046C6
:1038D000FCC5022020EE0010FCF748FD0021092065
:1038E000FCF744FD58E4FCF741FD00210920FCF7FA
:1038F0003DFD3BE4FCF73AFD00210920FCF736FDD5
:103900001EE4FCF733FD00210920FCF72FFDFFF733
:1039100001FCFCF72BFD00210920FCF727FDFFF738
:10392000E2FBFCF723FD00210920FCF71FFDFFF758
:10393000C3FBFCF71BFD00210920FCF717FDFFF777
:10394000A4FBFCF713FD00210920FCF70FFDFFF796
:1039500085FBFCF70BFD00210920FCF707FDFFF7B5
:1039600066FBFCF703FD00210920FCF7FFFCFFF7D5
:1039700047FBFCF7FBFC00210920FCF7F7FCFFF7F5
:1039800028FBFCF7F3FC00210920FCF7EFFCFFF714
:10399000FAFAFCF7EBFC00210920FCF7E7FCFFF743
:1039A000DBFAFCF7E3FC00210920FCF7DFFCFFF762
:1039B000ADFAFCF7DBFC00210920FCF7D7FCFFF790
:1039C0007FFAFCF7D3FC00210920FCF7CFFCFFF7BE
:1039D00051FAFCF7CBFC00210920FCF7C7FCFFF7EC
:1039E00023FAFCF7C3FC00210920FCF7BFFCFFF71A
:1039F000F5F9FCF7BBFC00210920FCF7B7FCFFF749
:103A0000C7F9FCF7B3FC00210920FCF7AFFCFFF776
:103A100099F9FCF7ABFC00210920FCF7A7FCFFF7A4
:103A20006BF9FCF7A3FC00210920FCF79FFCFFF7D2
:103A30004CF9FCF79BFC00210920FCF797FCFFF7F1
:103A40002DF9FCF793FC00210920FCF78FFCFFF710
:103A50000EF9FCF78BFC00210920FCF787FCFFF72F
:103A6000EFF8FCF783FC00210920FCF77FFCFFF74F
:103A7000C1F8FCF77BFC00210920FCF777FCFFF77D
:103A800093F8C046F8B5CE464746804680B5082034
:103A90000F0000211C001500FCF768FC0021092024
:103AA000FCF764FC2A20FCF719FD01210920FCF732
:103AB0005DFC43468A4E1B0A994633780121082053
:103AC000522B00D1D4E0FCF751FC09200021FCF777
:103AD0004DFC0020FCF702FD4B46D8B2FCF7FEFC83
:103AE00001210920FCF742FC337801210820522BE8
:103AF00000D1EEE0FCF73AFC09200021FCF736FC8F
:103B00000020FCF7EBFC4346D8B2FCF7E7FC013D94
:103B100001210920FCF72AFC2B1298463378012159
:103B20000820522B00D1CDE0FCF720FC0920002119
:103B3000FCF71CFC4346180EFCF7D0FC4346D8B2F9
:103B4000FCF7CCFC01210920FCF710FC33780121A3
:103B50000820ADB2522B00D1ADE0FCF707FC0920E4
:103B60000021FCF703FC0020FCF7B8FCE8B2FCF7EE
:103B7000B5FC01210920FCF7F9FB00210820FCF726
:103B8000F5FB00210920FCF7F1FB2B20FCF7A6FC3C
:103B900001210920FCF7EAFB3378012108203D0AC6
:103BA000522B00D180E0FCF7E1FB09200021FCF75B
:103BB000DDFB0020FCF792FCE8B2FCF78FFC012152
:103BC0000920FCF7D3FB337801210820522B64D065
:103BD000FCF7CCFB09200021FCF7C8FB0020FCF718
:103BE0007DFCF8B2FCF77AFC01210920FCF7BEFB52
:103BF0003378013C012108202512522B46D0FCF7D6
:103C0000B5FB09200021FCF7B1FB280EFCF766FC90
:103C1000E8B2FCF763FC01210920FCF7A7FB33782D
:103C200001210820A4B2522B29D0FCF79FFB0920C8
:103C30000021FCF79BFB0020FCF750FCE0B2FCF7F6
:103C40004DFC01210920FCF791FB00210820FCF725
:103C50008DFB00210920FCF789FB2C20FCF73EFCA2
:103C600001210920FCF782FBC0BCB946B046F8BD73
:103C7000FCF77CFB00210920FCF778FB2CE7FCF724
:103C800075FB00210920FCF771FBD7E7FCF76EFB01
:103C900000210920FCF76AFBBAE7FCF767FB00216B
:103CA0000920FCF763FB9CE7FCF760FB002109207F
:103CB000FCF75CFB80E7FCF759FB00210920FCF7CF
:103CC00055FB53E7FCF752FB00210920FCF74EFBA4
:103CD00034E7FCF74BFB00210920FCF747FB12E718
:103CE00008040020F8B505000C0008200021FCF7AE
:103CF0003DFB00210920FCF739FB2A20FCF7EEFBF5
:103D000001210920FCF732FB864E0121337808207F
:103D10002F0A522B00D1CCE0FCF728FB0920002110
:103D2000FCF724FB0020FCF7D9FBF8B2FCF7D6FB2C
:103D300001210920FCF71AFB337801210820522BBE
:103D400000D1E7E0FCF712FB09200021FCF70EFB95
:103D50000020FCF7C3FBE8B2FCF7C0FB01210920FF
:103D6000FCF704FB3378013D012108202F12522B70
:103D700000D1C8E0FCF7FAFA09200021FCF7F6FAB6
:103D8000380EFCF7ABFBF8B2FCF7A8FB01210920C9
:103D9000FCF7ECFA337801210820ADB2522B00D1A8
:103DA000AAE0FCF7E3FA09200021FCF7DFFA002083
:103DB000FCF794FBE8B2FCF791FB01210920FCF72A
:103DC000D5FA00210820FCF7D1FA00210920FCF7E0
:103DD000CDFA2B20FCF782FB01210920FCF7C6FA63
:103DE000337801210820250A522B00D17DE0FCF711
:103DF000BDFA09200021FCF7B9FA0020FCF76EFBA0
:103E0000E8B2FCF76BFB01210920FCF7AFFA33782D
:103E100001210820522B61D0FCF7A8FA09200021CB
:103E2000FCF7A4FA0020FCF759FBE0B2FCF756FBC4
:103E300001210920FCF79AFA3378013C012108207E
:103E40002512522B43D0FCF791FA09200021FCF7F0
:103E50008DFA280EFCF742FBE8B2FCF73FFB01218C
:103E60000920FCF783FA337801210820A4B2522BF1
:103E700026D0FCF77BFA09200021FCF777FA002016
:103E8000FCF72CFBE0B2FCF729FB01210920FCF731
:103E90006DFA00210820FCF769FA00210920FCF7DF
:103EA00065FA2C20FCF71AFB01210920FCF75EFAC9
:103EB000F8BDFCF75BFA00210920FCF757FA34E75C
:103EC000FCF754FA00210920FCF750FADAE7FCF776
:103ED0004DFA00210920FCF749FABDE7FCF746FA44
:103EE00000210920FCF742FA9FE7FCF73FFA002186
:103EF0000920FCF73BFA83E7FCF738FA0021092098
:103F0000FCF734FA56E7FCF731FA00210920FCF7F8
:103F10002DFA38E7FCF72AFA00210920FCF726FAE7
:103F200019E7C04608040020104B10B514001A8889
:103F3000824202D35B888B4200D210BD0B0002008C
:103F4000FFF7A0FD01210820FCF710FA002109204D
:103F5000FCF70CFA200AFCF7C1FAE0B2FCF7BEFA53
:103F600001210920FCF702FAE7E7C046FCC5022060
:103F7000F0B5C64600B51C0006AB80460F00150024
:103F80001E88824201D98C4202D880BCB846F0BD5E
:103F90002300FFF777FD43460121ED1A0820E41BBB
:103FA000FCF7E4F9ADB200210920A4B26C43FCF7A0
:103FB000DDF90025370AF6B23800FCF78FFA013533
:103FC0003000FCF78BFAAC42F6D101210920FCF756
:103FD000CDF9DAE7F8B5144B04001D88002D02D0A6
:103FE0005E88002E00D1F8BD33002A000021002099
:103FF000FFF748FD01210820FCF7B8F9002109204E
:104000006E43FCF7B3F90025270AE4B23800FCF749
:1040100065FA01352000FCF761FAAE42F6D10121C4
:104020000920FCF7A3F9DEE7FCC50220F0B54E46F7
:104030004546DE4657461C00E0B5072687B001938B
:1040400010AB0391198811AB88461988049002912E
:10405000A188203A0E40731E9E41CB08F31816002B
:10406000E08846435E4323689C46059366440028E7
:1040700061D0039B013B9BB29A46324B9946002983
:1040800059D0049B0025581E534601339BB29B46D2
:1040900080B21CE080232341471C134229D04B46A9
:1040A0001A88BBB29A4209D34B465B885B4505D35D
:1040B0005146029AFFF738FF019B9988073C6342FB
:1040C0005C410135ADB23619B8B28D4221D2072418
:1040D0001D4B32782C409845DCD180232341471C6E
:1040E0001342EBD0174B1A889446BAB29445DCD2EF
:1040F000E4E74B461A88BBB29A42DFD34B465B8853
:104100005B45DBD351464246FFF70EFF019B998882
:10411000D4E74B0700D00136019B0398DA88534659
:104120001B1A02339BB29A4205D9534601339BB204
:104130009A460029A5D107B0F0BCBB46B246A946B5
:10414000A046F0BDFCC50220FFFF0000F0B55746B9
:104150004E464546DE46E0B50F001E00844614007C
:104160008FB00B9318AB1D8819ABA8460A921D7827
:10417000121A1AAB1B780291D11706955518F21B2B
:104180009946D3174D40D11859400891A44589410B
:10419000D3179A1A5A400592564A01905648114030
:1041A00084460A0002216244BC4608000992B445D4
:1041B000924108991040421E0C926A1A00214B4607
:1041C0008A46079504925D0052009BB2013D03921E
:1041D0000D93534601335BB29A46069B012B06D1E1
:1041E0000321504604F02EFF49B200294FD0434B23
:1041F000019A1B88934223D3404B029A5B889342D7
:104200001ED3002D1CDD0023019A99460D9BD21A66
:104210009346029AD71ABFB24E4600245E44B6B205
:10422000E11901344246300089B2A4B2FFF77CFEA6
:10423000A542F5DC4B4601339BB299469D42EBDC2F
:10424000059B039A934211DC0A9A019B9A424AD039
:10425000049A0899521A099904928C4663449BB2B5
:1042600001935300079A03939A42B2DB0B9A029B85
:104270009A4238D00799049A8C460C9962448C462D
:1042800063449BB20293530004920393A1E71B4B38
:10429000019A1B88934223D3184B029A5B8893425E
:1042A0001ED3002D1CDD0023019A99460D9BD21AC6
:1042B0009246029AD71ABFB24E4600245644B6B26E
:1042C000E11901340022300089B2A4B2FFF72CFEBC
:1042D000AC42F5DB4B4601339BB29946AB42EBDB7C
:1042E00000239A46ACE70FB0F0BCBB46B246A946E5
:1042F000A046F0BD0200FFFFFFFF0000FCC502204A
:10430000F0B54F464646D646C0B584B01F000CAB4C
:104310001B88140099460DAB1B7805009A462D4B5F
:104320000E001A889846904225D85B88994222D878
:10433000944210D853460293002301934B46220027
:1043400000930B00FFF702FF43461A88954212D8EC
:104350005B889E420FD89F420DD85346029300239C
:1043600001934B462A00009331003B002800FFF7E1
:10437000EDFE43461A88944226D843465B889F4206
:1043800022D89E4212D853460293002301934B46F3
:1043900022000093390033002000FFF7D7FE434688
:1043A0001A88944210D85B88BB420DD395420BD833
:1043B00053460293002301934B462A000093390091
:1043C0003B002000FFF7C2FE04B0E0BCBA46B14695
:1043D000A846F0BDFCC50220F0B583B008AC278824
:1043E00009AC26780AAC2478A4460C4C2588854272
:1043F0000BD364888C4208D3954206D39C4204D3E5
:10440000002E04D00097FFF7B3FD03B0F0BD644663
:1044100000970194FFF774FFF7E7C046FCC5022040
:10442000F0B557464E46DE464546E0B585B01F001E
:104430000EAB1B888A4603930FAB1B8881469B46B5
:104440001F4B160019889846814231D35888504531
:104450002ED31278002A2BD0BB8855469C464C465A
:104460001DE0FB88EB18834201DD55464C468C422B
:104470000CD885420AD85B460193039B2900009320
:1044800020003B00FFF7D2FDBB889C467278644455
:104490000136A4B2002A0BD04346198858886346D7
:1044A000E3188B42DDDDFB884C46ED18ADB2D9E751
:1044B00005B0F0BCBB46B246A946A046F0BDC0461A
:1044C000FCC50220F0B5C64600B5070084B03C49E3
:1044D0003C4808F021FC0E2301AD6B442E009846A9
:1044E00000211020FBF742FF3800FBF7F7FFC82040
:1044F000FCF71AF80020FCF703F884B20020FBF761
:10450000FFFF2402A4B20443A4B201211020E40856
:10451000FBF72CFF3480C8200236FCF705F846452F
:10452000DED12949274808F0F7FB2B886A88934297
:1045300001D92A806B802B88AA88934201D92A80CE
:10454000AB802B88EA88934201D92A80EB802B88A4
:104550002A89934231D86B88AA88934201D96A800C
:10456000AB806B88EA88934201D96A80EB806B88C4
:104570002A8993421ED8AB88EA88934201D9AA803F
:10458000EB80AB882A89934201D9AA802B812B89A1
:10459000EA889A4200D9EB80AB8868880321C0186A
:1045A000EB88C01880B204F075FD80B204B080BC06
:1045B000B846F0BD6A802B81DDE72B81CBE7C04692
:1045C000C0C62D000000044080F0FA02F8B5D020EB
:1045D000FFF778FF04009020FFF774FF06000A2021
:1045E000FBF7A2FFD020FFF76DFF05009020FFF73B
:1045F00069FF07000A20FBF797FFAC420CD22300AB
:1046000031330020AB4206DBBE420DD233003133E2
:104610000020BB4210DAF8BD2B003133A342F3DA9D
:104620000020AC42F7D1EAE73B003133B34203DA72
:104630000020BE42EFD1E9E7044B6419F61970106F
:104640006410D8809C800120E5E7C04608C602209F
:1046500000B52A4B83B01B78522B1BD0284B1A7EF7
:10466000062A0CD0002A21D1264A1A61264A5A610C
:10467000152252425A81123A9A8103B000BD234A50
:104680001A61234A5A61812292005A8116225242AB
:104690009A81F2E71A4B1F4A1A611F4A5A61642233
:1046A000FF325A81783AFF3A9A81E6E7032A0BD023
:1046B000052A13D1194A1A61194A5A61194A5A81AD
:1046C000142252429A81D8E7174A1A61174A5A614E
:1046D000162252425A81103A9A81CEE70020FFF703
:1046E00079FCF8231B020193114B3C21009300201D
:1046F000104B114AFFF794FEBFE7C04608040020A4
:1047000008C6022010B3B73DEA060A3E239F07BE43
:104710005950B83D6DABB9BDB6118F3D831808BE79
:104720007826B43D050200005B25B83DD05F083E09
:10473000FFFF0000F803002030EE001070B53A4C87
:1047400023885A1E062A38D801220025374B3848BC
:10475000384902701E78384A0D701570002E1ED030
:1047600000250D700121057011701D700720FDF7E7
:104770005BFD0021314A0020FCF712F80420FDF710
:1047800053FD0E23238070BD284B1A78002A47D191
:104790000121274B1970274B1A70274B1A700720DD
:1047A000FDF742FD0021264A0020FBF7F9FF042017
:1047B000FDF73AFD00232380E5E70E2BE4D01A0035
:1047C000083A052A19D801220025184B194918481A
:1047D0000A701E78184A05701570002EC0D1072087
:1047E000FDF722FD0021174A0020FBF7D9FF042026
:1047F000FDF71AFD07232380C5E7002BE3D00B4B01
:104800001A78002A0CD10A4B1B78002BC7D1094B10
:104810001B78002BE3D1084B1B78002BB3D0A5E706
:1048200003480449044A9BE70E04002073C6022093
:104830000C0400206EC602206FC602208CEE001011
:1048400074EE001080EE0010F0B5C64600B584B0DE
:104850000E280ED87E4B80001B589F460720FDF780
:10486000E3FC7C4A00210020FBF79AFF0420FDF7BF
:10487000DBFC04B080BCB846F0BD0720FDF7D4FCDB
:104880000021754A0020FBF78BFF0420FDF7CCFCCC
:10489000724B1C780720FDF7C7FC2200A221FA20EA
:1048A000FBF7F0FE0420FDF7BFFC00248C206C4DCC
:1048B0006C4F6D4E3A0041212B0040000194009650
:1048C000FFF7AEFD694B07201B789846FDF7ACFC5F
:1048D00042468821FA20FBF7D5FE0420FDF7A4FC10
:1048E0008C202B003A005A21019400964000FFF7DB
:1048F00097FD2B0075215E4A01940096E620FFF794
:104900008FFD012397229B21029301935200DB33F9
:10491000F5200094FFF760FD0720FDF785FC80205F
:1049200008222B214000FBF771FE0420FDF77CFCE0
:104930009FE70720FDF778FC4E4A93E70720FDF735
:1049400073FC00214C4A0020FBF72AFF0420FDF7EE
:104950006BFC4A4B9DE70720FDF766FC484A81E760
:104960000720FDF761FC0021464A0020FBF718FFF5
:104970000420FDF759FC394B07201C789846FDF7B9
:1049800053FC2200AE21FA20FBF77CFE0420FDF749
:104990004BFC00248C20324D324F334E3A003421F0
:1049A0002B00400001940096FFF73AFD43461B7828
:1049B00007209846FDF738FC42469621FA20FBF77F
:1049C00061FE0420FDF730FC8C203A004C212B00C6
:1049D000400001940096FFF723FD244B07201B782D
:1049E0009846FDF721FC42467C21FA20FBF74AFE5F
:1049F0000420FDF719FC8C202B003A00662101945D
:104A000000964000FFF70CFD2B007E21184A019410
:104A1000009673E70720FDF707FC1B4A22E70720F3
:104A2000FDF702FC194A1DE70720FDF7FDFB184AB8
:104A300018E70720FDF7F8FB164A13E70720FDF7F4
:104A4000F3FB154A0EE70720FDF7EEFB134A09E7D3
:104A50003CEF001030EF001098EE00100904002029
:104A600000040020A4EE0010FFFF00000A04002054
:104A7000A8EE0010B0EE0010BCEE00100B040020F9
:104A8000C8EE0010D4EE0010E0EE0010ECEE0010C6
:104A9000F8EE001004EF001014EF001024EF0010E7
:104AA00070B50D00160004000720FDF7BDFB3200B5
:104AB0002900E0B2FBF774FE0420FDF7B5FB70BDE2
:104AC00030B5040085B0012816D0032804D005288D
:104AD00000D197E005B030BDD64B1A8811001139CE
:104AE0003E2953D859889739472900D908E1D24B34
:104AF0001C78002CEED1B2E1CE4B1A88110011398E
:104B00003E2929D911005E393E2900D995E05B88FC
:104B1000973B472BDED8C94B1D78002DDAD10222F6
:104B20001A70C74B2D329B21FF32029001900093E7
:104B3000F520DC23FFF750FC0720FDF775FB8020F4
:104B400004222B214000FBF761FD0420FDF76CFBE4
:104B500002940194009543E059889739472900D978
:104B600083E0B64B1D78002D00D1A6E102F012FAC9
:104B7000B44904F08FFA04F06DFD02000B00B24955
:104B8000B2480A604B6005F071FBA3E711005E3983
:104B90003E2979D85B88973B472B9BD8A64B1C783E
:104BA000002C00D096E7022201251A70A44B2D326A
:104BB0009B21FF32F52000930295DC230195FFF73E
:104BC0000BFC0720FDF730FB802004222B21400046
:104BD000FBF71CFD0420FDF727FB029501950094CF
:104BE000DC239A229B216120FFF7F6FB0720FDF7CB
:104BF0001BFB06222B216B20FBF708FD0420FDF791
:104C000013FB67E78B4B1A88110011393E2900D935
:104C1000D4E059889739472900D81BE1F13A3F2A57
:104C200000D957E75B88973B472B00D952E7884B61
:104C30001A78002A00D14DE770E01100AB393A290B
:104C400013D85B88973B472B00D943E77B4B1D78F4
:104C5000002D00D03EE703221A70794B2C320093CE
:104C60000290DC230190FF3225E0F13A3F2A00D97F
:104C700030E75B88973B472B00D92BE76F4B1A78BF
:104C8000002A00D126E749E01100AB393A2937D88C
:104C90005B88973B472B00D91CE7674B1D78002D9D
:104CA00000D017E71870664B012497220093DC238D
:104CB0000294019452009B21F520FFF78DFB072001
:104CC000FDF7B2FA802004222B214000FBF79EFC66
:104CD0000420FDF7A9FA029401940095E522DC2353
:104CE0009B21AC20FFF778FB0720FDF79DFA0722F8
:104CF0002B21B620FBF78AFC0420FDF795FAE9E6A4
:104D0000F13A3F2A00D9E5E65B88973B472B00D96B
:104D1000E0E6494B1A78002A00D1DBE600220124A4
:104D20001A7000922F32DC239B21FF32F52002946F
:104D30000194FFF751FB0720FDF776FA8020082247
:104D40002B213F4D4000FBF761FC0420FDF76CFA7E
:104D5000DC234D229B211420029401940095FFF73F
:104D60003BFB0720FDF760FA01222B211E20FBF7F9
:104D70004DFC0420FDF758FADC239A229B21612088
:104D8000029401940095FFF727FB0720FDF74CFAEA
:104D900002222B216B20FBF739FC0420FDF744FA9B
:104DA000E522DC239B21AC20029401940095FFF7BF
:104DB00013FB0720FDF738FA032299E711005E394B
:104DC0003E290AD85B88973B472B00D982E6204BC7
:104DD0001C78002C00D07DE6E5E61100AB393A29BD
:104DE00000D91BE75B88973B472B00D972E6184B2D
:104DF0001C78002C00D06DE6032201251A70104BA0
:104E00002C329B21FF32F52000930295DC23019583
:104E1000FFF7E2FA0720FDF707FA802004222B2192
:104E20004000FBF7F3FB0420FDF7FEF90295019526
:104E3000009453E724C602206AC6022071C60220ED
:104E4000FFFF000040420F002805002078EF00100F
:104E500070C602202F4B1C78002C00D03AE60125AA
:104E600097221D702C4B9B2100935200DC23F520D0
:104E700002950195FFF7B0FA0720FDF7D5F98020DC
:104E800004222B214000FBF7C1FB0420FDF7CCF9E5
:104E9000DC234D229B211420029501950094FFF7FD
:104EA0009BFA0720FDF7C0F905222B211E20FBF7F6
:104EB000ADFB0420FDF7B8F90CE697221870164BED
:104EC0009B210290019000935200DC23F520FFF714
:104ED00083FA0720FDF7A8F9802004222B21400047
:104EE000FBF794FB0420FDF79FF9DC234D229B2167
:104EF0001420029401940095FFF76EFA0720FDF745
:104F000093F905222B211E20FBF780FB0420FDF7DF
:104F10008BF92BE670C60220FFFF0000F8B5CE46E5
:104F20004746112080B5FBF72BFA00286CD1FFF71C
:104F30004DFB002823D1BE4FBE4E3B883588984696
:104F4000BD4C237A7F2B03D8C02323726368236070
:104F5000454563D273887A889A425FD96A1E302A9F
:104F600000D990E0002B00D1BAE0312B00D98AE0C3
:104F7000B24A904612880E2A00D987E029E1B04B48
:104F8000AD4C1B78522B54D0237E032B00D125E14E
:104F9000002B4BD1A64F3B881800984604F0DEFE4C
:104FA000051CA08804F0DAFE216904F0D0FE011C83
:104FB000281C04F0B2FE051C0A23E05E04F0CEFEBD
:104FC000011C281C04F0A9FE04F0EAFE994E85B2EB
:104FD0003580788804F0C2FE8146E08804F0BEFE89
:104FE000616904F0B4FE011C484604F096FE814657
:104FF0000C23E05E04F0B2FE011C484604F08DFE76
:1050000004F0CEFE70809CE708218B4B5956187A2D
:10501000002907DB00221A60013A5A60C0BCB94679
:10502000B046F8BD7F2202401A72F7E7052B00D088
:1050300010E1E08804F092FE216904F088FE051C6E
:105040000A23E05E04F08AFE011C281C04F068FEBE
:1050500004F0A6FE774E85B23580A08804F07EFE6F
:10506000616904F074FE071C0C23E05E04F076FE18
:10507000011C381C04F054FE04F092FE6C4F70804A
:105080003B8898465DE76D4A9046128828000B38A9
:1050900081B2894655290FD8190035394E2900D9D2
:1050A00010E1002A08D10123424601201380FFF7B6
:1050B000CBFB43461A8838E02900733989B2572957
:1050C00018D81C00343C4F2C14D8002A12D10323CA
:1050D000424603201380FFF7B7FB43461A8824E0BB
:1050E000280029000B3882B29146544A7339904601
:1050F000128889B22C00723CA4B2582C1BD81F0015
:10510000963F4F2F17D8002A15D142460423072077
:105110001380FDF789F84B4A00210020FBF740FB84
:105120000420FDF781F843461A88D0B2FFF7C8FC87
:10513000454B336072E72F00DB3FBFB2572F12D8C9
:105140003420404284469C4460464F2800D9A6E063
:10515000002A08D10523424605201380FFF774FB7F
:1051600043461A88E1E7133DFF3DADB22D2D4BD9E3
:105170004846552807D8180035384E2800D9C1E0D0
:10518000072A00D1CEE0572906D8190034394F2913
:1051900002D8072A00D1D5E0582C06D81900963934
:1051A0004F2902D8072A00D1D4E0572F07D8190079
:1051B00034394F2900D995E0072A00D1BAE02D2DC6
:1051C000B3D8013B262BB0D80E2AAED10D234246D0
:1051D0001380FFF7B3FA43461A88A6E7A08804F0C5
:1051E000BDFD216904F0B3FD051C0A23E05E04F057
:1051F000B5FD011C281C04F093FD04F0D1FD0D4EFB
:1052000085B23580E08829E7002BC5D0272BAFD8A1
:10521000002A01D0072AABD101220C4B0C481A708E
:1052200004F082FFFFF78AFA43461A887DE7C046FA
:10523000FCC5022024C6022008C602200E0400205D
:1052400008040020C8EE0010A000010073C6022070
:1052500088EF0010434F3B881800984604F07EFD0D
:10526000051CE08804F07AFD216904F070FD011C42
:10527000281C04F052FD051C0A23E05E04F06EFDBC
:10528000011C281C04F049FD04F08AFD364E85B24D
:105290003580788804F062FD8146A0889EE69720DC
:1052A000404284469C4460464E2800D95BE7002A71
:1052B00000D058E74246062307201380FCF7B4FFCE
:1052C0002A4A29E7190096394F2900D9F4E6002A1D
:1052D00000D0F1E64246022307201380FCF7A4FF2A
:1052E000234A19E7190097394E2900D967E7072A99
:1052F00000D064E742460D2307201380FCF794FF9B
:105300001C4A09E7180096384F2800D93BE7072ABE
:1053100000D038E74246092307201380FCF784FFBA
:10532000154AF9E64246082307201380FCF77CFF64
:10533000124AF1E642460C2307201380FCF774FF63
:105340000F4AE9E642460A2307201380FCF76CFF68
:105350000C4AE1E642460B2307201380FCF764FF6A
:10536000094AD9E6FCC5022024C60220E0EE00105E
:10537000B0EE001030EF0010F8EE0010ECEE001070
:1053800024EF001004EF001014EF001070B50500BA
:1053900001211020FAF7EAFF054CD0202576FFF70F
:1053A00091F8A0809020FFF78DF8E08070BDC04696
:1053B00008C6022070B505000E0016200121FAF77C
:1053C000D5FFFF20FBF78AF800211620FAF7CEFF61
:1053D0001B4C02E0013C002C25D0FF20FBF77EF89F
:1053E000FF28F7D140202843FBF778F80020FBF78F
:1053F00075F80020FBF772F80020FBF76FF800202B
:10540000FBF76CF83000FBF769F80C2D14D0202462
:1054100003E0013CE4B2002C04D0FF20FBF75EF86F
:105420000306F6D470BD01211620FAF79FFFFF2076
:10543000FBF754F8FF20F5E7FF20FBF74FF8E6E70E
:10544000FFFFFF0010B5FBF749F810BD7047C046DD
:105450007047C04610B5074C02E0013C002C06D056
:10546000FF20FBF73BF8FF28F7D1002010BD0120FB
:10547000FCE7C046FFFFFF00F8B506000D00162050
:1054800001211700FAF772FFFF20FBF727F8002130
:105490001620FAF76BFF1D4C02E0013C002C27D0D0
:1054A000FF20FBF71BF8FF28F7D140203043FBF724
:1054B00015F8280EFBF712F8280CC0B2FBF70EF80F
:1054C000280AC0B2FBF70AF8E8B2FBF707F8380081
:1054D000FBF704F80C2E14D0202403E0013CE4B2C6
:1054E000002C04D0FF20FAF7F9FF0306F6D4F8BD2C
:1054F00001211620FAF73AFFFF20FAF7EFFFFF200D
:10550000F5E7FF20FAF7EAFFE6E7C046FFFFFF00F6
:1055100070B5012105000920FFF74CFF061E09D0D8
:1055200001211620FAF722FFFF20FAF7D7FF012604
:10553000300070BD114C03E0002CF1D0013CA4B24E
:10554000FF20FAF7CBFFFE28F6D1002CE8D02C0084
:105550001034FF20FAF7C2FF28700135AC42F8D1B1
:10556000FF20FAF7BBFFFF20FAF7B8FF0121162052
:10557000FAF7FCFEFF20FAF7B1FFD9E7FFFF0000C2
:1055800000B585B06846FFF7C3FF00282ED16B46F3
:105590003F221B789343402B1FD06B46187ADB7950
:1055A00080099B00C0186B46C0229B7912019B02A8
:1055B00013400130C0186B465A790F2313406A46D6
:1055C000927AD2099B186A46517A062249000A400B
:1055D0009B18073B984005B000BD6B46187A5B7A74
:1055E00000020133C01880B28002F4E70020F2E725
:1055F000F0B5CE46474680B50121162083B0FAF7B4
:10560000B5FE0A24013CFF20A4B2FAF767FF002C84
:10561000F8D1152503E0013DADB2002D2DD0952127
:105620000020FFF7C7FE040006000128F3D1D521B2
:1056300000235B4F8722082049003B70FFF71CFFC7
:10564000012831D101AB98461C0002AEFF20FAF7C9
:1056500045FF20700134B442F8D16B469B79012B91
:1056600054D001211620FAF781FEFF20FAF736FF09
:105670003C7863425C41E4B20EE0494F3D70012149
:105680001620FAF773FEFF20FAF728FF3B78002B6D
:1056900008D1002C00D1AA24200003B0C0BCB94618
:1056A000B046F0BD0024F7E701213720FFF782FE66
:1056B00001212920FFF77EFE012813D93E70394DC4
:1056C000394E03E0013DADB2B54244D00121012085
:1056D000FFF770FE041EF5D10024002D3BD10023FE
:1056E0003B70CCE702232F4D2F4E3B7003E0013D72
:1056F000ADB2B5422FD001213720FFF75BFE01216B
:105700002920FFF757FE041EF1D1E5E76B46DB7950
:10571000AA2BA6D1244B234D994603E0013DADB2FF
:105720004D4522D001213720FFF744FE8021012280
:105730002920C905FFF7A0FE041EEFD1002D14D1CA
:1057400001211620FAF712FEFF20FAF7C7FE3B7878
:10575000002BA0D0A0E78021012210208900FFF7B4
:105760008BFE002800D18AE7B9E701213A20FFF734
:1057700021FE002800D082E7FF20FAF7AFFE434663
:10578000187001239C46E044B045F5D16B461B7967
:105790005B0602D506233B7071E704233B706EE77E
:1057A00064C60220FEFF0000FFFF0000F8B5344B86
:1057B00006001B781700062B00D049020122012F9A
:1057C00039D01220FFF758FE80239B009C46664488
:1057D0002C4B2D4CF51803E0002C1ED0013CA4B23C
:1057E000FF20FAF77BFEFE28F6D1002C15D0FF2013
:1057F000FAF774FE28700135B542F8D1FF20FAF7A8
:105800006DFEFF20FAF76AFE8023013F9B00FFB286
:10581000EE18002FDCD1002500E0012501210C202D
:10582000FFF7C8FD01211620FAF7A0FDFF20FAF7C7
:1058300055FE2800F8BD1120FFF71EFE051EF1D110
:10584000114C03E0002C19D0013CA4B2FF20FAF760
:1058500045FEFE28F6D1002C10D080239B00F418C2
:10586000FF20FAF73BFE30700136B442F8D1FF203A
:10587000FAF734FEFF20FAF731FED3E70125D1E72E
:1058800064C6022000FEFFFFFFFF0000F8B5474698
:10589000CE4680B5504B06001B780C001700062B37
:1058A00055D04C02012A66D0012B52D10122210091
:1058B0001920FFF7E1FD804600283CD180239B00A2
:1058C000F518E23BFF3B9946444C02E0013C002CBA
:1058D00024D0FF20FAF702FEFF28F7D1FC20FAF7C8
:1058E000FDFD340020780134FAF7F8FDA542F9D126
:1058F000FF20FAF7F3FDFF20FAF7F0FDFF20FAF79B
:10590000EDFD4B461840052808D180239B009C469E
:10591000013FFFB266446544002FD5D12F4C02E011
:10592000013C002C55D0FF20FAF7D8FDFF28F7D115
:10593000FD20FAF7D3FD01211620FAF717FDFF200D
:10594000FAF7CCFD4046C0BCB946B046F8BD012AC6
:1059500011D001213720FFF72DFD0122390017203A
:10596000FFF78AFD012221001920FFF785FD8046FF
:105970000028E0D1A2E7012221001820FFF77CFDDA
:1059800080460028D7D1154C02E0013C002C20D0E5
:10599000FF20FAF7A3FDFF28F7D1FE20FAF79EFDBE
:1059A00080239B00F41830780136FAF797FDA64261
:1059B000F9D1FF20FAF792FDFF20FAF78FFDFF20C3
:1059C000FAF78CFD1F230340052BB4D00223984621
:1059D000B1E701239846AEE764C60220FFFFFF004F
:1059E000F0B500240F2585B0204804F09DFB204829
:1059F00004F09AFB1F4F204E254232D0782322001C
:105A0000E1B21A401C421DD0782A1BD000230F227D
:105A10000093300001336A4407F0BCFA002811DB20
:105A2000164804F023FC2B0023400F2B11D0144800
:105A3000013404F01BFC802CDED1124804F074FB0E
:105A400005B0F0BD104804F011FC2B0023400F2BD3
:105A5000EDD10A20013404F017FB802CEDD0254253
:105A6000CCD12100380004F001FCC7E794EF00100E
:105A7000A4EF0010D8EF0010F804002090EF001001
:105A8000E0EF0010E4EF0010E8EF001070B5002622
:105A900084B003AC60702670FFF7A2FF194D22009E
:105AA000022340212800009607F00CFA012300226F
:105AB00000934021280007F005FA0123002240212D
:105AC0002800009607F066FAFF2101400E4804F016
:105AD000CDFB00210D4804F0C9FBFC2322002380EC
