:020000041000EA
:1000000000B5324B212058609868022188439860DF
:10001000D860186158612E4B002199600221596106
:100020000121F02299502B49196001219960352056
:1000300000F044F80222904214D00621196600F024
:1000400034F8196E01211966002018661A6600F04E
:100050002CF8196E196E196E052000F02FF8012189
:100060000842F9D1002199601B49196000215960AB
:100070001A491B48016001219960EB211966A021F2
:10008000196600F012F800219960164914480160C1
:100090000121996001BC002800D000471248134993
:1000A000086003C880F30888084703B5996A0420EC
:1000B0000142FBD001200142F8D103BD02B5186610
:1000C0001866FFF7F2FF186E186E02BD00000240BE
:1000D000000000180000070000035F00212200005C
:1000E000F4000018222000A00001001008ED00E03C
:1000F00000000000000000000000000074B24E7A12
:1001000000200420F7010010C3010010C5010010F9
:10011000C1010010C1010010C1010010C101001097
:10012000C1010010C1010010C1010010C701001081
:10013000C1010010C1010010C9010010CB01001065
:10014000CD010010CD010010CD010010CD01001037
:10015000CD010010CD010010CD010010CD01001027
:10016000CD010010CD010010CD010010CD01001017
:10017000CD010010CD010010CD010010CD01001007
:10018000CD010010CD010010CD010010CD010010F7
:10019000CD010010CD010010CD010010CD010010E7
:1001A000CD010010CD010010CD010010CD010010D7
:1001B000CD010010CD010010CD010010CD010010C7
:1001C00000BE00BE00BE00BE00BE00BE00F04BF888
:1001D000103800BEF2EB8871B4D70010D8D70010E9
:1001E0003402001090A31AE700202149086006C8D5
:1001F00081F3088810471F48006800282FD10DA4FC
:100200000ECC002902D000F012F8F9E71A491B4A77
:10021000002000E001C19142FCD1194988471949E9
:1002200088471949884700BEFDE701C901C29A42C3
:10023000FBD37047D8D70010C00000201405002061
:100240002CDC001000000420000004202CDC001036
:1002500000100420001004200000000070470B482C
:1002600008F042F80047EFF30580C0B27047000085
:1002700008ED00E0000000D01805002064710220A5
:10028000E56B00100D030010D56C001057560000F0
:1002900006005250ABB3605370D5001006005250A8
:1002A000861C030280D50010060052505422A29DE5
:1002B00090D5001005005250DE65F4682CDC00106B
:1002C000F8B5C04610B5064C2378002B07D1054B76
:1002D000002B02D0044800E000BF0123237010BDB2
:1002E000200800200000000038C40010044B10B5A6
:1002F000002B03D00349044800E000BF10BDC046F6
:10030000000000002408002038C4001010B500F0E0
:1003100001F8FCE710B500F0FBF801F0FDFE00F07D
:1003200029F804F091FD04F0F7FCC82104208900AD
:1003300001F07AFF042004F0C5F903F09BFF0020D0
:1003400003F0C4FD04F00CF804F02EF8FCE7C046FE
:100350000123D02283401206002901D05361704747
:100360009361FCE7D0231B065B68C3400120184063
:100370007047C046F8B5CE464746042180B51920DF
:1003800005F01CF80421002005F018F804210120D4
:1003900005F014F80423584E584D33600023584C90
:1003A00005202B60236004F061FF564907F0F6FF3B
:1003B00008F058FE071C08F07DFEC3B218009846EE
:1003C00008F056FE011C381C08F02BFE8321C905DD
:1003D00008F041FE08F06EFE4346C0B21B01184310
:1003E000494B586505202F6804F040FF454907F048
:1003F000D5FF08F037FE804608F05CFEC3B2180057
:10040000994608F035FE011C404608F00AFE83219B
:10041000C90508F020FE08F04DFE4B463A4A1B0184
:100420009446C0B21843BB00DB199B00634458607C
:100430000520276804F01AFF324907F0AFFF08F0E3
:1004400011FE804608F036FEC3B21800994608F047
:100450000FFE011C404608F0E4FD8321C90508F0A9
:10046000FAFD08F027FE4B46274A1B019446C0B20E
:100470001843BB00DB199B006344586033681700C6
:100480009800C018FA23800086189B0033612A6800
:10049000910089188900CD192B612468A2001219D6
:1004A0009200D4192361194B9C468023604407684D
:1004B0005B013F0C3F04184307606144086819431F
:1004C0000004000C0860624411681A43090C090416
:1004D00011600122100031681E4388433060100013
:1004E00029681D4388432860216823438A431A6092
:1004F000C0BCB946B046F8BD247102201C71022070
:100500002071022040420F00000005400C00054011
:10051000F0B5C64600B584B02F4803AB02AA01A9C6
:1005200006F0A4FA002803D12B492C4806F0D4FB8E
:10053000039A0299019806F05DFA09F02DF80F2050
:1005400004F06CFFD024802324061B026362082081
:1005500004F064FF8023802680275B006362B6017D
:100560000D2004F05BFFBF000920666204F056FF17
:100570001020676204F052FF80235B026362112047
:10058000984604F04BFF802380259B02A362ED0375
:10059000162004F043FF002201211120656204F0BF
:1005A00025FF43460E4963610E48676166616561D8
:1005B0000BF0C0FC01210A2004F000FF01210B20F8
:1005C00004F0FCFE01210C2004F0F8FE002004B031
:1005D00080BCB846F0BDC04690D0030038C40010BF
:1005E00000093D000000044010B584B06B460F24A4
:1005F0006C44D91D08700123220003480BF00CFF46
:10060000207804B010BDC0460000044010B582B090
:100610006B46DC1D991D08700123220002480BF077
:10062000FBFE207802B010BD0000044010B505F0BC
:1006300047FD10BD7047C046030010B50120002BD8
:1006400000D010BD04F070F90028FAD004F09AF838
:10065000FF2004F093F804F097F80120F1E7C0467A
:100660000020704770B50D00040011001A1E11D053
:100670000120002C00D070BD280004F033FA0028BF
:10068000F9D004F07FF8FF2004F078F804F07CF84B
:100690000120F0E70420EEE770B50D000400110022
:1006A0001A1E0AD00120002C00D070BD280004F0D2
:1006B00089FA431E9841C0B2F7E70420F5E7C04627
:1006C00070B514000125002808D102290FD007D8E1
:1006D000002911D004F0F0F800252060280070BD3A
:1006E00004250329FAD1082300251380F6E7802387
:1006F0009B0000251380F1E700211620FFF728FE5C
:1007000004F044F8431E98410121C5B21620FFF7BA
:100710001FFEE3E700207047F0B5DE4657464E4621
:100720004546E0B51700664C0122A54400900191B2
:1007300002A8390001F08CFB624B634C98461E22E4
:10074000210002A801F04EFC3900604808F018FFB3
:10075000A1886388090419435D4808F011FFA68940
:10076000638936041E4331005A4808F009FF638A42
:10077000A18B9946E38A58489B46238BA58A9A46C3
:1007800008F0FEFE02A801F05BFC544808F0F8FEF9
:100790000122390002A801F05BFB43463200210030
:1007A00002A801F01FFC4E4B1B78522B0CD002A864
:1007B00001F046FC01208D239B009D44F0BCBB460C
:1007C000B246A946A046F0BD4B462D042B439946A0
:1007D00064D053461D045B46B4221D4300235200DF
:1007E00092469B46A244B42243462100520002A8EE
:1007F00001F0F8FBB42243465146520002A801F032
:10080000F1FB002D1DD05B465A461B019B1A1B01B4
:100810009C46002367465900591889B26218967899
:100820005278615CF6089208F6025201C908324318
:10083000D8190A4301332B4940009BB20A52AB42FC
:10084000E9D35F460137BBB29B464B45CBD36B46E2
:100850000199188803F0F4F901210820FFF778FDC9
:1008600000210920FFF774FD1F4920480BF0DEFB33
:100870004B465D43002D0CD000261A4C20880136D3
:10088000000AFFF7B1FE2078FFF7AEFE0234AE4259
:10089000F4D101210920FFF75BFD88E76B46019940
:1008A000188803F0CDF901210820FFF751FD002140
:1008B0000920FFF74DFD0C490C480BF0B7FBE8E7AA
:1008C000CCFDFFFF3C0800209C0C00206CC40010F5
:1008D00074C4001088C400109CC40010B0C4001080
:1008E00000040020CC18002080B2E60E0000044076
:1008F000002370B50371013B04000D00C3624B1C63
:1009000009D00A002100012340783031FFF7AAFE08
:1009100000281FD1E562124BE25A124B9A421BD1BA
:1009200022006632538811881B040B430E4A1B02B7
:100930001B0A934212D08223E25A0C4B82349C460B
:100940006088000410430002000A6044431E98417E
:10095000C0B270BD0320FCE70220FAE70020F8E7F0
:100960002E02000055AA000046415400BABEABFF5B
:10097000F0B5C646C66A04000D0000B58E4235D0FB
:10098000070003793037002B0BD101232A003900EF
:100990006078FFF767FE002826D1E56280BCB84684
:1009A000F0BD0123320039004078FFF775FE0028C2
:1009B0001AD1226AA3692071B21A9A42E5D2E2786A
:1009C0009046012A01D8E0E7A369F6183200012316
:1009D00039006078FFF760FE01235B429C46E044EB
:1009E0004346012BF0D1D0E70120D7E70020D5E71F
:1009F000F0B54546DE4657464E460023E0B50C6846
:100A0000150083B00360002C00D1C4E02378303B94
:100A1000082B00D8B6E0C84B1C68002C00D11DE1A3
:100A200023780460002B0FD06078FFF719FEC3070E
:100A30000AD4002D00D10DE104231E00064003421C
:100A400000D1FFE00A26FDE0002300202380FFF70D
:100A5000F3FDC30700D5FFE0002D01D04307F1D41B
:100A600000212000FFF744FF0600012800D194E098
:100A7000032800D13AE10025002800D0E1E022005F
:100A80003B321178537880221B0292000B43934231
:100A900000D0D6E04623E65A002E00D1666D4023F2
:100AA000A661E25C531EE270012B00D9C9E03D2330
:100AB000E75CA770002F00D1C3E07B1E1F4200D06F
:100AC000BFE04123E15C230041335B781B020B4311
:100AD000984623811B0700D0B3E04323E15C230049
:100AE00043335B781B020B4300D1236DE18F8B46B0
:100AF000002900D1A5E072431100019242468A46C6
:100B000012095A449244534500D29AE052469B1A25
:100B100099463900180007F041FCB94500D290E031
:100B2000864B984200D8E3E0854B984200D821E1FB
:100B30005B46EB1823625346EB18A3624346023030
:100B40006061E561002B7CD1E36D800063627D4BC9
:100B50009C466044400A864273D301235B42236172
:100B6000E36081336371203BE35A012B00D182E0C3
:100B70000323754A23701388002601339BB2138028
:100B8000E3805FE062783A2A00D044E702340C60E8
:100B9000002B00D13FE70B2654E0F9235B00E35C18
:100BA0000027002B0CD0FB235B00E118E25C4B78A4
:100BB0008F781B021A43CB783F0417431B061F4351
:100BC000624B0025E35C002B0BD0614BE21851789F
:100BD000E55C090293782943D5781B0419432D0657
:100BE0000D4300225B4B9046E35C002B0CD05A4B2C
:100BF000E0184278E15C120283781143C2781B044A
:100C00000B4312061A4390460022544B9146E35C74
:100C1000002B0CD0524BE0184278E15C1202837832
:100C20001143C2781B040B4312061A439146002F4E
:100C300045D1002D4BD14346002B4FD14B46002BC5
:100C40000ED10D26300003B0F0BCBB46B246A9461B
:100C5000A046F0BD0026F5E70326F3E70C26F1E7F2
:100C600049462000FFF744FE4D46002800D106E724
:100C70000328E7D0E5E72000691CFFF779FE00288C
:100C800000D075E743466371364BE25A364B9A42C1
:100C900000D06DE7354B226B9A4200D068E7852281
:100CA0009200334BA2589A4200D061E786238722F4
:100CB0009B009200E358A2582361E26058E7390094
:100CC0002000FFF715FE0028B3D13D00D7E629002C
:100CD0002000FFF70DFE0028ADD1D0E641462000F0
:100CE000FFF706FE45460028A8D1C8E60126A9E779
:100CF0005B464146EB18821CE56155446261236204
:100D0000A56200299DD0019950008C46634463621E
:100D10000123801840081A4080180A4A944660440B
:100D2000400A864200D28CE7012252422261E260F0
:100D3000813262711DE7C04640080020F50F0000B7
:100D4000F5FF0000FF0100005671022002020000C2
:100D5000060200001202000016020000220200003B
:100D6000260200002E02000055AA000052526141E6
:100D7000727241615B464246EB180230E5615544B0
:100D800060612362A562002A00D15AE7019A4000FF
:100D90009446634463620223BFE7C046F0B5C6468B
:100DA000077804000D0000B5022F08D0032F3FD0B4
:100DB000012F17D00120404280BCB846F0BD036A25
:100DC000090A9C466144FFF7D3FD0028F2D1FF21B8
:100DD0006D0049000D4064193034637820781B029F
:100DE0001843E9E7036A4E089C467618710A614485
:100DF000FFF7BEFD0028DDD1F305DB0DE31830332E
:100E00001B7801369846236A710A9C46200061448B
:100E1000FFF7AEFD0028CDD14346F605F60DA41927
:100E200030342078000218432F421FD00009C3E756
:100E3000036AC9099C466144FFF79AFD0028B9D1AD
:100E4000FE21AD0049000D402B003033E318D87867
:100E50009A78641912040006303410435B782278C3
:100E60001B021043184300010009A5E70005000D0F
:100E7000A2E7C046F8B54E46DE46574645469B4675
:100E80008468C368E0B51B1B06000F0099469342B7
:100E900000D991464B46002B00D190E02200D305AB
:100EA000DD0D002B41D13368500A99784C1E044067
:100EB000E4B2002C00D184E070695A690238023A29
:100EC000904200D38CE0996A9A788C4650436044F3
:100ED000002800D184E080468021A0448900894513
:100EE00000D386E0B26990451AD035004024B1792C
:100EF00028350C420BD0587829000123FFF7CCFB92
:100F0000002800D0A0E0B379A343B37133685878C8
:100F1000424601232900FFF7A5FB002800D093E0FB
:100F20004346B361B368DD05ED0D80239B00591B7B
:100F3000494500D9494602242B00A4462933F31819
:100F40000634FB1A9C459B41A446481E2A00844552
:100F5000A44128325B426442B2181C4200D177E0BF
:100F60003B0013439B0700D072E000238C08A400D1
:100F7000D558FD500433A342FAD103230C009C43FF
:100F800023001219C01A3C198B4209D01378237020
:100F9000002805D053786370012801D09378A3709E
:100FA000B3685846CA185B461B68B2605B1803609A
:100FB0004B465B1A99467F18002B00D06FE7002044
:100FC00011E0002A32D13069012809D9431C3BD0F5
:100FD000336870615A690238023A904200D272E76F
:100FE00002230220F371F0BCBB46B246A946A046DC
:100FF000F8BD4946490A8A4661188A4201D2121B45
:1010000092465246D2B25878390013004246FFF752
:1010100029FB002818D1B3795B0604D54246B36991
:101020009B1A9A4530D853465902B9E7726A9246DC
:10103000002A14D171690129D2D95A699142CFD2BB
:101040001800FFF7ABFEBFE701230120F371CAE7E9
:101050000023D05CF85401339942FAD1A0E704236D
:101060005344984607F09AF953465B68002BB7D073
:10107000424604E00832C01A1368002BB0D09842F0
:10108000F8D25368C0189FE73100320002205B029B
:10109000FB1829312832591A88420BD21900114302
:1010A000890707D1515959518021043589008D4252
:1010B000F8D1B8E7515D59558021013589008D423D
:1010C000F8D1B0E7F8B54746CE46067804000D00E3
:1010D000904680B5022E0BD0032E45D00227012E5C
:1010E0001AD0012338002371C0BCB946B046F8BD00
:1010F000036A090A9C466144FFF73AFC071EF0D1D7
:101100006B00FF2542466D002B40E31830331A7008
:1011100092B2120A5A70E4E74B08994689444B464A
:10112000590A036A9C466144FFF722FC071ED8D186
:101130004B46DB05DB0DE31830332E4233D00F2254
:1011400019784D461140424612010A431A70236A2B
:1011500001359C46690A200026716144FFF708FCAE
:1011600000283DD00700BCE7036AC9099C466144DA
:10117000FFF7FEFB071EB4D1FE21AD0049000D4074
:101180002B0041463033E318DA786519120912074B
:101190000A4391B2090A30352A705970110C120EA7
:1011A0009970DA709DE742461A704D46236A013500
:1011B0009C46690A200026716144FFF7D9FB00288C
:1011C000D0D1ED05ED0D65192B0042460F213033CE
:1011D0001B78120A8B430A401A4330352A7080E785
:1011E0004346ED05ED0D1A09D2B26519F5E7C04683
:1011F000F8B503790400002B0BD12378032B29D0F9
:10120000002200216078FFF75BFA431E9841C0B2CC
:10121000F8BD0700C56A303701232A00390040783D
:10122000FFF73AFA00283AD1226AA3692071AA1A74
:101230009A42E2D2E678012E01D8DEE7A369ED18E2
:101240002A00012339006078013EFFF725FA012EBC
:10125000F4D1D2E76379012BD2D125008022303539
:1012600000219200280007F07BFF0E4B0E4A290058
:10127000E2520E4B0E4A236385239B00E250226903
:101280000433E250E2680433E250E36960785A1CA8
:10129000E2620123FFF700FA00236371B0E7012047
:1012A000B6E7C0462E02000055AAFFFF5252614128
:1012B00072724161F0B54E464546DE465746E0B58E
:1012C0008946050083B000291ED1C7684369002FF5
:1012D00034D10137FF2252009346023A3C00924635
:1012E00001349C421FD3012F00D891E0022B1CD95E
:1012F00002242E78022E00D176E0032E57D0012E44
:1013000020D00124644211E001290ED043699942A2
:101310000BD2FFF743FD0400012806D96B69834215
:1013200004D84F46D6E7012CE3D80124200003B0AF
:10133000F0BCBB46B246A946A046F0BDBB42C9D8E8
:101340000127C7E763089846A0444346590A2B6A19
:1013500028009C466144FFF70BFB0028D1D143468F
:10136000DB05DB0DEB1830331B78280001930123DC
:101370009C46E0444346590A2B6A9C466144FFF769
:10138000F7FA0028BDD14146CB05DB0DEB18303311
:101390001B78019A1B02134326423BD01B09002BEA
:1013A0003BD0012BC1D0A74232D06B6998E72B6AA2
:1013B000E1099C4628006144FFF7DAFA0028A0D131
:1013C0005346A2001A40110030316918CB78887852
:1013D000AA18303212781B060004034313434A78DC
:1013E000120213431B01D9E72B6A210A9C462800ED
:1013F0006144FFF7BDFA002800D082E75B46620037
:101400001A40AA1830325178137809020B43C6E704
:1014100000248BE71B051B0DC1E76B69A34200D8B5
:1014200083E721002800134AFFF74CFE002803D071
:10143000012800D165E778E74B46002B0DD0012B42
:1014400000D172E76B69994500D36EE722004946E7
:101450002800FFF737FE0028EAD12B69EC605A1C00
:1014600000D163E70122013B2B616B7913436B7160
:101470005CE7C046FFFFFF0FF0B557464546DE4626
:101480004E46E0B5856807000C0083B0C180012D91
:1014900026D006687369AB4222D9002D57D0B278A6
:1014A00012019046914200D291E0FF2252009346F1
:1014B0009D4215D233789946022B00D195E0032B3B
:1014C0005AD0012B14D001200BE0756A002D41D0B9
:1014D000B27812019046914200D278E0012DE4D119
:1014E000022003B0F0BCBB46B246A946A046F0BD00
:1014F0006B089A46AA445346590A336A30009C4600
:101500006144FFF735FA0028DDD15346DB05DB0DDA
:10151000F31830331B783000019301239C46E244DA
:101520005346590A336A9C466144FFF721FA002862
:10153000C9D15146CB05DB0DF61830363378019A08
:101540001B0213434A462A4263D01D0932E0327817
:10155000032ABAD00023FB603389A342C0D9726A40
:101560002309944663443B610F210C4030366401EB
:10157000341900207C61B4E7336AE9099C463000E5
:101580006144FFF7F5F900289DD1FE22AB0052001F
:1015900013401A003032B218D5789178F3183033EE
:1015A0001B782D0609040D431D4353781B021D4370
:1015B0002D012D09012D93D93E687369AB4200D8E6
:1015C0008EE74246A41AA4B2444500D370E7FD60FA
:1015D000023B023D9D421FD2B3785D43B36A9C46F5
:1015E000654423095D193D61BEE7336A290A9C46BB
:1015F00030006144FFF7BCF9002800D063E75B4688
:101600006D001D4076193036737835781B021D4306
:10161000D0E71B051D0DCDE70025E2E7F8B55746DD
:101620004546DE464E46E0B50B7805008A462F2B30
:1016300053D05C2B51D000245346AC601B781F2B39
:1016400054D95646AB6932782F2A01D05C2A01D191
:101650000136F8E720221A705A709A70DA701A71FF
:101660005A719A71DA711A725A729A723278202A01
:1016700019D900218C460831884602218A46032167
:101680008B46711E894661469C462B0000244546C8
:10169000012798460B002F2A55D05C2A53D02E2ABA
:1016A0002AD09D4206D80620F0BCBB46B246A946C9
:1016B000A046F8BD51B2002905DA59460C43B44999
:1016C000803A8A5CE4B22221B24803E041780130DA
:1016D000002923D08A42F9D1E5E701239C46002462
:1016E000E2445346AC601B781F2BAAD80021280087
:1016F000FFF7C2FE6C61D7E7082DD4D108230B2574
:10170000A400E4B24A460137D25D202AC3D842463B
:101710006346A846F619150004221DE01100413960
:10172000192906D851460C43E4B26146CA54013324
:10173000E8E7110061391929F7D80121203A0C4353
:10174000E4B2D2B2F1E742461900A846634615005A
:10175000F6190029A7D000221978E52901D1E0392E
:1017600019704146082900D105E1032121400129D2
:1017700001D10F310A430C210C40042C01D1043952
:101780000A4300212800DA72FFF776FE002800D015
:10179000F7E02C682F69B0463E0027000823FC6A5A
:1017A0009A46B4420ED0302291463B79B944002B80
:1017B00031D10123320049467878FEF753FF0028E3
:1017C00059D1FE626A691478002C5FD050465346A6
:1017D000D17A08400B4261D0EC880134A4B2002CCD
:1017E00054D02E69002E51D00F23234099460F2349
:1017F000234242D02F684B465A013B00EC803033E5
:10180000FC6A9B186B61B442DCD0302291463B7974
:10181000B944002BCDD00123220049467878FEF749
:101820003BFF002827D13A6ABB693871A21A9A4255
:10183000BFD2FA789346012ABBD931002A004E461E
:101840005D468946934600E0BB69E4182200012307
:1018500031007878013DFEF71FFF012DF4D14B4692
:10186000B1461E0049460123320078785D46FEF7F6
:10187000F9FE0028A5D0012016E7E96801362F6897
:101880002E61002954D13B89A342B4D8AB69DB7ADD
:1018900004205B0700D507E7052005E7AB691F7843
:1018A000A74299D157785C78A74295D19F789478D0
:1018B000A74291D1D778DC78A7428DD117791C79CE
:1018C000A74289D157795C79A74285D197799C79CC
:1018D000A74200D080E7D779DC79A74200D07BE728
:1018E000177A1C7AA74200D076E7577A5C7AA7422B
:1018F00000D071E7977A9C7AA74200D06CE7DC7A37
:101900004646640700D5CFE6C906C5D5D17E907E90
:101910000902014328680078032801D0A96092E6F3
:10192000147D527D1202224312041143A9608AE6FB
:10193000BB782209013B1A4200D05CE7012918D08C
:101940007B69994215D23800FFF728FA012810D98F
:10195000431C90D02F687B69984297D2E860023B85
:10196000023898420AD2BB785843BB6AC6182E6127
:1019700041E7022098E6A400E4B2FCE600262E61CE
:1019800039E7AB69DB7A042800D08DE680E7C046F2
:10199000CCC40010BCC40010F8B54546DE4657461E
:1019A0004E464369E0B504000D00994200D398E02B
:1019B000012914D9FF2326785B009946023B9846FB
:1019C0000127022E00D175E0032E38D0012E08D059
:1019D0000120F0BCBB46B246A946A046F8BD022095
:1019E000F7E76B089A46AA445346590A236A20002F
:1019F0009C466144FEF7BCFF0028E9D15346DB0555
:101A0000DB0DE31830331B7820009B4601239C46F6
:101A1000E2445346590A236A9C466144FEF7A8FFF4
:101A20000028D5D153465A46DB05DB0DE318303389
:101A30001B781B0213432E4255D01E091CE0236A5B
:101A4000E9099C4620006144FEF792FF0028BFD1BF
:101A50004246AB0013401A003032A218D678917873
:101A6000E31830331B78360609040E431E435378BF
:101A70001B021E4336013609002E32D0012EAED095
:101A80006369AB42ABD9002229002000FFF71AFBA3
:101A900000289ED123695A1C20D001332361637929
:101AA0003B43637163699E421BD235002678022E48
:101AB00000D089E7236A290A9C4620006144FEF78A
:101AC00057FF002800D083E74A466B001340E31815
:101AD00030335A781E7812021643CDE76369B34259
:101AE000E3D8002075E71E05360DC5E7F0B5DE46E4
:101AF0004E4657464546E0B5002185B00600FFF743
:101B0000BBFC041E0AD0042800D10724200005B025
:101B1000F0BCBB46B246A946A046F0BD3369356865
:101B200098460F239A46EC6A44450ED02F002B7935
:101B30003037002B59D10123424639006878FEF72F
:101B400091FD002842D14346EB6273691B78E52B77
:101B500001D0002B24D131693068FEF709FF041E43
:101B6000D4D120220021706907F0FAFA7369B269B2
:101B700019001143890700D0F1E0511C591A0229BC
:101B800000D8ECE01168196051685960117A197237
:101B9000517A5972927A9A72012233681A71B5E7B2
:101BA000F4880134A4B2002CAFD033699846002BDE
:101BB000ABD0574653462740234209D035687B01B6
:101BC0002F003037FF18F4807761ACE701249DE7E0
:101BD00001239C46E0444346F1683568336100299F
:101BE00028D12B89A342EAD88FE7012322003900AC
:101BF0006878FEF751FD0028E8D12A6AAB692871A0
:101C0000A21A9A4297D2EA789146012A93D93200D1
:101C10002E004D46914600E0B369E41822000123EE
:101C200039007078013DFEF737FD012DF4D1350004
:101C30004E4680E7AB782209013B1A42BFD1012909
:101C400021D06B6999421ED22800FFF7A7F8020045
:101C50000190012817D9431CB8D035686B699842A8
:101C600013D2023A0292023B019AF260029A934224
:101C700000D885E0AB785A431300AA6A904698448E
:101C8000434633619BE7022440E72800F168FFF7F1
:101C900011FB031E019000D137E70128F3D0013377
:101CA00094D035682B79002B6DD12800802200213B
:101CB0009200303007F054FA019B35689A1E6B6928
:101CC0000292023B9A4200D390E01100A86AAA78DF
:101CD0008046514388444146E962002A3CD00023B3
:101CE0000394BB464446B14698462F000123303743
:101CF0002200390068782B71FEF7CEFC002800D056
:101D000064E72A6AAB692871A21A9A420ED2EE7869
:101D1000012E01D80AE0AB69E41822000123390042
:101D20006878013EFEF7B8FC012EF4D14B464746D9
:101D30001D680137EB6A5C1CFBB29846AB78EC621D
:101D40004345D2D84346A04642465F464E46D31A44
:101D500098466B69039C023B4246EA6284E711782D
:101D600019705178597091789970D178D97011792A
:101D700019715179597191799971D179D97105E7B1
:101D8000002398467CE7EB6A6878984630239B46A8
:101D9000AB44424659462F3BFEF77EFC002800D05C
:101DA00014E74246296AAB692871521A9A421BD23B
:101DB000EA789146012A17D942463100A0462E0002
:101DC00014004D46B9465F468B4600E0B369E418FF
:101DD0002200012339007078013DFEF75DFC012DE2
:101DE000F4D144464F465E4635685EE70021AA7846
:101DF000884670E700B583B00B1E019000911AD0A1
:101E00000978303908290FD910490B68002B01D007
:101E100000201870019B002B15D000200B6018705B
:101E2000012A0AD003B000BD58783A28ECD1023319
:101E300000930029E8D00B20F4E70022694601A8AE
:101E4000FEF7D6FDEEE700200B60EBE74008002030
:101E5000F0B54746CE4680B58DB00400170001911D
:101E6000002868D000231E2203603A4001A905A87B
:101E7000FEF7BEFD051E05D028000DB0C0BCB9465A
:101E8000B046F0BD1F233B409846019902AB05A820
:101E90000B93FFF7C3FB00280FD10A9E002E00D141
:101EA0009BE01C233B420FD01122F37A1A4246D109
:101EB0007B0700D48DE00825DEE71C233B4201D0E0
:101EC00004283ED00500D7E7F37ADA0635D4BA07FE
:101ED00001D5DB0733D4082205983A4003D04246A7
:101EE00020231A439046C36A2662E3614346A371E6
:101EF0000023E371F37EB27E1B0213430278032AB0
:101F000005D1727D377D12023A43120413432361D7
:101F1000717F337FB27F09021943F37F12041143AB
:101F20001B060B43E36000232060A360A361636290
:101F3000C388A380A0E709259EE704259CE7072521
:101F40009AE705A8FFF7D2FD424608231A439046B8
:101F50000A9E0028B6D1FEF7DDFB83B21B0AF3739D
:101F6000030C33740023B073000E70740598F77E71
:101F7000F37233777377B377F377B27E03783F02E8
:101F80001743032B05D1737D317D1B020B431B04CB
:101F90001F430023B376F3763375737501330371F2
:101FA000002F9CD0012F1AD043699F4217D2C36AD9
:101FB00039009946FFF7F0FC002883D10598013FCE
:101FC0004946C760FEF7D4FC002800D07AE70598A0
:101FD00085E73B07BFD4059885E706254CE7022532
:101FE0004AE7C046F8B51D00002304000E001700A4
:101FF0002B6000281ED00368002B1BD01A78002A03
:1020000018D08288D9880920914200D0F8BD58782C
:10201000FEF726FB0123034210D1E0790028F5D119
:10202000A279134208D02B003A0031002000FEF7BD
:1020300021FFEBE70920E9E70720E7E70320E5E7D1
:10204000F8B5041E60D00368002B5DD01A78002A12
:102050005AD0D98882880925914201D02800F8BD3C
:102060005878FEF7FDFA01231D00054003424DD1CB
:10207000A3799A0645D540261E420CD0210023683C
:10208000A269587828310123FEF706FB00283FD1CA
:10209000A379B343A371E1692068FEF769FC071EC9
:1020A00001D00500DAE72022266AF37A1343F3729F
:1020B000E3683377A3891B0A7377E389B377E37BFC
:1020C000F3772369B3769AB21B0C120A33751B0A95
:1020D000F2767375FEF71EFB202283B21B0AB075E1
:1020E000F375030C000E33767076B774F774A3792A
:1020F00020689343A37101230371FFF779F8002847
:1021000008D100232360A9E70925A7E70325A5E750
:102110000125A3E70500A1E710B501211620FEF770
:1021200017F901210920FEF713F901211020FEF70C
:102130000FF90D4901220D48FFF75CFE0C4B011E03
:10214000187003D00B4807F01BFA10BD0A4807F0BF
:1021500075F90A4B0A4A19001431FF3108C20B33D2
:102160008B42FBD1F1E7C0462CD100103416002081
:102170005F71022030D1001068D1001014110020CE
:102180006818002070B5254C2378522B00D070BD04
:10219000431EDBB20025062B31D9214B18710328D1
:1021A00029D9A022F02152005980082000211A804C
:1021B000FEF7CEF800210920FEF7CAF83620FEF718
:1021C00013FA01210920FEF7C3F823780121082022
:1021D000522B1CD0FEF7BCF809200021FEF7B8F8FE
:1021E0000020FEF701FA2800FEF7FEF90121092080
:1021F000FEF7AEF8CBE7A021F0224900D4E7094A68
:102200005B00D55C064B18710328F4D9C9E7FEF7CB
:102210009FF800210920FEF79BF8E4E70004002066
:10222000E470022090D1001070B5012182B0050049
:102230000F20FEF78DF8FA204000FEF7F7F9002195
:102240000F20FEF785F8FA204000FEF7EFF9012194
:102250000F20FEF77DF8FA204000FEF7E7F96B4605
:102260009E1D0023002109203370FEF771F8002124
:102270000820FEF76DF8DC20FEF7B6F96B46DC1D92
:10228000220001233100F4480AF0C6F80121092098
:10229000FEF75EF82378F14C002108202370522BC2
:1022A00001D100F000FCFEF753F800210920FEF7F1
:1022B0004FF82120FEF798F901210920FEF748F890
:1022C00000210820FEF744F800210920FEF740F81D
:1022D000C220FEF789F901210920FEF739F8237899
:1022E00001210820522B00D1D6E3FEF731F8092056
:1022F0000021FEF72DF80020FEF776F93320FEF7D7
:1023000073F901210920FEF723F800210820FEF7C8
:102310001FF800210920FEF71BF8C520FEF764F91D
:1023200001210920FEF714F8237801210820522BFF
:1023300001D101F0E1F9FEF70BF809200021FEF7C9
:1023400007F80020FEF750F90020FEF74DF90121B3
:102350000920FDF7FDFF237801210820522B01D130
:1023600001F0C2F9FDF7F4FF09200021FDF7F0FFAD
:102370000020FEF739F91E20FEF736F90121092069
:10238000FDF7E6FF237801210820522B01D101F04F
:10239000A3F9FDF7DDFF09200021FDF7D9FF00209B
:1023A000FEF722F98020FEF71FF901210920FDF731
:1023B000CFFF00210820FDF7CBFF00210920FDF70A
:1023C000C7FFB120FEF710F901210920FDF7C0FF7A
:1023D000237801210820522B01D101F075F9FDF776
:1023E000B7FF09200021FDF7B3FF0020FEF7FCF83E
:1023F000B020FEF7F9F801210920FDF7A9FF00211F
:102400000820FDF7A5FF00210920FDF7A1FF3620D8
:10241000FEF7EAF801210920FDF79AFF2378012150
:102420000820522B01D101F047F9FDF791FF092057
:102430000021FDF78DFF0020FEF7D6F82820FEF7DB
:10244000D3F801210920FDF783FF00210820FDF7C3
:102450007FFF00210920FDF77BFFE020FEF7C4F895
:1024600001210920FDF774FF237801210820522B58
:1024700001D101F019F9FDF76BFF09200021FDF7EB
:1024800067FF0020FEF7B0F80020FEF7ADF801214D
:102490000920FDF75DFF237801210820522B01D18F
:1024A00001F0FAF8FDF754FF09200021FDF750FF75
:1024B0000020FEF799F81320FEF796F80121092075
:1024C000FDF746FF237801210820522B01D101F0AE
:1024D000DBF8FDF73DFF09200021FDF739FF002063
:1024E000FEF782F81820FEF77FF801210920FDF79A
:1024F0002FFF237801210820522B01D101F0BCF8D5
:10250000FDF726FF09200021FDF722FF0020FEF73E
:102510006BF80420FEF768F801210920FDF718FF89
:10252000237801210820522B01D101F09DF8FDF7FD
:102530000FFF09200021FDF70BFF0020FEF754F8E4
:102540000F20FEF751F801210920FDF701FF237844
:1025500001210820522B01D101F07EF8FDF7F8FE91
:1025600009200021FDF7F4FE0020FEF73DF80620CB
:10257000FEF73AF801210920FDF7EAFE2378012150
:102580000820522B01D101F05FF8FDF7E1FE092090
:102590000021FDF7DDFE0020FEF726F83A20FEF7C9
:1025A00023F801210920FDF7D3FE2378012108201B
:1025B000522B01D101F040F8FDF7CAFE092000219D
:1025C000FDF7C6FE0020FEF70FF85620FEF70CF8C8
:1025D00001210920FDF7BCFE237801210820522BA0
:1025E00001D101F021F8FDF7B3FE09200021FDF72C
:1025F000AFFE0020FDF7F8FF4D20FDF7F5FF0121AC
:102600000920FDF7A5FE237801210820522B01D1D6
:1026100001F002F8FDF79CFE09200021FDF798FE6D
:102620000020FDF7E1FF0320FDF7DEFF0121092077
:10263000FDF78EFE237801210820522B01D100F0F6
:10264000E3FFFDF785FE09200021FDF781FE002054
:10265000FDF7CAFF04E0C04600000440000400206B
:102660000A20FDF7C1FF01210920FDF771FE237843
:1026700001210820522B01D100F0BEFFFDF768FEBA
:1026800009200021FDF764FE0020FDF7ADFF0620C4
:10269000FDF7AAFF01210920FDF75AFE2378012149
:1026A0000820522B01D100F09FFFFDF751FE0920B9
:1026B0000021FDF74DFE0020FDF796FF3020FDF7CD
:1026C00093FF01210920FDF743FE23780121082013
:1026D000522B01D100F080FFFDF73AFE09200021C6
:1026E000FDF736FE0020FDF77FFF3E20FDF77CFF63
:1026F00001210920FDF72CFE237801210820522B0F
:1027000001D100F061FFFDF723FE09200021FDF754
:102710001FFE0020FDF768FF0F20FDF765FF012178
:102720000920FDF715FE00210820FDF711FE00210C
:102730000920FDF70DFEE120FDF756FF01210920DC
:10274000FDF706FE237801210820522B01D100F06D
:1027500033FFFDF7FDFD09200021FDF7F9FD002005
:10276000FDF742FF0020FDF73FFF01210920FDF7A3
:10277000EFFD237801210820522B01D100F014FF36
:10278000FDF7E6FD09200021FDF7E2FD0020FDF741
:102790002BFF1320FDF728FF01210920FDF7D8FDAD
:1027A000237801210820522B01D100F0F5FEFDF71E
:1027B000CFFD09200021FDF7CBFD0020FDF714FF20
:1027C0001820FDF711FF01210920FDF7C1FD237835
:1027D00001210820522B01D100F0D6FEFDF7B8FDF3
:1027E00009200021FDF7B4FD0020FDF7FDFE0120CA
:1027F000FDF7FAFE01210920FDF7AAFD237801214A
:102800000820522B01D100F0B7FEFDF7A1FD0920F1
:102810000021FDF79DFD0020FDF7E6FE1120FDF7EC
:10282000E3FE01210920FDF793FD23780121082013
:10283000522B01D100F098FEFDF78AFD09200021FE
:10284000FDF786FD0020FDF7CFFE0620FDF7CCFE4C
:1028500001210920FDF77CFD237801210820522B5E
:1028600001D100F079FEFDF773FD09200021FDF78D
:102870006FFD0020FDF7B8FE3820FDF7B5FE012101
:102880000920FDF765FD237801210820522B01D195
:1028900000F05AFEFDF75CFD09200021FDF758FD10
:1028A0000020FDF7A1FE3420FDF79EFE0121092046
:1028B000FDF74EFD237801210820522B01D100F0B5
:1028C0003BFEFDF745FD09200021FDF741FD0020FD
:1028D000FDF78AFE4D20FDF787FE01210920FDF757
:1028E00037FD237801210820522B01D100F01CFE76
:1028F000FDF72EFD09200021FDF72AFD0020FDF740
:1029000073FE0620FDF770FE01210920FDF720FD72
:10291000237801210820522B01D100F0FDFDFDF7A5
:1029200017FD09200021FDF713FD0020FDF75CFED7
:102930000D20FDF759FE01210920FDF709FD23783F
:1029400001210820522B01D100F0DEFDFDF700FD32
:1029500009200021FDF7FCFC0020FDF745FE0B20BF
:10296000FDF742FE01210920FDF7F2FC2378012149
:102970000820522B01D100F0BFFDFDF7E9FC092032
:102980000021FDF7E5FC0020FDF72EFE3120FDF7CC
:102990002BFE01210920FDF7DBFC23780121082013
:1029A000522B01D100F0A0FDFDF7D2FC092000213F
:1029B000FDF7CEFC0020FDF717FE3720FDF714FED3
:1029C00001210920FDF7C4FC237801210820522BA6
:1029D00001D100F081FDFDF7BBFC09200021FDF7CE
:1029E000B7FC0020FDF700FE0F20FDF7FDFD0121E3
:1029F0000920FDF7ADFC00210820FDF7A9FC00210E
:102A00000920FDF7A5FC3A20FDF7EEFD0121092084
:102A1000FDF79EFC237801210820522B01D100F004
:102A200053FDFDF795FC09200021FDF791FC0020E6
:102A3000FDF7DAFD5520FDF7D7FD01210920FDF74F
:102A400087FC00210820FDF783FC00210920FDF709
:102A50007FFC1120FDF7C8FD09200121FDF778FC5E
:102A60007820FDF7E3FD00210820FDF771FC00212F
:102A70000920FDF76DFC2920FDF7B6FD0121092095
:102A8000FDF766FC2378522B01D100F0E6FC3220E2
:102A9000FDF7CCFD02B070BDFDF75AFC0021092006
:102AA000FDF756FC2AE4FDF753FC00210920FDF751
:102AB0004FFC1120FDF798FD01210920FDF748FC8E
:102AC0006420FDF7B3FD00210820FDF741FC002143
:102AD0000920FDF73DFC3620FDF786FD0121092088
:102AE000FDF736FC237801210820522B01D100F09C
:102AF0006EFFFDF72DFC09200021FDF729FC0020C9
:102B0000FDF772FD0020FDF76FFD01210920FDF7A3
:102B10001FFC00210820FDF71BFC00210920FDF708
:102B200017FC3A20FDF760FD01210920FDF710FC9C
:102B3000237801210820522B01D100F040FFFDF73E
:102B400007FC09200021FDF703FC0020FDF74CFDE8
:102B50005520FDF749FD01210920FDF7F9FB002172
:102B60000820FDF7F5FB00210920FDF7F1FBB2205D
:102B7000FDF73AFD01210920FDF7EAFB2378012149
:102B80000820522B01D100F012FFFDF7E1FB0920D4
:102B90000021FDF7DDFB0020FDF726FD0C20FDF7F1
:102BA00023FD01210920FDF7D3FB23780121082013
:102BB000522B01D100F0F3FEFDF7CAFB09200021E2
:102BC000FDF7C6FB0020FDF70FFD0C20FDF70CFD07
:102BD00001210920FDF7BCFB237801210820522B9D
:102BE00001D100F0D4FEFDF7B3FB09200021FDF771
:102BF000AFFB0020FDF7F8FC0020FDF7F5FC0121FC
:102C00000920FDF7A5FB237801210820522B01D1D3
:102C100000F0B5FEFDF79CFB09200021FDF798FBB5
:102C20000020FDF7E1FC3320FDF7DEFC0121092047
:102C3000FDF78EFB237801210820522B01D100F0F3
:102C400096FEFDF785FB09200021FDF781FB0020A2
:102C5000FDF7CAFC3320FDF7C7FC01210920FDF771
:102C600077FB00210820FDF773FB00210920FDF709
:102C70006FFBB720FDF7B8FC01210920FDF768FBC9
:102C8000237801210820522B01D100F068FEFDF7C6
:102C90005FFB09200021FDF75BFB0020FDF7A4FC92
:102CA0003520FDF7A1FC01210920FDF751FB002192
:102CB0000820FDF74DFB00210920FDF749FBBB2053
:102CC000FDF792FC01210920FDF742FB2378012149
:102CD0000820522B01D100F03AFEFDF739FB092004
:102CE0000021FDF735FB0020FDF77EFC2820FDF7D5
:102CF0007BFC01210920FDF72BFB00210820FDF7BB
:102D000027FB00210920FDF723FBC020FDF76CFC09
:102D100001210920FDF71CFB237801210820522BFB
:102D200001D100F00CFEFDF713FB09200021FDF797
:102D30000FFB0020FDF758FC3C20FDF755FC01215E
:102D40000920FDF705FB00210820FDF701FB00210C
:102D50000920FDF7FDFAC220FDF746FC01210920FC
:102D6000FDF7F6FA237801210820522B01D100F05B
:102D7000DEFDFDF7EDFA09200021FDF7E9FA00205C
:102D8000FDF732FC0120FDF72FFC01210920FDF7A2
:102D9000DFFA00210820FDF7DBFA00210920FDF70A
:102DA000D7FAC320FDF720FC01210920FDF7D0FA56
:102DB000237801210820522B01D100F0B0FDFDF74E
:102DC000C7FA09200021FDF7C3FA0020FDF70CFC2B
:102DD0000B20FDF709FC01210920FDF7B9FA0021BC
:102DE0000820FDF7B5FA00210920FDF7B1FAC4204B
:102DF000FDF7FAFB01210920FDF7AAFA237801214A
:102E00000820522B01D100F082FDFDF7A1FA092024
:102E10000021FDF79DFA0020FDF7E6FB2020FDF7DD
:102E2000E3FB01210920FDF793FA00210820FDF7BB
:102E30008FFA00210920FDF78BFAC620FDF7D4FB9D
:102E400001210920FDF784FA237801210820522B63
:102E500001D100F054FDFDF77BFA09200021FDF7B8
:102E600077FA0020FDF7C0FB0F20FDF7BDFB012125
:102E70000920FDF76DFA00210820FDF769FA00210D
:102E80000920FDF765FAD020FDF7AEFB01210920EE
:102E9000FDF75EFA237801210820522B01D100F0C2
:102EA00026FDFDF755FA09200021FDF751FA002013
:102EB000FDF79AFBA420FDF797FB01210920FDF700
:102EC00047FA237801210820522B01D100F007FD99
:102ED000FDF73EFA09200021FDF73AFA0020FDF740
:102EE00083FBA120FDF780FB01210920FDF730FACB
:102EF00000210820FDF72CFA00210920FDF728FA0F
:102F0000E020FDF771FB01210920FDF721FA23786C
:102F100001210820522B01D100F0D9FCFDF718FA4D
:102F200009200021FDF714FA0020FDF75DFBD020F9
:102F3000FDF75AFB01210920FDF70AFA2378012148
:102F40000820522B01D100F0BAFCFDF701FA09204C
:102F50000021FDF7FDF90020FDF746FB0120FDF7FC
:102F600043FB01210920FDF7F3F923780121082013
:102F7000522B01D100F09BFCFDF7EAF9092000215A
:102F8000FDF7E6F90020FDF72FFB0820FDF72CFBED
:102F900001210920FDF7DCF9237801210820522BBB
:102FA00001D100F07CFCFDF7D3F909200021FDF7E9
:102FB000CFF90020FDF718FB0F20FDF715FB0121CD
:102FC0000920FDF7C5F9237801210820522B01D1F2
:102FD00000F05DFCFDF7BCF909200021FDF7B8F910
:102FE0000020FDF701FB1120FDF7FEFA0121092069
:102FF000FDF7AEF9237801210820522B01D100F012
:103000003EFCFDF7A5F909200021FDF7A1F90020FC
:10301000FDF7EAFA2A20FDF7E7FA01210920FDF77A
:1030200097F9237801210820522B01D100F01FFCD1
:10303000FDF78EF909200021FDF78AF90020FDF740
:10304000D3FA3620FDF7D0FA01210920FDF780F9E7
:10305000237801210820522B01D100F000FCFDF75C
:1030600077F909200021FDF773F90020FDF7BCFA7C
:103070005520FDF7B9FA01210920FDF769F92378F8
:1030800001210820522B00D1E2E3FDF761F909206C
:103090000021FDF75DF90020FDF7A6FA4420FDF7B9
:1030A000A3FA01210920FDF753F923780121082013
:1030B000522B00D1C5E3FDF74BF909200021FDF7A4
:1030C00047F90020FDF790FA3A20FDF78DFA01212B
:1030D0000920FDF73DF9237801210820522B00D16A
:1030E000A8E3FDF735F909200021FDF731F90020AB
:1030F000FDF77AFA0B20FDF777FA01210920FDF799
:1031000027F9237801210820522B00D186E3FDF70F
:103110001FF909200021FDF71BF90020FDF764FAD3
:103120000620FDF761FA01210920FDF711F9237846
:1031300001210820522B00D169E3FDF709F909208C
:103140000021FDF705F90020FDF74EFA1120FDF7EB
:103150004BFA01210920FDF7FBF823780121082013
:10316000522B00D14CE3FDF7F3F809200021FDF7C5
:10317000EFF80020FDF738FA2020FDF735FA01219D
:103180000920FDF7E5F800210820FDF7E1F800210E
:103190000920FDF7DDF8E120FDF726FA01210920DD
:1031A000FDF7D6F8237801210820522B00D120E327
:1031B000FDF7CEF809200021FDF7CAF80020FDF741
:1031C00013FAD020FDF710FA01210920FDF7C0F80D
:1031D000237801210820522B00D103E3FDF7B8F832
:1031E00009200021FDF7B4F80020FDF7FDF90220C9
:1031F000FDF7FAF901210920FDF7AAF8237801214A
:103200000820522B00D1E6E2FDF7A2F809200021A8
:10321000FDF79EF80020FDF7E7F90720FDF7E4F938
:1032200001210920FDF794F8237801210820522B71
:1032300000D1C9E2FDF78CF809200021FDF788F8DC
:103240000020FDF7D1F90A20FDF7CEF90121092070
:10325000FDF77EF8237801210820522B00D1ACE243
:10326000FDF776F809200021FDF772F80020FDF740
:10327000BBF90B20FDF7B8F901210920FDF768F82B
:10328000237801210820522B00D18FE2FDF760F84E
:1032900009200021FDF75CF80020FDF7A5F91820B2
:1032A000FDF7A2F901210920FDF752F82378012149
:1032B0000820522B00D172E2FDF74AF809200021C4
:1032C000FDF746F80020FDF78FF93420FDF78CF963
:1032D00001210920FDF73CF8237801210820522B19
:1032E00000D155E2FDF734F809200021FDF730F850
:1032F0000020FDF779F94320FDF776F90121092037
:10330000FDF726F8237801210820522B00D138E25E
:10331000FDF71EF809200021FDF71AF80020FDF73F
:1033200063F94A20FDF760F901210920FDF710F843
:10333000237801210820522B00D11BE2FDF708F869
:1033400009200021FDF704F80020FDF74DF92B209E
:10335000FDF74AF901210920FCF7FAFF2378012142
:103360000820522B00D1FEE1FCF7F2FF09200021DA
:10337000FCF7EEFF0020FDF737F91B20FDF734F9CD
:1033800001210920FCF7E4FF237801210820522BBA
:1033900000D1E1E1FCF7DCFF09200021FCF7D8FFB8
:1033A0000020FDF721F91C20FDF71EF9012109205D
:1033B000FCF7CEFF237801210820522B00D1C4E175
:1033C000FCF7C6FF09200021FCF7C2FF0020FDF733
:1033D0000BF92220FDF708F901210920FCF7B8FFBD
:1033E000237801210820522B00D1A7E1FCF7B0FF80
:1033F00009200021FCF7ACFF0020FDF7F5F81F20A5
:10340000FDF7F2F801210920FCF7A2FF00210820B6
:10341000FCF79EFF00210920FCF79AFF5520FDF7DD
:10342000E3F801210920FCF793FF2378012108200C
:10343000522B00D17BE1FCF78BFF09200021FCF728
:1034400087FF0020FDF7D0F8B020FDF7CDF801216F
:103450000920FCF77DFFFFF706FB6B1EDBB20026A1
:10346000062B00D854E1F14B1D71032D00D84BE120
:10347000A022F02152005980082000211A80FCF778
:1034800067FF00210920FCF763FF3620FDF7ACF849
:1034900001210920FCF75CFF237801210820522B31
:1034A00000D13DE1FCF754FF09200021FCF750FF5B
:1034B0000020FDF799F83000FDF796F8012109206A
:1034C000FCF746FFFFF7E3FAFCF742FF0021092073
:1034D000FCF73EFFFFF7AEFAFCF73AFF00210920A8
:1034E000FCF736FFFFF780FAFCF732FF00210920D6
:1034F000FCF72EFFFFF761FAFCF72AFF00210920F5
:10350000FCF726FFFFF742FAFCF722FF0021092013
:10351000FCF71EFFFFF723FAFCF71AFF0021092032
:10352000FCF716FFFFF704FAFCF712FF0021092051
:10353000FCF70EFFFFF7E5F9FCF70AFF0021092071
:10354000FCF706FFFFF7C6F9FCF702FF0021092090
:10355000FCF7FEFEFFF7A7F9FCF7FAFE00210920B1
:10356000FCF7F6FEFFF788F9FCF7F2FE00210920D0
:10357000FCF7EEFEFFF769F9FCF7EAFE00210920EF
:10358000FCF7E6FEFFF74AF9FCF7E2FE002109200E
:10359000FCF7DEFEFFF72BF9FCF7DAFE002109202D
:1035A000FCF7D6FEFFF70CF9FCF7D2FE002109204C
:1035B000FCF7CEFEFFF7EDF8FCF7CAFE002109206C
:1035C000FCF7C6FEFFF7CEF8FCF7C2FE002109208B
:1035D000FCF7BEFEFFF7A0F8FCF7BAFE00210920B9
:1035E000FCF7B6FEFFF781F8FCF7B2FE00210920D8
:1035F000FCF7AEFEFFF762F8FCF7AAFE00210920F7
:10360000FCF7A6FEFFF743F8FCF7A2FE0021092015
:10361000FCF79EFEFFF724F8FCF79AFE0021092034
:10362000FCF796FEFEF7FFFFFCF792FE0021092053
:10363000FCF78EFEFEF7E0FFFCF78AFE0021092072
:10364000FCF786FEFEF7C1FFFCF782FE0021092091
:10365000FCF77EFEFEF7A2FFFCF77AFE00210920B0
:10366000FCF776FEFEF783FFFCF772FE00210920CF
:10367000FCF76EFEFEF764FFFCF76AFE00210920EE
:10368000FCF766FEFEF745FFFCF762FE002109200D
:10369000FCF75EFEFEF726FFFCF75AFE002109202C
:1036A000FCF756FEFEF707FFFCF752FE002109204B
:1036B000FCF74EFEFEF7E8FEFCF74AFE002109206B
:1036C000FCF746FEFEF7BAFEFCF742FE0021092099
:1036D000FCF73EFEFEF78CFEFCF73AFE00210920C7
:1036E000FCF736FEFEF75EFEFCF732FE00210920F5
:1036F000FCF72EFEFEF73FFEFCF72AFE0021092014
:10370000FCF726FEFEF720FEA021F0224900B2E6DB
:10371000474A5B00D65C454B1D71032DF4D9A7E6E3
:10372000FCF716FE00210920FCF712FEC3E6FCF7A9
:103730000FFE00210920FCF70BFE85E6FCF708FED2
:1037400000210920FCF704FE59E6FCF701FE0021E8
:103750000920FCF7FDFD3CE6FCF7FAFD00210920FD
:10376000FCF7F6FD1FE6FCF7F3FD00210920FCF74E
:10377000EFFD02E6FCF7ECFD00210920FCF7E8FD77
:10378000E5E5FCF7E5FD00210920FCF7E1FDC8E5D2
:10379000FCF7DEFD00210920FCF7DAFDABE5FCF7C4
:1037A000D7FD00210920FCF7D3FD8EE5FCF7D0FD05
:1037B00000210920FCF7CCFD71E5FCF7C9FD0021D3
:1037C0000920FCF7C5FD54E5FCF7C2FD00210920E6
:1037D000FCF7BEFD37E5FCF7BBFD00210920FCF737
:1037E000B7FD1AE5FCF7B4FD00210920FCF7B0FD98
:1037F000FDE4FCF7ADFD00210920FCF7A9FDE0E4A4
:10380000FCF7A6FD00210920FCF7A2FDB4E4FCF7BB
:103810009FFD00210920FCF79BFD97E4FCF798FD34
:1038200000210920FCF794FD7AE4C046E4700220F0
:1038300090D10010FCF78CFD00210920FCF788FDD9
:1038400058E4FCF785FD00210920FCF781FD3BE4ED
:10385000FCF77EFD00210920FCF77AFD1EE4FCF751
:1038600077FD00210920FCF773FDFFF701FCFCF751
:103870006FFD00210920FCF76BFDFFF7E2FBFCF771
:1038800067FD00210920FCF763FDFFF7C3FBFCF790
:103890005FFD00210920FCF75BFDFFF7A4FBFCF7AF
:1038A00057FD00210920FCF753FDFFF785FBFCF7CE
:1038B0004FFD00210920FCF74BFDFFF766FBFCF7ED
:1038C00047FD00210920FCF743FDFFF747FBFCF70C
:1038D0003FFD00210920FCF73BFDFFF728FBFCF72B
:1038E00037FD00210920FCF733FDFFF7FAFAFCF75A
:1038F0002FFD00210920FCF72BFDFFF7DBFAFCF779
:1039000027FD00210920FCF723FDFFF7ADFAFCF7A6
:103910001FFD00210920FCF71BFDFFF77FFAFCF7D4
:1039200017FD00210920FCF713FDFFF751FAFCF702
:103930000FFD00210920FCF70BFDFFF723FAFCF730
:1039400007FD00210920FCF703FDFFF7F5F9FCF75F
:10395000FFFC00210920FCF7FBFCFFF7C7F9FCF78F
:10396000F7FC00210920FCF7F3FCFFF799F9FCF7BD
:10397000EFFC00210920FCF7EBFCFFF76BF9FCF7EB
:10398000E7FC00210920FCF7E3FCFFF74CF9FCF70A
:10399000DFFC00210920FCF7DBFCFFF72DF9FCF729
:1039A000D7FC00210920FCF7D3FCFFF70EF9FCF748
:1039B000CFFC00210920FCF7CBFCFFF7EFF8FCF768
:1039C000C7FC00210920FCF7C3FCFFF7C1F8FCF796
:1039D000BFFC00210920FCF7BBFCFFF793F8C046B1
:1039E000F8B5CE464746804680B508200F00002136
:1039F0001C001500FCF7ACFC00210920FCF7A8FC1A
:103A00002A20FCF7F1FD01210920FCF7A1FC434627
:103A10008A4E1B0A9946337801210820522B00D187
:103A2000D4E0FCF795FC09200021FCF791FC002074
:103A3000FCF7DAFD4B46D8B2FCF7D6FD0121092090
:103A4000FCF786FC337801210820522B00D1EEE0F0
:103A5000FCF77EFC09200021FCF77AFC0020FCF733
:103A6000C3FD4346D8B2FCF7BFFD013D012109204B
:103A7000FCF76EFC2B129846337801210820522B5C
:103A800000D1CDE0FCF764FC09200021FCF760FCCC
:103A90004346180EFCF7A8FD4346D8B2FCF7A4FD38
:103AA00001210920FCF754FC337801210820ADB234
:103AB000522B00D1ADE0FCF74BFC09200021FCF7B4
:103AC00047FC0020FCF790FDE8B2FCF78DFD0121DA
:103AD0000920FCF73DFC00210820FCF739FC0021FF
:103AE0000920FCF735FC2B20FCF77EFD0121092085
:103AF000FCF72EFC3378012108203D0A522B00D11F
:103B000080E0FCF725FC09200021FCF721FC0020C7
:103B1000FCF76AFDE8B2FCF767FD01210920FCF71C
:103B200017FC337801210820522B64D0FCF710FCDD
:103B300009200021FCF70CFC0020FCF755FDF8B231
:103B4000FCF752FD01210920FCF702FC3378013C0F
:103B5000012108202512522B46D0FCF7F9FB092041
:103B60000021FCF7F5FB280EFCF73EFDE8B2FCF760
:103B70003BFD01210920FCF7EBFB337801210820F4
:103B8000A4B2522B29D0FCF7E3FB09200021FCF75B
:103B9000DFFB0020FCF728FDE0B2FCF725FD01214A
:103BA0000920FCF7D5FB00210820FCF7D1FB002100
:103BB0000920FCF7CDFB2C20FCF716FD0121092084
:103BC000FCF7C6FBC0BCB946B046F8BDFCF7C0FB6D
:103BD00000210920FCF7BCFB2CE7FCF7B9FB002116
:103BE0000920FCF7B5FBD7E7FCF7B2FB0021092061
:103BF000FCF7AEFBBAE7FCF7ABFB00210920FCF7B2
:103C0000A7FB9CE7FCF7A4FB00210920FCF7A0FB25
:103C100080E7FCF79DFB00210920FCF799FB53E7A7
:103C2000FCF796FB00210920FCF792FB34E7FCF738
:103C30008FFB00210920FCF78BFB12E7000400201A
:103C4000F8B505000C0008200021FCF781FB0021DD
:103C50000920FCF77DFB2A20FCF7C6FC0121092086
:103C6000FCF776FB864E0121337808202F0A522B71
:103C700000D1CCE0FCF76CFB09200021FCF768FBCD
:103C80000020FCF7B1FCF8B2FCF7AEFC01210920E2
:103C9000FCF75EFB337801210820522B00D1E7E0CE
:103CA000FCF756FB09200021FCF752FB0020FCF733
:103CB0009BFCE8B2FCF798FC01210920FCF748FBCB
:103CC0003378013D012108202F12522B00D1C8E08A
:103CD000FCF73EFB09200021FCF73AFB380EFCF70D
:103CE00083FCF8B2FCF780FC01210920FCF730FBD3
:103CF000337801210820ADB2522B00D1AAE0FCF7A5
:103D000027FB09200021FCF723FB0020FCF76CFCBB
:103D1000E8B2FCF769FC01210920FCF719FB00213E
:103D20000820FCF715FB00210920FCF711FB2B20D4
:103D3000FCF75AFC01210920FCF70AFB337801212A
:103D40000820250A522B00D17DE0FCF701FB092059
:103D50000021FCF7FDFA0020FCF746FCE8B2FCF776
:103D600043FC01210920FCF7F3FA337801210820F4
:103D7000522B61D0FCF7ECFA09200021FCF7E8FA9D
:103D80000020FCF731FCE0B2FCF72EFC01210920F9
:103D9000FCF7DEFA3378013C012108202512522B72
:103DA00043D0FCF7D5FA09200021FCF7D1FA280E00
:103DB000FCF71AFCE8B2FCF717FC01210920FCF71C
:103DC000C7FA337801210820A4B2522B26D0FCF781
:103DD000BFFA09200021FCF7BBFA0020FCF704FC25
:103DE000E0B2FCF701FC01210920FCF7B1FA002147
:103DF0000820FCF7ADFA00210920FCF7A9FA2C20D5
:103E0000FCF7F2FB01210920FCF7A2FAF8BDFCF750
:103E10009FFA00210920FCF79BFA34E7FCF798FA97
:103E200000210920FCF794FADAE7FCF791FA002167
:103E30000920FCF78DFABDE7FCF78AFA002109207A
:103E4000FCF786FA9FE7FCF783FA00210920FCF7CC
:103E50007FFA83E7FCF77CFA00210920FCF778FA67
:103E600056E7FCF775FA00210920FCF771FA38E7EC
:103E7000FCF76EFA00210920FCF76AFA19E7C04640
:103E800000040020104B10B514001A88824202D39F
:103E90005B888B4200D210BD0B000200FFF7A0FD33
:103EA00001210820FCF754FA00210920FCF750FA00
:103EB000200AFCF799FBE0B2FCF796FB01210920F0
:103EC000FCF746FAE7E7C046E4700220F8B5144B69
:103ED00004001D88002D02D05E88002E00D1F8BDA0
:103EE00033002A0000210020FFF77AFD012108207D
:103EF000FCF72EFA002109206E43FCF729FA002571
:103F0000270AE4B23800FCF76FFB01352000FCF70C
:103F10006BFBAE42F6D101210920FCF719FADEE76E
:103F2000E4700220F0B54E464546DE4657461C007A
:103F3000E0B5072687B0019310AB0391198811AB48
:103F40008846198804900291A188203A0E40731E79
:103F50009E41CB08F3181600E08846435E43236871
:103F60009C4605936644002861D0039B013B9BB2AD
:103F70009A46324B9946002959D0049B0025581E79
:103F8000534601339BB29B4680B21CE08023234101
:103F9000471C134229D04B461A88BBB29A4209D318
:103FA0004B465B885B4505D35146029AFFF76AFF93
:103FB000019B9988073C63425C410135ADB23619DB
:103FC000B8B28D4221D207241D4B32782C4098453F
:103FD000DCD180232341471C1342EBD0174B1A88B6
:103FE0009446BAB29445DCD2E4E74B461A88BBB299
:103FF0009A42DFD34B465B885B45DBD35146424652
:10400000FFF740FF019B9988D4E74B0700D00136AA
:10401000019B0398DA8853461B1A02339BB29A42DB
:1040200005D9534601339BB29A460029A5D107B062
:10403000F0BCBB46B246A946A046F0BDE4700220E3
:10404000FFFF0000F0B557464E46DE464546E0B558
:1040500085B01F000EAB1B888A4603930FAB1B88ED
:1040600081469B461F4B160019889846814231D3E2
:10407000588850452ED31278002A2BD0BB8855463D
:104080009C464C461DE0FB88EB18834201DD5546FB
:104090004C468C420CD885420AD85B460193039B60
:1040A0002900009320003B00FFF73CFFBB889C46A3
:1040B000727864440136A4B2002A0BD043461988B2
:1040C00058886346E3188B42DDDDFB884C46ED18CB
:1040D000ADB2D9E705B0F0BCBB46B246A946A04692
:1040E000F0BDC046E4700220F0B5C64600B507003A
:1040F00084B03C493C4807F099FF0E2301AD6B4466
:104100002E00984600211020FCF722F93800FCF719
:104110006BFAC820FCF78EFA0020FCF777FA84B21D
:104120000020FCF773FA2402A4B20443A4B20121D4
:104130001020E408FCF70CF93480C8200236FCF7A4
:1041400079FA4645DED12949274807F06FFF2B88C9
:104150006A88934201D92A806B802B88AA8893426F
:1041600001D92A80AB802B88EA88934201D92A8022
:10417000EB802B882A89934231D86B88AA88934296
:1041800001D96A80AB806B88EA88934201D96A8042
:10419000EB806B882A8993421ED8AB88EA889342C9
:1041A00001D9AA80EB80AB882A89934201D9AA80E1
:1041B0002B812B89EA889A4200D9EB80AB886888EA
:1041C0000321C018EB88C01880B204F0E7F880B271
:1041D00004B080BCB846F0BD6A802B81DDE72B813E
:1041E000CBE7C046C0C62D000000044080A81201E5
:1041F000F8B5D020FFF778FF04009020FFF774FF98
:1042000006000A20FCF716FAD020FFF76DFF050024
:104210009020FFF769FF07000A20FCF70BFAAC4279
:104220000CD2230031330020AB4206DBBE420DD25C
:10423000330031330020BB4210DAF8BD2B0031339C
:10424000A342F3DA0020AC42F7D1EAE73B00313376
:10425000B34203DA0020BE42EFD1E9E7044B641910
:10426000F61970106410D8809C800120E5E7C046E4
:10427000F070022000B52A4B83B01B78522B1BD064
:10428000284B1A7E062A0CD0002A21D1264A1A6110
:10429000264A5A61152252425A81123A9A8103B033
:1042A00000BD234A1A61234A5A61812292005A8131
:1042B000162252429A81F2E71A4B1F4A1A611F4A8C
:1042C0005A616422FF325A81783AFF3A9A81E6E7CE
:1042D000032A0BD0052A13D1194A1A61194A5A61C7
:1042E000194A5A81142252429A81D8E7174A1A6110
:1042F000174A5A61162252425A81103A9A81CEE7E1
:104300000020FFF7E3FDF8231B020193114B3C2132
:1043100000930020104B114AFFF794FEBFE7C04600
:1043200000040020F070022010B3B73DEA060A3EF8
:10433000239F07BE5950B83D6DABB9BDB6118F3D37
:10434000831808BE7826B43D050200005B25B83D01
:10435000D05F083EFFFF0000F8030020A0D100104E
:1043600010B50D4C07202378002B11D0FDF70AFF64
:104370000A4A00210020FCF7CFF90420FDF702FFD4
:104380000122237806485340237005F057F810BDEA
:10439000FDF7F8FE034AECE701040020E4D1001029
:1043A000FCD10010F0D10010F8B5CE4647461120E0
:1043B00080B5FBF7D7FF002800D082E0FFF718FF99
:1043C000002839D1B54FB64E3B8835889846B54C54
:1043D000237A7F2B03D8C023237263682360A84508
:1043E00026D973887A889A4222D96A1E302A03D83D
:1043F0005A1E302A00D8CBE02A000B3A552A00D9A1
:104400009BE01A00353A4E2A00D91EE1A64C2288BC
:10441000002A00D091E00720FDF7B4FE0021A34A56
:104420000020FCF779F90420FDF7ACFE012323807E
:10443000C0BCB946B046F8BD9D4B9A4C1B78522B78
:1044400051D0237E032B00D1B9E0002B48D1934FEC
:104450003B881800984604F00BFE051CA08804F069
:1044600007FE216904F0F7FD011C281C04F0D9FDAA
:10447000051C0A23E05E04F0FBFD011C281C04F06F
:10448000D0FD04F017FE864E85B23580788804F0A2
:10449000EFFD8146E08804F0EBFD616904F0DBFD8F
:1044A000011C484604F0BDFD81460C23E05E04F08B
:1044B000DFFD011C484604F0B4FD04F0FBFD7080F4
:1044C00086E70821774B5956187A002904DB002229
:1044D0001A60013A5A60ABE77F2202401A72A7E7DE
:1044E000052B00D081E0E08804F0C2FD216904F0D2
:1044F000B2FD051C0A23E05E04F0BAFD011C281C75
:1045000004F092FD04F0D6FD654E85B23580A0889A
:1045100004F0AEFD616904F09EFD071C0C23E05E13
:1045200004F0A6FD011C381C04F07EFD04F0C2FD61
:104530005A4F70803B8898464AE72A00733A572AB8
:104540000AD81A00343A4F2A06D8574A1188002947
:1045500002D1032313806BE72A00723A582A0AD843
:104560001A00963A4F2A06D84F4A1188002902D1DC
:10457000042313805CE72A00DB3A572A5AD9133DFB
:10458000FF3D2B2D00D953E7013B262B00D94FE7E8
:10459000484C07202378002B6FD0FDF7F3FD464AE7
:1045A00000210020FCF7B8F80420FDF7EBFD012204
:1045B000237842485340237004F040FF38E7A08836
:1045C00004F056FD216904F046FD051C0A23E05E57
:1045D00004F04EFD011C281C04F026FD04F06AFDC9
:1045E0002F4E85B23580E08892E72C4F3B8818002B
:1045F000984604F03DFD051CE08804F039FD216972
:1046000004F029FD011C281C04F00BFD051C0A23E5
:10461000E05E04F02DFD011C281C04F002FD04F0F6
:1046200049FD1F4E85B23580788804F021FD814612
:10463000A08830E71A00343A4F2A13D81A4A118852
:1046400000299CD105231380F2E61A00963A4F2ADE
:1046500000D972E7144A1188002900D06DE70223BF
:104660001380E5E61A00973A4E2A88D80E490A8840
:10467000002A06D106230B80DAE6FDF783FD104AF7
:104680008EE7133DFF3D2B2D03D8013B262B00D891
:104690007EE7072A00D0CBE6ECE7C046E4700220B4
:1046A0000C710220F07002205871022004D2001018
:1046B0000004002001040020E4D10010FCD100100F
:1046C000F0D1001070B5050001211020FBF740FE6D
:1046D000054CD0202576FFF707FDA0809020FFF73E
:1046E00003FDE08070BDC046F070022070B505008B
:1046F0000E0016200121FBF72BFEFF20FBF774FFB5
:1047000000211620FBF724FE1B4C02E0013C002C8C
:1047100025D0FF20FBF768FFFF28F7D14020284372
:10472000FBF762FF0020FBF75FFF0020FBF75CFF59
:104730000020FBF759FF0020FBF756FF3000FBF786
:1047400053FF0C2D14D0202403E0013CE4B2002CD4
:1047500004D0FF20FBF748FF0306F6D470BD01210B
:104760001620FBF7F5FDFF20FBF73EFFFF20F5E7E6
:10477000FF20FBF739FFE6E7FFFFFF0010B5FBF76F
:1047800033FF10BD7047C0467047C04610B5074C98
:1047900002E0013C002C06D0FF20FBF725FFFF289C
:1047A000F7D1002010BD0120FCE7C046FFFFFF004D
:1047B000F8B506000D00162001211700FBF7C8FD13
:1047C000FF20FBF711FF00211620FBF7C1FD1D4C58
:1047D00002E0013C002C27D0FF20FBF705FFFF285B
:1047E000F7D140203043FBF7FFFE280EFBF7FCFE1D
:1047F000280CC0B2FBF7F8FE280AC0B2FBF7F4FEA3
:10480000E8B2FBF7F1FE3800FBF7EEFE0C2E14D0F9
:10481000202403E0013CE4B2002C04D0FF20FBF78D
:10482000E3FE0306F6D4F8BD01211620FBF790FD48
:10483000FF20FBF7D9FEFF20F5E7FF20FBF7D4FEB2
:10484000E6E7C046FFFFFF0070B501210500092023
:10485000FFF74CFF061E09D001211620FBF778FD5B
:10486000FF20FBF7C1FE0126300070BD114C03E0B4
:10487000002CF1D0013CA4B2FF20FBF7B5FEFE28CE
:10488000F6D1002CE8D02C001034FF20FBF7ACFE52
:1048900028700135AC42F8D1FF20FBF7A5FEFF20C0
:1048A000FBF7A2FE01211620FBF752FDFF20FBF7CC
:1048B0009BFED9E7FFFF000000B585B06846FFF713
:1048C000C3FF00282ED16B463F221B789343402B19
:1048D0001FD06B46187ADB7980099B00C0186B46A5
:1048E000C0229B7912019B0213400130C0186B4615
:1048F0005A790F2313406A46927AD2099B186A4666
:10490000517A062249000A409B18073B984005B09F
:1049100000BD6B46187A5B7A00020133C01880B282
:104920008002F4E70020F2E7F0B5CE46474680B5B6
:104930000121162083B0FBF70BFD0A24013CFF2068
:10494000A4B2FBF751FE002CF8D1152503E0013D80
:10495000ADB2002D2DD095210020FFF7C7FE040039
:1049600006000128F3D1D52100235B4F87220820C0
:1049700049003B70FFF71CFF012831D101AB98467D
:104980001C0002AEFF20FBF72FFE20700134B44262
:10499000F8D16B469B79012B54D001211620FBF7EF
:1049A000D7FCFF20FBF720FE3C7863425C41E4B279
:1049B0000EE0494F3D7001211620FBF7C9FCFF2096
:1049C000FBF712FE3B78002B08D1002C00D1AA2463
:1049D000200003B0C0BCB946B046F0BD0024F7E7E4
:1049E00001213720FFF782FE01212920FFF77EFEFB
:1049F000012813D93E70394D394E03E0013DADB267
:104A0000B54244D001210120FFF770FE041EF5D10C
:104A10000024002D3BD100233B70CCE702232F4D17
:104A20002F4E3B7003E0013DADB2B5422FD00121C6
:104A30003720FFF75BFE01212920FFF757FE041EF8
:104A4000F1D1E5E76B46DB79AA2BA6D1244B234DA8
:104A5000994603E0013DADB24D4522D001213720FA
:104A6000FFF744FE802101222920C905FFF7A0FE9F
:104A7000041EEFD1002D14D101211620FBF768FC94
:104A8000FF20FBF7B1FD3B78002BA0D0A0E78021F1
:104A9000012210208900FFF78BFE002800D18AE751
:104AA000B9E701213A20FFF721FE002800D082E774
:104AB000FF20FBF799FD4346187001239C46E04414
:104AC000B045F5D16B461B795B0602D506233B70DA
:104AD00071E704233B706EE75A710220FEFF00006D
:104AE000FFFF0000F8B5344B06001B781700062BBB
:104AF00000D049020122012F39D01220FFF758FEC1
:104B000080239B009C4666442C4B2D4CF51803E0FB
:104B1000002C1ED0013CA4B2FF20FBF765FDFE284F
:104B2000F6D1002C15D0FF20FBF75EFD2870013573
:104B3000B542F8D1FF20FBF757FDFF20FBF754FDEE
:104B40008023013F9B00FFB2EE18002FDCD100252F
:104B500000E0012501210C20FFF7C8FD01211620EE
:104B6000FBF7F6FBFF20FBF73FFD2800F8BD112007
:104B7000FFF71EFE051EF1D1114C03E0002C19D0E9
:104B8000013CA4B2FF20FBF72FFDFE28F6D1002C3C
:104B900010D080239B00F418FF20FBF725FD307018
:104BA0000136B442F8D1FF20FBF71EFDFF20FBF7D2
:104BB0001BFDD3E70125D1E75A71022000FEFFFF5C
:104BC000FFFF0000F8B54746CE4680B5504B0600C3
:104BD0001B780C001700062B55D04C02012A66D01A
:104BE000012B52D1012221001920FFF7E1FD80465F
:104BF00000283CD180239B00F518E23BFF3B9946FF
:104C0000444C02E0013C002C24D0FF20FBF7ECFCDC
:104C1000FF28F7D1FC20FBF7E7FC340020780134B3
:104C2000FBF7E2FCA542F9D1FF20FBF7DDFCFF20FA
:104C3000FBF7DAFCFF20FBF7D7FC4B4618400528B2
:104C400008D180239B009C46013FFFB26644654427
:104C5000002FD5D12F4C02E0013C002C55D0FF2075
:104C6000FBF7C2FCFF28F7D1FD20FBF7BDFC0121BB
:104C70001620FBF76DFBFF20FBF7B6FC4046C0BCDF
:104C8000B946B046F8BD012A11D001213720FFF7FF
:104C90002DFD012239001720FFF78AFD0122210096
:104CA0001920FFF785FD80460028E0D1A2E7012208
:104CB00021001820FFF77CFD80460028D7D1154C35
:104CC00002E0013C002C20D0FF20FBF78DFCFF28E8
:104CD000F7D1FE20FBF788FC80239B00F418307886
:104CE0000136FBF781FCA642F9D1FF20FBF77CFCE3
:104CF000FF20FBF779FCFF20FBF776FC1F23034026
:104D0000052BB4D002239846B1E701239846AEE7BD
:104D10005A710220FFFFFF00F0B500240F2585B077
:104D2000204804F08BFB204804F088FB1F4F204EE6
:104D3000254232D078232200E1B21A401C421DD015
:104D4000782A1BD000230F220093300001336A44DD
:104D500007F0AAFA002811DB164804F011FC2B001A
:104D600023400F2B11D01448013404F009FC802C8F
:104D7000DED1124804F062FB05B0F0BD104804F02B
:104D8000FFFB2B0023400F2BEDD10A20013404F050
:104D900005FB802CEDD02542CCD12100380004F059
:104DA000EFFBC7E714D2001024D2001058D2001035
:104DB000E804002010D2001060D2001064D200106D
:104DC00068D2001070B5002684B003AC6070267005
:104DD000FFF7A2FF194D2200022340212800009670
:104DE00007F0FAF90123002200934021280007F080
:104DF000F3F90123002240212800009607F054FA1D
:104E0000FF2101400E4804F0BBFB00210D4804F0D7
:104E1000B7FBFC2322002380402128000096FA3BA8
:104E200007F0DAF9FD2322002380402128000096B4
:104E3000FB3B07F0D1F904B070BDC046E804002088
:104E40006CD200107CD2001010B50D490D4807F04F
:104E500099F903211A2000F0B1FA03211B2000F078
:104E6000ADFA002201211A2000F0C0FA002201212F
:104E70001B2000F0BBFA0020FFF7A4FF10BDC046C6
:104E8000A0860100E804002010B5052000F0EEF92E
:104E9000014B186010BDC04644080020F0B54546DF
:104EA000DE4657464E46E0B583B001920C9A0500A7
:104EB00088469A4200D974E01A0E93461E023000CA
:104EC000002359460C9A03F0ABFA374B6C009C4612
:104ED0006419A400644463680700834200D26060E0
:104EE0002B1FDBB29946012B35D9C02380229B01B1
:104EF000234312011A602D4BAD0059599A460029DF
:104F000005D0586903F04AFA01300138FDD1019A01
:104F1000236852015340E0221A4080235B0123435F
:104F20001A604A46012A2FD9802380229B012343FD
:104F300012011A60300000233A005946676003F0FE
:104F40006FFA53465851012003B0F0BCBB46B2463D
:104F5000A946A046F0BD4346012BC6D1C02303227B
:104F60009B0123431A60023AA3681A42FCD0019ABB
:104F7000236852015A40E0231A4080235B012343F7
:104F80001A600A4AAD009246424621685140032207
:104F90000A401A60012243469A40A3681A42FCD094
:104FA000C2E70020D0E7C04600800040801000200B
:104FB00030B50C2083B001F0B5FC00F0CDF900282D
:104FC0000ED0944B944A1A605A609A60DA601A6163
:104FD0005A619A61DA611A62904A5A6203B030BD2E
:104FE0008F4CA06701F0F2FC01228E4B1A60636CBB
:104FF000012BFCD103228C4B1A60894A936B012B45
:10500000FCD101330121894A89480093043301F01E
:1050100031FC0523874A00930121874801F02AFCCF
:10502000864B5A68FF2A02D8802252005A6080229A
:10503000784C7D4B21691201804D1A60002905D002
:10504000606903F0ABF901300138FDD1E0217B4B01
:1050500002201A681140802252012A431160196807
:10506000484003210140116004219A681142FCD09C
:105070008022802192012A4309011160802252007E
:105080005A606F4B23616F4B5968FF2900D85A60F3
:105090000321644A6B4B116002399A681142FCD0BB
:1050A000E0201A681040802252011A4310601868EC
:1050B0004840032101400220116062498A68104281
:1050C000FCD0802292011343802212011A608022B8
:1050D0005D4B52004A6063615C4B5968FF2900D800
:1050E0005A6080225A4BE1691201584D1A6000291A
:1050F00005D0606903F052F901300138FDD1E0229A
:1051000052490B681A4080235B012B431A608023AD
:1051100080229B012B4312011A6080223E4B5200D9
:105120004A60E3614B4B5968FF2900D85A608022DE
:10513000494B216A1201474D1A60002905D0606968
:1051400003F02CF901300138FDD1E02241490B6810
:105150001A4080235B012B431A60802380229B012D
:105160002B4312011A60802380225B004B602A4B84
:10517000D2022362394B5968914200D25A60802290
:10518000374B616A1201354D1A60002905D06069FC
:1051900003F004F901300138FDD1E0222F490B68FA
:1051A0001A4080235B012B431A60802380229B01DD
:1051B0002B4312011A608023DB024B60174B6362A2
:1051C000284B5A68FF2A02D8802252005A60802257
:1051D000254BA1691201234D1A60002905D0606991
:1051E00003F0DCF801300138FDD1E0221D490B68E5
:1051F0001A4080235B012B431A60802380229B018D
:105200002B4312011A6080235B004B600E4BA3619D
:10521000E4E6C04680100020006CDC021BB70000F2
:10522000008000403CB0004030B00040002F685982
:1052300000800240008C864700C002403080004061
:10524000001BB7003C800040405973075480004069
:1052500054B000406080004060B000406C8000406E
:105260006CB000404880004048B00040014B8000D6
:10527000C05870478010002070B5EFF3108C72B6E4
:105280000D4D2B68002BFCD0BFF35F8F0724CB089C
:10529000C618C05C01230C40A3401C00044003421C
:1052A00007D103433370BFF35F8F2C608CF31088FA
:1052B00070BD100001F010FD2C0100D0F8B547467C
:1052C000CE46884680B5EFF3108C72B6214D2C681F
:1052D000002CFCD0BFF35F8F9A422CD8D40807274C
:1052E000055D061901241740BC402C421FD0072140
:1052F0000127894609E0D408055D06194C463900A6
:105300001440A1400C00294211D001329342F2D244
:1053100001204042BFF35F8F00220E4B1A608CF3D6
:10532000108800280FDBC0BCB946B046F8BD2C433E
:1053300010003470EEE7BFF35F8F00232B608CF317
:105340001088012040424346002BECD0089801F021
:10535000C3FCC0462C0100D0024B18688007C00F68
:105360007047C04600C006400021044B044ABFF30A
:105370005F8F02C39342FAD17047C046000100D04C
:10538000800100D0044A1078431CDBB2172B00D9EF
:10539000102313707047C0460204002000B5054B6F
:1053A00083B00100009318221F230348FFF786FFF4
:1053B00003B000BD94D200107C100020094A830085
:1053C00094464022634410B51C68C0006240C0246B
:1053D00014408022520113431C60034B9C466044DE
:1053E000416010BD04C00140004001400A4B8000F4
:1053F0009C4604236044002901D00C230821002A84
:1054000000D10B00026853400C221A4080235B013C
:10541000184302607047C04604C001400123D022F7
:105420008340120693629361094A830094464022A6
:1054300063441968C0004A40C021114080225201D3
:1054400013431960034B9C46052360444360704737
:1054500004C001400040014001238340002904D0E2
:10546000034A1360034A13607047034A1360FBE763
:1054700080E200E000E100E080E100E00123834001
:10548000014A13607047C04600E200E0084B10304C
:105490009B688000C358002B07D0064A00209B1A47
:1054A0002F229A424041C0B270470020FCE7C0461C
:1054B00000ED00E004040020024B10309B688000E7
:1054C000C058704700ED00E070B50D00EFF3108696
:1054D00072B60F4A1368002BFCD0BFF35F8F0D4BE1
:1054E00010309B6884001B590B4A934203D09D42A5
:1054F00001D001F009FC074B9B681D51BFF35F8F82
:10550000BFF35F8F0022024B1A6086F3108870BDD4
:10551000240100D000ED00E0CD010010F0B55746A9
:105520004E46DE464546E0B585B0060002911700BE
:10553000EFF3108B72B6674A1368002BFCD0BFF3F1
:105540005F8F0025644B5D579A46002D00DAA5E079
:105550006B00624C03935B199B009846A146C144C3
:105560004B4652469B79103613705D4BB2009B68D8
:10557000019299580B1B2F2B34D95A4B994200D0CA
:10558000A5E0039B584A9C46584B6544AD006353C5
:10559000434602336519E418554B0121043B1B1B9C
:1055A0001B055B0D13436B80524BEF71AB80FF23E8
:1055B000AB71029BAB604B460B431900484B019A01
:1055C0009B689950BFF35F8FBFF35F8F0022414B01
:1055D0001A608BF3108805B0F0BCBB46B246A946F2
:1055E000A046F0BD01200A008243D379BB422FD8E8
:1055F00045464E46130040491B1B5B415943090D6C
:105600003A4B63533A4B02356519043B5B1B1B0550
:10561000354D5B0D2B4373800426B446E04444446F
:10562000131F1B1B4C46A17102991B05A160494623
:105630005B0D2B43A380314BE77101431360BDE742
:105640005800C01880002018C679BE422CD902002C
:105650000623D356002BF3DA101D8246BD2000022C
:10566000804604267642B446E14450464E46361AF9
:105670003005400D824656461B489571064396807C
:10568000039A944665441D4AAD006419226042465F
:10569000A371029BA280E771A3608FE701F034FB46
:1056A000002553465D5753E7101D824690884005FC
:1056B000001584464046D444664604302018301A0B
:1056C000E0260005400D360230438046C9E701F070
:1056D0001BFB56E7240100D0607102200404002067
:1056E00000ED00E0CD01001000E0FFFF00A1FFFF92
:1056F0003404002000BDFFFFAAAA00000148804733
:10570000F0B5DE4657464E464546E0B50C0083B040
:10571000EFF3108A72B65A4A1368002BFCD0BFF31D
:105720005F8F1022914681444A46564B96009B68F3
:105730009D59554B98469D4205D0A54216D0534FD2
:10574000EB1B2F2B14D94F4B9B689D51BFF35F8FE1
:10575000BFF35F8F00224A4B1A608AF3108803B0B0
:10576000F0BCBB46B246A946A046F0BD1D00EAE724
:10577000012383409B465A46454B1B681A400092C2
:105780005A46444B1A60BFF35F8FFAF76CFD0190E5
:10579000002803D0814501D001F0B6FA01232A0088
:1057A0009A4393689C4208D15FE04B005B189B00D2
:1057B000FB189968A14211D01A0006215156002900
:1057C000F3DA009B002B05D05A46334B1A60304B5E
:1057D0001A60B8E75A462F4B1A60B4E706215956AB
:1057E000002921DB4A00501880003C188046A06840
:1057F0009860E079D871062020569871002824DB43
:10580000A488F81A6405241544440019E02400050E
:10581000400D2402204398805218204B9200BF185C
:105820001A781970BA71CCE70199002910D1FF31AB
:1058300091711B49918019490A789A71194ADB1BA9
:105840005B415A43120D0A70BBE7BD200002E2E73C
:10585000154A1649D21A083A5002400D0143998060
:10586000134952080A43DA80ABE706215156130068
:105870000029B7DA019A002AEAD14546DBE7C0469B
:10588000240100D000ED00E0CD0100100404002050
:1058900000E100E080E100E080E200E060710220D1
:1058A00000BDFFFFAAAA00003E04002000F0FFFF99
:1058B00000F8FFFFF8B5012504000543FAF7D3FC13
:1058C000EFF3108C72B6214A1368002BFCD0BFF3A3
:1058D0005F8F1F4E2100B7681E4A1F4B891A49412E
:1058E0004B431B0D59B28300F858A8421CD0062325
:1058F000D3568B421CD01223D3568B4222D01E2368
:10590000D3568B4220D02A23D35603208B4210D06B
:10591000124B1A781970A271BFF35F8F00220B4BE4
:105920001A608CF31088F8BDB2680D48D050EFE7CC
:10593000002043001B189B00D218FF239371094BD2
:105940009380E5E70120F4E70220F2E7240100D08C
:1059500000ED00E004040020AAAA0000607102200B
:10596000CD01001000BDFFFF054B064A1360064A3B
:10597000136053609360D360136153619361704708
:105980008080808000E400E004E400E0D02300B5E3
:105990001B061B680100074883B0C018064B002295
:1059A00000930523FFF78AFC002801DB1F23181A48
:1059B00003B000BD54710220B0D20010024B9C46CF
:1059C00061448900016070474000003483680B48DF
:1059D00010B5844661446244090112019A185918AD
:1059E00054684B6801209C4201D802D00020C0B20C
:1059F00010BD12680B689A42F9D8F7E7FFFFFF0F56
:105A00000A4B1968EFF3108072B60A68002AFCD0BE
:105A1000BFF35F8F1B68BFF35F8F00221A6080F3B4
:105A2000108840BF002000217047C0461871022036
:105A3000F8B557464E464546DE46E0B599460CABAE
:105A40001C780DAB1B78060090469A460768002C20
:105A500011D1BC7B002C42D065003B682D19033D61
:105A600059194B78BB73002B00D1FB7300238B704B
:105A70004B700B7004E065003B682D19033D59190C
:105A8000B2682A4B94464246E3181B0163441A60ED
:105A90004A465A600A9A9A600B9ADA6000238B7021
:105AA0004B700B707B7B9B46002B2BD02200594602
:105AB000B8687B6898473A68002816D05B46584615
:105AC0005B005B445519033BA870D118D35C002BD5
:105AD00000D06B705B460C707B73A34513D0F0BC99
