:020000041000EA
:1000000000B5324B212058609868022188439860DF
:10001000D860186158612E4B002199600221596106
:100020000121F02299502B49196001219960352056
:1000300000F044F80222904214D00621196600F024
:1000400034F8196E01211966002018661A6600F04E
:100050002CF8196E196E196E052000F02FF8012189
:100060000842F9D1002199601B49196000215960AB
:100070001A491B48016001219960EB211966A021F2
:10008000196600F012F800219960164914480160C1
:100090000121996001BC002800D000471248134993
:1000A000086003C880F30888084703B5996A0420EC
:1000B0000142FBD001200142F8D103BD02B5186610
:1000C0001866FFF7F2FF186E186E02BD00000240BE
:1000D000000000180000070000035F00212200005C
:1000E000F4000018222000A00001001008ED00E03C
:1000F00000000000000000000000000074B24E7A12
:1001000000200420F7010010C3010010C5010010F9
:10011000C1010010C1010010C1010010C101001097
:10012000C1010010C1010010C1010010C701001081
:10013000C1010010C1010010C9010010CB01001065
:10014000CD010010CD010010CD010010CD01001037
:10015000CD010010CD010010CD010010CD01001027
:10016000CD010010CD010010CD010010CD01001017
:10017000CD010010CD010010CD010010CD01001007
:10018000CD010010CD010010CD010010CD010010F7
:10019000CD010010CD010010CD010010CD010010E7
:1001A000CD010010CD010010CD010010CD010010D7
:1001B000CD010010CD010010CD010010CD010010C7
:1001C00000BE00BE00BE00BE00BE00BE00F04BF888
:1001D000103800BEF2EB8871AC0A0110D00A011091
:1001E0003402001090A31AE700202149086006C8D5
:1001F00081F3088810471F48006800282FD10DA4FC
:100200000ECC002902D000F012F8F9E71A491B4A77
:10021000002000E001C19142FCD1194988471949E9
:1002200088471949884700BEFDE701C901C29A42C3
:10023000FBD37047D00A0110C00000203405002015
:10024000440F01100000042000000420440F01109E
:1002500000100420001004200000000070470B482C
:100260000AF098F80047EFF30580C0B2704700002D
:1002700008ED00E0000000D0380500208CC6022008
:10028000918C00100D030010818D00105756000056
:1002900006005250ABB3605368080110060052507C
:1002A000861C030278080110060052505422A29DB9
:1002B0008808011005005250DE65F468440F0110F3
:1002C000F8B5C04610B5064C2378002B07D1054B76
:1002D000002B02D0044800E000BF0123237010BDB2
:1002E000400800200000000088E60010044B10B514
:1002F000002B03D00349044800E000BF10BDC046F6
:10030000000000004408002088E6001010B500F04E
:1003100001F8FCE710B500F071F800F039F801F0D1
:10032000C7FF06F0CFFD06F0D9FCC82104208900E4
:1003300002F046F8042006F0A7F904F003FA0020C2
:1003400003F0C2FE05F080FA00210020054A04F007
:10035000C1FB00210020044A04F0BCFB05F060FF53
:10036000FCE7C04688E6001094E600100123D02286
:1003700083401206002901D0536170479361FCE766
:10038000D0231B065B68C340012018407047C0465D
:1003900010B50020D02407F07FF801232406A362C3
:1003A000012007F079F802230220A36207F074F815
:1003B00004230320A36207F06FF808230420A3623C
:1003C00007F06AF810230022A3620121002007F041
:1003D0004BF800220121012007F046F800220121FC
:1003E000022007F041F800220121032007F03CF829
:1003F00000220121042007F037F810BDF0B5C646F1
:1004000000B584B0334803AB02AA01A908F084FB0D
:10041000002803D12F49304808F0B4FC039A029910
:10042000019808F03DFB0BF007F90DF0E3FF2B48B6
:100430000DF0FCFF0021402007F080FE0F2007F0A8
:100440002BF8D024802324061B026362082007F0C7
:1004500023F88023802680275B006362B6010D208D
:1004600007F01AF8BF000920666207F015F810209F
:10047000676207F011F880235B02636211209846DF
:1004800007F00AF8802380259B02A362ED03162063
:1004900007F002F8002201211120656206F0E4FF56
:1004A00043460F4963610F486761666165610DF0FE
:1004B00091FD01210A2006F0BFFF01210B2006F06B
:1004C000BBFF01210C2006F0B7FF002004B080BC68
:1004D000B846F0BD90D00300A0E60010F80300205D
:1004E00000093D000000044010B584B06B460F24A5
:1004F0006C44D91D08700123220003480EF0B4F8A3
:10050000207804B010BDC0460000044010B582B091
:100510006B46DC1D991D08700123220002480EF075
:10052000A3F8207802B010BD0000044010B507F019
:100530001DFE10BD7047C046030010B50120002B02
:1005400000D010BD06F0D2F90028FAD006F0FCF871
:10055000FF2006F0F5F806F0F9F80120F1E7C046B3
:100560000020704770B50D00040011001A1E11D054
:100570000120002C00D070BD280006F095FA00285C
:10058000F9D006F0E1F8FF2006F0DAF806F0DEF820
:100590000120F0E70420EEE770B50D000400110023
:1005A0001A1E0AD00120002C00D070BD280006F0D1
:1005B000EBFA431E9841C0B2F7E70420F5E7C046C6
:1005C00070B514000125002808D102290FD007D8E2
:1005D000002911D006F052F900252060280070BDD6
:1005E00004250329FAD1082300251380F6E7802388
:1005F0009B0000251380F1E700211620FFF7B6FECF
:1006000006F0A6F8431E98410121C5B21620FFF757
:10061000ADFEE3E700207047013AF8B51B4BD5006B
:10062000AD184833ED00ED18C8234746CE465B01B0
:1006300080B580460E00002799463100404603F001
:10064000CBFB01210820FFF791FE2C00002109209F
:10065000FFF78CFE483C2088000AFFF745FF207812
:100660000234FFF741FFAC42F5D1A02341370136F8
:100670009B00FF37B6B2E5184F45DED101210920B6
:10068000FFF774FEC0BCB946B046F8BD5812002052
:10069000F0B557464E464546DE46E0B517005A428D
:1006A000534163225B42934385B0643380460E001E
:1006B0000093632F00D8D2E00A21380009F0C4FE6D
:1006C0003800CCB2642109F0BFFEC8B20A2109F09B
:1006D000BBFEC3B29B466421380009F0B5FE5A4602
:1006E000C3B21A4303930292009A694B9446A50041
:1006F0002D1914336D00654401939C4600239946DF
:100700008C2337005B014E469A46B9466D0065441E
:100710003900404603F060FB01210820FFF726FE68
:100720002C0000210920FFF721FE143C2088000A3C
:10073000FFF7DAFE20780234FFF7D6FEAC42F5D19F
:10074000A023413601379B00FF36BFB2E51856455E
:10075000DED101210920FFF709FE029B002B73D097
:1007600043460A3B9BB29A465B469D00009B5D4414
:100770009C46019B6D0065449C4600234F4699466C
:100780008C235B014E469B46B9466D00654439009B
:10079000504603F021FB01210820FFF7E7FD2C0064
:1007A00000210920FFF7E2FD143C2088000AFFF732
:1007B0009BFE20780234FFF797FEAC42F5D1A023D0
:1007C000413601379B00FF36BFB2E5185E45DED1EA
:1007D000039B4E46002B37D09C469F00009B6744EE
:1007E0009C46019B7F0067449C46002345469846F3
:1007F0008C23143DADB25B0199462B0045469846CB
:100800007F0067443100404603F0E6FA01210820EA
:10081000FFF7ACFD3C0000210920FFF7A7FD143CC9
:100820002088000AFFF760FE20780234FFF75CFEA4
:10083000A742F5D1A0239B009C4641350136FF35E8
:10084000B6B267444D45DDD101210920FFF78EFD89
:1008500005B0F0BCBB46B246A946A046F0BD3B0081
:100860000A3B592B0ED80A21380009F0EDFD38005B
:10087000CCB20A2109F0E8FDC3B29B4602930023E3
:10088000039331E700233C009B46029303932BE73D
:10089000944A0020F0B5DE4657464E4645469346FC
:1008A000E0B5674C0122A5440290039104A8594683
:1008B00001F09AFB634E644F1E223B00310004A8F6
:1008C00001F05CFC594661480AF0AAFEB1887388C1
:1008D000090419435E480AF0A3FEB489738924040D
:1008E0001C4321005B480AF09BFEB38A728A1B04FA
:1008F00013431900584800930AF092FE338BF28A92
:100900001B0413431900554801930AF089FEB18B6B
:1009100053480AF085FE04A801F05EFC51480AF035
:100920007FFE0122594604A801F05EFB3B00220035
:10093000310004A801F022FC4B4B1B78522B0CD049
:1009400004A801F049FC01208F239B009D44F0BCCA
:10095000BB46B246A946A046F0BD962292029446F6
:10096000424B994663449846B4239B00F418693B74
:10097000FF3B9A464D46B244B4223B003100520040
:1009800004A801F0FBFBB4223B005200514604A82E
:1009900001F0F4FB2800320093785178DB088908D5
:1009A0004901DB020B4311780332C9080B43038072
:1009B0000230A242F0D1E135FF354545DCD16B462E
:1009C0000399188903F008FA01210820FFF7CEFCEB
:1009D00000210920FFF7CAFC254926480DF076FBC7
:1009E000594625480DF09AFD002815D05946234850
:1009F0000DF094FD002819D04C462088000AFFF71E
:100A000073FD20780234FFF76FFD4445F5D10121D5
:100A10000920FFF7ABFC93E7009A019B13495A4367
:100A2000520092B216480AF0F1FB89E7009A019B46
:100A30000E495A43520092B212480AF0E7FB7FE790
:100A4000C4FDFFFFBC0C00205C080020D4E60010B1
:100A5000DCE60010F0E6001004E700101CE70010D0
:100A600034E7001048E7001010040020F86D002063
:100A700080B2E60E0000044088E6001094E6001004
:100A800058120020944A0020002370B50371013BE6
:100A900004000D00C3624B1C09D00A002100012391
:100AA00040783031FFF75EFD00281FD1E562124B20
:100AB000E25A124B9A421BD12200663253881188A7
:100AC0001B040B430E4A1B021B0A934212D08223C3
:100AD000E25A0C4B82349C466088000410430002AA
:100AE000000A6044431E9841C0B270BD0320FCE779
:100AF0000220FAE70020F8E72E02000055AA0000C5
:100B000046415400BABEABFFF0B5C646C66A040003
:100B10000D0000B58E4235D0070003793037002B29
:100B20000BD101232A0039006078FFF71BFD002854
:100B300026D1E56280BCB846F0BD01233200390001
:100B40004078FFF729FD00281AD1226AA369207195
:100B5000B21A9A42E5D2E2789046012A01D8E0E73B
:100B6000A369F6183200012339006078FFF714FDFD
:100B700001235B429C46E0444346012BF0D1D0E781
:100B80000120D7E70020D5E7F0B54546DE465746B9
:100B90004E460023E0B50C68150083B00360002CBE
:100BA00000D1C4E02378303B082B00D8B6E0C84B16
:100BB0001C68002C00D11DE123780460002B0FD0AD
:100BC0006078FFF7CDFCC3070AD4002D00D10DE1FA
:100BD00004231E000640034200D1FFE00A26FDE088
:100BE000002300202380FFF7A7FCC30700D5FFE008
:100BF000002D01D04307F1D400212000FFF744FF6E
:100C00000600012800D194E0032800D13AE1002534
:100C1000002800D0E1E022003B3211785378802296
:100C20001B0292000B43934200D0D6E04623E65AC3
:100C3000002E00D1666D4023A661E25C531EE27077
:100C4000012B00D9C9E03D23E75CA770002F00D13C
:100C5000C3E07B1E1F4200D0BFE04123E15C2300C4
:100C600041335B781B020B43984623811B0700D05E
:100C7000B3E04323E15C230043335B781B020B4367
:100C800000D1236DE18F8B46002900D1A5E072438E
:100C90001100019242468A4612095A449244534531
:100CA00000D29AE052469B1A99463900180009F082
:100CB000CBFBB94500D290E0864B984200D8E3E0E8
:100CC000854B984200D821E15B46EB1823625346DE
:100CD000EB18A362434602306061E561002B7CD1D2
:100CE000E36D800063627D4B9C466044400A86420F
:100CF00073D301235B422361E36081336371203B43
:100D0000E35A012B00D182E00323754A2370138834
:100D1000002601339BB21380E3805FE062783A2AB9
:100D200000D044E702340C60002B00D13FE70B26D3
:100D300054E0F9235B00E35C0027002B0CD0FB237D
:100D40005B00E118E25C4B788F781B021A43CB788A
:100D50003F0417431B061F43624B0025E35C002B37
:100D60000BD0614BE2185178E55C09029378294376
:100D7000D5781B0419432D060D4300225B4B90468A
:100D8000E35C002B0CD05A4BE0184278E15C120275
:100D900083781143C2781B040B4312061A43904612
:100DA0000022544B9146E35C002B0CD0524BE018D0
:100DB0004278E15C120283781143C2781B040B4332
:100DC00012061A439146002F45D1002D4BD14346C0
:100DD000002B4FD14B46002B0ED10D26300003B017
:100DE000F0BCBB46B246A946A046F0BD0026F5E7DA
:100DF0000326F3E70C26F1E749462000FFF744FEFF
:100E00004D46002800D106E70328E7D0E5E720009B
:100E1000691CFFF779FE002800D075E7434663712F
:100E2000364BE25A364B9A4200D06DE7354B226B77
:100E30009A4200D068E785229200334BA2589A422A
:100E400000D061E7862387229B009200E358A258D6
:100E50002361E26058E739002000FFF715FE002803
:100E6000B3D13D00D7E629002000FFF70DFE002892
:100E7000ADD1D0E641462000FFF706FE45460028EA
:100E8000A8D1C8E60126A9E75B464146EB18821CBB
:100E9000E561554462612362A56200299DD00199F4
:100EA00050008C46634463620123801840081A4056
:100EB00080180A4A94466044400A864200D28CE771
:100EC000012252422261E260813262711DE7C04616
:100ED00060080020F50F0000F5FF0000FF01000092
:100EE00076C6022002020000060200001202000084
:100EF0001602000022020000260200002E0200005E
:100F000055AA000052526141727241615B464246ED
:100F1000EB180230E561554460612362A562002A46
:100F200000D15AE7019A4000944663446362022369
:100F3000BFE7C046F0B5C646077804000D0000B50F
:100F4000022F08D0032F3FD0012F17D0012040429D
:100F500080BCB846F0BD036A090A9C466144FFF7AD
:100F6000D3FD0028F2D1FF216D0049000D40641926
:100F70003034637820781B021843E9E7036A4E088F
:100F80009C467618710A6144FFF7BEFD0028DDD14A
:100F9000F305DB0DE31830331B7801369846236ADE
:100FA000710A9C4620006144FFF7AEFD0028CDD1B8
:100FB0004346F605F60DA419303420780002184394
:100FC0002F421FD00009C3E7036AC9099C46614448
:100FD000FFF79AFD0028B9D1FE21AD0049000D4070
:100FE0002B003033E318D8789A786419120400067D
:100FF000303410435B7822781B0210431843000101
:101000000009A5E70005000DA2E7C046F8B54E4669
:10101000DE46574645469B468468C368E0B51B1BC1
:1010200006000F009946934200D991464B46002B8B
:1010300000D190E02200D305DD0D002B41D13368B3
:10104000500A99784C1E0440E4B2002C00D184E090
:1010500070695A690238023A904200D38CE0996A6A
:101060009A788C4650436044002800D184E0804642
:101070008021A0448900894500D386E0B26990456B
:101080001AD035004024B17928350C420BD058785D
:1010900029000123FFF780FA002800D0A0E0B379EF
:1010A000A343B37133685878424601232900FFF700
:1010B00059FA002800D093E04346B361B368DD05D8
:1010C000ED0D80239B00591B494500D94946022458
:1010D0002B00A4462933F3180634FB1A9C459B4188
:1010E000A446481E2A008445A44128325B4264423B
:1010F000B2181C4200D177E03B0013439B0700D09D
:1011000072E000238C08A400D558FD500433A3429C
:10111000FAD103230C009C4323001219C01A3C1976
:101120008B4209D013782370002805D05378637060
:10113000012801D09378A370B3685846CA185B465B
:101140001B68B2605B1803604B465B1A99467F18B8
:10115000002B00D06FE7002011E0002A32D1306967
:10116000012809D9431C3BD0336870615A690238A1
:10117000023A904200D272E702230220F371F0BCDF
:10118000BB46B246A946A046F8BD4946490A8A462A
:1011900061188A4201D2121B92465246D2B2587846
:1011A000390013004246FFF7DDF9002818D1B37962
:1011B0005B0604D54246B3699B1A9A4530D853461C
:1011C0005902B9E7726A9246002A14D1716901295D
:1011D000D2D95A699142CFD21800FFF7ABFEBFE7D0
:1011E00001230120F371CAE70023D05CF8540133D6
:1011F0009942FAD1A0E704235344984609F024F910
:1012000053465B68002BB7D0424604E00832C01A50
:101210001368002BB0D09842F8D25368C0189FE7EB
:101220003100320002205B02FB1829312832591AA2
:1012300088420BD219001143890707D151595951DE
:101240008021043589008D42F8D1B8E7515D5955A8
:101250008021013589008D42F8D1B0E7F8B54746C5
:10126000CE46067804000D00904680B5022E0BD0C5
:10127000032E45D00227012E1AD0012338002371F6
:10128000C0BCB946B046F8BD036A090A9C46614431
:10129000FFF73AFC071EF0D16B00FF2542466D00B8
:1012A0002B40E31830331A7092B2120A5A70E4E7F6
:1012B0004B08994689444B46590A036A9C46614447
:1012C000FFF722FC071ED8D14B46DB05DB0DE318E8
:1012D00030332E4233D00F2219784D46114042460A
:1012E00012010A431A70236A01359C46690A2000DC
:1012F00026716144FFF708FC00283DD00700BCE7D9
:10130000036AC9099C466144FFF7FEFB071EB4D17E
:10131000FE21AD0049000D402B0041463033E3185B
:10132000DA786519120912070A4391B2090A3035B1
:101330002A705970110C120E9970DA709DE74246AE
:101340001A704D46236A01359C46690A20002671B1
:101350006144FFF7D9FB0028D0D1ED05ED0D6519EB
:101360002B0042460F2130331B78120A8B430A4070
:101370001A4330352A7080E74346ED05ED0D1A0912
:10138000D2B26519F5E7C046F8B503790400002B21
:101390000BD12378032B29D0002200216078FFF79E
:1013A0000FF9431E9841C0B2F8BD0700C56A303737
:1013B00001232A0039004078FFF7EEF800283AD1DF
:1013C000226AA3692071AA1A9A42E2D2E678012E13
:1013D00001D8DEE7A369ED182A00012339006078FF
:1013E000013EFFF7D9F8012EF4D1D2E76379012B42
:1013F000D2D125008022303500219200280009F04A
:10140000FFFE0E4B0E4A2900E2520E4B0E4A23639A
:1014100085239B00E25022690433E250E2680433E2
:10142000E250E36960785A1CE2620123FFF7B4F8E6
:1014300000236371B0E70120B6E7C0462E0200002A
:1014400055AAFFFF5252614172724161F0B54E469A
:101450004546DE465746E0B58946050083B000297B
:101460001ED1C7684369002F34D10137FF225200D3
:101470009346023A3C00924601349C421FD3012F0E
:1014800000D891E0022B1CD902242E78022E00D124
:1014900076E0032E57D0012E20D00124644211E0C3
:1014A00001290ED0436999420BD2FFF743FD040096
:1014B000012806D96B69834204D84F46D6E7012C30
:1014C000E3D80124200003B0F0BCBB46B246A946D5
:1014D000A046F0BDBB42C9D80127C7E763089846BC
:1014E000A0444346590A2B6A28009C466144FFF7F2
:1014F0000BFB0028D1D14346DB05DB0DEB18303365
:101500001B782800019301239C46E0444346590A76
:101510002B6A9C466144FFF7F7FA0028BDD141468B
:10152000CB05DB0DEB1830331B78019A1B021343FC
:1015300026423BD01B09002B3BD0012BC1D0A74238
:1015400032D06B6998E72B6AE1099C462800614418
:10155000FFF7DAFA0028A0D15346A2001A40110082
:1015600030316918CB788878AA18303212781B0687
:101570000004034313434A78120213431B01D9E7C3
:101580002B6A210A9C4628006144FFF7BDFA002817
:1015900000D082E75B4662001A40AA1830325178C8
:1015A000137809020B43C6E700248BE71B051B0DCC
:1015B000C1E76B69A34200D883E721002800134AE2
:1015C000FFF74CFE002803D0012800D165E778E73B
:1015D0004B46002B0DD0012B00D172E76B6999456A
:1015E00000D36EE7220049462800FFF737FE0028A7
:1015F000EAD12B69EC605A1C00D163E70122013B60
:101600002B616B7913436B715CE7C046FFFFFF0FE3
:10161000F0B557464546DE464E46E0B585680700BC
:101620000C0083B0C180012D26D006687369AB42DF
:1016300022D9002D57D0B27812019046914200D2A3
:1016400091E0FF22520093469D4215D2337899468D
:10165000022B00D195E0032B5AD0012B14D001208E
:101660000BE0756A002D41D0B2781201904691428C
:1016700000D278E0012DE4D1022003B0F0BCBB46DB
:10168000B246A946A046F0BD6B089A46AA44534606
:10169000590A336A30009C466144FFF735FA002846
:1016A000DDD15346DB05DB0DF31830331B783000FA
:1016B000019301239C46E2445346590A336A9C46EF
:1016C0006144FFF721FA0028C9D15146CB05DB0D53
:1016D000F61830363378019A1B0213434A462A42E1
:1016E00063D01D0932E03278032ABAD00023FB60B0
:1016F0003389A342C0D9726A2309944663443B618B
:101700000F210C4030366401341900207C61B4E7AD
:10171000336AE9099C4630006144FFF7F5F9002877
:101720009DD1FE22AB00520013401A003032B21895
:10173000D5789178F31830331B782D0609040D43C2
:101740001D4353781B021D432D012D09012D93D9F3
:101750003E687369AB4200D88EE74246A41AA4B231
:10176000444500D370E7FD60023B023D9D421FD21D
:10177000B3785D43B36A9C46654423095D193D61B6
:10178000BEE7336A290A9C4630006144FFF7BCF982
:10179000002800D063E75B466D001D4076193036A7
:1017A000737835781B021D43D0E71B051D0DCDE76F
:1017B0000025E2E7F8B557464546DE464E46E0B519
:1017C0000B7805008A462F2B53D05C2B51D0002478
:1017D0005346AC601B781F2B54D95646AB69327800
:1017E0002F2A01D05C2A01D10136F8E720221A7095
:1017F0005A709A70DA701A715A719A71DA711A7293
:101800005A729A723278202A19D900218C460831EE
:10181000884602218A4603218B46711E894661460D
:101820009C462B0000244546012798460B002F2A92
:1018300055D05C2A53D02E2A2AD09D4206D80620A5
:10184000F0BCBB46B246A946A046F8BD51B200293D
:1018500005DA59460C43B449803A8A5CE4B2222145
:10186000B24803E041780130002923D08A42F9D1FF
:10187000E5E701239C460024E2445346AC601B7814
:101880001F2BAAD800212800FFF7C2FE6C61D7E702
:10189000082DD4D108230B25A400E4B24A46013711
:1018A000D25D202AC3D842466346A846F6191500E1
:1018B00004221DE011004139192906D851460C4374
:1018C000E4B26146CA540133E8E7110061391929CD
:1018D000F7D80121203A0C43E4B2D2B2F1E74246F4
:1018E0001900A84663461500F6190029A7D0002262
:1018F0001978E52901D1E03919704146082900D14C
:1019000005E103212140012901D10F310A430C21B6
:101910000C40042C01D104390A4300212800DA725A
:10192000FFF776FE002800D0F7E02C682F69B0465C
:101930003E0027000823FC6A9A46B4420ED03022AB
:1019400091463B79B944002B31D1012332004946FD
:101950007878FEF707FE002859D1FE626A6914788C
:10196000002C5FD050465346D17A08400B4261D0DC
:10197000EC880134A4B2002C54D02E69002E51D032
:101980000F23234099460F23234242D02F684B4612
:101990005A013B00EC803033FC6A9B186B61B44207
:1019A000DCD0302291463B79B944002BCDD00123C5
:1019B000220049467878FEF7EFFD002827D13A6AE1
:1019C000BB693871A21A9A42BFD2FA789346012AAB
:1019D000BBD931002A004E465D468946934600E059
:1019E000BB69E4182200012331007878013DFEF73D
:1019F000D3FD012DF4D14B46B1461E0049460123CB
:101A0000320078785D46FEF7ADFD0028A5D00120B4
:101A100016E7E96801362F682E61002954D13B8909
:101A2000A342B4D8AB69DB7A04205B0700D507E793
:101A3000052005E7AB691F78A74299D157785C78F4
:101A4000A74295D19F789478A74291D1D778DC7836
:101A5000A7428DD117791C79A74289D157795C7932
:101A6000A74285D197799C79A74200D080E7D779A2
:101A7000DC79A74200D07BE7177A1C7AA74200D016
:101A800076E7577A5C7AA74200D071E7977A9C7A1A
:101A9000A74200D06CE7DC7A4646640700D5CFE663
:101AA000C906C5D5D17E907E090201432868007819
:101AB000032801D0A96092E6147D527D12022243D0
:101AC00012041143A9608AE6BB782209013B1A423D
:101AD00000D05CE7012918D07B69994215D2380003
:101AE000FFF728FA012810D9431C90D02F687B6992
:101AF000984297D2E860023B023898420AD2BB78FB
:101B00005843BB6AC6182E6141E7022098E6A4003C
:101B1000E4B2FCE600262E6139E7AB69DB7A0428E3
:101B200000D08DE680E7C04664E7001054E700105F
:101B3000F8B54546DE4657464E464369E0B50400D3
:101B40000D00994200D398E0012914D9FF2326788B
:101B50005B009946023B98460127022E00D175E0B2
:101B6000032E38D0012E08D00120F0BCBB46B2466F
:101B7000A946A046F8BD0220F7E76B089A46AA449A
:101B80005346590A236A20009C466144FEF7BCFF75
:101B90000028E9D15346DB05DB0DE31830331B7811
:101BA00020009B4601239C46E2445346590A236A7F
:101BB0009C466144FEF7A8FF0028D5D153465A46FB
:101BC000DB05DB0DE31830331B781B0213432E4279
:101BD00055D01E091CE0236AE9099C462000614497
:101BE000FEF792FF0028BFD14246AB0013401A0017
:101BF0003032A218D6789178E31830331B78360645
:101C000009040E431E4353781B021E433601360956
:101C1000002E32D0012EAED06369AB42ABD9002288
:101C200029002000FFF71AFB00289ED123695A1CC7
:101C300020D00133236163793B43637163699E4222
:101C40001BD235002678022E00D089E7236A290AA4
:101C50009C4620006144FEF757FF002800D083E730
:101C60004A466B001340E31830335A781E7812024C
:101C70001643CDE76369B342E3D8002075E71E053C
:101C8000360DC5E7F0B5DE464E4657464546E0B54B
:101C9000002185B00600FFF7BBFC041E0AD0042813
:101CA00000D10724200005B0F0BCBB46B246A946CF
:101CB000A046F0BD3369356898460F239A46EC6A12
:101CC00044450ED02F002B793037002B59D10123FA
:101CD000424639006878FEF745FC002842D1434669
:101CE000EB6273691B78E52B01D0002B24D131699D
:101CF0003068FEF709FF041ED4D12022002170694C
:101D000009F07EFA7369B26919001143890700D09E
:101D1000F1E0511C591A022900D8ECE01168196051
:101D200051685960117A1972517A5972927A9A727D
:101D3000012233681A71B5E7F4880134A4B2002C8B
:101D4000AFD033699846002BABD057465346274057
:101D5000234209D035687B012F003037FF18F4800B
:101D60007761ACE701249DE701239C46E0444346AC
:101D7000F16835683361002928D12B89A342EAD85C
:101D80008FE70123220039006878FEF705FC002860
:101D9000E8D12A6AAB692871A21A9A4297D2EA78E6
:101DA0009146012A93D932002E004D46914600E01B
:101DB000B369E4182200012339007078013DFEF771
:101DC000EBFB012DF4D135004E4680E7AB782209BC
:101DD000013B1A42BFD1012921D06B6999421ED221
:101DE0002800FFF7A7F802000190012817D9431C2B
:101DF000B8D035686B69984213D2023A0292023B1E
:101E0000019AF260029A934200D885E0AB785A4377
:101E10001300AA6A90469844434633619BE7022424
:101E200040E72800F168FFF711FB031E019000D185
:101E300037E70128F3D0013394D035682B79002B94
:101E40006DD12800802200219200303009F0D8F9AD
:101E5000019B35689A1E6B690292023B9A4200D33D
:101E600090E01100A86AAA78804651438844414610
:101E7000E962002A3CD000230394BB464446B146A5
:101E800098462F00012330372200390068782B71E3
:101E9000FEF782FB002800D064E72A6AAB6928714C
:101EA000A21A9A420ED2EE78012E01D80AE0AB694E
:101EB000E4182200012339006878013EFEF76CFB2C
:101EC000012EF4D14B4647461D680137EB6A5C1C76
:101ED000FBB29846AB78EC624345D2D84346A04665
:101EE00042465F464E46D31A98466B69039C023BB6
:101EF0004246EA6284E711781970517859709178F6
:101F00009970D178D9701179197151795971917984
:101F10009971D179D97105E7002398467CE7EB6A7E
:101F20006878984630239B46AB44424659462F3B3F
:101F3000FEF732FB002800D014E74246296AAB695D
:101F40002871521A9A421BD2EA789146012A17D96F
:101F500042463100A0462E0014004D46B9465F4669
:101F60008B4600E0B369E418220001233900707841
:101F7000013DFEF711FB012DF4D144464F465E466C
:101F800035685EE70021AA78884670E700B583B01F
:101F90000B1E019000911AD00978303908290FD909
:101FA00010490B68002B01D000201870019B002BFA
:101FB00015D000200B601870012A0AD003B000BDB4
:101FC00058783A28ECD1023300930029E8D00B204E
:101FD000F4E70022694601A8FEF7D6FDEEE70020EF
:101FE0000B60EBE760080020F0B54746CE4680B5B1
:101FF0008DB0040017000191002868D000231E2234
:1020000003603A4001A905A8FEF7BEFD051E05D0F4
:1020100028000DB0C0BCB946B046F0BD1F233B4000
:102020009846019902AB05A80B93FFF7C3FB002864
:102030000FD10A9E002E00D19BE01C233B420FD003
:102040001122F37A1A4246D17B0700D48DE008258D
:10205000DEE71C233B4201D004283ED00500D7E731
:10206000F37ADA0635D4BA0701D5DB0733D4082270
:1020700005983A4003D0424620231A439046C36A4B
:102080002662E3614346A3710023E371F37EB27ECF
:102090001B0213430278032A05D1727D377D120299
:1020A0003A43120413432361717F337FB27F0902E5
:1020B0001943F37F120411431B060B43E360002313
:1020C0002060A360A3616362C388A380A0E70925A1
:1020D0009EE704259CE707259AE705A8FFF7D2FDB0
:1020E000424608231A4390460A9E0028B6D1FEF7BE
:1020F00091FA83B21B0AF373030C33740023B07399
:10210000000E70740598F77EF37233777377B377A8
:10211000F377B27E03783F021743032B05D1737D1B
:10212000317D1B020B431B041F430023B376F37660
:102130003375737501330371002F9CD0012F1AD0B2
:1021400043699F4217D2C36A39009946FFF7F0FCF2
:10215000002883D10598013F4946C760FEF7D4FCAB
:10216000002800D07AE7059885E73B07BFD405989B
:1021700085E706254CE702254AE7C046F8B51D006D
:10218000002304000E0017002B6000281ED00368F7
:10219000002B1BD01A78002A18D08288D9880920F1
:1021A000914200D0F8BD5878FEF7DAF901230342D6
:1021B00010D1E0790028F5D1A279134208D02B0084
:1021C0003A0031002000FEF721FFEBE70920E9E7A4
:1021D0000720E7E70320E5E7F8B5041E60D00368B1
:1021E000002B5DD01A78002A5AD0D9888288092518
:1021F000914201D02800F8BD5878FEF7B1F90123CB
:102200001D00054003424DD1A3799A0645D54026CD
:102210001E420CD021002368A2695878283101237E
:10222000FEF7BAF900283FD1A379B343A371E1695E
:102230002068FEF769FC071E01D00500DAE72022BE
:10224000266AF37A1343F372E3683377A3891B0A90
:102250007377E389B377E37BF3772369B3769AB235
:102260001B0C120A33751B0AF2767375FEF7D2F94E
:10227000202283B21B0AB075F375030C000E33766F
:102280007076B774F774A37920689343A371012320
:102290000371FFF779F8002808D100232360A9E72C
:1022A0000925A7E70325A5E70125A3E70500A1E781
:1022B00010B501211620FEF759F801210920FEF77B
:1022C00055F801211020FEF751F80D4901220D4863
:1022D000FFF75CFE0C4B011E187003D00B4809F091
:1022E0009FF910BD0A4809F0F9F80A4B0A4A19008B
:1022F0001431FF3108C20B338B42FBD1F1E7C046EA
:102300009C020110604800207DC60220A00201103E
:10231000D802011040110020946D002070B5254CAA
:102320002378522B00D070BD431EDBB20025062B54
:1023300031D9214B1871032829D9A022F02152004C
:102340005980082000211A80FEF710F8002109208A
:10235000FEF70CF83620FEF7C7F801210920FEF73A
:1023600005F8237801210820522B1CD0FDF7FEFF31
:1023700009200021FDF7FAFF0020FEF7B5F828003C
:10238000FEF7B2F801210920FDF7F0FFCBE7A0210D
:10239000F0224900D4E7094A5B00D55C064B18716E
:1023A0000328F4D9C9E7FDF7E1FF00210920FDF773
:1023B000DDFFE4E71004002010C602200003011036
:1023C00070B5012182B005000F20FDF7CFFFFA2084
:1023D0004000FEF7ABF800210F20FDF7C7FFFA2001
:1023E0004000FEF7A3F801210F20FDF7BFFFFA2000
:1023F0004000FEF79BF86B469E1D0023002109203C
:102400003370FDF7B3FF00210820FDF7AFFFDC209C
:10241000FEF76AF86B46DC1D220001233100F44808
:102420000CF022F901210920FDF7A0FF2378F14CDF
:10243000002108202370522B01D100F000FCFDF791
:1024400095FF00210920FDF791FF2120FEF74CF8B0
:1024500001210920FDF78AFF00210820FDF786FFF2
:1024600000210920FDF782FFC220FEF73DF801217F
:102470000920FDF77BFF237801210820522B00D192
:10248000D6E3FDF773FF09200021FDF76FFF002061
:10249000FEF72AF83320FEF727F801210920FDF77F
:1024A00065FF00210820FDF761FF00210920FDF7ED
:1024B0005DFFC520FEF718F801210920FDF756FF42
:1024C000237801210820522B01D101F0E1F9FDF719
:1024D0004DFF09200021FDF749FF0020FEF704F819
:1024E0000020FEF701F801210920FDF73FFF2378C6
:1024F00001210820522B01D101F0C2F9FDF736FF6E
:1025000009200021FDF732FF0020FDF7EDFF1E201E
:10251000FDF7EAFF01210920FDF728FF23780121BB
:102520000820522B01D101F0A3F9FDF71FFF09206C
:102530000021FDF71BFF0020FDF7D6FF8020FDF7EF
:10254000D3FF01210920FDF711FF00210820FDF72D
:102550000DFF00210920FDF709FFB120FDF7C4FFA1
:1025600001210920FDF702FF237801210820522BC9
:1025700001D101F075F9FDF7F9FE09200021FDF701
:10258000F5FE0020FDF7B0FFB020FDF7ADFF012103
:102590000920FDF7EBFE00210820FDF7E7FE0021F2
:1025A0000920FDF7E3FE3620FDF79EFF01210920FB
:1025B000FDF7DCFE237801210820522B01D101F028
:1025C00047F9FDF7D3FE09200021FDF7CFFE0020DB
:1025D000FDF78AFF2820FDF787FF01210920FDF77D
:1025E000C5FE00210820FDF7C1FE00210920FDF7EE
:1025F000BDFEE020FDF778FF01210920FDF7B6FEC2
:10260000237801210820522B01D101F019F9FDF79F
:10261000ADFE09200021FDF7A9FE0020FDF764FFB3
:102620000020FDF761FF01210920FDF79FFE2378BF
:1026300001210820522B01D101F0FAF8FDF796FE96
:1026400009200021FDF792FE0020FDF74DFF132029
:10265000FDF74AFF01210920FDF788FE23780121BB
:102660000820522B01D101F0DBF8FDF77FFE092095
:102670000021FDF77BFE0020FDF736FF1820FDF757
:1026800033FF01210920FDF771FE23780121082085
:10269000522B01D101F0BCF8FDF768FE09200021A2
:1026A000FDF764FE0020FDF71FFF0420FDF71CFF6F
:1026B00001210920FDF75AFE237801210820522B21
:1026C00001D101F09DF8FDF751FE09200021FDF731
:1026D0004DFE0020FDF708FF0F20FDF705FF01214B
:1026E0000920FDF743FE237801210820522B01D158
:1026F00001F07EF8FDF73AFE09200021FDF736FED5
:102700000020FDF7F1FE0620FDF7EEFE0121092075
:10271000FDF72CFE237801210820522B01D101F076
:102720005FF8FDF723FE09200021FDF71FFE0020C2
:10273000FDF7DAFE3A20FDF7D7FE01210920FDF76B
:1027400015FE237801210820522B01D101F040F819
:10275000FDF70CFE09200021FDF708FE0020FDF723
:10276000C3FE5620FDF7C0FE01210920FDF7FEFD46
:10277000237801210820522B01D101F021F8FDF727
:10278000F5FD09200021FDF7F1FD0020FDF7ACFE6D
:102790004D20FDF7A9FE01210920FDF7E7FD237873
:1027A00001210820522B01D101F002F8FDF7DEFDD6
:1027B00009200021FDF7DAFD0020FDF795FE03203A
:1027C000FDF792FE01210920FDF7D0FD23780121BC
:1027D0000820522B01D100F0E3FFFDF7C7FD0920CF
:1027E0000021FDF7C3FD0020FDF77EFE04E0C0469A
:1027F00000000440100400200A20FDF775FE0121AE
:102800000920FDF7B3FD237801210820522B01D1C7
:1028100000F0BEFFFDF7AAFD09200021FDF7A6FD8F
:102820000020FDF761FE0620FDF75EFE0121092074
:10283000FDF79CFD237801210820522B01D100F0E7
:102840009FFFFDF793FD09200021FDF78FFD00207C
:10285000FDF74AFE3020FDF747FE01210920FDF774
:1028600085FD237801210820522B01D100F080FF43
:10287000FDF77CFD09200021FDF778FD0020FDF724
:1028800033FE3E20FDF730FE01210920FDF76EFDED
:10289000237801210820522B01D100F061FFFDF7C0
:1028A00065FD09200021FDF761FD0020FDF71CFEFC
:1028B0000F20FDF719FE01210920FDF757FD00212A
:1028C0000820FDF753FD00210920FDF74FFDE12011
:1028D000FDF70AFE01210920FDF748FD23780121BB
:1028E0000820522B01D100F033FFFDF73FFD0920F6
:1028F0000021FDF73BFD0020FDF7F6FD0020FDF770
:10290000F3FD01210920FDF731FD23780121082085
:10291000522B01D100F014FFFDF728FD0920002102
:10292000FDF724FD0020FDF7DFFD1320FDF7DCFDA2
:1029300001210920FDF71AFD237801210820522BDF
:1029400001D100F0F5FEFDF711FD09200021FDF792
:102950000DFD0020FDF7C8FD1820FDF7C5FD012184
:102960000920FDF703FD237801210820522B01D116
:1029700000F0D6FEFDF7FAFC09200021FDF7F6FC79
:102980000020FDF7B1FD0120FDF7AEFD012109207A
:10299000FDF7ECFC237801210820522B01D100F037
:1029A000B7FEFDF7E3FC09200021FDF7DFFC002066
:1029B000FDF79AFD1120FDF797FD01210920FDF794
:1029C000D5FC237801210820522B01D100F098FE7C
:1029D000FDF7CCFC09200021FDF7C8FC0020FDF725
:1029E00083FD0620FDF780FD01210920FDF7BEFCD7
:1029F000237801210820522B01D100F079FEFDF748
:102A0000B5FC09200021FDF7B1FC0020FDF76CFDAD
:102A10003820FDF769FD01210920FDF7A7FC237887
:102A200001210820522B01D100F05AFEFDF79EFC37
:102A300009200021FDF79AFC0020FDF755FD342008
:102A4000FDF752FD01210920FDF790FC23780121BB
:102A50000820522B01D100F03BFEFDF787FC092036
:102A60000021FDF783FC0020FDF73EFD4D20FDF722
:102A70003BFD01210920FDF779FC23780121082085
:102A8000522B01D100F01CFEFDF770FC0920002143
:102A9000FDF76CFC0020FDF727FD0620FDF724FD67
:102AA00001210920FDF762FC237801210820522B27
:102AB00001D100F0FDFDFDF759FC09200021FDF7D3
:102AC00055FC0020FDF710FD0D20FDF70DFD012147
:102AD0000920FDF74BFC237801210820522B01D15E
:102AE00000F0DEFDFDF742FC09200021FDF73EFC71
:102AF0000020FDF7F9FC0B20FDF7F6FC0121092071
:102B0000FDF734FC237801210820522B01D100F07D
:102B1000BFFDFDF72BFC09200021FDF727FC00205D
:102B2000FDF7E2FC3120FDF7DFFC01210920FDF774
:102B30001DFC237801210820522B01D100F0A0FDBB
:102B4000FDF714FC09200021FDF710FC0020FDF723
:102B5000CBFC3720FDF7C8FC01210920FDF706FC5E
:102B6000237801210820522B01D100F081FDFDF7CF
:102B7000FDFB09200021FDF7F9FB0020FDF7B4FC67
:102B80000F20FDF7B1FC01210920FDF7EFFB00212B
:102B90000820FDF7EBFB00210920FDF7E7FB3A20B9
:102BA000FDF7A2FC01210920FDF7E0FB23780121BC
:102BB0000820522B01D100F053FDFDF7D7FB09206F
:102BC0000021FDF7D3FB0020FDF78EFC5520FDF71B
:102BD0008BFC01210920FDF7C9FB00210820FDF72E
:102BE000C5FB00210920FDF7C1FB1120FDF77CFC8E
:102BF00009200121FDF7BAFB7820FDF797FC0021A1
:102C00000820FDF7B3FB00210920FDF7AFFB2920C9
:102C1000FDF76AFC01210920FDF7A8FB2378522B60
:102C200001D100F0E6FC3220FDF780FC02B070BD5F
:102C3000FDF79CFB00210920FDF798FB2AE4FDF736
:102C400095FB00210920FDF791FB1120FDF74CFCBD
:102C500001210920FDF78AFB6420FDF767FC0021B4
:102C60000820FDF783FB00210920FDF77FFB3620BC
:102C7000FDF73AFC01210920FDF778FB23780121BB
:102C80000820522B01D100F06EFFFDF76FFB0920E9
:102C90000021FDF76BFB0020FDF726FC0020FDF76F
:102CA00023FC01210920FDF761FB00210820FDF72D
:102CB0005DFB00210920FDF759FB3A20FDF714FCCC
:102CC00001210920FDF752FB237801210820522B16
:102CD00001D100F040FFFDF749FB09200021FDF77D
:102CE00045FB0020FDF700FC5520FDF7FDFB012111
:102CF0000920FDF73BFB00210820FDF737FB0021F1
:102D00000920FDF733FBB220FDF7EEFB012109207E
:102D1000FDF72CFB237801210820522B01D100F074
:102D200012FFFDF723FB09200021FDF71FFB002008
:102D3000FDF7DAFB0C20FDF7D7FB01210920FDF799
:102D400015FB237801210820522B01D100F0F3FE5E
:102D5000FDF70CFB09200021FDF708FB0020FDF723
:102D6000C3FB0C20FDF7C0FB01210920FDF7FEFA93
:102D7000237801210820522B01D100F0D4FEFDF769
:102D8000F5FA09200021FDF7F1FA0020FDF7ACFB70
:102D90000020FDF7A9FB01210920FDF7E7FA2378C0
:102DA00001210820522B01D100F0B5FEFDF7DEFA1B
:102DB00009200021FDF7DAFA0020FDF795FB33200A
:102DC000FDF792FB01210920FDF7D0FA23780121BC
:102DD0000820522B01D100F096FEFDF7C7FA09201A
:102DE0000021FDF7C3FA0020FDF77EFB3320FDF73D
:102DF0007BFB01210920FDF7B9FA00210820FDF72E
:102E0000B5FA00210920FDF7B1FAB720FDF76CFBF8
:102E100001210920FDF7AAFA237801210820522B6D
:102E200001D100F068FEFDF7A1FA09200021FDF7AD
:102E30009DFA0020FDF758FB3520FDF755FB0121D9
:102E40000920FDF793FA00210820FDF78FFA0021F1
:102E50000920FDF78BFABB20FDF746FB0121092075
:102E6000FDF784FA237801210820522B01D100F0CC
:102E70003AFEFDF77BFA09200021FDF777FA0020E2
:102E8000FDF732FB2820FDF72FFB01210920FDF77C
:102E90006DFA00210820FDF769FA00210920FDF7ED
:102EA00065FAC020FDF720FB01210920FDF75EFA3D
:102EB000237801210820522B01D100F00CFEFDF7F0
:102EC00055FA09200021FDF751FA0020FDF70CFB0F
:102ED0003C20FDF709FB01210920FDF747FA0021FD
:102EE0000820FDF743FA00210920FDF73FFAC22030
:102EF000FDF7FAFA01210920FDF738FA23780121BC
:102F00000820522B01D100F0DEFDFDF72FFA092039
:102F10000021FDF72BFA0020FDF7E6FA0120FDF76E
:102F2000E3FA01210920FDF721FA00210820FDF72D
:102F30001DFA00210920FDF719FAC320FDF7D4FA84
:102F400001210920FDF712FA237801210820522BD4
:102F500001D100F0B0FDFDF709FA09200021FDF7CD
:102F600005FA0020FDF7C0FA0B20FDF7BDFA01219C
:102F70000920FDF7FBF900210820FDF7F7F90021F2
:102F80000920FDF7F3F9C420FDF7AEFA012109206D
:102F9000FDF7ECF9237801210820522B01D100F034
:102FA00082FDFDF7E3F909200021FDF7DFF900209C
:102FB000FDF79AFA2020FDF797FA01210920FDF785
:102FC000D5F900210820FDF7D1F900210920FDF7EE
:102FD000CDF9C620FDF788FA01210920FDF7C6F9D1
:102FE000237801210820522B01D100F054FDFDF778
:102FF000BDF909200021FDF7B9F90020FDF774FAA9
:103000000F20FDF771FA01210920FDF7AFF900212A
:103010000820FDF7ABF900210920FDF7A7F9D02022
:10302000FDF762FA01210920FDF7A0F923780121BB
:103030000820522B01D100F026FDFDF797F9092059
:103040000021FDF793F90020FDF74EFAA420FDF7CB
:103050004BFA01210920FDF789F923780121082085
:10306000522B01D100F007FDFDF780F90920002166
:10307000FDF77CF90020FDF737FAA120FDF734FABF
:1030800001210920FDF772F900210820FDF76EF9F2
:1030900000210920FDF76AF9E020FDF725FA01215A
:1030A0000920FDF763F9237801210820522B01D173
:1030B00000F0D9FCFDF75AF909200021FDF756F977
:1030C0000020FDF711FAD020FDF70EFA01210920AA
:1030D000FDF74CF9237801210820522B01D100F093
:1030E000BAFCFDF743F909200021FDF73FF9002064
:1030F000FDF7FAF90120FDF7F7F901210920FDF7A5
:1031000035F9237801210820522B01D100F09BFCD6
:10311000FDF72CF909200021FDF728F90020FDF723
:10312000E3F90820FDF7E0F901210920FDF71EF978
:10313000237801210820522B01D100F07CFCFDF7FF
:1031400015F909200021FDF711F90020FDF7CCF950
:103150000F20FDF7C9F901210920FDF707F92378B0
:1031600001210820522B01D100F05DFCFDF7FEF893
:1031700009200021FDF7FAF80020FDF7B5F911202C
:10318000FDF7B2F901210920FDF7F0F823780121BC
:103190000820522B01D100F03EFCFDF7E7F8092092
:1031A0000021FDF7E3F80020FDF79EF92A20FDF746
:1031B0009BF901210920FDF7D9F823780121082086
:1031C000522B01D100F01FFCFDF7D0F8092000219F
:1031D000FDF7CCF80020FDF787F93620FDF784F9DC
:1031E00001210920FDF7C2F8237801210820522B84
:1031F00001D100F000FCFDF7B9F809200021FDF72E
:10320000B5F80020FDF770F95520FDF76DF90121A3
:103210000920FDF7ABF8237801210820522B00D1BB
:10322000E2E3FDF7A3F809200021FDF79FF8002055
:10323000FDF75AF94420FDF757F901210920FDF760
:1032400095F8237801210820522B00D1C5E3FDF722
:103250008DF809200021FDF789F80020FDF744F9D9
:103260003A20FDF741F901210920FDF77FF8237885
:1032700001210820522B00D1A8E3FDF777F809209F
:103280000021FDF773F80020FDF72EF90B20FDF764
:103290002BF901210920FDF769F823780121082085
:1032A000522B00D186E3FDF761F809200021FDF7DC
:1032B0005DF80020FDF718F90620FDF715F901214A
:1032C0000920FDF753F8237801210820522B00D163
:1032D00069E3FDF74BF809200021FDF747F80020CE
:1032E000FDF702F91120FDF7FFF801210920FDF794
:1032F0003DF8237801210820522B00D14CE3FDF743
:1033000035F809200021FDF731F80020FDF7ECF831
:103310002020FDF7E9F801210920FDF727F8002119
:103320000820FDF723F800210920FDF71FF8E12010
:10333000FDF7DAF801210920FDF718F823780121BB
:103340000820522B00D120E3FDF710F809200021BE
:10335000FDF70CF80020FDF7C7F8D020FDF7C4F802
:1033600001210920FDF702F8237801210820522BC2
:1033700000D103E3FCF7FAFF09200021FCF7F6FF78
:103380000020FDF7B1F80220FDF7AEF80121092079
:10339000FCF7ECFF237801210820522B00D1E6E254
:1033A000FCF7E4FF09200021FCF7E0FF0020FDF717
:1033B0009BF80720FDF798F801210920FCF7D6FFBC
:1033C000237801210820522B00D1C9E2FCF7CEFF5F
:1033D00009200021FCF7CAFF0020FDF785F80A202C
:1033E000FDF782F801210920FCF7C0FF23780121B5
:1033F0000820522B00D1ACE2FCF7B8FF09200021D5
:10340000FCF7B4FF0020FDF76FF80B20FDF76CF818
:1034100001210920FCF7AAFF237801210820522B63
:1034200000D18FE2FCF7A2FF09200021FCF79EFFEC
:103430000020FDF759F81820FDF756F80121092062
:10344000FCF794FF237801210820522B00D172E26F
:10345000FCF78CFF09200021FCF788FF0020FDF716
:1034600043F83420FDF740F801210920FCF77EFFE6
:10347000237801210820522B00D155E2FCF776FF7A
:1034800009200021FCF772FF0020FDF72DF84320F2
:10349000FDF72AF801210920FCF768FF23780121B4
:1034A0000820522B00D138E2FCF760FF09200021F0
:1034B000FCF75CFF0020FDF717F84A20FDF714F831
:1034C00001210920FCF752FF237801210820522B0B
:1034D00000D11BE2FCF74AFF09200021FCF746FF60
:1034E0000020FDF701F82B20FCF7FEFF0121092049
:1034F000FCF73CFF237801210820522B00D1FEE18C
:10350000FCF734FF09200021FCF730FF0020FCF716
:10351000EBFF1B20FCF7E8FF01210920FCF726FF49
:10352000237801210820522B00D1E1E1FCF71EFF96
:1035300009200021FCF71AFF0020FCF7D5FF1C2012
:10354000FCF7D2FF01210920FCF710FF23780121AD
:103550000820522B00D1C4E1FCF708FF092000210C
:10356000FCF704FF0020FCF7BFFF2220FCF7BCFFA4
:1035700001210920FCF7FAFE237801210820522BB3
:1035800000D1A7E1FCF7F2FE09200021FCF7EEFED6
:103590000020FCF7A9FF1F20FCF7A6FF012109204E
:1035A000FCF7E4FE00210820FCF7E0FE00210920E2
:1035B000FCF7DCFE5520FCF797FF01210920FCF702
:1035C000D5FE237801210820522B00D17BE1FCF7A6
:1035D000CDFE09200021FCF7C9FE0020FCF784FF86
:1035E000B020FCF781FF01210920FCF7BFFEFFF7A7
:1035F00006FB6B1EDBB20026062B00D854E1F14B14
:103600001D71032D00D84BE1A022F02152005980FA
:10361000082000211A80FCF7A9FE00210920FCF7F0
:10362000A5FE3620FCF760FF01210920FCF79EFE75
:10363000237801210820522B00D13DE1FCF796FEB2
:1036400009200021FCF792FE0020FCF74DFF30001E
:10365000FCF74AFF01210920FCF788FEFFF7E3FA97
:10366000FCF784FE00210920FCF780FEFFF7AEFA8C
:10367000FCF77CFE00210920FCF778FEFFF780FABA
:10368000FCF774FE00210920FCF770FEFFF761FAD9
:10369000FCF76CFE00210920FCF768FEFFF742FAF8
:1036A000FCF764FE00210920FCF760FEFFF723FA17
:1036B000FCF75CFE00210920FCF758FEFFF704FA36
:1036C000FCF754FE00210920FCF750FEFFF7E5F956
:1036D000FCF74CFE00210920FCF748FEFFF7C6F975
:1036E000FCF744FE00210920FCF740FEFFF7A7F994
:1036F000FCF73CFE00210920FCF738FEFFF788F9B3
:10370000FCF734FE00210920FCF730FEFFF769F9D1
:10371000FCF72CFE00210920FCF728FEFFF74AF9F0
:10372000FCF724FE00210920FCF720FEFFF72BF90F
:10373000FCF71CFE00210920FCF718FEFFF70CF92E
:10374000FCF714FE00210920FCF710FEFFF7EDF84E
:10375000FCF70CFE00210920FCF708FEFFF7CEF86D
:10376000FCF704FE00210920FCF700FEFFF7A0F89B
:10377000FCF7FCFD00210920FCF7F8FDFFF781F8BC
:10378000FCF7F4FD00210920FCF7F0FDFFF762F8DB
:10379000FCF7ECFD00210920FCF7E8FDFFF743F8FA
:1037A000FCF7E4FD00210920FCF7E0FDFFF724F819
:1037B000FCF7DCFD00210920FCF7D8FDFEF7FFFF38
:1037C000FCF7D4FD00210920FCF7D0FDFEF7E0FF57
:1037D000FCF7CCFD00210920FCF7C8FDFEF7C1FF76
:1037E000FCF7C4FD00210920FCF7C0FDFEF7A2FF95
:1037F000FCF7BCFD00210920FCF7B8FDFEF783FFB4
:10380000FCF7B4FD00210920FCF7B0FDFEF764FFD2
:10381000FCF7ACFD00210920FCF7A8FDFEF745FFF1
:10382000FCF7A4FD00210920FCF7A0FDFEF726FF10
:10383000FCF79CFD00210920FCF798FDFEF707FF2F
:10384000FCF794FD00210920FCF790FDFEF7E8FE4F
:10385000FCF78CFD00210920FCF788FDFEF7BAFE7D
:10386000FCF784FD00210920FCF780FDFEF78CFEAB
:10387000FCF77CFD00210920FCF778FDFEF75EFED9
:10388000FCF774FD00210920FCF770FDFEF73FFEF8
:10389000FCF76CFD00210920FCF768FDFEF720FE17
:1038A000A021F0224900B2E6474A5B00D65C454BB6
:1038B0001D71032DF4D9A7E6FCF758FD002109205E
:1038C000FCF754FDC3E6FCF751FD00210920FCF78D
:1038D0004DFD85E6FCF74AFD00210920FCF746FD79
:1038E00059E6FCF743FD00210920FCF73FFD3CE6CB
:1038F000FCF73CFD00210920FCF738FD1FE6FCF732
:1039000035FD00210920FCF731FD02E6FCF72EFD14
:1039100000210920FCF72AFDE5E5FCF727FD002141
:103920000920FCF723FDC8E5FCF720FD0021092054
:10393000FCF71CFDABE5FCF719FD00210920FCF7A5
:1039400015FD8EE5FCF712FD00210920FCF70EFDA8
:1039500071E5FCF70BFD00210920FCF707FD54E59C
:10396000FCF704FD00210920FCF700FD37E5FCF71A
:10397000FDFC00210920FCF7F9FC1AE5FCF7F6FC38
:1039800000210920FCF7F2FCFDE4FCF7EFFC00212C
:103990000920FCF7EBFCE0E4FCF7E8FC002109203F
:1039A000FCF7E4FCB4E4FCF7E1FC00210920FCF79F
:1039B000DDFC97E4FCF7DAFC00210920FCF7D6FCDB
:1039C0007AE4C04610C6022000030110FCF7CEFCCA
:1039D00000210920FCF7CAFC58E4FCF7C7FC0021D1
:1039E0000920FCF7C3FC3BE4FCF7C0FC00210920E4
:1039F000FCF7BCFC1EE4FCF7B9FC00210920FCF735
:103A0000B5FCFFF701FCFCF7B1FC00210920FCF735
:103A1000ADFCFFF7E2FBFCF7A9FC00210920FCF755
:103A2000A5FCFFF7C3FBFCF7A1FC00210920FCF774
:103A30009DFCFFF7A4FBFCF799FC00210920FCF793
:103A400095FCFFF785FBFCF791FC00210920FCF7B2
:103A50008DFCFFF766FBFCF789FC00210920FCF7D1
:103A600085FCFFF747FBFCF781FC00210920FCF7F0
:103A70007DFCFFF728FBFCF779FC00210920FCF70F
:103A800075FCFFF7FAFAFCF771FC00210920FCF73E
:103A90006DFCFFF7DBFAFCF769FC00210920FCF75D
:103AA00065FCFFF7ADFAFCF761FC00210920FCF78B
:103AB0005DFCFFF77FFAFCF759FC00210920FCF7B9
:103AC00055FCFFF751FAFCF751FC00210920FCF7E7
:103AD0004DFCFFF723FAFCF749FC00210920FCF715
:103AE00045FCFFF7F5F9FCF741FC00210920FCF744
:103AF0003DFCFFF7C7F9FCF739FC00210920FCF772
:103B000035FCFFF799F9FCF731FC00210920FCF79F
:103B10002DFCFFF76BF9FCF729FC00210920FCF7CD
:103B200025FCFFF74CF9FCF721FC00210920FCF7EC
:103B30001DFCFFF72DF9FCF719FC00210920FCF70B
:103B400015FCFFF70EF9FCF711FC00210920FCF72A
:103B50000DFCFFF7EFF8FCF709FC00210920FCF74A
:103B600005FCFFF7C1F8FCF701FC00210920FCF778
:103B7000FDFBFFF793F8C046F8B5CE4647468046B2
:103B800080B508200F0000211C001500FCF7EEFB9B
:103B900000210920FCF7EAFB2A20FCF7A5FC012103
:103BA0000920FCF7E3FB43468A4E1B0A994633780B
:103BB00001210820522B00D1D4E0FCF7D7FB0920CB
:103BC0000021FCF7D3FB0020FCF78EFC4B46D8B25B
:103BD000FCF78AFC01210920FCF7C8FB337801219E
:103BE0000820522B00D1EEE0FCF7C0FB0920002199
:103BF000FCF7BCFB0020FCF777FC4346D8B2FCF78F
:103C000073FC013D01210920FCF7B0FB2B12984603
:103C1000337801210820522B00D1CDE0FCF7A6FB20
:103C200009200021FCF7A2FB4346180EFCF75CFCC0
:103C30004346D8B2FCF758FC01210920FCF796FB5B
:103C4000337801210820ADB2522B00D1ADE0FCF752
:103C50008DFB09200021FCF789FB0020FCF744FCC8
:103C6000E8B2FCF741FC01210920FCF77FFB0021B1
:103C70000820FCF77BFB00210920FCF777FB2B20B9
:103C8000FCF732FC01210920FCF770FB337801219D
:103C900008203D0A522B00D180E0FCF767FB092089
:103CA0000021FCF763FB0020FCF71EFCE8B2FCF7E8
:103CB0001BFC01210920FCF759FB33780121082066
:103CC000522B64D0FCF752FB09200021FCF74EFB7D
:103CD0000020FCF709FCF8B2FCF706FC01210920E2
:103CE000FCF744FB3378013C012108202512522BBC
:103CF00046D0FCF73BFB09200021FCF737FB280EE0
:103D0000FCF7F2FBE8B2FCF7EFFB01210920FCF71E
:103D10002DFB337801210820A4B2522B29D0FCF7C7
:103D200025FB09200021FCF721FB0020FCF7DCFB30
:103D3000E0B2FCF7D9FB01210920FCF717FB0021B9
:103D40000820FCF713FB00210920FCF70FFB2C20B7
:103D5000FCF7CAFB01210920FCF708FBC0BCB946EF
:103D6000B046F8BDFCF702FB00210920FCF7FEFA83
:103D70002CE7FCF7FBFA00210920FCF7F7FAD7E75C
:103D8000FCF7F4FA00210920FCF7F0FABAE7FCF797
:103D9000EDFA00210920FCF7E9FA9CE7FCF7E6FAC6
:103DA00000210920FCF7E2FA80E7FCF7DFFA0021A6
:103DB0000920FCF7DBFA53E7FCF7D8FA00210920C9
:103DC000FCF7D4FA34E7FCF7D1FA00210920FCF71C
:103DD000CDFA12E710040020F8B505000C00082009
:103DE0000021FCF7C3FA00210920FCF7BFFA2A20C2
:103DF000FCF77AFB01210920FCF7B8FA864E012175
:103E0000337808202F0A522B00D1CCE0FCF7AEFA11
:103E100009200021FCF7AAFA0020FCF765FBF8B2A4
:103E2000FCF762FB01210920FCF7A0FA337801219D
:103E30000820522B00D1E7E0FCF798FA0920002176
:103E4000FCF794FA0020FCF74FFBE8B2FCF74CFBC0
:103E500001210920FCF78AFA3378013D012108206D
:103E60002F12522B00D1C8E0FCF780FA0920002164
:103E7000FCF77CFA380EFCF737FBF8B2FCF734FBA2
:103E800001210920FCF772FA337801210820ADB234
:103E9000522B00D1AAE0FCF769FA09200021FCF7B7
:103EA00065FA0020FCF720FBE8B2FCF71DFB0121BE
:103EB0000920FCF75BFA00210820FCF757FA0021E3
:103EC0000920FCF753FA2B20FCF70EFB01210920F7
:103ED000FCF74CFA337801210820250A522B00D137
:103EE0007DE0FCF743FA09200021FCF73FFA0020AF
:103EF000FCF7FAFAE8B2FCF7F7FA01210920FCF71F
:103F000035FA337801210820522B61D0FCF72EFAC4
:103F100009200021FCF72AFA0020FCF7E5FAE0B2BC
:103F2000FCF7E2FA01210920FCF720FA3378013C82
:103F3000012108202512522B43D0FCF717FA092043
:103F40000021FCF713FA280EFCF7CEFAE8B2FCF7D2
:103F5000CBFA01210920FCF709FA33780121082066
:103F6000A4B2522B26D0FCF701FA09200021FCF75D
:103F7000FDF90020FCF7B8FAE0B2FCF7B5FA012130
:103F80000920FCF7F3F900210820FCF7EFF90021E4
:103F90000920FCF7EBF92C20FCF7A6FA01210920F7
:103FA000FCF7E4F9F8BDFCF7E1F900210920FCF782
:103FB000DDF934E7FCF7DAF900210920FCF7D6F93E
:103FC000DAE7FCF7D3F900210920FCF7CFF9BDE7C8
:103FD000FCF7CCF900210920FCF7C8F99FE7FCF7B2
:103FE000C5F900210920FCF7C1F983E7FCF7BEF908
:103FF00000210920FCF7BAF956E7FCF7B7F90021D0
:104000000920FCF7B3F938E7FCF7B0F900210920E3
:10401000FCF7ACF919E7C04610040020104B10B5AE
:1040200014001A88824202D35B888B4200D210BDF2
:104030000B000200FFF7A0FD01210820FCF796F914
:1040400000210920FCF792F9200AFCF74DFAE0B2B2
:10405000FCF74AFA01210920FCF788F9E7E7C04696
:1040600010C60220F0B5C64600B51C0006AB80465F
:104070000F0015001E88824201D98C4202D880BCF4
:10408000B846F0BD2300FFF777FD43460121ED1A46
:104090000820E41BFCF76AF9ADB200210920A4B2A4
:1040A0006C43FCF763F90025370AF6B23800FCF7D9
:1040B0001BFA01353000FCF717FAAC42F6D10121AA
:1040C0000920FCF753F9DAE7F8B5144B04001D8812
:1040D000002D02D05E88002E00D1F8BD33002A00EA
:1040E00000210020FFF748FD01210820FCF73EF9E0
:1040F000002109206E43FCF739F90025270AE4B2B4
:104100003800FCF7F1F901352000FCF7EDF9AE427B
:10411000F6D101210920FCF729F9DEE710C60220BB
:10412000F0B54E464546DE4657461C00E0B507262C
:1041300087B0019310AB0391198811AB8846198899
:1041400004900291A188203A0E40731E9E41CB0834
:10415000F3181600E08846435E4323689C460593A7
:104160006644002861D0039B013B9BB29A46324BC8
:104170009946002959D0049B0025581E5346013307
:104180009BB29B4680B21CE080232341471C134214
:1041900029D04B461A88BBB29A4209D34B465B885A
:1041A0005B4505D35146029AFFF738FF019B99887A
:1041B000073C63425C410135ADB23619B8B28D425D
:1041C00021D207241D4B32782C409845DCD1802326
:1041D0002341471C1342EBD0174B1A889446BAB2BE
:1041E0009445DCD2E4E74B461A88BBB29A42DFD34F
:1041F0004B465B885B45DBD351464246FFF70EFFDB
:10420000019B9988D4E74B0700D00136019B0398A6
:10421000DA8853461B1A02339BB29A4205D9534699
:1042200001339BB29A460029A5D107B0F0BCBB462A
:10423000B246A946A046F0BD10C60220FFFF00000E
:10424000F0B557464E464546DE46E0B50F001E0027
:10425000844614008FB00B9318AB1D8819ABA84689
:104260000A921D78121A1AAB1B780291D117069583
:104270005518F21B9946D3174D40D1185940089153
:10428000A4458941D3179A1A5A400592564A01907B
:104290005648114084460A0002216244BC46080088
:1042A0000992B445924108991040421E0C926A1A34
:1042B00000214B468A46079504925D0052009BB24E
:1042C000013D03920D93534601335BB29A46069B20
:1042D000012B06D10321504606F08EF849B2002981
:1042E0004FD0434B019A1B88934223D3404B029AF1
:1042F0005B8893421ED3002D1CDD0023019A994652
:104300000D9BD21A9346029AD71ABFB24E4600248A
:104310005E44B6B2E11901344246300089B2A4B21B
:10432000FFF77CFEA542F5DC4B4601339BB2994674
:104330009D42EBDC059B039A934211DC0A9A019B98
:104340009A424AD0049A0899521A099904928C46C2
:1043500063449BB201935300079A03939A42B2DBE2
:104360000B9A029B9A4238D00799049A8C460C9972
:1043700062448C4663449BB20293530004920393BD
:10438000A1E71B4B019A1B88934223D3184B029A37
:104390005B8893421ED3002D1CDD0023019A9946B1
:1043A0000D9BD21A9246029AD71ABFB24E460024EB
:1043B0005644B6B2E11901340022300089B2A4B2E9
:1043C000FFF72CFEAC42F5DB4B4601339BB299461E
:1043D000AB42EBDB00239A46ACE70FB0F0BCBB4628
:1043E000B246A946A046F0BD0200FFFFFFFF000055
:1043F00010C60220F0B54F464646D646C0B584B03A
:104400001F000CAB1B88140099460DAB1B780500F0
:104410009A462D4B0E001A889846904225D85B8804
:10442000994222D8944210D8534602930023019314
:104430004B46220000930B00FFF702FF43461A8809
:10444000954212D85B889E420FD89F420DD85346A2
:104450000293002301934B462A00009331003B0056
:104460002800FFF7EDFE43461A88944226D84346BB
:104470005B889F4222D89E4212D853460293002363
:1044800001934B4622000093390033002000FFF7D0
:10449000D7FE43461A88944210D85B88BB420DD39E
:1044A00095420BD853460293002301934B462A00B2
:1044B000009339003B002000FFF7C2FE04B0E0BCCF
:1044C000BA46B146A846F0BD10C60220F0B583B08A
:1044D00008AC278809AC26780AAC2478A4460C4C92
:1044E000258885420BD364888C4208D3954206D335
:1044F0009C4204D3002E04D00097FFF7B3FD03B015
:10450000F0BD644600970194FFF774FFF7E7C046DB
:1045100010C60220F0B557464E46DE464546E0B589
:1045200085B01F000EAB1B888A4603930FAB1B8818
:1045300081469B461F4B160019889846814231D30D
:10454000588850452ED31278002A2BD0BB88554668
:104550009C464C461DE0FB88EB18834201DD554626
:104560004C468C420CD885420AD85B460193039B8B
:104570002900009320003B00FFF7D2FDBB889C463A
:10458000727864440136A4B2002A0BD043461988DD
:1045900058886346E3188B42DDDDFB884C46ED18F6
:1045A000ADB2D9E705B0F0BCBB46B246A946A046BD
:1045B000F0BDC04610C60220F0B5C64600B50700E3
:1045C00084B03C493C4809F081FD0E2301AD6B44A9
:1045D0002E00984600211020FBF7C8FE3800FBF79C
:1045E00083FFC820FBF7A6FF0020FBF78FFF84B2F4
:1045F0000020FBF78BFF2402A4B20443A4B20121E4
:104600001020E408FBF7B2FE3480C8200236FBF726
:1046100091FF4645DED12949274809F057FD2B88EF
:104620006A88934201D92A806B802B88AA8893429A
:1046300001D92A80AB802B88EA88934201D92A804D
:10464000EB802B882A89934231D86B88AA889342C1
:1046500001D96A80AB806B88EA88934201D96A806D
:10466000EB806B882A8993421ED8AB88EA889342F4
:1046700001D9AA80EB80AB882A89934201D9AA800C
:104680002B812B89EA889A4200D9EB80AB88688815
:104690000321C018EB88C01880B205F0D5FE80B2A7
:1046A00004B080BCB846F0BD6A802B81DDE72B8169
:1046B000CBE7C046C0C62D000000044080F0FA02DF
:1046C000F8B5D020FFF778FF04009020FFF774FFC3
:1046D00006000A20FBF72EFFD020FFF76DFF050034
:1046E0009020FFF769FF07000A20FBF723FFAC4289
:1046F0000CD2230031330020AB4206DBBE420DD288
:10470000330031330020BB4210DAF8BD2B003133C7
:10471000A342F3DA0020AC42F7D1EAE73B003133A1
:10472000B34203DA0020BE42EFD1E9E7044B64193B
:10473000F61970106410D8809C800120E5E7C0460F
:104740001CC6022000B52A4B83B01B78522B1BD00D
:10475000284B1A7E062A0CD0002A21D1264A1A613B
:10476000264A5A61152252425A81123A9A8103B05E
:1047700000BD234A1A61234A5A61812292005A815C
:10478000162252429A81F2E71A4B1F4A1A611F4AB7
:104790005A616422FF325A81783AFF3A9A81E6E7F9
:1047A000032A0BD0052A13D1194A1A61194A5A61F2
:1047B000194A5A81142252429A81D8E7174A1A613B
:1047C000174A5A61162252425A81103A9A81CEE70C
:1047D0000020FFF779FCF8231B020193114B3C21C9
:1047E00000930020104B114AFFF794FEBFE7C0462C
:1047F000100400201CC6022010B3B73DEA060A3E92
:10480000239F07BE5950B83D6DABB9BDB6118F3D62
:10481000831808BE7826B43D050200005B25B83D2C
:10482000D05F083EFFFF00000004002010030110CD
:10483000F0B5C64600B584B00E280ED88D4B80006A
:104840001B589F460720FDF769FD8B4A0021002079
:10485000FCF720F80420FDF761FD04B080BCB846E9
:10486000F0BD00240720FDF759FD0021834A0020F8
:10487000FCF710F80420FDF751FD814B1C70814BB3
:104880001D780720FDF74AFD2A000023A221FA2007
:10489000FBF7FEFE0420FDF741FD8C207A4E7B4D98
:1048A0007B4F2A0033004121019400974000FFF71D
:1048B00031FE784B07201B789846FDF72FFD4246C6
:1048C00000238821FA20FBF7E3FE0420FDF726FDF4
:1048D0008C2033002A005A21019400974000FFF7F2
:1048E00019FE012397229B21029301935200DB338F
:1048F000F5200094FFF7EAFD0720FDF70FFD80206B
:1049000008222B214000FBF787FE0420FDF706FD5F
:10491000A3E70720FDF702FD5F4A97E70024072081
:10492000FDF7FCFC00215D4A0020FBF7B3FF0420EB
:10493000FDF7F4FC524B1C70594BA1E70720FDF723
:10494000EDFC584A82E700240720FDF7E7FC002130
:10495000554A0020FBF79EFF0420FDF7DFFC484B83
:1049600007201C70514B1D78FDF7D8FC2A0000234E
:10497000AE21FA20FBF78CFE0420FDF7CFFC8C2043
:10498000414F424E424D32003B003421019400958C
:104990004000FFF7BFFD464B07201B789846FDF708
:1049A000BDFC424600239621FA20FBF771FE04204D
:1049B000FDF7B4FC8C2032003B004C2101940095A3
:1049C0004000FFF7A7FD334B07201B789846FDF703
:1049D000A5FC424600237C21FA20FBF759FE042067
:1049E000FDF79CFC8C203B00320066210194009571
:1049F0004000FFF78FFD0123322204209B21029308
:104A00000193FF32DB330094FF30FFF75FFD072097
:104A1000FDF784FC0A2008222B21FF30FBF7FCFD68
:104A20000420FDF77BFCB121CC20224B224A0194CB
:104A30000095FFF76FFD10E70720FDF76FFC1F4A99
:104A400004E70720FDF76AFC1D4AFFE60720FDF793
:104A500065FC1C4AFAE60720FDF760FC1A4AF5E6F9
:104A60000720FDF75BFC194AF0E60720FDF756FC2E
:104A7000174AEBE6F8030110EC0301105403011090
:104A800089C602201C0400200804002060030110D5
:104A9000FFFF00001D0400206403011070030110DB
:104AA0001E0400207C030110880301101F04002055
:104AB0002104002000040020940301109C03011035
:104AC000A8030110B4030110C0030110D0030110AA
:104AD000E003011070B50D00160004000720FDF77B
:104AE0001DFC32002900E0B2FBF7D4FE0420FDF7E4
:104AF00015FC70BD70B584B0032806D0052800D120
:104B0000A3E0012843D004B070BDD0221206536840
:104B100001219B0700D5F2E053685B08194204D1DC
:104B2000D14B1A78002A00D0F4E0D04D2C78022C1A
:104B300000D1E7E100D94EE1002C00D13EE2CC4C9F
:104B4000200009F0C9FC05220621A2566156130176
:104B50009A1A13019B1A0A01521A92001B019B1800
:104B60000722A2569B18C34A1360C34A12689B1AB5
:104B7000C24A1360C24A1178002901D100F081FCB9
:104B8000052B01D800F063FC00232B70BBE7D0227B
:104B9000120653685B08184200D08EE053685B0829
:104BA000184204D1B04B1A78002A00D090E0B54DDD
:104BB0002C78022C00D175E100D9C2E0002C00D184
:104BC000DBE1AB4E300009F087FC0523F3560720EC
:104BD0001C01E31A1C01E41A0623F35624011A01EE
:104BE000D21A9200A4180722B256A24BA4181C6035
:104BF000A14BA24E1A68A41A3460FDF78FFB012363
:104C0000E2B240213220FBF743FD0420FDF786FB92
:104C10009D4B1A78002A01D100F022FC3368E52B65
:104C200001D900F0FFFCD0220123120651680B428B
:104C300001D100F05CFD5268134200D163E7934B51
:104C40000120197802F0E6F85DE7D02212065368D9
:104C500001219B0710D453685B08194203D1824B92
:104C60001A78002A12D18A4D2B78042B00D94AE7F2
:104C7000884A9B00D3589F467B4B1C78002C01D15F
:104C800000F086FC526852081142ECD100259B22AC
:104C90001D700123804C029301937F21E620009434
:104CA0008C335200FFF712FC7F21E6207B4B7C4ABD
:104CB00001950094FFF72EFCD5E76B4B1C78002C78
:104CC00001D100F04FFC52685208104200D06EE74C
:104CD00000259B221D7001236F4C029301937521C7
:104CE000E620009482335200FFF7F0FB7521E620A6
:104CF0006A4B6B4A01950094FFF70CFC57E75A4B3F
:104D00001C78002C01D100F017FC526852081142A7
:104D100000D00AE700259B221D7001235E4C029300
:104D200001937521E620009482335200FFF7CEFBF9
:104D30007521E620594B5A4A01950094FFF7EAFB8A
:104D4000F3E6032C00D0DEE6494E300009F0C4FB48
:104D50000523F35607201C01E31A1C01E41A06235D
:104D6000F35624011A01D21A9200A4180722B2564F
:104D7000404BA4181C60404B404E1A68A41A346083
:104D8000FDF7CCFA0123E2B24021CD20FBF780FCF5
:104D90000420FDF7C3FA3C4B1A78002A00D1A8E39F
:104DA00033689A1F0E2A01D800F008FC1A00153A41
:104DB000042A01D800F09BFC053A012A01D800F032
:104DC000FDFC1A001C3A092A01D800F0F7FB252B3C
:104DD00000D9D9E697E6032C00D094E6244E3000A3
:104DE00009F07AFB0523F35607201C01E31A1C0186
:104DF000E41A0623F35624011A01D21A9200A418C9
:104E00000722B2561B4BA4181C601B4B1B4E1A6882
:104E1000A41A3460FDF782FA0123E2B24021CD20CA
:104E2000FBF736FC0420FDF779FA154B1A78002AB7
:104E300000D133E333689A1E032A00D8BEE39A1FD9
:104E4000012A01D800F08EFC1A00083A022A01D883
:104E500000F071FC1A000B3A042A00D8BEE30F2BB5
:104E600000D991E64FE6C04689C602207EC60220E0
:104E700014040020A0100020A410002038110020ED
:104E80007FC6022087C6022088C602201C0400209C
:104E900085C6022044040110FFFF00000804002022
:104EA0003C040110D64E300009F016FB0523F356E2
:104EB00007201C01E31A1C01E41A0623F3562401FF
:104EC0001A01D21A9200A4180722B256CD4BA41888
:104ED0001C60CD4BCD4E1A68A41A3460FDF71EFA43
:104EE0000123E2B240218220FBF7D2FB0420FDF730
:104EF00015FAC74B1A78002A2FD03368092B00D92E
:104F000042E600E6BE4E300009F0E6FA0523F3560D
:104F100007201C01E31A1C01E41A0623F35624019E
:104F20001A01D21A9200A4180722B256B54BA4183F
:104F30001C60B54BB54E1A68A41A3460FDF7EEF943
:104F40000123E2B240218220FBF7A2FB0420FDF7FF
:104F5000E5F9B04B1A78002ACFD101321A70AE4B66
:104F60000220197801F056FF01210A2001F064FFA8
:104F700000210B2001F060FFC5E5A54B1A78002A3F
:104F800000D1C0E5002105201C7001F043FF002185
:104F9000012001F03FFF0021022001F03BFF002132
:104FA000092001F049FF00210A2001F045FF0021FE
:104FB0000B2001F041FF00210D2027E0954B1A78CE
:104FC000002A00D19FE5002102201C7001F022FF81
:104FD0000021032001F01EFF0021042001F01AFF30
:104FE0000021052001F016FF00210A2001F024FF16
:104FF00000210B2001F020FF00210C2001F01CFFFC
:1050000000210D2001F018FF00210E2001F014FFF7
:1050100001259722DC239B2100945200F520029564
:105020000195FFF753FA0720FDF778F980207B4CB4
:1050300008222B214000FBF7EFFA0420FDF76EF960
:10504000DC234D229B211420029501950094FFF74B
:105050003DFA0720FDF762F901222B211E20FBF704
:10506000DBFA0420FDF75AF9DC239A229B21612008
:10507000029501950094FFF729FA0720FDF74EF9F4
:1050800002222B216B20FBF7C7FA0420FDF746F91B
:10509000DC23E5229B21AC20029501950094FFF7CB
:1050A00015FA0720FDF73AF903222B21B620FBF76A
:1050B000B3FA0420FDF732F925E5514E300009F02E
:1050C0000BFA0523F35607201C01E31A1C01E41A0E
:1050D0000623F35624011A01D21A9200A4180722BB
:1050E000B256484BA4181C60474B484E1A68A41A85
:1050F0003460FDF713F90123E2B240219920FBF758
:10510000C7FA0420FDF70AF9454B1A78002A00D1A6
:10511000BEE233689A1E032A00D84FE29A1F012A82
:1051200000D833E31A00083A022A00D803E3033A0E
:10513000042A00D84DE31A00103A022A00D8DCE213
:105140001A00133A072A00D93EE2D022120652680A
:10515000920700D442E21A00223A012A00D8F4E26F
:10516000023A042A00D839E2053A012A00D8ECE2D2
:105170002B2B00D137E31A002C3A0B2A31D9352BCF
:1051800000D901E5BFE41E4E300009F0A5F9052362
:10519000F35607201C01E31A1C01E41A0623F356F8
:1051A00024011A01D21A9200A4180722B256154BF4
:1051B000A4181C60144B154E1A68A41A3460FDF72D
:1051C000ADF80123E2B240215D20FBF761FA042033
:1051D000FDF7A4F8124B1A78002A00D08DE60132B0
:1051E0001A700D4B0220197801F014FE01210A20DB
:1051F00001F022FE01210B2001F01EFE83E4C046D7
:1052000014040020A0100020A41000203811002059
:1052100088C602207FC602201D040020FFFF000078
:1052200086C60220F04E300009F056F90523F356E9
:1052300007201C01E31A1C01E41A0623F35624017B
:105240001A01D21A9200A4180722B256E74BA418EA
:105250001C60E74BE74E1A68A41A3460FDF75EF84D
:105260000123E2B240211D20FBF712FA0420FDF7D2
:1052700055F8E14B1A78002A00D1E2E133687FE467
:10528000DD4B1A78002A00D13DE4002600210220DF
:105290001E7001F0BFFD0021032001F0BBFD0021C5
:1052A000042001F0B7FD0021052001F0B3FD00212D
:1052B0000A2001F0C1FD01210B2001F0BDFD0021FC
:1052C0000C2001F0B9FD00210D2001F0B5FD0021F9
:1052D0000F20012401F0B0FD32220420DC239B21A9
:1052E000FF32029401940096FF30FFF7EFF8072099
:1052F000FDF714F80A20C14D08222B21FF30FBF7DF
:105300008BF90420FDF70AF8DC233C229B210E20B8
:10531000029401940095FFF7D9F80720FCF7FEFFEF
:1053200001222B211320FBF777F90420FCF7F6FF6D
:10533000DC237B229B214E20029401940095FFF7F1
:10534000C5F80720FCF7EAFF02222B215320FBF7C8
:1053500063F90420FCF7E2FFDC23B8229B218A20BA
:10536000029401940095FFF7B1F80720FCF7D6FFEF
:1053700003222B218F20FBF74FF90420FCF7CEFFEF
:10538000DC23F5229B21C720029401940095FFF7AE
:105390009DF8B121CA209A4B9A4A01960095FFF7D1
:1053A000B9F8FFF7B0FB904E300009F095F80523EF
:1053B000F35607201C01E31A1C01E41A0623F356D6
:1053C00024011A01D21A9200A4180722B256874B60
:1053D000A4181C60864B874E1A68A41A3460FCF728
:1053E0009DFF0123E2B24021DB20FBF751F90420AD
:1053F000FCF794FF804B1A78002A00D12EE1336825
:105400005A1E052A00D8E9E0072B00D19DE11A00B9
:10541000083A042A00D8E1E00D2B00D195E1063AC4
:10542000042A00D8DAE0132B00D18EE1063A042AD0
:1054300000D8D3E0192B00D187E1063A042A00D81E
:10544000CCE01E2B01D9FFF79FFBFFF75CFBD023BD
:105450001B065B689B0701D5FFF755FBFFF794FB25
:1054600001321A70684B0120197801F0D3FC674BA8
:105470000220197801F0CEFC0121092001F0DCFCAA
:1054800072E501231370624B0320197801F0C2FC0E
:1054900001210E2001F0D0FCFFF735FB01321A701C
:1054A0005C4B0520197801F0B5FC584B02201978A7
:1054B00001F0B0FC564B0320197801F0ABFC002141
:1054C000042001F0A7FC01210A2001F0B5FC002115
:1054D0000B2001F0B1FC01210C2001F0ADFC0121F9
:1054E0000D2001F0A9FC00210E2001F0A5FCFFF722
:1054F0000AFB01321A70484B0520197801F08AFC2A
:10550000414B0120197801F085FC404B02201978AD
:1055100001F080FC0121092001F08EFC01210A200C
:1055200001F08AFC00210B2001F086FC00210D20F7
:1055300001F082FCFFF7E7FA9B22304D1970E6205C
:10554000029101918323009552007431FEF7BEFF52
:105550007521E620314B324A01940095FEF7DAFFBF
:10556000FFF7E3FA9B22254D1870752102900190F8
:10557000832300955200E530FEF7A8FF7521E62051
:10558000264B274A01940095FEF7C4FFFFF70FFB57
:105590009B221A4D1970E620029101918D230095EE
:1055A00052007E31FEF792FF7F21E6201B4B1C4A02
:1055B00001940095FEF7AEFFFFF755FB0021052093
:1055C00001F028FCFFF79FFA1A001B3A012A00D8C5
:1055D000BBE01A001D3A042A00D9BCE500210420D2
:1055E00001F018FCFFF78FFA14040020A01000202F
:1055F000A41000203811002086C60220FFFF000002
:1056000000040020940301101C0400201D0400204D
:105610001E0400201104002024040020080400209F
:10562000340401101A00E73A082A00D994E0002156
:10563000012001F0EFFB0021092001F0FDFBFFF745
:1056400062FA01321A707B4B0420197801F0E2FBF8
:1056500001210F2001F0F0FBFFF755FA01321A701B
:10566000754B0420197801F0D5FB744B0220197892
:1056700001F0D0FB00210A2001F0DEFB01210B200C
:1056800001F0DAFB01210F2001F0D6FBFFF73BFA16
:1056900001321A706A4B0520197801F0BBFB674B89
:1056A0000220197801F0B6FB0021032001F0B2FBC3
:1056B000604B0420197801F0ADFB01210A2001F0B4
:1056C000BBFB01210B2001F0B7FB00210C2001F0F6
:1056D000B3FB01210D2001F0AFFB00210E2001F0F2
:1056E000ABFB00210F2001F0A7FBFFF70CFA002114
:1056F000012001F08FFBFFF706FA504B02201978CA
:1057000001F088FB4B4B0420197801F083FB00214A
:105710000F2001F091FB00210C2001F08DFB0021F6
:105720000A2001F089FB01210B2001F085FB0021FB
:10573000032001F06FFB0021052001F06BFB00212D
:105740000D2001F079FBFFF7DEF93B4B04201978BF
:1057500001F060FBFFF7D7F9EF2B01D9FFF714FA3F
:10576000FFF7D1F9364B0520197801F053FB0021E2
:10577000032001F04FFB2F4B0420197801F04AFB66
:1057800000210C2001F058FBFFF7BDF92C4B052040
:10579000197801F03FFB2B4B0320197801F03AFBFD
:1057A0000021042001F036FB01210C2001F044FB14
:1057B00000210E2001F040FBFFF7A5F901210D208B
:1057C00001F03AFB1E4B0520197801F023FBFFF78F
:1057D0009AF90021032001F01DFB00210C2001F0AB
:1057E0002BFBFFF790F90021022001F013FB0021B1
:1057F000032001F00FFB0021042001F00BFB00212E
:10580000052001F007FB00210A2001F015FB012112
:105810000B2001F011FB00210C2001F00DFB0021F9
:105820000D2001F009FB00210F2001F005FBFFF71F
:105830006AF9C0461F040020210400201D04002036
:10584000110400201E040020F8B53F4C2088431EA0
:10585000062B41D8012200263C4B3D4D3D492A7084
:105860001F783D4A0E701670002F1ED00020087061
:1058700001212870117018700720FCF74FFD0021DE
:10588000364A0020FBF706F80420FCF747FD0E23FC
:105890002380F8BD2D4B1A78002A50D101212C4BC2
:1058A00019702C4B1A702C4B1A7000252C4BC0B25F
:1058B0001D702C4B1D702C4B1D70FFF71BF9072022
:1058C000FCF72CFD0021294A0020FAF7E3FF042011
:1058D000FCF724FD2580DCE70E28DBD00300083B25
:1058E000052B19D801220020184B1A49184D0A70AF
:1058F0001E78194A28701070002EB7D10720FCF7C7
:105900000DFD00211A4A0020FAF7C4FF0420FCF71D
:1059100005FD07232380BCE70028E3D00B4B1A7852
:10592000002A0CD10A4B1B78002BBED1094B1B78E7
:10593000002BE3D1084B1B78002BAAD09CE7044D29
:105940000449054A92E7C046220400208BC6022083
:105950002004002083C6022084C6022070040110A7
:1059600087C602207EC6022085C602205804011088
:105970006404011070B5040084B001285DD00328D0
:1059800004D0052800D11AE104B070BDD94B1A88A3
:10599000110011393E2900D9BAE0598897394729B1
:1059A00000D912E2D44B1C78002CEDD10125D34E46
:1059B0001D70300008F090FD05230622F356B25604
:1059C0001901CB1A1901C91A13019B1A9B0009016D
:1059D000C9180723F356CA48C918CA4B196005F0FD
:1059E0001FFE9722C84B9B2100935200DC23F52019
:1059F00002950195FEF76AFD0720FCF78FFC8020D9
:105A000004222B214000FAF707FE0420FCF786FC55
:105A1000DC234D229B211420029501950094FEF772
:105A200055FD0720FCF77AFC05222B211E20FAF7F2
:105A3000F3FD0420FCF772FCA6E7AE4B1A881100B8
:105A400011393E2944D911005E393E2900D917E1A8
:105A50005B88973B472B00D996E7AC4B1D78002D10
:105A600000D091E70222A54E1A70300008F034FDF4
:105A700005230622F356B2561901CB1A1901C91A89
:105A800013019B1A9B000901C9180723F3569C4870
:105A9000C9189C4B196005F0C3FD97229A4B9B21B6
:105AA0005200F52000930294DC230194FEF70EFDD2
:105AB0000720FCF733FC802004222B214000FAF75A
:105AC000ABFD0420FCF72AFC02940194009564E0ED
:105AD00059889739472900D9FCE08C4B1E78002E55
