:020000041000EA
:1000000000B5324B212058609868022188439860DF
:10001000D860186158612E4B002199600221596106
:100020000121F02299502B49196001219960352056
:1000300000F044F80222904214D00621196600F024
:1000400034F8196E01211966002018661A6600F04E
:100050002CF8196E196E196E052000F02FF8012189
:100060000842F9D1002199601B49196000215960AB
:100070001A491B48016001219960EB211966A021F2
:10008000196600F012F800219960164914480160C1
:100090000121996001BC002800D000471248134993
:1000A000086003C880F30888084703B5996A0420EC
:1000B0000142FBD001200142F8D103BD02B5186610
:1000C0001866FFF7F2FF186E186E02BD00000240BE
:1000D000000000180000070000035F00212200005C
:1000E000F4000018222000A00001001008ED00E03C
:1000F00000000000000000000000000074B24E7A12
:1001000000200420F7010010C3010010C5010010F9
:10011000C1010010C1010010C1010010C101001097
:10012000C1010010C1010010C1010010C701001081
:10013000C1010010C1010010C9010010CB01001065
:10014000CD010010CD010010CD010010CD01001037
:10015000CD010010CD010010CD010010CD01001027
:10016000CD010010CD010010CD010010CD01001017
:10017000CD010010CD010010CD010010CD01001007
:10018000CD010010CD010010CD010010CD010010F7
:10019000CD010010CD010010CD010010CD010010E7
:1001A000CD010010CD010010CD010010CD010010D7
:1001B000CD010010CD010010CD010010CD010010C7
:1001C00000BE00BE00BE00BE00BE00BE00F04BF888
:1001D000103800BEF2EB8871C4D90010E8D90010C5
:1001E0003402001090A31AE700202149086006C8D5
:1001F00081F3088810471F48006800282FD10DA4FC
:100200000ECC002902D000F012F8F9E71A491B4A77
:10021000002000E001C19142FCD1194988471949E9
:1002200088471949884700BEFDE701C901C29A42C3
:10023000FBD37047E8D90010C0000020140500204F
:100240003CDE001000000420000004203CDE001012
:1002500000100420001004200000000070470B482C
:1002600008F0F6F80047EFF30580C0B270470000D1
:1002700008ED00E0000000D0180500205C710220AD
:100280004D6D00100D0300103D6E0010575600001C
:1002900006005250ABB3605380D700100600525096
:1002A000861C030290D70010060052505422A29DD3
:1002B000A0D7001005005250DE65F4683CDE001047
:1002C000F8B5C04610B5064C2378002B07D1054B76
:1002D000002B02D0044800E000BF0123237010BDB2
:1002E000200800200000000090C50010044B10B54D
:1002F000002B03D00349044800E000BF10BDC046F6
:10030000000000002408002090C5001010B500F087
:1003100001F8FCE710B500F063F800F02BF801F0ED
:1003200063FE04F045FE04F0ABFDC8210420890003
:1003300001F0E2FE042004F079FA03F003FF00204C
:1003400003F02CFD03F074FF04F008F8FCE7C0464E
:100350000123D02283401206002901D05361704747
:100360009361FCE7D0231B065B68C3400120184063
:100370007047C04610B50020D02405F003F90123D2
:100380002406A362012005F0FDF802230220A362E7
:1003900005F0F8F804230320A36205F0F3F808231E
:1003A0000420A36205F0EEF810230022A3620121CD
:1003B000002005F0CFF800220121012005F0CAF845
:1003C00000220121022005F0C5F8002201210320AE
:1003D00005F0C0F800220121042005F0BBF810BD93
:1003E000F0B5C64600B584B02F4803AB02AA01A9F8
:1003F00006F0F0FB002803D12B492C4806F020FD25
:10040000039A0299019806F0A9FB09F073F90F20ED
:1004100005F0B8F8D024802324061B02636208206C
:1004200005F0B0F88023802680275B006362B60168
:100430000D2005F0A7F8BF000920666205F0A2F8BC
:100440001020676205F09EF880235B026362112032
:10045000984605F097F8802380259B02A362ED0360
:10046000162005F08FF8002201211120656205F0A9
:1004700071F843460E4963610E48676166616561C4
:100480000BF006FE01210A2005F04CF801210B209B
:1004900005F048F801210C2005F044F8002004B0D4
:1004A00080BCB846F0BDC04690D0030090C5001097
:1004B00000093D000000044010B584B06B460F24D5
:1004C0006C44D91D08700123220003480CF050F839
:1004D000207804B010BDC0460000044010B582B0C2
:1004E0006B46DC1D991D08700123220002480CF0A8
:1004F0003FF8207802B010BD0000044010B505F0B0
:1005000093FE10BD7047C046030010B50120002BBC
:1005100000D010BD04F0BCFA0028FAD004F0E6F9CF
:10052000FF2004F0DFF904F0E3F90120F1E7C04611
:100530000020704770B50D00040011001A1E11D084
:100540000120002C00D070BD280004F07FFB0028A3
:10055000F9D004F0CBF9FF2004F0C4F904F0C8F995
:100560000120F0E70420EEE770B50D000400110053
:100570001A1E0AD00120002C00D070BD280004F003
:10058000D5FB431E9841C0B2F7E70420F5E7C0460B
:1005900070B514000125002808D102290FD007D812
:1005A000002911D004F03CFA00252060280070BD1D
:1005B00004250329FAD1082300251380F6E78023B8
:1005C0009B0000251380F1E700211620FFF7C0FEF5
:1005D00004F090F9431E98410121C5B21620FFF79F
:1005E000B7FEE3E700207047F0B5DE4657464E46BB
:1005F0004546E0B51700664C0122A54400900191E4
:1006000002A8390001F08CFB624B634C98461E2215
:10061000210002A801F04EFC3900604809F05EF8A4
:10062000A1886388090419435D4809F057F8A68931
:10063000638936041E4331005A4809F04FF8638A33
:10064000A18B9946E38A58489B46238BA58A9A46F4
:1006500009F044F802A801F05BFC544809F03EF8A8
:100660000122390002A801F05BFB43463200210061
:1006700002A801F01FFC4E4B1B78522B0CD002A895
:1006800001F046FC01208D239B009D44F0BCBB463D
:10069000B246A946A046F0BD4B462D042B439946D1
:1006A00064D053461D045B46B4221D430023520010
:1006B00092469B46A244B42243462100520002A81F
:1006C00001F0F8FBB42243465146520002A801F063
:1006D000F1FB002D1DD05B465A461B019B1A1B01E6
:1006E0009C46002367465900591889B262189678CB
:1006F0005278615CF6089208F6025201C90832434A
:10070000D8190A4301332B4940009BB20A52AB422D
:10071000E9D35F460137BBB29B464B45CBD36B4613
:100720000199188803F0F4F901210820FFF710FE61
:1007300000210920FFF70CFE1F4920480BF024FD83
:100740004B465D43002D0CD000261A4C2088013604
:10075000000AFFF7B1FE2078FFF7AEFE0234AE428A
:10076000F4D101210920FFF7F3FD88E76B460199D9
:10077000188803F0CDF901210820FFF7E9FD0021D9
:100780000920FFF7E5FD0C490C480BF0FDFCE8E7FC
:10079000CCFDFFFF3C0800209C0C0020C4C50010CD
:1007A000CCC50010E0C50010F4C5001008C600104C
:1007B00000040020CC18002080B2E60E00000440A7
:1007C000002370B50371013B04000D00C3624B1C94
:1007D00009D00A002100012340783031FFF7AAFE3A
:1007E00000281FD1E562124BE25A124B9A421BD1EC
:1007F00022006632538811881B040B430E4A1B02E9
:100800001B0A934212D08223E25A0C4B82349C463C
:100810006088000410430002000A6044431E9841AF
:10082000C0B270BD0320FCE70220FAE70020F8E721
:100830002E02000055AA000046415400BABEABFF8C
:10084000F0B5C646C66A04000D0000B58E4235D02C
:10085000070003793037002B0BD101232A00390020
:100860006078FFF767FE002826D1E56280BCB846B5
:10087000F0BD0123320039004078FFF775FE0028F3
:100880001AD1226AA3692071B21A9A42E5D2E2789B
:100890009046012A01D8E0E7A369F6183200012347
:1008A00039006078FFF760FE01235B429C46E0441C
:1008B0004346012BF0D1D0E70120D7E70020D5E750
:1008C000F0B54546DE4657464E460023E0B50C6877
:1008D000150083B00360002C00D1C4E02378303BC6
:1008E000082B00D8B6E0C84B1C68002C00D11DE1D5
:1008F00023780460002B0FD06078FFF719FEC30740
:100900000AD4002D00D10DE104231E00064003424D
:1009100000D1FFE00A26FDE0002300202380FFF73E
:10092000F3FDC30700D5FFE0002D01D04307F1D44C
:1009300000212000FFF744FF0600012800D194E0C9
:10094000032800D13AE10025002800D0E1E0220090
:100950003B321178537880221B0292000B43934262
:1009600000D0D6E04623E65A002E00D1666D402323
:10097000A661E25C531EE270012B00D9C9E03D2361
:10098000E75CA770002F00D1C3E07B1E1F4200D0A0
:10099000BFE04123E15C230041335B781B020B4342
:1009A000984623811B0700D0B3E04323E15C23007A
:1009B00043335B781B020B4300D1236DE18F8B46E1
:1009C000002900D1A5E072431100019242468A46F7
:1009D00012095A449244534500D29AE052469B1A57
:1009E00099463900180007F08DFDB94500D290E016
:1009F000864B984200D8E3E0854B984200D821E12D
:100A00005B46EB1823625346EB18A3624346023061
:100A10006061E561002B7CD1E36D800063627D4BFA
:100A20009C466044400A864273D301235B422361A3
:100A3000E36081336371203BE35A012B00D182E0F4
:100A40000323754A23701388002601339BB2138059
:100A5000E3805FE062783A2A00D044E702340C6019
:100A6000002B00D13FE70B2654E0F9235B00E35C49
:100A70000027002B0CD0FB235B00E118E25C4B78D5
:100A80008F781B021A43CB783F0417431B061F4382
:100A9000624B0025E35C002B0BD0614BE2185178D0
:100AA000E55C090293782943D5781B0419432D0688
:100AB0000D4300225B4B9046E35C002B0CD05A4B5D
:100AC000E0184278E15C120283781143C2781B047B
:100AD0000B4312061A4390460022544B9146E35CA6
:100AE000002B0CD0524BE0184278E15C1202837864
:100AF0001143C2781B040B4312061A439146002F80
:100B000045D1002D4BD14346002B4FD14B46002BF6
:100B10000ED10D26300003B0F0BCBB46B246A9464C
:100B2000A046F0BD0026F5E70326F3E70C26F1E723
:100B300049462000FFF744FE4D46002800D106E755
:100B40000328E7D0E5E72000691CFFF779FE0028BD
:100B500000D075E743466371364BE25A364B9A42F2
:100B600000D06DE7354B226B9A4200D068E78522B2
:100B70009200334BA2589A4200D061E78623872225
:100B80009B009200E358A2582361E26058E73900C5
:100B90002000FFF715FE0028B3D13D00D7E629005D
:100BA0002000FFF70DFE0028ADD1D0E64146200021
:100BB000FFF706FE45460028A8D1C8E60126A9E7AA
:100BC0005B464146EB18821CE56155446261236235
:100BD000A56200299DD0019950008C466344636250
:100BE0000123801840081A4080180A4A944660443D
:100BF000400A864200D28CE7012252422261E26022
:100C0000813262711DE7C04640080020F50F0000E8
:100C1000F5FF0000FF0100004A71022002020000FF
:100C2000060200001202000016020000220200006C
:100C3000260200002E02000055AA00005252614117
:100C4000727241615B464246EB180230E5615544E1
:100C500060612362A562002A00D15AE7019A400030
:100C60009446634463620223BFE7C046F0B5C646BC
:100C7000077804000D0000B5022F08D0032F3FD0E5
:100C8000012F17D00120404280BCB846F0BD036A56
:100C9000090A9C466144FFF7D3FD0028F2D1FF21E9
:100CA0006D0049000D4064193034637820781B02D0
:100CB0001843E9E7036A4E089C467618710A6144B6
:100CC000FFF7BEFD0028DDD1F305DB0DE31830335F
:100CD0001B7801369846236A710A9C4620006144BD
:100CE000FFF7AEFD0028CDD14346F605F60DA41959
:100CF00030342078000218432F421FD00009C3E788
:100D0000036AC9099C466144FFF79AFD0028B9D1DE
:100D1000FE21AD0049000D402B003033E318D87898
:100D20009A78641912040006303410435B782278F4
:100D30001B021043184300010009A5E70005000D40
:100D4000A2E7C046F8B54E46DE46574645469B46A6
:100D50008468C368E0B51B1B06000F0099469342E8
:100D600000D991464B46002B00D190E02200D305DC
:100D7000DD0D002B41D13368500A99784C1E044098
:100D8000E4B2002C00D184E070695A690238023A5A
:100D9000904200D38CE0996A9A788C465043604424
:100DA000002800D184E080468021A0448900894544
:100DB00000D386E0B26990451AD035004024B1795D
:100DC00028350C420BD0587829000123FFF7CCFBC3
:100DD000002800D0A0E0B379A343B37133685878FA
:100DE000424601232900FFF7A5FB002800D093E02D
:100DF0004346B361B368DD05ED0D80239B00591BAD
:100E0000494500D9494602242B00A4462933F3184A
:100E10000634FB1A9C459B41A446481E2A00844583
:100E2000A44128325B426442B2181C4200D177E0F0
:100E30003B0013439B0700D072E000238C08A40002
:100E4000D558FD500433A342FAD103230C009C4330
:100E500023001219C01A3C198B4209D01378237051
:100E6000002805D053786370012801D09378A370CF
:100E7000B3685846CA185B461B68B2605B180360CB
:100E80004B465B1A99467F18002B00D06FE7002075
:100E900011E0002A32D13069012809D9431C3BD026
:100EA000336870615A690238023A904200D272E7A0
:100EB00002230220F371F0BCBB46B246A946A0460D
:100EC000F8BD4946490A8A4661188A4201D2121B76
:100ED00092465246D2B25878390013004246FFF784
:100EE00029FB002818D1B3795B0604D54246B369C3
:100EF0009B1A9A4530D853465902B9E7726A92460E
:100F0000002A14D171690129D2D95A699142CFD2EC
:100F10001800FFF7ABFEBFE701230120F371CAE71A
:100F20000023D05CF85401339942FAD1A0E704239E
:100F30005344984607F0E6FA53465B68002BB7D057
:100F4000424604E00832C01A1368002BB0D0984221
:100F5000F8D25368C0189FE73100320002205B02CC
:100F6000FB1829312832591A88420BD21900114333
:100F7000890707D1515959518021043589008D4283
:100F8000F8D1B8E7515D59558021013589008D426E
:100F9000F8D1B0E7F8B54746CE46067804000D0014
:100FA000904680B5022E0BD0032E45D00227012E8D
:100FB0001AD0012338002371C0BCB946B046F8BD31
:100FC000036A090A9C466144FFF73AFC071EF0D108
:100FD0006B00FF2542466D002B40E31830331A703A
:100FE00092B2120A5A70E4E74B08994689444B467C
:100FF000590A036A9C466144FFF722FC071ED8D1B8
:101000004B46DB05DB0DE31830332E4233D00F2285
:1010100019784D461140424612010A431A70236A5C
:1010200001359C46690A200026716144FFF708FCDF
:1010300000283DD00700BCE7036AC9099C4661440B
:10104000FFF7FEFB071EB4D1FE21AD0049000D40A5
:101050002B0041463033E318DA786519120912077C
:101060000A4391B2090A30352A705970110C120ED8
:101070009970DA709DE742461A704D46236A013531
:101080009C46690A200026716144FFF7D9FB0028BD
:10109000D0D1ED05ED0D65192B0042460F213033FF
:1010A0001B78120A8B430A401A4330352A7080E7B6
:1010B0004346ED05ED0D1A09D2B26519F5E7C046B4
:1010C000F8B503790400002B0BD12378032B29D02A
:1010D000002200216078FFF75BFA431E9841C0B2FE
:1010E000F8BD0700C56A303701232A00390040786F
:1010F000FFF73AFA00283AD1226AA3692071AA1AA6
:101100009A42E2D2E678012E01D8DEE7A369ED1813
:101110002A00012339006078013EFFF725FA012EED
:10112000F4D1D2E76379012BD2D12500802230356A
:1011300000219200280008F0C1F80E4B0E4A290049
:10114000E2520E4B0E4A236385239B00E250226934
:101150000433E250E2680433E250E36960785A1CD9
:10116000E2620123FFF700FA00236371B0E7012078
:10117000B6E7C0462E02000055AAFFFF5252614159
:1011800072724161F0B54E464546DE465746E0B5BF
:101190008946050083B000291ED1C7684369002F26
:1011A00034D10137FF2252009346023A3C00924666
:1011B00001349C421FD3012F00D891E0022B1CD98F
:1011C00002242E78022E00D176E0032E57D0012E75
:1011D00020D00124644211E001290ED043699942D4
:1011E0000BD2FFF743FD0400012806D96B69834247
:1011F00004D84F46D6E7012CE3D80124200003B0E1
:10120000F0BCBB46B246A946A046F0BDBB42C9D819
:101210000127C7E763089846A0444346590A2B6A4A
:1012200028009C466144FFF70BFB0028D1D14346C0
:10123000DB05DB0DEB1830331B782800019301230D
:101240009C46E0444346590A2B6A9C466144FFF79A
:10125000F7FA0028BDD14146CB05DB0DEB18303342
:101260001B78019A1B02134326423BD01B09002B1B
:101270003BD0012BC1D0A74232D06B6998E72B6AD3
:10128000E1099C4628006144FFF7DAFA0028A0D162
:101290005346A2001A40110030316918CB78887883
:1012A000AA18303212781B060004034313434A780D
:1012B000120213431B01D9E72B6A210A9C4628001E
:1012C0006144FFF7BDFA002800D082E75B46620068
:1012D0001A40AA1830325178137809020B43C6E736
:1012E00000248BE71B051B0DC1E76B69A34200D8E7
:1012F00083E721002800134AFFF74CFE002803D0A3
:10130000012800D165E778E74B46002B0DD0012B73
:1013100000D172E76B69994500D36EE72200494618
:101320002800FFF737FE0028EAD12B69EC605A1C31
:1013300000D163E70122013B2B616B7913436B7191
:101340005CE7C046FFFFFF0FF0B557464546DE4657
:101350004E46E0B5856807000C0083B0C180012DC2
:1013600026D006687369AB4222D9002D57D0B278D7
:1013700012019046914200D291E0FF225200934622
:101380009D4215D233789946022B00D195E0032B6C
:101390005AD0012B14D001200BE0756A002D41D0EA
:1013A000B27812019046914200D278E0012DE4D14A
:1013B000022003B0F0BCBB46B246A946A046F0BD31
:1013C0006B089A46AA445346590A336A30009C4631
:1013D0006144FFF735FA0028DDD15346DB05DB0D0C
:1013E000F31830331B783000019301239C46E2440C
:1013F0005346590A336A9C466144FFF721FA002894
:10140000C9D15146CB05DB0DF61830363378019A39
:101410001B0213434A462A4263D01D0932E0327848
:10142000032ABAD00023FB603389A342C0D9726A71
:101430002309944663443B610F210C40303664011C
:10144000341900207C61B4E7336AE9099C46300016
:101450006144FFF7F5F900289DD1FE22AB00520050
:1014600013401A003032B218D5789178F31830331F
:101470001B782D0609040D431D4353781B021D43A1
:101480002D012D09012D93D93E687369AB4200D817
:101490008EE74246A41AA4B2444500D370E7FD602B
:1014A000023B023D9D421FD2B3785D43B36A9C4626
:1014B000654423095D193D61BEE7336A290A9C46EC
:1014C00030006144FFF7BCF9002800D063E75B46B9
:1014D0006D001D4076193036737835781B021D4338
:1014E000D0E71B051D0DCDE70025E2E7F8B557460F
:1014F0004546DE464E46E0B50B7805008A462F2B62
:1015000053D05C2B51D000245346AC601B781F2B6A
:1015100054D95646AB6932782F2A01D05C2A01D1C2
:101520000136F8E720221A705A709A70DA701A7130
:101530005A719A71DA711A725A729A723278202A32
:1015400019D900218C460831884602218A46032198
:101550008B46711E894661469C462B0000244546F9
:10156000012798460B002F2A55D05C2A53D02E2AEB
:101570002AD09D4206D80620F0BCBB46B246A946FA
:10158000A046F8BD51B2002905DA59460C43B449CA
:10159000803A8A5CE4B22221B24803E0417801300B
:1015A000002923D08A42F9D1E5E701239C46002493
:1015B000E2445346AC601B781F2BAAD800212800B8
:1015C000FFF7C2FE6C61D7E7082DD4D108230B25A5
:1015D000A400E4B24A460137D25D202AC3D842466D
:1015E0006346A846F619150004221DE01100413992
:1015F000192906D851460C43E4B26146CA54013356
:10160000E8E7110061391929F7D80121203A0C4384
:10161000E4B2D2B2F1E742461900A846634615008B
:10162000F6190029A7D000221978E52901D1E0395F
:1016300019704146082900D105E103212140012903
:1016400001D10F310A430C210C40042C01D1043983
:101650000A4300212800DA72FFF776FE002800D046
:10166000F7E02C682F69B0463E0027000823FC6A8B
:101670009A46B4420ED0302291463B79B944002BB1
:1016800031D10123320049467878FEF753FF002814
:1016900059D1FE626A691478002C5FD050465346D7
:1016A000D17A08400B4261D0EC880134A4B2002CFE
:1016B00054D02E69002E51D00F23234099460F237A
:1016C000234242D02F684B465A013B00EC80303316
:1016D000FC6A9B186B61B442DCD0302291463B79A6
:1016E000B944002BCDD00123220049467878FEF77B
:1016F0003BFF002827D13A6ABB693871A21A9A4287
:10170000BFD2FA789346012ABBD931002A004E464F
:101710005D468946934600E0BB69E4182200012338
:1017200031007878013DFEF71FFF012DF4D14B46C3
:10173000B1461E0049460123320078785D46FEF727
:10174000F9FE0028A5D0012016E7E96801362F68C8
:101750002E61002954D13B89A342B4D8AB69DB7A0E
:1017600004205B0700D507E7052005E7AB691F7874
:10177000A74299D157785C78A74295D19F78947801
:10178000A74291D1D778DC78A7428DD117791C79FF
:10179000A74289D157795C79A74285D197799C79FD
:1017A000A74200D080E7D779DC79A74200D07BE759
:1017B000177A1C7AA74200D076E7577A5C7AA7425C
:1017C00000D071E7977A9C7AA74200D06CE7DC7A68
:1017D0004646640700D5CFE6C906C5D5D17E907EC2
:1017E0000902014328680078032801D0A96092E625
:1017F000147D527D1202224312041143A9608AE62D
:10180000BB782209013B1A4200D05CE7012918D0BD
:101810007B69994215D23800FFF728FA012810D9C0
:10182000431C90D02F687B69984297D2E860023BB6
:10183000023898420AD2BB785843BB6AC6182E6158
:1018400041E7022098E6A400E4B2FCE600262E61FF
:1018500039E7AB69DB7A042800D08DE680E7C04623
:1018600024C6001014C60010F8B54546DE4657469B
:101870004E464369E0B504000D00994200D398E05C
:10188000012914D9FF2326785B009946023B98462C
:101890000127022E00D175E0032E38D0012E08D08A
:1018A0000120F0BCBB46B246A946A046F8BD0220C6
:1018B000F7E76B089A46AA445346590A236A200060
:1018C0009C466144FEF7BCFF0028E9D15346DB0586
:1018D000DB0DE31830331B7820009B4601239C4628
:1018E000E2445346590A236A9C466144FEF7A8FF26
:1018F0000028D5D153465A46DB05DB0DE3183033BB
:101900001B781B0213432E4255D01E091CE0236A8C
:10191000E9099C4620006144FEF792FF0028BFD1F0
:101920004246AB0013401A003032A218D6789178A4
:10193000E31830331B78360609040E431E435378F0
:101940001B021E4336013609002E32D0012EAED0C6
:101950006369AB42ABD9002229002000FFF71AFBD4
:1019600000289ED123695A1C20D00133236163795A
:101970003B43637163699E421BD235002678022E79
:1019800000D089E7236A290A9C4620006144FEF7BB
:1019900057FF002800D083E74A466B001340E31846
:1019A00030335A781E7812021643CDE76369B3428A
:1019B000E3D8002075E71E05360DC5E7F0B5DE4615
:1019C0004E4657464546E0B5002185B00600FFF774
:1019D000BBFC041E0AD0042800D10724200005B057
:1019E000F0BCBB46B246A946A046F0BD3369356897
:1019F00098460F239A46EC6A44450ED02F002B7967
:101A00003037002B59D10123424639006878FEF760
:101A100091FD002842D14346EB6273691B78E52BA8
:101A200001D0002B24D131693068FEF709FF041E74
:101A3000D4D120220021706907F040FC7369B2699B
:101A400019001143890700D0F1E0511C591A0229ED
:101A500000D8ECE01168196051685960117A197268
:101A6000517A5972927A9A72012233681A71B5E7E3
:101A7000F4880134A4B2002CAFD033699846002B0F
:101A8000ABD0574653462740234209D035687B01E7
:101A90002F003037FF18F4807761ACE701249DE711
:101AA00001239C46E0444346F168356833610029D0
:101AB00028D12B89A342EAD88FE7012322003900DD
:101AC0006878FEF751FD0028E8D12A6AAB692871D1
:101AD000A21A9A4297D2EA789146012A93D9320003
:101AE0002E004D46914600E0B369E4182200012320
:101AF00039007078013DFEF737FD012DF4D1350036
:101B00004E4680E7AB782209013B1A42BFD101293A
:101B100021D06B6999421ED22800FFF7A7F8020076
:101B20000190012817D9431CB8D035686B699842D9
:101B300013D2023A0292023B019AF260029A934255
:101B400000D885E0AB785A431300AA6A90469844BF
:101B5000434633619BE7022440E72800F168FFF722
:101B600011FB031E019000D137E70128F3D00133A8
:101B700094D035682B79002B6DD12800802200216C
:101B80009200303007F09AFB019B35689A1E6B6912
:101B90000292023B9A4200D390E01100A86AAA7810
:101BA0008046514388444146E962002A3CD00023E4
:101BB0000394BB464446B14698462F000123303774
:101BC0002200390068782B71FEF7CEFC002800D087
:101BD00064E72A6AAB692871A21A9A420ED2EE789B
:101BE000012E01D80AE0AB69E41822000123390074
:101BF0006878013EFEF7B8FC012EF4D14B4647460B
:101C00001D680137EB6A5C1CFBB29846AB78EC624E
:101C10004345D2D84346A04642465F464E46D31A75
:101C200098466B69039C023B4246EA6284E711785E
:101C300019705178597091789970D178D97011795B
:101C400019715179597191799971D179D97105E7E2
:101C5000002398467CE7EB6A6878984630239B46D9
:101C6000AB44424659462F3BFEF77EFC002800D08D
:101C700014E74246296AAB692871521A9A421BD26C
:101C8000EA789146012A17D942463100A0462E0033
:101C900014004D46B9465F468B4600E0B369E41830
:101CA0002200012339007078013DFEF75DFC012D13
:101CB000F4D144464F465E4635685EE70021AA7877
:101CC000884670E700B583B00B1E019000911AD0D2
:101CD0000978303908290FD910490B68002B01D039
:101CE00000201870019B002B15D000200B6018708D
:101CF000012A0AD003B000BD58783A28ECD102334B
:101D000000930029E8D00B20F4E70022694601A8DF
:101D1000FEF7D6FDEEE700200B60EBE74008002061
:101D2000F0B54746CE4680B58DB00400170001914E
:101D3000002868D000231E2203603A4001A905A8AC
:101D4000FEF7BEFD051E05D028000DB0C0BCB9468B
:101D5000B046F0BD1F233B409846019902AB05A851
:101D60000B93FFF7C3FB00280FD10A9E002E00D172
:101D70009BE01C233B420FD01122F37A1A4246D13A
:101D80007B0700D48DE00825DEE71C233B4201D011
:101D900004283ED00500D7E7F37ADA0635D4BA072F
:101DA00001D5DB0733D4082205983A4003D04246D8
:101DB00020231A439046C36A2662E3614346A37117
:101DC0000023E371F37EB27E1B0213430278032AE1
:101DD00005D1727D377D12023A4312041343236109
:101DE000717F337FB27F09021943F37F12041143DD
:101DF0001B060B43E36000232060A360A3616362C2
:101E0000C388A380A0E709259EE704259CE7072552
:101E10009AE705A8FFF7D2FD424608231A439046E9
:101E20000A9E0028B6D1FEF7DDFB83B21B0AF373CE
:101E3000030C33740023B073000E70740598F77EA2
:101E4000F37233777377B377F377B27E03783F0219
:101E50001743032B05D1737D317D1B020B431B04FC
:101E60001F430023B376F376337573750133037123
:101E7000002F9CD0012F1AD043699F4217D2C36A0A
:101E800039009946FFF7F0FC002883D10598013FFF
:101E90004946C760FEF7D4FC002800D07AE70598D1
:101EA00085E73B07BFD4059885E706254CE7022563
:101EB0004AE7C046F8B51D00002304000E001700D5
:101EC0002B6000281ED00368002B1BD01A78002A34
:101ED00018D08288D9880920914200D0F8BD58785E
:101EE000FEF726FB0123034210D1E0790028F5D14B
:101EF000A279134208D02B003A0031002000FEF7EF
:101F000021FFEBE70920E9E70720E7E70320E5E702
:101F1000F8B5041E60D00368002B5DD01A78002A43
:101F20005AD0D98882880925914201D02800F8BD6D
:101F30005878FEF7FDFA01231D00054003424DD1FC
:101F4000A3799A0645D540261E420CD0210023686D
:101F5000A269587828310123FEF706FB00283FD1FB
:101F6000A379B343A371E1692068FEF769FC071EFA
:101F700001D00500DAE72022266AF37A1343F372D0
:101F8000E3683377A3891B0A7377E389B377E37B2D
:101F9000F3772369B3769AB21B0C120A33751B0AC6
:101FA000F2767375FEF71EFB202283B21B0AB07512
:101FB000F375030C000E33767076B774F774A3795B
:101FC00020689343A37101230371FFF779F8002878
:101FD00008D100232360A9E70925A7E70325A5E782
:101FE0000125A3E70500A1E710B501211620FEF7A2
:101FF000AFF901210920FEF7ABF901211020FEF70E
:10200000A7F90D4901220D48FFF75CFE0C4B011E9C
:10201000187003D00B4807F061FB10BD0A4807F0A9
:10202000BBFA0A4B0A4A19001431FF3108C20B33BC
:102030008B42FBD1F1E7C04684D200103416002059
:102040005171022088D20010C0D20010141100205B
:102050006818002070B5254C2378522B00D070BD35
:10206000431EDBB20025062B31D9214B1871032802
:1020700029D9A022F02152005980082000211A807D
:10208000FEF766F900210920FEF762F93620FEF717
:1020900013FA01210920FEF75BF9237801210820BA
:1020A000522B1CD0FEF754F909200021FEF750F9FD
:1020B0000020FEF701FA2800FEF7FEF901210920B1
:1020C000FEF746F9CBE7A021F0224900D4E7094A00
:1020D0005B00D55C064B18710328F4D9C9E7FEF7FD
:1020E00037F900210920FEF733F9E4E70004002066
:1020F000E4700220E8D2001070B5012182B0050022
:102100000F20FEF725F9FA204000FEF7F7F900212D
:102110000F20FEF71DF9FA204000FEF7EFF901212C
:102120000F20FEF715F9FA204000FEF7E7F96B469D
:102130009E1D0023002109203370FEF709F90021BC
:102140000820FEF705F9DC20FEF7B6F96B46DC1D2A
:10215000220001233100F4480AF00AFA0121092083
:10216000FEF7F6F82378F14C002108202370522B5B
:1021700001D100F000FCFEF7EBF800210920FEF78A
:10218000E7F82120FEF798F901210920FEF7E0F891
:1021900000210820FEF7DCF800210920FEF7D8F81E
:1021A000C220FEF789F901210920FEF7D1F8237832
:1021B00001210820522B00D1D6E3FEF7C9F80920EF
:1021C0000021FEF7C5F80020FEF776F93320FEF770
:1021D00073F901210920FEF7BBF800210820FEF762
:1021E000B7F800210920FEF7B3F8C520FEF764F91F
:1021F00001210920FEF7ACF8237801210820522B99
:1022000001D101F0E1F9FEF7A3F809200021FEF762
:102210009FF80020FEF750F90020FEF74DF901214C
:102220000920FEF795F8237801210820522B01D1CF
:1022300001F0C2F9FEF78CF809200021FEF788F8BA
:102240000020FEF739F91E20FEF736F9012109209A
:10225000FEF77EF8237801210820522B01D101F0EE
:10226000A3F9FEF775F809200021FEF771F80020A8
:10227000FEF722F98020FEF71FF901210920FEF761
:1022800067F800210820FEF763F800210920FEF717
:102290005FF8B120FEF710F901210920FEF758F888
:1022A000237801210820522B01D101F075F9FEF7A6
:1022B0004FF809200021FEF74BF80020FEF7FCF84C
:1022C000B020FEF7F9F801210920FEF741F80021BE
:1022D0000820FEF73DF800210920FEF739F83620E6
:1022E000FEF7EAF801210920FEF732F823780121F0
:1022F0000820522B01D101F047F9FEF729F80920F7
:102300000021FEF725F80020FEF7D6F82820FEF77A
:10231000D3F801210920FEF71BF800210820FEF761
:1023200017F800210920FEF713F8E020FEF7C4F8A3
:1023300001210920FEF70CF8237801210820522BF7
:1023400001D101F019F9FEF703F809200021FDF78A
:10235000FFFF0020FEF7B0F80020FEF7ADF80121E6
:102360000920FDF7F5FF237801210820522B01D128
:1023700001F0FAF8FDF7ECFF09200021FDF7E8FF76
:102380000020FEF799F81320FEF796F801210920A6
:10239000FDF7DEFF237801210820522B01D101F047
:1023A000DBF8FDF7D5FF09200021FDF7D1FF002064
:1023B000FEF782F81820FEF77FF801210920FDF7CB
:1023C000C7FF237801210820522B01D101F0BCF86E
:1023D000FDF7BEFF09200021FDF7BAFF0020FEF740
:1023E0006BF80420FEF768F801210920FDF7B0FF23
:1023F000237801210820522B01D101F09DF8FDF72F
:10240000A7FF09200021FDF7A3FF0020FEF754F8E5
:102410000F20FEF751F801210920FDF799FF2378DD
:1024200001210820522B01D101F07EF8FDF790FF29
:1024300009200021FDF78CFF0020FEF73DF8062063
:10244000FEF73AF801210920FDF782FF23780121E8
:102450000820522B01D101F05FF8FDF779FF092028
:102460000021FDF775FF0020FEF726F83A20FEF761
:1024700023F801210920FDF76BFF237801210820B3
:10248000522B01D101F040F8FDF762FF0920002135
:10249000FDF75EFF0020FEF70FF85620FEF70CF860
:1024A00001210920FDF754FF237801210820522B38
:1024B00001D101F021F8FDF74BFF09200021FDF7C4
:1024C00047FF0020FDF7F8FF4D20FDF7F5FF012144
:1024D0000920FDF73DFF237801210820522B01D16F
:1024E00001F002F8FDF734FF09200021FDF730FF6D
:1024F0000020FDF7E1FF0320FDF7DEFF01210920A9
:10250000FDF726FF237801210820522B01D100F08E
:10251000E3FFFDF71DFF09200021FDF719FF002053
:10252000FDF7CAFF04E0C04600000440000400209C
:102530000A20FDF7C1FF01210920FDF709FF2378DB
:1025400001210820522B01D100F0BEFFFDF700FF52
:1025500009200021FDF7FCFE0020FDF7ADFF06205D
:10256000FDF7AAFF01210920FDF7F2FE23780121E2
:102570000820522B01D100F09FFFFDF7E9FE092052
:102580000021FDF7E5FE0020FDF796FF3020FDF766
:1025900093FF01210920FDF7DBFE237801210820AC
:1025A000522B01D100F080FFFDF7D2FE092000215F
:1025B000FDF7CEFE0020FDF77FFF3E20FDF77CFFFC
:1025C00001210920FDF7C4FE237801210820522BA8
:1025D00001D100F061FFFDF7BBFE09200021FDF7EE
:1025E000B7FE0020FDF768FF0F20FDF765FF012112
:1025F0000920FDF7ADFE00210820FDF7A9FE00210E
:102600000920FDF7A5FEE120FDF756FF0121092075
:10261000FDF79EFE237801210820522B01D100F006
:1026200033FFFDF795FE09200021FDF791FE002004
:10263000FDF742FF0020FDF73FFF01210920FDF7D4
:1026400087FE237801210820522B01D100F014FFCE
:10265000FDF77EFE09200021FDF77AFE0020FDF740
:102660002BFF1320FDF728FF01210920FDF770FE45
:10267000237801210820522B01D100F0F5FEFDF74F
:1026800067FE09200021FDF763FE0020FDF714FF1F
:102690001820FDF711FF01210920FDF759FE2378CD
:1026A00001210820522B01D100F0D6FEFDF750FE8B
:1026B00009200021FDF74CFE0020FDF7FDFE012062
:1026C000FDF7FAFE01210920FDF742FE23780121E2
:1026D0000820522B01D100F0B7FEFDF739FE09208A
:1026E0000021FDF735FE0020FDF7E6FE1120FDF785
:1026F000E3FE01210920FDF72BFE237801210820AC
:10270000522B01D100F098FEFDF722FE0920002196
:10271000FDF71EFE0020FDF7CFFE0620FDF7CCFEE4
:1027200001210920FDF714FE237801210820522BF6
:1027300001D100F079FEFDF70BFE09200021FDF725
:1027400007FE0020FDF7B8FE3820FDF7B5FE012199
:102750000920FDF7FDFD237801210820522B01D12E
:1027600000F05AFEFDF7F4FD09200021FDF7F0FD11
:102770000020FDF7A1FE3420FDF79EFE0121092077
:10278000FDF7E6FD237801210820522B01D100F04E
:102790003BFEFDF7DDFD09200021FDF7D9FD0020FE
:1027A000FDF78AFE4D20FDF787FE01210920FDF788
:1027B000CFFD237801210820522B01D100F01CFE0F
:1027C000FDF7C6FD09200021FDF7C2FD0020FDF741
:1027D00073FE0620FDF770FE01210920FDF7B8FD0C
:1027E000237801210820522B01D100F0FDFDFDF7D7
:1027F000AFFD09200021FDF7ABFD0020FDF75CFED9
:102800000D20FDF759FE01210920FDF7A1FD2378D8
:1028100001210820522B01D100F0DEFDFDF798FDCB
:1028200009200021FDF794FD0020FDF745FE0B2057
:10283000FDF742FE01210920FDF78AFD23780121E1
:102840000820522B01D100F0BFFDFDF781FD0920CA
:102850000021FDF77DFD0020FDF72EFE3120FDF764
:102860002BFE01210920FDF773FD237801210820AB
:10287000522B01D100F0A0FDFDF76AFD09200021D7
:10288000FDF766FD0020FDF717FE3720FDF714FE6B
:1028900001210920FDF75CFD237801210820522B3E
:1028A00001D100F081FDFDF753FD09200021FDF766
:1028B0004FFD0020FDF700FE0F20FDF7FDFD01217B
:1028C0000920FDF745FD00210820FDF741FD00210D
:1028D0000920FDF73DFD3A20FDF7EEFD012109201D
:1028E000FDF736FD237801210820522B01D100F09D
:1028F00053FDFDF72DFD09200021FDF729FD0020E6
:10290000FDF7DAFD5520FDF7D7FD01210920FDF780
:102910001FFD00210820FDF71BFD00210920FDF708
:1029200017FD1120FDF7C8FD09200121FDF710FD5D
:102930007820FDF7E3FD00210820FDF709FD0021C7
:102940000920FDF705FD2920FDF7B6FD012109202D
:10295000FDF7FEFC2378522B01D100F0E6FC32207B
:10296000FDF7CCFD02B070BDFDF7F2FC002109209F
:10297000FDF7EEFC2AE4FDF7EBFC00210920FDF752
:10298000E7FC1120FDF798FD01210920FDF7E0FC8F
:102990006420FDF7B3FD00210820FDF7D9FC0021DC
:1029A0000920FDF7D5FC3620FDF786FD0121092021
:1029B000FDF7CEFC237801210820522B01D100F035
:1029C0006EFFFDF7C5FC09200021FDF7C1FC0020CA
:1029D000FDF772FD0020FDF76FFD01210920FDF7D5
:1029E000B7FC00210820FDF7B3FC00210920FDF70A
:1029F000AFFC3A20FDF760FD01210920FDF7A8FC9E
:102A0000237801210820522B01D100F040FFFDF76F
:102A10009FFC09200021FDF79BFC0020FDF74CFDE9
:102A20005520FDF749FD01210920FDF791FC00210A
:102A30000820FDF78DFC00210920FDF789FCB2205C
:102A4000FDF73AFD01210920FDF782FC23780121E1
:102A50000820522B01D100F012FFFDF779FC09206C
:102A60000021FDF775FC0020FDF726FD0C20FDF789
:102A700023FD01210920FDF76BFC237801210820AB
:102A8000522B01D100F0F3FEFDF762FC092000217A
:102A9000FDF75EFC0020FDF70FFD0C20FDF70CFD9F
:102AA00001210920FDF754FC237801210820522B35
:102AB00001D100F0D4FEFDF74BFC09200021FDF709
:102AC00047FC0020FDF7F8FC0020FDF7F5FC012194
:102AD0000920FDF73DFC237801210820522B01D16C
:102AE00000F0B5FEFDF734FC09200021FDF730FCB5
:102AF0000020FDF7E1FC3320FDF7DEFC0121092079
:102B0000FDF726FC237801210820522B01D100F08B
:102B100096FEFDF71DFC09200021FDF719FC0020A1
:102B2000FDF7CAFC3320FDF7C7FC01210920FDF7A2
:102B30000FFC00210820FDF70BFC00210920FDF708
:102B400007FCB720FDF7B8FC01210920FDF700FCC8
:102B5000237801210820522B01D100F068FEFDF7F7
:102B6000F7FB09200021FDF7F3FB0020FDF7A4FC93
:102B70003520FDF7A1FC01210920FDF7E9FB00212B
:102B80000820FDF7E5FB00210920FDF7E1FBBB2054
:102B9000FDF792FC01210920FDF7DAFB23780121E2
:102BA0000820522B01D100F03AFEFDF7D1FB09209D
:102BB0000021FDF7CDFB0020FDF77EFC2820FDF76E
:102BC0007BFC01210920FDF7C3FB00210820FDF754
:102BD000BFFB00210920FDF7BBFBC020FDF76CFC0B
:102BE00001210920FDF7B4FB237801210820522B95
:102BF00001D100F00CFEFDF7ABFB09200021FDF731
:102C0000A7FB0020FDF758FC3C20FDF755FC0121F7
:102C10000920FDF79DFB00210820FDF799FB00210D
:102C20000920FDF795FBC220FDF746FC0121092094
:102C3000FDF78EFB237801210820522B01D100F0F3
:102C4000DEFDFDF785FB09200021FDF781FB00205B
:102C5000FDF732FC0120FDF72FFC01210920FDF7D3
:102C600077FB00210820FDF773FB00210920FDF709
:102C70006FFBC320FDF720FC01210920FDF768FB55
:102C8000237801210820522B01D100F0B0FDFDF77F
:102C90005FFB09200021FDF75BFB0020FDF70CFC2A
:102CA0000B20FDF709FC01210920FDF751FB002154
:102CB0000820FDF74DFB00210920FDF749FBC4204A
:102CC000FDF7FAFB01210920FDF742FB23780121E2
:102CD0000820522B01D100F082FDFDF739FB0920BD
:102CE0000021FDF735FB0020FDF7E6FB2020FDF776
:102CF000E3FB01210920FDF72BFB00210820FDF754
:102D000027FB00210920FDF723FBC620FDF7D4FB9C
:102D100001210920FDF71CFB237801210820522BFB
:102D200001D100F054FDFDF713FB09200021FDF750
:102D30000FFB0020FDF7C0FB0F20FDF7BDFB0121BD
:102D40000920FDF705FB00210820FDF701FB00210C
:102D50000920FDF7FDFAD020FDF7AEFB0121092087
:102D6000FDF7F6FA237801210820522B01D100F05B
:102D700026FDFDF7EDFA09200021FDF7E9FA002014
:102D8000FDF79AFBA420FDF797FB01210920FDF731
:102D9000DFFA237801210820522B01D100F007FD32
:102DA000FDF7D6FA09200021FDF7D2FA0020FDF741
:102DB00083FBA120FDF780FB01210920FDF7C8FA64
:102DC00000210820FDF7C4FA00210920FDF7C0FA10
:102DD000E020FDF771FB01210920FDF7B9FA237806
:102DE00001210820522B01D100F0D9FCFDF7B0FAE7
:102DF00009200021FDF7ACFA0020FDF75DFBD02093
:102E0000FDF75AFB01210920FDF7A2FA23780121E1
:102E10000820522B01D100F0BAFCFDF799FA0920E5
:102E20000021FDF795FA0020FDF746FB0120FDF794
:102E300043FB01210920FDF78BFA237801210820AB
:102E4000522B01D100F09BFCFDF782FA09200021F2
:102E5000FDF77EFA0020FDF72FFB0820FDF72CFB85
:102E600001210920FDF774FA237801210820522B53
:102E700001D100F07CFCFDF76BFA09200021FDF781
:102E800067FA0020FDF718FB0F20FDF715FB012165
:102E90000920FDF75DFA237801210820522B01D18A
:102EA00000F05DFCFDF754FA09200021FDF750FA0F
:102EB0000020FDF701FB1120FDF7FEFA012109209A
:102EC000FDF746FA237801210820522B01D100F0AA
:102ED0003EFCFDF73DFA09200021FDF739FA0020FC
:102EE000FDF7EAFA2A20FDF7E7FA01210920FDF7AC
:102EF0002FFA237801210820522B01D100F01FFC6A
:102F0000FDF726FA09200021FDF722FA0020FDF73F
:102F1000D3FA3620FDF7D0FA01210920FDF718FA7F
:102F2000237801210820522B01D100F000FCFDF78D
:102F30000FFA09200021FDF70BFA0020FDF7BCFA7B
:102F40005520FDF7B9FA01210920FDF701FA237890
:102F500001210820522B00D1E2E3FDF7F9F9092005
:102F60000021FDF7F5F90020FDF7A6FA4420FDF752
:102F7000A3FA01210920FDF7EBF9237801210820AC
:102F8000522B00D1C5E3FDF7E3F909200021FDF73D
:102F9000DFF90020FDF790FA3A20FDF78DFA0121C4
:102FA0000920FDF7D5F9237801210820522B00D103
:102FB000A8E3FDF7CDF909200021FDF7C9F90020AC
:102FC000FDF77AFA0B20FDF777FA01210920FDF7CA
:102FD000BFF9237801210820522B00D186E3FDF7A9
:102FE000B7F909200021FDF7B3F90020FDF764FAD5
:102FF0000620FDF761FA01210920FDF7A9F92378E0
:1030000001210820522B00D169E3FDF7A1F9092025
:103010000021FDF79DF90020FDF74EFA1120FDF784
:103020004BFA01210920FDF793F9237801210820AB
:10303000522B00D14CE3FDF78BF909200021FDF75D
:1030400087F90020FDF738FA2020FDF735FA012135
:103050000920FDF77DF900210820FDF779F900210D
:103060000920FDF775F9E120FDF726FA0121092075
:10307000FDF76EF9237801210820522B00D120E3BF
:10308000FDF766F909200021FDF762F90020FDF740
:1030900013FAD020FDF710FA01210920FDF758F9A5
:1030A000237801210820522B00D103E3FDF750F9CA
:1030B00009200021FDF74CF90020FDF7FDF9022061
:1030C000FDF7FAF901210920FDF742F923780121E2
:1030D0000820522B00D1E6E2FDF73AF90920002141
:1030E000FDF736F90020FDF7E7F90720FDF7E4F9D1
:1030F00001210920FDF72CF9237801210820522B0A
:1031000000D1C9E2FDF724F909200021FDF720F9DB
:103110000020FDF7D1F90A20FDF7CEF901210920A1
:10312000FDF716F9237801210820522B00D1ACE2DB
:10313000FDF70EF909200021FDF70AF90020FDF73F
:10314000BBF90B20FDF7B8F901210920FDF700F9C3
:10315000237801210820522B00D18FE2FDF7F8F8E7
:1031600009200021FDF7F4F80020FDF7A5F918204B
:10317000FDF7A2F901210920FDF7EAF823780121E2
:103180000820522B00D172E2FDF7E2F8092000215D
:10319000FDF7DEF80020FDF78FF93420FDF78CF9FC
:1031A00001210920FDF7D4F8237801210820522BB2
:1031B00000D155E2FDF7CCF809200021FDF7C8F851
:1031C0000020FDF779F94320FDF776F90121092068
:1031D000FDF7BEF8237801210820522B00D138E2F8
:1031E000FDF7B6F809200021FDF7B2F80020FDF741
:1031F00063F94A20FDF760F901210920FDF7A8F8DD
:10320000237801210820522B00D11BE2FDF7A0F802
:1032100009200021FDF79CF80020FDF74DF92B2037
:10322000FDF74AF901210920FDF792F823780121E1
:103230000820522B00D1FEE1FDF78AF80920002179
:10324000FDF786F80020FDF737F91B20FDF734F96C
:1032500001210920FDF77CF8237801210820522B59
:1032600000D1E1E1FDF774F809200021FDF770F8C5
:103270000020FDF721F91C20FDF71EF9012109208E
:10328000FDF766F8237801210820522B00D1C4E114
:10329000FDF75EF809200021FDF75AF80020FDF740
:1032A0000BF92220FDF708F901210920FDF750F85C
:1032B000237801210820522B00D1A7E1FDF748F81F
:1032C00009200021FDF744F80020FDF7F5F81F2044
:1032D000FDF7F2F801210920FDF73AF80021082056
:1032E000FDF736F800210920FDF732F85520FDF7EB
:1032F000E3F801210920FDF72BF8237801210820AC
:10330000522B00D17BE1FDF723F809200021FDF7C6
:103310001FF80020FDF7D0F8B020FDF7CDF801210F
:103320000920FDF715F8FFF706FB6B1EDBB2002640
:10333000062B00D854E1F14B1D71032D00D84BE151
:10334000A022F02152005980082000211A80FCF7A9
:10335000FFFF00210920FCF7FBFF3620FDF7ACF84A
:1033600001210920FCF7F4FF237801210820522BCA
:1033700000D13DE1FCF7ECFF09200021FCF7E8FF5C
:103380000020FDF799F83000FDF796F8012109209B
:10339000FCF7DEFFFFF7E3FAFCF7DAFF0021092074
:1033A000FCF7D6FFFFF7AEFAFCF7D2FF00210920A9
:1033B000FCF7CEFFFFF780FAFCF7CAFF00210920D7
:1033C000FCF7C6FFFFF761FAFCF7C2FF00210920F6
:1033D000FCF7BEFFFFF742FAFCF7BAFF0021092015
:1033E000FCF7B6FFFFF723FAFCF7B2FF0021092034
:1033F000FCF7AEFFFFF704FAFCF7AAFF0021092053
:10340000FCF7A6FFFFF7E5F9FCF7A2FF0021092072
:10341000FCF79EFFFFF7C6F9FCF79AFF0021092091
:10342000FCF796FFFFF7A7F9FCF792FF00210920B0
:10343000FCF78EFFFFF788F9FCF78AFF00210920CF
:10344000FCF786FFFFF769F9FCF782FF00210920EE
:10345000FCF77EFFFFF74AF9FCF77AFF002109200D
:10346000FCF776FFFFF72BF9FCF772FF002109202C
:10347000FCF76EFFFFF70CF9FCF76AFF002109204B
:10348000FCF766FFFFF7EDF8FCF762FF002109206B
:10349000FCF75EFFFFF7CEF8FCF75AFF002109208A
:1034A000FCF756FFFFF7A0F8FCF752FF00210920B8
:1034B000FCF74EFFFFF781F8FCF74AFF00210920D7
:1034C000FCF746FFFFF762F8FCF742FF00210920F6
:1034D000FCF73EFFFFF743F8FCF73AFF0021092015
:1034E000FCF736FFFFF724F8FCF732FF0021092034
:1034F000FCF72EFFFEF7FFFFFCF72AFF0021092053
:10350000FCF726FFFEF7E0FFFCF722FF0021092071
:10351000FCF71EFFFEF7C1FFFCF71AFF0021092090
:10352000FCF716FFFEF7A2FFFCF712FF00210920AF
:10353000FCF70EFFFEF783FFFCF70AFF00210920CE
:10354000FCF706FFFEF764FFFCF702FF00210920ED
:10355000FCF7FEFEFEF745FFFCF7FAFE002109200E
:10356000FCF7F6FEFEF726FFFCF7F2FE002109202D
:10357000FCF7EEFEFEF707FFFCF7EAFE002109204C
:10358000FCF7E6FEFEF7E8FEFCF7E2FE002109206C
:10359000FCF7DEFEFEF7BAFEFCF7DAFE002109209A
:1035A000FCF7D6FEFEF78CFEFCF7D2FE00210920C8
:1035B000FCF7CEFEFEF75EFEFCF7CAFE00210920F6
:1035C000FCF7C6FEFEF73FFEFCF7C2FE0021092015
:1035D000FCF7BEFEFEF720FEA021F0224900B2E675
:1035E000474A5B00D65C454B1D71032DF4D9A7E615
:1035F000FCF7AEFE00210920FCF7AAFEC3E6FCF7AB
:10360000A7FE00210920FCF7A3FE85E6FCF7A0FE3B
:1036100000210920FCF79CFE59E6FCF799FE0021E9
:103620000920FCF795FE3CE6FCF792FE00210920FC
:10363000FCF78EFE1FE6FCF78BFE00210920FCF74D
:1036400087FE02E6FCF784FE00210920FCF780FEDD
:10365000E5E5FCF77DFE00210920FCF779FEC8E5D1
:10366000FCF776FE00210920FCF772FEABE5FCF7C3
:103670006FFE00210920FCF76BFE8EE5FCF768FE6B
:1036800000210920FCF764FE71E5FCF761FE0021D2
:103690000920FCF75DFE54E5FCF75AFE00210920E5
:1036A000FCF756FE37E5FCF753FE00210920FCF736
:1036B0004FFE1AE5FCF74CFE00210920FCF748FEFE
:1036C000FDE4FCF745FE00210920FCF741FEE0E4A3
:1036D000FCF73EFE00210920FCF73AFEB4E4FCF7BB
:1036E00037FE00210920FCF733FE97E4FCF730FE9B
:1036F00000210920FCF72CFE7AE4C046E470022089
:10370000E8D20010FCF724FE00210920FCF720FE7F
:1037100058E4FCF71DFE00210920FCF719FE3BE4EC
:10372000FCF716FE00210920FCF712FE1EE4FCF750
:103730000FFE00210920FCF70BFEFFF701FCFCF750
:1037400007FE00210920FCF703FEFFF7E2FBFCF770
:10375000FFFD00210920FCF7FBFDFFF7C3FBFCF791
:10376000F7FD00210920FCF7F3FDFFF7A4FBFCF7B0
:10377000EFFD00210920FCF7EBFDFFF785FBFCF7CF
:10378000E7FD00210920FCF7E3FDFFF766FBFCF7EE
:10379000DFFD00210920FCF7DBFDFFF747FBFCF70D
:1037A000D7FD00210920FCF7D3FDFFF728FBFCF72C
:1037B000CFFD00210920FCF7CBFDFFF7FAFAFCF75B
:1037C000C7FD00210920FCF7C3FDFFF7DBFAFCF77A
:1037D000BFFD00210920FCF7BBFDFFF7ADFAFCF7A8
:1037E000B7FD00210920FCF7B3FDFFF77FFAFCF7D6
:1037F000AFFD00210920FCF7ABFDFFF751FAFCF704
:10380000A7FD00210920FCF7A3FDFFF723FAFCF731
:103810009FFD00210920FCF79BFDFFF7F5F9FCF760
:1038200097FD00210920FCF793FDFFF7C7F9FCF78E
:103830008FFD00210920FCF78BFDFFF799F9FCF7BC
:1038400087FD00210920FCF783FDFFF76BF9FCF7EA
:103850007FFD00210920FCF77BFDFFF74CF9FCF709
:1038600077FD00210920FCF773FDFFF72DF9FCF728
:103870006FFD00210920FCF76BFDFFF70EF9FCF747
:1038800067FD00210920FCF763FDFFF7EFF8FCF767
:103890005FFD00210920FCF75BFDFFF7C1F8FCF795
:1038A00057FD00210920FCF753FDFFF793F8C046B0
:1038B000F8B5CE464746804680B508200F00002167
:1038C0001C001500FCF744FD00210920FCF740FD19
:1038D0002A20FCF7F1FD01210920FCF739FD4346C0
:1038E0008A4E1B0A9946337801210820522B00D1B9
:1038F000D4E0FCF72DFD09200021FCF729FD002074
:10390000FCF7DAFD4B46D8B2FCF7D6FD01210920C1
:10391000FCF71EFD337801210820522B00D1EEE088
:10392000FCF716FD09200021FCF712FD0020FCF732
:10393000C3FD4346D8B2FCF7BFFD013D012109207C
:10394000FCF706FD2B129846337801210820522BF4
:1039500000D1CDE0FCF7FCFC09200021FCF7F8FCCD
:103960004346180EFCF7A8FD4346D8B2FCF7A4FD69
:1039700001210920FCF7ECFC337801210820ADB2CD
:10398000522B00D1ADE0FCF7E3FC09200021FCF74D
:10399000DFFC0020FCF790FDE8B2FCF78DFD012173
:1039A0000920FCF7D5FC00210820FCF7D1FC002100
:1039B0000920FCF7CDFC2B20FCF77EFD012109201E
:1039C000FCF7C6FC3378012108203D0A522B00D1B8
:1039D00080E0FCF7BDFC09200021FCF7B9FC0020C9
:1039E000FCF76AFDE8B2FCF767FD01210920FCF74E
:1039F000AFFC337801210820522B64D0FCF7A8FCDF
:103A000009200021FCF7A4FC0020FCF755FDF8B2CA
:103A1000FCF752FD01210920FCF79AFC3378013CA8
:103A2000012108202512522B46D0FCF791FC0920D9
:103A30000021FCF78DFC280EFCF73EFDE8B2FCF7F8
:103A40003BFD01210920FCF783FC3378012108208C
:103A5000A4B2522B29D0FCF77BFC09200021FCF7F3
:103A600077FC0020FCF728FDE0B2FCF725FD0121E2
:103A70000920FCF76DFC00210820FCF769FC0021FF
:103A80000920FCF765FC2C20FCF716FD012109201C
:103A9000FCF75EFCC0BCB946B046F8BDFCF758FC6C
:103AA00000210920FCF754FC2CE7FCF751FC002115
:103AB0000920FCF74DFCD7E7FCF74AFC0021092060
:103AC000FCF746FCBAE7FCF743FC00210920FCF7B1
:103AD0003FFC9CE7FCF73CFC00210920FCF738FC8C
:103AE00080E7FCF735FC00210920FCF731FC53E7A7
:103AF000FCF72EFC00210920FCF72AFC34E7FCF738
:103B000027FC00210920FCF723FC12E70004002019
:103B1000F8B505000C0008200021FCF719FC002175
:103B20000920FCF715FC2A20FCF7C6FC012109201E
:103B3000FCF70EFC864E0121337808202F0A522B09
:103B400000D1CCE0FCF704FC09200021FCF700FCCC
:103B50000020FCF7B1FCF8B2FCF7AEFC0121092013
:103B6000FCF7F6FB337801210820522B00D1E7E067
:103B7000FCF7EEFB09200021FCF7EAFB0020FCF734
:103B80009BFCE8B2FCF798FC01210920FCF7E0FB64
:103B90003378013D012108202F12522B00D1C8E0BB
:103BA000FCF7D6FB09200021FCF7D2FB380EFCF70E
:103BB00083FCF8B2FCF780FC01210920FCF7C8FB6C
:103BC000337801210820ADB2522B00D1AAE0FCF7D6
:103BD000BFFB09200021FCF7BBFB0020FCF76CFCBD
:103BE000E8B2FCF769FC01210920FCF7B1FB0021D8
:103BF0000820FCF7ADFB00210920FCF7A9FB2B20D6
:103C0000FCF75AFC01210920FCF7A2FB33780121C3
:103C10000820250A522B00D17DE0FCF799FB0920F2
:103C20000021FCF795FB0020FCF746FCE8B2FCF70E
:103C300043FC01210920FCF78BFB3378012108208C
:103C4000522B61D0FCF784FB09200021FCF780FB9C
:103C50000020FCF731FCE0B2FCF72EFC012109202A
:103C6000FCF776FB3378013C012108202512522B0A
:103C700043D0FCF76DFB09200021FCF769FB280EFF
:103C8000FCF71AFCE8B2FCF717FC01210920FCF74D
:103C90005FFB337801210820A4B2522B26D0FCF719
:103CA00057FB09200021FCF753FB0020FCF704FC24
:103CB000E0B2FCF701FC01210920FCF749FB0021DF
:103CC0000820FCF745FB00210920FCF741FB2C20D4
:103CD000FCF7F2FB01210920FCF73AFBF8BDFCF7E9
:103CE00037FB00210920FCF733FB34E7FCF730FBFE
:103CF00000210920FCF72CFBDAE7FCF729FB002167
:103D00000920FCF725FBBDE7FCF722FB0021092079
:103D1000FCF71EFB9FE7FCF71BFB00210920FCF7CB
:103D200017FB83E7FCF714FB00210920FCF710FBCD
:103D300056E7FCF70DFB00210920FCF709FB38E7EB
:103D4000FCF706FB00210920FCF702FB19E7C0463F
:103D500000040020104B10B514001A88824202D3D0
:103D60005B888B4200D210BD0B000200FFF7A0FD64
:103D700001210820FCF7ECFA00210920FCF7E8FA01
:103D8000200AFCF799FBE0B2FCF796FB0121092021
:103D9000FCF7DEFAE7E7C046E4700220F8B5144B02
:103DA00004001D88002D02D05E88002E00D1F8BDD1
:103DB00033002A0000210020FFF77AFD01210820AE
:103DC000FCF7C6FA002109206E43FCF7C1FA002572
:103DD000270AE4B23800FCF76FFB01352000FCF73E
:103DE0006BFBAE42F6D101210920FCF7B1FADEE708
:103DF000E4700220F0B54E464546DE4657461C00AC
:103E0000E0B5072687B0019310AB0391198811AB79
:103E10008846198804900291A188203A0E40731EAA
:103E20009E41CB08F3181600E08846435E432368A2
:103E30009C4605936644002861D0039B013B9BB2DE
:103E40009A46324B9946002959D0049B0025581EAA
:103E5000534601339BB29B4680B21CE08023234132
:103E6000471C134229D04B461A88BBB29A4209D349
:103E70004B465B885B4505D35146029AFFF76AFFC4
:103E8000019B9988073C63425C410135ADB236190C
:103E9000B8B28D4221D207241D4B32782C40984570
:103EA000DCD180232341471C1342EBD0174B1A88E7
:103EB0009446BAB29445DCD2E4E74B461A88BBB2CA
:103EC0009A42DFD34B465B885B45DBD35146424683
:103ED000FFF740FF019B9988D4E74B0700D00136DC
:103EE000019B0398DA8853461B1A02339BB29A420D
:103EF00005D9534601339BB29A460029A5D107B094
:103F0000F0BCBB46B246A946A046F0BDE470022014
:103F1000FFFF0000F0B557464E46DE464546E0B589
:103F200085B01F000EAB1B888A4603930FAB1B881E
:103F300081469B461F4B160019889846814231D313
:103F4000588850452ED31278002A2BD0BB8855466E
:103F50009C464C461DE0FB88EB18834201DD55462C
:103F60004C468C420CD885420AD85B460193039B91
:103F70002900009320003B00FFF73CFFBB889C46D4
:103F8000727864440136A4B2002A0BD043461988E3
:103F900058886346E3188B42DDDDFB884C46ED18FC
:103FA000ADB2D9E705B0F0BCBB46B246A946A046C3
:103FB000F0BDC046E4700220F0B5C64600B507006B
:103FC00084B03C493C4808F0DFF80E2301AD6B4457
:103FD0002E00984600211020FCF7BAF93800FCF7B3
:103FE0006BFAC820FCF78EFA0020FCF777FA84B24F
:103FF0000020FCF773FA2402A4B20443A4B2012106
:104000001020E408FCF7A4F93480C8200236FCF73D
:1040100079FA4645DED12949274808F0B5F82B88BA
:104020006A88934201D92A806B802B88AA889342A0
:1040300001D92A80AB802B88EA88934201D92A8053
:10404000EB802B882A89934231D86B88AA889342C7
:1040500001D96A80AB806B88EA88934201D96A8073
:10406000EB806B882A8993421ED8AB88EA889342FA
:1040700001D9AA80EB80AB882A89934201D9AA8012
:104080002B812B89EA889A4200D9EB80AB8868881B
:104090000321C018EB88C01880B204F033FA80B254
:1040A00004B080BCB846F0BD6A802B81DDE72B816F
:1040B000CBE7C046C0C62D000000044080F0FA02E5
:1040C000F8B5D020FFF778FF04009020FFF774FFC9
:1040D00006000A20FCF716FAD020FFF76DFF050056
:1040E0009020FFF769FF07000A20FCF70BFAAC42AB
:1040F0000CD2230031330020AB4206DBBE420DD28E
:10410000330031330020BB4210DAF8BD2B003133CD
:10411000A342F3DA0020AC42F7D1EAE73B003133A7
:10412000B34203DA0020BE42EFD1E9E7044B641941
:10413000F61970106410D8809C800120E5E7C04615
:10414000F070022000B52A4B83B01B78522B1BD095
:10415000284B1A7E062A0CD0002A21D1264A1A6141
:10416000264A5A61152252425A81123A9A8103B064
:1041700000BD234A1A61234A5A61812292005A8162
:10418000162252429A81F2E71A4B1F4A1A611F4ABD
:104190005A616422FF325A81783AFF3A9A81E6E7FF
:1041A000032A0BD0052A13D1194A1A61194A5A61F8
:1041B000194A5A81142252429A81D8E7174A1A6141
:1041C000174A5A61162252425A81103A9A81CEE712
:1041D0000020FFF7E3FDF8231B020193114B3C2164
:1041E00000930020104B114AFFF794FEBFE7C04632
:1041F00000040020F070022010B3B73DEA060A3E2A
:10420000239F07BE5950B83D6DABB9BDB6118F3D68
:10421000831808BE7826B43D050200005B25B83D32
:10422000D05F083EFFFF0000F8030020F8D2001026
:1042300070B53A4C23885A1E062A38D80122002528
:10424000374B3848384902701E78384A0D7015705F
:10425000002E1ED000250D700121057011701D70FB
:104260000720FDF7F7FE0021314A0020FCF7BCF9DA
:104270000420FDF7EFFE0E23238070BD284B1A7833
:10428000002A47D10121274B1970274B1A70274B61
:104290001A700720FDF7DEFE0021264A0020FCF7F9
:1042A000A3F90420FDF7D6FE00232380E5E70E2BBB
:1042B000E4D01A00083A052A19D801220025184B23
:1042C000194918480A701E78184A05701570002E92
:1042D000C0D10720FDF7BEFE0021174A0020FCF7E1
:1042E00083F90420FDF7B6FE07232380C5E7002BE2
:1042F000E3D00B4B1A78002A0CD10A4B1B78002B09
:10430000C7D1094B1B78002BE3D1084B1B78002B3E
:10431000B3D0A5E703480449044A9BE70204002000
:1043200058710220010400205571022056710220AC
:1043300054D300103CD3001048D3001070B50500D2
:1043400016000C000720FDF785FE32002800A1B200
:10435000FCF74AF90420FDF77DFE70BDF8B5CE46A6
:104360004746112080B5FBF7FDFF002860D1FFF71D
:10437000A7FE002817D1B24FB24D3B882E88984631
:10438000B14C237A7F2B03D8C02323726368236048
:10439000464504D26A887B88934200D984E0C0BC39
:1043A000B946B046F8BDA94BA74C1B78522B51D04B
:1043B000237E032B00D107E1002B48D1A04F3B887F
:1043C0001800984604F002FF051CA08804F0FEFEC9
:1043D000216904F0F4FE011C281C04F0D6FE051C23
:1043E0000A23E05E04F0F2FE011C281C04F0CDFE5E
:1043F00004F00EFF934D86B22E80788804F0E6FE1E
:104400008146E08804F0E2FE616904F0D8FE011CF8
:10441000484604F0BAFE81460C23E05E04F0D6FE66
:10442000011C484604F0B1FE04F0F2FE6880A8E7E3
:104430000821854B5956187A002904DB00221A609E
:10444000013A5A60ABE77F2202401A72A7E7052BB8
:1044500000D0CFE0E08804F0B9FE216904F0AFFE9F
:10446000051C0A23E05E04F0B1FE011C281C04F0C8
:104470008FFE04F0CDFE734D86B22E80A08804F02E
:10448000A5FE616904F09BFE071C0C23E05E04F0AE
:104490009DFE011C381C04F07BFE04F0B9FE684F41
:1044A00068803B8898466CE73100694805F016F94A
:1044B0002B885A1E302A65D86888002862D0312897
:1044C00000D929E1634F39880E2900D8ECE01A00A1
:1044D0000B3A92B2552A08D868880400353C4E2C15
:1044E00000D90BE1002900D137E11800733880B200
:1044F00081461C00723CA4B2582C00D85AE11E0020
:10450000DB3EB6B2572E0AD8688884463420404233
:1045100060444F2800D9CBE0002900D132E1133BA1
:10452000FF3B9BB22D2B00D9CFE068888446002842
:1045300000D0F9E0552A00D992E06246952A00D8C9
:104540008EE0E52A02D8072900D143E1582C00D992
:1045500092E06A88952A00D88EE0E52A02D80729D9
:1045600000D129E1572E00D991E0973A4E2A00D97F
:104570008DE0072900D10CE1374805F0AFF8374B43
:104580002B600CE71A00334F0B3A92B23988552A48
:10459000A2D91800733880B281465728A9D86E88EE
:1045A0003400343C4F2C02D8002900D1DCE01C0040
:1045B000723CA4B2963E4F2E02D8002900D1DAE018
:1045C0001E00DB3EB6B2AAE7A08804F0FFFD216919
:1045D00004F0F5FD051C0A23E05E04F0F7FD011C64
:1045E000281C04F0D5FD04F013FE164D86B22E8073
:1045F000E08844E7124F3B881800984604F0E6FD37
:10460000051CE08804F0E2FD216904F0D8FD011CDE
:10461000281C04F0BAFD051C0A23E05E04F0D6FD58
:10462000011C281C04F0B1FD04F0F2FD054D86B21A
:104630002E80788804F0CAFD8146A088E2E6C04654
:10464000E47002200C710220F070022000040020AF
:10465000F8D300100204002010D40010A0000100C4
:104660004A46572A00D971E76A88343A4F2A00D956
:104670006CE7072900D1A6E0572E08D86A881000F9
:1046800034384F2800D970E7072900D1A9E02D2B35
:1046900000D971E76B88013B262B00D96CE70E2906
:1046A00000D069E70D233B80FFF7C2FD398863E73F
:1046B000972040428046C44460464E2800D92EE7E9
:1046C000002942D0133BFF3B9BB2552AC8D86A88C9
:1046D0009446353A4E2A00D92FE70729C0D108233E
:1046E00007203B80FDF7B6FC414A00210020FBF784
:1046F0007BFF0420FDF7AEFC39883DE796384F2854
:1047000000D9F2E6002900D0EFE6022307203B8023
:10471000FDF7A0FC374AE8E71A000B3A92B2552A97
:104720003ED8354F3988D8E62728CED8002902D080
:10473000072900D0FEE60122304B31481A7004F000
:104740002BFFFFF775FD398816E7062300202D4A59
:104750003B80FFF7F3FD39880EE7012307203B80FC
:10476000FDF778FC284AC0E7032307203B80FDF7CC
:1047700071FC264AB9E7042307203B80FDF76AFC59
:10478000234AB2E7052307203B80FDF763FC214A5B
:10479000ABE70D2307203B80FDF75CFC1E4AA4E736
:1047A00018001C00144F733881B2723C8946A4B2C1
:1047B0003988A4E66E88FDE60B2307203B80FDF7D1
:1047C00049FC164A91E70A2307203B80FDF742FC8B
:1047D000134A8AE7092307203B80FDF73BFC114A77
:1047E00083E70C2307203B80FDF734FC0E4A7CE76F
:1047F000A8D300106CD300100204002058710220CE
:1048000008D400109CD3001060D3001078D300109F
:1048100084D3001090D30010ECD30010D0D300103C
:10482000C0D30010B4D30010E0D3001070B5050061
:1048300001211020FBF78CFD054CD0202576FFF7D9
:10484000BBFBA0809020FFF7B7FBE08070BDC046A7
:10485000F070022070B505000E0016200121FBF754
:1048600077FDFF20FBF728FE00211620FBF770FDE7
:104870001B4C02E0013C002C25D0FF20FBF71CFE66
:10488000FF28F7D140202843FBF716FE0020FBF756
:1048900013FE0020FBF710FE0020FBF70DFE0020AA
:1048A000FBF70AFE3000FBF707FE0C2D14D0202486
:1048B00003E0013CE4B2002C04D0FF20FBF7FCFD38
:1048C0000306F6D470BD01211620FBF741FDFF2041
:1048D000FBF7F2FDFF20F5E7FF20FBF7EDFDE6E734
:1048E000FFFFFF0010B5FBF7E7FD10BD7047C046A6
:1048F0007047C04610B5074C02E0013C002C06D0C2
:10490000FF20FBF7D9FDFF28F7D1002010BD0120C3
:10491000FCE7C046FFFFFF00F8B506000D001620BB
:1049200001211700FBF714FDFF20FBF7C5FD002157
:104930001620FBF70DFD1D4C02E0013C002C27D09A
:10494000FF20FBF7B9FDFF28F7D140203043FBF7EC
:10495000B3FD280EFBF7B0FD280CC0B2FBF7ACFD91
:10496000280AC0B2FBF7A8FDE8B2FBF7A5FD3800A6
:10497000FBF7A2FD0C2E14D0202403E0013CE4B28E
:10498000002C04D0FF20FBF797FD0306F6D4F8BDFA
:1049900001211620FBF7DCFCFF20FBF78DFDFF203B
:1049A000F5E7FF20FBF788FDE6E7C046FFFFFF00C5
:1049B00070B5012105000920FFF74CFF061E09D044
:1049C00001211620FBF7C4FCFF20FBF775FD012633
:1049D000300070BD114C03E0002CF1D0013CA4B2BA
:1049E000FF20FBF769FDFE28F6D1002CE8D02C0053
:1049F0001034FF20FBF760FD28700135AC42F8D180
:104A0000FF20FBF759FDFF20FBF756FD0121162083
:104A1000FBF79EFCFF20FBF74FFDD9E7FFFF0000EF
:104A200000B585B06846FFF7C3FF00282ED16B465E
:104A30003F221B789343402B1FD06B46187ADB79BB
:104A400080099B00C0186B46C0229B7912019B0213
:104A500013400130C0186B465A790F2313406A4641
:104A6000927AD2099B186A46517A062249000A4076
:104A70009B18073B984005B000BD6B46187A5B7ADF
:104A800000020133C01880B28002F4E70020F2E790
:104A9000F0B5CE46474680B50121162083B0FBF71E
:104AA00057FC0A24013CFF20A4B2FBF705FD002CB3
:104AB000F8D1152503E0013DADB2002D2DD0952193
:104AC0000020FFF7C7FE040006000128F3D1D5211E
:104AD00000235B4F8722082049003B70FFF71CFF33
:104AE000012831D101AB98461C0002AEFF20FBF734
:104AF000E3FC20700134B442F8D16B469B79012B62
:104B000054D001211620FBF723FCFF20FBF7D4FC37
:104B10003C7863425C41E4B20EE0494F3D700121B4
:104B20001620FBF715FCFF20FBF7C6FC3B78002B9B
:104B300008D1002C00D1AA24200003B0C0BCB94683
:104B4000B046F0BD0024F7E701213720FFF782FED1
:104B500001212920FFF77EFE012813D93E70394D2F
:104B6000394E03E0013DADB2B54244D001210120F0
:104B7000FFF770FE041EF5D10024002D3BD1002369
:104B80003B70CCE702232F4D2F4E3B7003E0013DDD
:104B9000ADB2B5422FD001213720FFF75BFE0121D6
:104BA0002920FFF757FE041EF1D1E5E76B46DB79BC
:104BB000AA2BA6D1244B234D994603E0013DADB26B
:104BC0004D4522D001213720FFF744FE80210122EC
:104BD0002920C905FFF7A0FE041EEFD1002D14D136
:104BE00001211620FBF7B4FBFF20FBF765FC3B78A7
:104BF000002BA0D0A0E78021012210208900FFF720
:104C00008BFE002800D18AE7B9E701213A20FFF79F
:104C100021FE002800D082E7FF20FBF74DFC434631
:104C2000187001239C46E044B045F5D16B461B79D2
:104C30005B0602D506233B7071E704233B706EE7E9
:104C40004C710220FEFF0000FFFF0000F8B5344B5E
:104C500006001B781700062B00D049020122012F05
:104C600039D01220FFF758FE80239B009C466644F3
:104C70002C4B2D4CF51803E0002C1ED0013CA4B2A7
:104C8000FF20FBF719FCFE28F6D1002C15D0FF20E1
:104C9000FBF712FC28700135B542F8D1FF20FBF775
:104CA0000BFCFF20FBF708FC8023013F9B00FFB2B9
:104CB000EE18002FDCD1002500E0012501210C2099
:104CC000FFF7C8FD01211620FBF742FBFF20FBF791
:104CD000F3FB2800F8BD1120FFF71EFE051EF1D1E1
:104CE000114C03E0002C19D0013CA4B2FF20FBF7CB
:104CF000E3FBFE28F6D1002C10D080239B00F41893
:104D0000FF20FBF7D9FB30700136B442F8D1FF2009
:104D1000FBF7D2FBFF20FBF7CFFBD3E70125D1E761
:104D20004C71022000FEFFFFFFFF0000F8B5474670
:104D3000CE4680B5504B06001B780C001700062BA2
:104D400055D04C02012A66D0012B52D101222100FC
:104D50001920FFF7E1FD804600283CD180239B000D
:104D6000F518E23BFF3B9946444C02E0013C002C25
:104D700024D0FF20FBF7A0FBFF28F7D1FC20FBF796
:104D80009BFB340020780134FBF796FBA542F9D158
:104D9000FF20FBF791FBFF20FBF78EFBFF20FBF7CB
:104DA0008BFB4B461840052808D180239B009C466E
:104DB000013FFFB266446544002FD5D12F4C02E07D
:104DC000013C002C55D0FF20FBF776FBFF28F7D1E4
:104DD000FD20FBF771FB01211620FBF7B9FAFF203C
:104DE000FBF76AFB4046C0BCB946B046F8BD012A95
:104DF00011D001213720FFF72DFD012239001720A6
:104E0000FFF78AFD012221001920FFF785FD80466A
:104E10000028E0D1A2E7012221001820FFF77CFD45
:104E200080460028D7D1154C02E0013C002C20D050
:104E3000FF20FBF741FBFF28F7D1FE20FBF73CFBEF
:104E400080239B00F41830780136FBF735FBA6422F
:104E5000F9D1FF20FBF730FBFF20FBF72DFBFF20F4
:104E6000FBF72AFB1F230340052BB4D002239846EF
:104E7000B1E701239846AEE74C710220FFFFFF0027
:104E8000F0B500240F2585B0204804F085FB2048AC
:104E900004F082FB1F4F204E254232D0782322009F
:104EA000E1B21A401C421DD0782A1BD000230F22E9
:104EB0000093300001336A4407F0A4FA002811DBA4
:104EC000164804F00BFC2B0023400F2B11D0144884
:104ED000013404F003FC802CDED1124804F05CFBAA
:104EE00005B0F0BD104804F0F9FB2B0023400F2B58
:104EF000EDD10A20013404F0FFFA802CEDD02542D8
:104F0000CCD12100380004F0E9FBC7E728D4001019
:104F100038D400106CD40010E804002024D4001011
:104F200074D4001078D400107CD4001070B5002622
:104F300084B003AC60702670FFF7A2FF194D220009
:104F4000022340212800009607F0F4F901230022F3
:104F500000934021280007F0EDF9012300224021B1
:104F60002800009607F04EFAFF2101400E4804F099
:104F7000B5FB00210D4804F0B1FBFC232200238087
:104F8000402128000096FA3B07F0D4F9FD232200C7
:104F90002380402128000096FB3B07F0CBF904B0AA
:104FA00070BDC046E804002080D4001090D40010EA
:104FB00010B50D490D4807F093F903211A2000F0B0
:104FC000B1FA03211B2000F0ADFA002201211A20C2
:104FD00000F0C0FA002201211B2000F0BBFA0020E3
:104FE000FFF7A4FF10BDC046A0860100E804002022
:104FF00010B5052000F0EEF9014B186010BDC04659
:1050000044080020F0B54546DE4657464E46E0B51A
:1050100083B001920C9A050088469A4200D974E048
:105020001A0E93461E023000002359460C9A03F0D4
:10503000ABFA374B6C009C466419A4006444636867
:105040000700834200D260602B1FDBB29946012B20
:1050500035D9C02380229B01234312011A602D4BB6
:10506000AD0059599A46002905D0586903F04AFA0B
:1050700001300138FDD1019A236852015340E022EA
:105080001A4080235B0123431A604A46012A2FD924
:10509000802380229B01234312011A6030000023E9
:1050A0003A005946676003F06FFA534658510120A1
:1050B00003B0F0BCBB46B246A946A046F0BD43468D
:1050C000012BC6D1C02303229B0123431A60023A5D
:1050D000A3681A42FCD0019A236852015A40E02387
:1050E0001A4080235B0123431A600A4AAD009246AE
:1050F00042462168514003220A401A600122434679
:105100009A40A3681A42FCD0C2E70020D0E7C0460C
:10511000008000408010002030B50C2083B001F0EA
:10512000B5FC00F0CDF900280ED0944B944A1A60DB
:105130005A609A60DA601A615A619A61DA611A6299
:10514000904A5A6203B030BD8F4CA06701F0F2FC68
:1051500001228E4B1A60636C012BFCD103228C4B15
:105160001A60894A936B012BFCD101330121894AD2
:1051700089480093043301F031FC0523874A0093EA
:105180000121874801F02AFC864B5A68FF2A02D881
:10519000802252005A608022784C7D4B2169120196
:1051A000804D1A60002905D0606903F0ABF9013029
:1051B0000138FDD1E0217B4B02201A68114080228A
:1051C00052012A43116019684840032101401160CF
:1051D00004219A681142FCD08022802192012A4346
:1051E00009011160802252005A606F4B23616F4B9E
:1051F0005968FF2900D85A600321644A6B4B11603B
:1052000002399A681142FCD0E0201A6810408022CE
:1052100052011A43106018684840032101400220DF
:10522000116062498A681042FCD0802292011343C7
:10523000802212011A6080225D4B52004A60636135
:105240005C4B5968FF2900D85A6080225A4BE169AB
:105250001201584D1A60002905D0606903F052F917
:1052600001300138FDD1E02252490B681A408023F9
:105270005B012B431A60802380229B012B43120188
:105280001A6080223E4B52004A60E3614B4B5968E2
:10529000FF2900D85A608022494B216A1201474DEC
:1052A0001A60002905D0606903F02CF9013001383B
:1052B000FDD1E02241490B681A4080235B012B435A
:1052C0001A60802380229B012B4312011A608023E5
:1052D00080225B004B602A4BD2022362394B596813
:1052E000914200D25A608022374B616A1201354DDB
:1052F0001A60002905D0606903F004F90130013813
:10530000FDD1E0222F490B681A4080235B012B431B
:105310001A60802380229B012B4312011A60802394
:10532000DB024B60174B6362284B5A68FF2A02D896
:10533000802252005A608022254BA1691201234D20
:105340001A60002905D0606903F0DCF801300138EB
:10535000FDD1E0221D490B681A4080235B012B43DD
:105360001A60802380229B012B4312011A60802344
:105370005B004B600E4BA361E4E6C046801000204A
:10538000006CDC021BB70000008000403CB0004015
:1053900030B00040002F685900800240008C8647E2
:1053A00000C0024030800040001BB7003C8000403D
:1053B000405973075480004054B000406080004062
:1053C00060B000406C8000406CB0004048800040FD
:1053D00048B00040014B8000C0587047801000204A
:1053E00070B5EFF3108C72B60D4D2B68002BFCD00E
:1053F000BFF35F8F0724CB08C618C05C01230C40A5
:10540000A3401C000440034207D103433370BFF3A1
:105410005F8F2C608CF3108870BD100001F010FDC0
:105420002C0100D0F8B54746CE46884680B5EFF34C
:10543000108C72B6214D2C68002CFCD0BFF35F8F0E
:105440009A422CD8D4080727055D06190124174075
:10545000BC402C421FD007210127894609E0D4080F
:10546000055D06194C4639001440A1400C00294244
:1054700011D001329342F2D201204042BFF35F8F3C
:1054800000220E4B1A608CF3108800280FDBC0BC82
:10549000B946B046F8BD2C4310003470EEE7BFF3B8
:1054A0005F8F00232B608CF310880120404243461D
:1054B000002BECD0089801F0C3FCC0462C0100D0B2
:1054C000024B18688007C00F7047C04600C00640F6
:1054D0000021044B044ABFF35F8F02C39342FAD109
:1054E0007047C046000100D0800100D0044A107807
:1054F000431CDBB2172B00D9102313707047C04632
:105500000404002000B5054B83B00100009318226D
:105510001F230348FFF786FF03B000BDA8D4001087
:105520007C100020094A830094464022634410B551
:105530001C68C0006240C024144080225201134302
:105540001C60034B9C466044416010BD04C0014098
:10555000004001400A4B80009C460423604400291F
:1055600001D00C230821002A00D10B00026853400F
:105570000C221A4080235B01184302607047C0462A
:1055800004C001400123D02283401206936293613C
:10559000094A83009446402263441968C0004A4087
:1055A000C02111408022520113431960034B9C46D5
:1055B000052360444360704704C00140004001403F
:1055C00001238340002904D0034A1360034A136077
:1055D0007047034A1360FBE780E200E000E100E06F
:1055E00080E100E001238340014A13607047C04618
:1055F00000E200E0084B10309B688000C358002B8D
:1056000007D0064A00209B1A2F229A424041C0B27E
:1056100070470020FCE7C04600ED00E008040020D1
:10562000024B10309B688000C058704700ED00E0CE
:1056300070B50D00EFF3108672B60F4A1368002B99
:10564000FCD0BFF35F8F0D4B10309B6884001B595B
:105650000B4A934203D09D4201D001F009FC074B55
:105660009B681D51BFF35F8FBFF35F8F0022024B1A
:105670001A6086F3108870BD240100D000ED00E0B0
:10568000CD010010F0B557464E46DE464546E0B522
:1056900085B0060002911700EFF3108B72B6674ACF
:1056A0001368002BFCD0BFF35F8F0025644B5D5760
:1056B0009A46002D00DAA5E06B00624C03935B195B
:1056C0009B009846A146C1444B4652469B791036F2
:1056D00013705D4BB2009B68019299580B1B2F2BE6
:1056E00034D95A4B994200D0A5E0039B584A9C46B6
:1056F000584B6544AD006353434602336519E418C3
:10570000554B0121043B1B1B1B055B0D13436B8099
:10571000524BEF71AB80FF23AB71029BAB604B46EA
:105720000B431900484B019A9B689950BFF35F8F58
:10573000BFF35F8F0022414B1A608BF3108805B0D6
:10574000F0BCBB46B246A946A046F0BD01200A0007
:105750008243D379BB422FD845464E461300404979
:105760001B1B5B415943090D3A4B63533A4B0235BE
:105770006519043B5B1B1B05354D5B0D2B4373808B
:105780000426B446E0444444131F1B1B4C46A1713D
:1057900002991B05A16049465B0D2B43A380314B49
:1057A000E77101431360BDE75800C018800020185E
:1057B000C679BE422CD902000623D356002BF3DA59
:1057C000101D8246BD200002804604267642B44663
:1057D000E14450464E46361A3005400D8246564644
:1057E0001B48957106439680039A944665441D4A6A
:1057F000AD00641922604246A371029BA280E7714A
:10580000A3608FE701F034FB002553465D5753E753
:10581000101D824690884005001584464046D444B9
:10582000664604302018301AE0260005400D360286
:1058300030438046C9E701F01BFB56E7240100D046
:10584000527102200804002000ED00E0CD0100109C
:1058500000E0FFFF00A1FFFF3804002000BDFFFFB4
:10586000AAAA000001488047F0B5DE4657464E46DA
:105870004546E0B50C0083B0EFF3108A72B65A4A81
:105880001368002BFCD0BFF35F8F10229146814438
:105890004A46564B96009B689D59554B98469D42EB
:1058A00005D0A54216D0534FEB1B2F2B14D94F4BCD
:1058B0009B689D51BFF35F8FBFF35F8F00224A4B00
:1058C0001A608AF3108803B0F0BCBB46B246A94602
:1058D000A046F0BD1D00EAE7012383409B465A46DF
:1058E000454B1B681A4000925A46444B1A60BFF35E
:1058F0005F8FFAF7B8FC0190002803D0814501D0F2
:1059000001F0B6FA01232A009A4393689C4208D119
:105910005FE04B005B189B00FB189968A14211D017
:105920001A00062151560029F3DA009B002B05D0FE
:105930005A46334B1A60304B1A60B8E75A462F4B21
:105940001A60B4E706215956002921DB4A00501895
:1059500080003C188046A0689860E079D8710620E5
:1059600020569871002824DBA488F81A64052415B1
:1059700044440019E0240005400D2402204398808F
:105980005218204B9200BF181A781970BA71CCE7E0
:105990000199002910D1FF3191711B49918019495A
:1059A0000A789A71194ADB1B5B415A43120D0A703F
:1059B000BBE7BD200002E2E7154A1649D21A083AB1
:1059C0005002400D01439980134952080A43DA807E
:1059D000ABE70621515613000029B7DA019A002AD5
:1059E000EAD14546DBE7C046240100D000ED00E0E7
:1059F000CD0100100804002000E100E080E100E09B
:105A000080E200E05271022000BDFFFFAAAA000060
:105A10004204002000F0FFFF00F8FFFFF8B5012569
:105A200004000543FAF71FFCEFF3108C72B6214A0D
:105A30001368002BFCD0BFF35F8F1F4E2100B768A7
:105A40001E4A1F4B891A49414B431B0D59B2830013
:105A5000F858A8421CD00623D3568B421CD01223E0
:105A6000D3568B4222D01E23D3568B4220D02A23DA
:105A7000D35603208B4210D0124B1A781970A271A2
:105A8000BFF35F8F00220B4B1A608CF31088F8BDB8
:105A9000B2680D48D050EFE7002043001B189B0070
:105AA000D218FF239371094B9380E5E70120F4E7B7
:105AB0000220F2E7240100D000ED00E008040020FD
:105AC000AAAA000052710220CD01001000BDFFFF04
:105AD000054B064A1360064A136053609360D36017
