:020000041000EA
:1000000000B5324B212058609868022188439860DF
:10001000D860186158612E4B002199600221596106
:100020000121F02299502B49196001219960352056
:1000300000F044F80222904214D00621196600F024
:1000400034F8196E01211966002018661A6600F04E
:100050002CF8196E196E196E052000F02FF8012189
:100060000842F9D1002199601B49196000215960AB
:100070001A491B48016001219960EB211966A021F2
:10008000196600F012F800219960164914480160C1
:100090000121996001BC002800D000471248134993
:1000A000086003C880F30888084703B5996A0420EC
:1000B0000142FBD001200142F8D103BD02B5186610
:1000C0001866FFF7F2FF186E186E02BD00000240BE
:1000D000000000180000070000035F00212200005C
:1000E000F4000018222000A00001001008ED00E03C
:1000F00000000000000000000000000074B24E7A12
:1001000000200420F7010010C3010010C5010010F9
:10011000C1010010C1010010C1010010C101001097
:10012000C1010010C1010010C1010010C701001081
:10013000C1010010C1010010C9010010CB01001065
:10014000CD010010CD010010CD010010CD01001037
:10015000CD010010CD010010CD010010CD01001027
:10016000CD010010CD010010CD010010CD01001017
:10017000CD010010CD010010CD010010CD01001007
:10018000CD010010CD010010CD010010CD010010F7
:10019000CD010010CD010010CD010010CD010010E7
:1001A000CD010010CD010010CD010010CD010010D7
:1001B000CD010010CD010010CD010010CD010010C7
:1001C00000BE00BE00BE00BE00BE00BE00F04BF888
:1001D000103800BEF2EB887174FD001098FD00101D
:1001E0003402001090A31AE700202149086006C8D5
:1001F00081F3088810471F48006800282FD10DA4FC
:100200000ECC002902D000F012F8F9E71A491B4A77
:10021000002000E001C19142FCD1194988471949E9
:1002200088471949884700BEFDE701C901C29A42C3
:10023000FBD3704798FD0010C0000020340500205B
:100240000C02011000000420000004200C02011028
:1002500000100420001004200000000070470B482C
:1002600009F012FA0047EFF30580C0B270470000B2
:1002700008ED00E0000000D0380500208CC6022008
:10028000857F00100D030010758000105756000088
:1002900006005250ABB3605330FB001006005250C2
:1002A000861C030240FB0010060052505422A29DFF
:1002B00050FB001005005250DE65F4680C0201107E
:1002C000F8B5C04610B5064C2378002B07D1054B76
:1002D000002B02D0044800E000BF0123237010BDB2
:1002E000400800200000000078D90010044B10B531
:1002F000002B03D00349044800E000BF10BDC046F6
:10030000000000004408002078D9001010B500F06B
:1003100001F8FCE710B500F071F800F039F801F0D1
:10032000C7FF05F049FF05F053FEC82104208900EE
:1003300002F046F8042005F021FB04F003FA002047
:1003400003F0C2FE04F074FA00210020054A04F014
:1003500027FC00210020044A04F022FC05F0DAF812
:10036000FCE7C04678D9001084D900100123D022C0
:1003700083401206002901D0536170479361FCE766
:10038000D0231B065B68C340012018407047C0465D
:1003900010B50020D02406F0F9F901232406A36249
:1003A000012006F0F3F902230220A36206F0EEF921
:1003B00004230320A36206F0E9F908230420A362C2
:1003C00006F0E4F910230022A3620121002006F0C8
:1003D000C5F900220121012006F0C0F90022012107
:1003E000022006F0BBF900220121032006F0B6F935
:1003F00000220121042006F0B1F910BDF0B5C64677
:1004000000B584B0334803AB02AA01A907F0FEFC93
:10041000002803D12F49304807F02EFE039A029995
:10042000019807F0B7FC0AF081FA0DF05DF92B484E
:100430000DF076F90021402006F0FAFF0F2006F0BB
:10044000A5F9D024802324061B026362082006F04D
:100450009DF98023802680275B006362B6010D2012
:1004600006F094F9BF000920666206F08FF91020AB
:10047000676206F08BF980235B0263621120984665
:1004800006F084F9802380259B02A362ED031620E9
:1004900006F07CF9002201211120656206F05EF968
:1004A00043460F4963610F486761666165610CF0FF
:1004B0000BFF01210A2006F039F901210B2006F07B
:1004C00035F901210C2006F031F9002004B080BC80
:1004D000B846F0BD90D0030090D90010F80300207A
:1004E00000093D000000044010B584B06B460F24A5
:1004F0006C44D91D08700123220003480DF02CFA2A
:10050000207804B010BDC0460000044010B582B091
:100510006B46DC1D991D08700123220002480DF076
:100520001BFA207802B010BD0000044010B506F0A0
:1005300097FF10BD7047C046030010B50120002B87
:1005400000D010BD05F04CFB0028FAD005F076FA7B
:10055000FF2005F06FFA05F073FA0120F1E7C046BD
:100560000020704770B50D00040011001A1E11D054
:100570000120002C00D070BD280005F00FFC0028E1
:10058000F9D005F05BFAFF2005F054FA05F058FAAF
:100590000120F0E70420EEE770B50D000400110023
:1005A0001A1E0AD00120002C00D070BD280005F0D2
:1005B00065FC431E9841C0B2F7E70420F5E7C0464A
:1005C00070B514000125002808D102290FD007D8E2
:1005D000002911D005F0CCFA00252060280070BD5C
:1005E00004250329FAD1082300251380F6E7802388
:1005F0009B0000251380F1E700211620FFF7B6FECF
:1006000005F020FA431E98410121C5B21620FFF7DC
:10061000ADFEE3E700207047013AF8B51B4BD5006B
:10062000AD184833ED00ED18C8234746CE465B01B0
:1006300080B580460E00002799463100404603F001
:10064000CBFB01210820FFF791FE2C00002109209F
:10065000FFF78CFE483C2088000AFFF745FF207812
:100660000234FFF741FFAC42F5D1A02341370136F8
:100670009B00FF37B6B2E5184F45DED101210920B6
:10068000FFF774FEC0BCB946B046F8BD5812002052
:10069000F0B557464E464546DE46E0B517005A428D
:1006A000534163225B42934385B0643380460E001E
:1006B0000093632F00D8D2E00A21380009F03EF8F9
:1006C0003800CCB2642109F039F8C8B20A2109F027
:1006D00035F8C3B29B466421380009F02FF85A461A
:1006E000C3B21A4303930292009A694B9446A50041
:1006F0002D1914336D00654401939C4600239946DF
:100700008C2337005B014E469A46B9466D0065441E
:100710003900404603F060FB01210820FFF726FE68
:100720002C0000210920FFF721FE143C2088000A3C
:10073000FFF7DAFE20780234FFF7D6FEAC42F5D19F
:10074000A023413601379B00FF36BFB2E51856455E
:10075000DED101210920FFF709FE029B002B73D097
:1007600043460A3B9BB29A465B469D00009B5D4414
:100770009C46019B6D0065449C4600234F4699466C
:100780008C235B014E469B46B9466D00654439009B
:10079000504603F021FB01210820FFF7E7FD2C0064
:1007A00000210920FFF7E2FD143C2088000AFFF732
:1007B0009BFE20780234FFF797FEAC42F5D1A023D0
:1007C000413601379B00FF36BFB2E5185E45DED1EA
:1007D000039B4E46002B37D09C469F00009B6744EE
:1007E0009C46019B7F0067449C46002345469846F3
:1007F0008C23143DADB25B0199462B0045469846CB
:100800007F0067443100404603F0E6FA01210820EA
:10081000FFF7ACFD3C0000210920FFF7A7FD143CC9
:100820002088000AFFF760FE20780234FFF75CFEA4
:10083000A742F5D1A0239B009C4641350136FF35E8
:10084000B6B267444D45DDD101210920FFF78EFD89
:1008500005B0F0BCBB46B246A946A046F0BD3B0081
:100860000A3B592B0ED80A21380008F067FF3800E0
:10087000CCB20A2108F062FFC3B29B460293002368
:10088000039331E700233C009B46029303932BE73D
:10089000944A0020F0B5DE4657464E4645469346FC
:1008A000E0B5674C0122A5440290039104A8594683
:1008B00001F09AFB634E644F1E223B00310004A8F6
:1008C00001F05CFC594661480AF024F8B18873884D
:1008D000090419435E480AF01DF8B4897389240499
:1008E0001C4321005B480AF015F8B38A728A1B0486
:1008F00013431900584800930AF00CF8338BF28A1E
:100900001B0413431900554801930AF003F8B18BF7
:10091000534809F0FFFF04A801F05EFC514809F0BC
:10092000F9FF0122594604A801F05EFB3B002200BA
:10093000310004A801F022FC4B4B1B78522B0CD049
:1009400004A801F049FC01208F239B009D44F0BCCA
:10095000BB46B246A946A046F0BD962292029446F6
:10096000424B994663449846B4239B00F418693B74
:10097000FF3B9A464D46B244B4223B003100520040
:1009800004A801F0FBFBB4223B005200514604A82E
:1009900001F0F4FB2800320093785178DB088908D5
:1009A0004901DB020B4311780332C9080B43038072
:1009B0000230A242F0D1E135FF354545DCD16B462E
:1009C0000399188903F008FA01210820FFF7CEFCEB
:1009D00000210920FFF7CAFC254926480CF0F0FC4D
:1009E000594625480CF014FF002815D059462348D5
:1009F0000CF00EFF002819D04C462088000AFFF7A3
:100A000073FD20780234FFF76FFD4445F5D10121D5
:100A10000920FFF7ABFC93E7009A019B13495A4367
:100A2000520092B2164809F06BFD89E7009A019BCB
:100A30000E495A43520092B2124809F061FD7FE715
:100A4000C4FDFFFFBC0C00205C080020C4D90010CE
:100A5000CCD90010E0D90010F4D900100CDA001045
:100A600024DA001038DA001010040020F86D00209D
:100A700080B2E60E0000044078D9001084D900103E
:100A800058120020944A0020002370B50371013BE6
:100A900004000D00C3624B1C09D00A002100012391
:100AA00040783031FFF75EFD00281FD1E562124B20
:100AB000E25A124B9A421BD12200663253881188A7
:100AC0001B040B430E4A1B021B0A934212D08223C3
:100AD000E25A0C4B82349C466088000410430002AA
:100AE000000A6044431E9841C0B270BD0320FCE779
:100AF0000220FAE70020F8E72E02000055AA0000C5
:100B000046415400BABEABFFF0B5C646C66A040003
:100B10000D0000B58E4235D0070003793037002B29
:100B20000BD101232A0039006078FFF71BFD002854
:100B300026D1E56280BCB846F0BD01233200390001
:100B40004078FFF729FD00281AD1226AA369207195
:100B5000B21A9A42E5D2E2789046012A01D8E0E73B
:100B6000A369F6183200012339006078FFF714FDFD
:100B700001235B429C46E0444346012BF0D1D0E781
:100B80000120D7E70020D5E7F0B54546DE465746B9
:100B90004E460023E0B50C68150083B00360002CBE
:100BA00000D1C4E02378303B082B00D8B6E0C84B16
:100BB0001C68002C00D11DE123780460002B0FD0AD
:100BC0006078FFF7CDFCC3070AD4002D00D10DE1FA
:100BD00004231E000640034200D1FFE00A26FDE088
:100BE000002300202380FFF7A7FCC30700D5FFE008
:100BF000002D01D04307F1D400212000FFF744FF6E
:100C00000600012800D194E0032800D13AE1002534
:100C1000002800D0E1E022003B3211785378802296
:100C20001B0292000B43934200D0D6E04623E65AC3
:100C3000002E00D1666D4023A661E25C531EE27077
:100C4000012B00D9C9E03D23E75CA770002F00D13C
:100C5000C3E07B1E1F4200D0BFE04123E15C2300C4
:100C600041335B781B020B43984623811B0700D05E
:100C7000B3E04323E15C230043335B781B020B4367
:100C800000D1236DE18F8B46002900D1A5E072438E
:100C90001100019242468A4612095A449244534531
:100CA00000D29AE052469B1A99463900180008F083
:100CB00045FDB94500D290E0864B984200D8E3E06C
:100CC000854B984200D821E15B46EB1823625346DE
:100CD000EB18A362434602306061E561002B7CD1D2
:100CE000E36D800063627D4B9C466044400A86420F
:100CF00073D301235B422361E36081336371203B43
:100D0000E35A012B00D182E00323754A2370138834
:100D1000002601339BB21380E3805FE062783A2AB9
:100D200000D044E702340C60002B00D13FE70B26D3
:100D300054E0F9235B00E35C0027002B0CD0FB237D
:100D40005B00E118E25C4B788F781B021A43CB788A
:100D50003F0417431B061F43624B0025E35C002B37
:100D60000BD0614BE2185178E55C09029378294376
:100D7000D5781B0419432D060D4300225B4B90468A
:100D8000E35C002B0CD05A4BE0184278E15C120275
:100D900083781143C2781B040B4312061A43904612
:100DA0000022544B9146E35C002B0CD0524BE018D0
:100DB0004278E15C120283781143C2781B040B4332
:100DC00012061A439146002F45D1002D4BD14346C0
:100DD000002B4FD14B46002B0ED10D26300003B017
:100DE000F0BCBB46B246A946A046F0BD0026F5E7DA
:100DF0000326F3E70C26F1E749462000FFF744FEFF
:100E00004D46002800D106E70328E7D0E5E720009B
:100E1000691CFFF779FE002800D075E7434663712F
:100E2000364BE25A364B9A4200D06DE7354B226B77
:100E30009A4200D068E785229200334BA2589A422A
:100E400000D061E7862387229B009200E358A258D6
:100E50002361E26058E739002000FFF715FE002803
:100E6000B3D13D00D7E629002000FFF70DFE002892
:100E7000ADD1D0E641462000FFF706FE45460028EA
:100E8000A8D1C8E60126A9E75B464146EB18821CBB
:100E9000E561554462612362A56200299DD00199F4
:100EA00050008C46634463620123801840081A4056
:100EB00080180A4A94466044400A864200D28CE771
:100EC000012252422261E260813262711DE7C04616
:100ED00060080020F50F0000F5FF0000FF01000092
:100EE00076C6022002020000060200001202000084
:100EF0001602000022020000260200002E0200005E
:100F000055AA000052526141727241615B464246ED
:100F1000EB180230E561554460612362A562002A46
:100F200000D15AE7019A4000944663446362022369
:100F3000BFE7C046F0B5C646077804000D0000B50F
:100F4000022F08D0032F3FD0012F17D0012040429D
:100F500080BCB846F0BD036A090A9C466144FFF7AD
:100F6000D3FD0028F2D1FF216D0049000D40641926
:100F70003034637820781B021843E9E7036A4E088F
:100F80009C467618710A6144FFF7BEFD0028DDD14A
:100F9000F305DB0DE31830331B7801369846236ADE
:100FA000710A9C4620006144FFF7AEFD0028CDD1B8
:100FB0004346F605F60DA419303420780002184394
:100FC0002F421FD00009C3E7036AC9099C46614448
:100FD000FFF79AFD0028B9D1FE21AD0049000D4070
:100FE0002B003033E318D8789A786419120400067D
:100FF000303410435B7822781B0210431843000101
:101000000009A5E70005000DA2E7C046F8B54E4669
:10101000DE46574645469B468468C368E0B51B1BC1
:1010200006000F009946934200D991464B46002B8B
:1010300000D190E02200D305DD0D002B41D13368B3
:10104000500A99784C1E0440E4B2002C00D184E090
:1010500070695A690238023A904200D38CE0996A6A
:101060009A788C4650436044002800D184E0804642
:101070008021A0448900894500D386E0B26990456B
:101080001AD035004024B17928350C420BD058785D
:1010900029000123FFF780FA002800D0A0E0B379EF
:1010A000A343B37133685878424601232900FFF700
:1010B00059FA002800D093E04346B361B368DD05D8
:1010C000ED0D80239B00591B494500D94946022458
:1010D0002B00A4462933F3180634FB1A9C459B4188
:1010E000A446481E2A008445A44128325B4264423B
:1010F000B2181C4200D177E03B0013439B0700D09D
:1011000072E000238C08A400D558FD500433A3429C
:10111000FAD103230C009C4323001219C01A3C1976
:101120008B4209D013782370002805D05378637060
:10113000012801D09378A370B3685846CA185B465B
:101140001B68B2605B1803604B465B1A99467F18B8
:10115000002B00D06FE7002011E0002A32D1306967
:10116000012809D9431C3BD0336870615A690238A1
:10117000023A904200D272E702230220F371F0BCDF
:10118000BB46B246A946A046F8BD4946490A8A462A
:1011900061188A4201D2121B92465246D2B2587846
:1011A000390013004246FFF7DDF9002818D1B37962
:1011B0005B0604D54246B3699B1A9A4530D853461C
:1011C0005902B9E7726A9246002A14D1716901295D
:1011D000D2D95A699142CFD21800FFF7ABFEBFE7D0
:1011E00001230120F371CAE70023D05CF8540133D6
:1011F0009942FAD1A0E704235344984608F09EFA96
:1012000053465B68002BB7D0424604E00832C01A50
:101210001368002BB0D09842F8D25368C0189FE7EB
:101220003100320002205B02FB1829312832591AA2
:1012300088420BD219001143890707D151595951DE
:101240008021043589008D42F8D1B8E7515D5955A8
:101250008021013589008D42F8D1B0E7F8B54746C5
:10126000CE46067804000D00904680B5022E0BD0C5
:10127000032E45D00227012E1AD0012338002371F6
:10128000C0BCB946B046F8BD036A090A9C46614431
:10129000FFF73AFC071EF0D16B00FF2542466D00B8
:1012A0002B40E31830331A7092B2120A5A70E4E7F6
:1012B0004B08994689444B46590A036A9C46614447
:1012C000FFF722FC071ED8D14B46DB05DB0DE318E8
:1012D00030332E4233D00F2219784D46114042460A
:1012E00012010A431A70236A01359C46690A2000DC
:1012F00026716144FFF708FC00283DD00700BCE7D9
:10130000036AC9099C466144FFF7FEFB071EB4D17E
:10131000FE21AD0049000D402B0041463033E3185B
:10132000DA786519120912070A4391B2090A3035B1
:101330002A705970110C120E9970DA709DE74246AE
:101340001A704D46236A01359C46690A20002671B1
:101350006144FFF7D9FB0028D0D1ED05ED0D6519EB
:101360002B0042460F2130331B78120A8B430A4070
:101370001A4330352A7080E74346ED05ED0D1A0912
:10138000D2B26519F5E7C046F8B503790400002B21
:101390000BD12378032B29D0002200216078FFF79E
:1013A0000FF9431E9841C0B2F8BD0700C56A303737
:1013B00001232A0039004078FFF7EEF800283AD1DF
:1013C000226AA3692071AA1A9A42E2D2E678012E13
:1013D00001D8DEE7A369ED182A00012339006078FF
:1013E000013EFFF7D9F8012EF4D1D2E76379012B42
:1013F000D2D125008022303500219200280009F04A
:1014000079F80E4B0E4A2900E2520E4B0E4A236326
:1014100085239B00E25022690433E250E2680433E2
:10142000E250E36960785A1CE2620123FFF7B4F8E6
:1014300000236371B0E70120B6E7C0462E0200002A
:1014400055AAFFFF5252614172724161F0B54E469A
:101450004546DE465746E0B58946050083B000297B
:101460001ED1C7684369002F34D10137FF225200D3
:101470009346023A3C00924601349C421FD3012F0E
:1014800000D891E0022B1CD902242E78022E00D124
:1014900076E0032E57D0012E20D00124644211E0C3
:1014A00001290ED0436999420BD2FFF743FD040096
:1014B000012806D96B69834204D84F46D6E7012C30
:1014C000E3D80124200003B0F0BCBB46B246A946D5
:1014D000A046F0BDBB42C9D80127C7E763089846BC
:1014E000A0444346590A2B6A28009C466144FFF7F2
:1014F0000BFB0028D1D14346DB05DB0DEB18303365
:101500001B782800019301239C46E0444346590A76
:101510002B6A9C466144FFF7F7FA0028BDD141468B
:10152000CB05DB0DEB1830331B78019A1B021343FC
:1015300026423BD01B09002B3BD0012BC1D0A74238
:1015400032D06B6998E72B6AE1099C462800614418
:10155000FFF7DAFA0028A0D15346A2001A40110082
:1015600030316918CB788878AA18303212781B0687
:101570000004034313434A78120213431B01D9E7C3
:101580002B6A210A9C4628006144FFF7BDFA002817
:1015900000D082E75B4662001A40AA1830325178C8
:1015A000137809020B43C6E700248BE71B051B0DCC
:1015B000C1E76B69A34200D883E721002800134AE2
:1015C000FFF74CFE002803D0012800D165E778E73B
:1015D0004B46002B0DD0012B00D172E76B6999456A
:1015E00000D36EE7220049462800FFF737FE0028A7
:1015F000EAD12B69EC605A1C00D163E70122013B60
:101600002B616B7913436B715CE7C046FFFFFF0FE3
:10161000F0B557464546DE464E46E0B585680700BC
:101620000C0083B0C180012D26D006687369AB42DF
:1016300022D9002D57D0B27812019046914200D2A3
:1016400091E0FF22520093469D4215D2337899468D
:10165000022B00D195E0032B5AD0012B14D001208E
:101660000BE0756A002D41D0B2781201904691428C
:1016700000D278E0012DE4D1022003B0F0BCBB46DB
:10168000B246A946A046F0BD6B089A46AA44534606
:10169000590A336A30009C466144FFF735FA002846
:1016A000DDD15346DB05DB0DF31830331B783000FA
:1016B000019301239C46E2445346590A336A9C46EF
:1016C0006144FFF721FA0028C9D15146CB05DB0D53
:1016D000F61830363378019A1B0213434A462A42E1
:1016E00063D01D0932E03278032ABAD00023FB60B0
:1016F0003389A342C0D9726A2309944663443B618B
:101700000F210C4030366401341900207C61B4E7AD
:10171000336AE9099C4630006144FFF7F5F9002877
:101720009DD1FE22AB00520013401A003032B21895
:10173000D5789178F31830331B782D0609040D43C2
:101740001D4353781B021D432D012D09012D93D9F3
:101750003E687369AB4200D88EE74246A41AA4B231
:10176000444500D370E7FD60023B023D9D421FD21D
:10177000B3785D43B36A9C46654423095D193D61B6
:10178000BEE7336A290A9C4630006144FFF7BCF982
:10179000002800D063E75B466D001D4076193036A7
:1017A000737835781B021D43D0E71B051D0DCDE76F
:1017B0000025E2E7F8B557464546DE464E46E0B519
:1017C0000B7805008A462F2B53D05C2B51D0002478
:1017D0005346AC601B781F2B54D95646AB69327800
:1017E0002F2A01D05C2A01D10136F8E720221A7095
:1017F0005A709A70DA701A715A719A71DA711A7293
:101800005A729A723278202A19D900218C460831EE
:10181000884602218A4603218B46711E894661460D
:101820009C462B0000244546012798460B002F2A92
:1018300055D05C2A53D02E2A2AD09D4206D80620A5
:10184000F0BCBB46B246A946A046F8BD51B200293D
:1018500005DA59460C43B449803A8A5CE4B2222145
:10186000B24803E041780130002923D08A42F9D1FF
:10187000E5E701239C460024E2445346AC601B7814
:101880001F2BAAD800212800FFF7C2FE6C61D7E702
:10189000082DD4D108230B25A400E4B24A46013711
:1018A000D25D202AC3D842466346A846F6191500E1
:1018B00004221DE011004139192906D851460C4374
:1018C000E4B26146CA540133E8E7110061391929CD
:1018D000F7D80121203A0C43E4B2D2B2F1E74246F4
:1018E0001900A84663461500F6190029A7D0002262
:1018F0001978E52901D1E03919704146082900D14C
:1019000005E103212140012901D10F310A430C21B6
:101910000C40042C01D104390A4300212800DA725A
:10192000FFF776FE002800D0F7E02C682F69B0465C
:101930003E0027000823FC6A9A46B4420ED03022AB
:1019400091463B79B944002B31D1012332004946FD
:101950007878FEF707FE002859D1FE626A6914788C
:10196000002C5FD050465346D17A08400B4261D0DC
:10197000EC880134A4B2002C54D02E69002E51D032
:101980000F23234099460F23234242D02F684B4612
:101990005A013B00EC803033FC6A9B186B61B44207
:1019A000DCD0302291463B79B944002BCDD00123C5
:1019B000220049467878FEF7EFFD002827D13A6AE1
:1019C000BB693871A21A9A42BFD2FA789346012AAB
:1019D000BBD931002A004E465D468946934600E059
:1019E000BB69E4182200012331007878013DFEF73D
:1019F000D3FD012DF4D14B46B1461E0049460123CB
:101A0000320078785D46FEF7ADFD0028A5D00120B4
:101A100016E7E96801362F682E61002954D13B8909
:101A2000A342B4D8AB69DB7A04205B0700D507E793
:101A3000052005E7AB691F78A74299D157785C78F4
:101A4000A74295D19F789478A74291D1D778DC7836
:101A5000A7428DD117791C79A74289D157795C7932
:101A6000A74285D197799C79A74200D080E7D779A2
:101A7000DC79A74200D07BE7177A1C7AA74200D016
:101A800076E7577A5C7AA74200D071E7977A9C7A1A
:101A9000A74200D06CE7DC7A4646640700D5CFE663
:101AA000C906C5D5D17E907E090201432868007819
:101AB000032801D0A96092E6147D527D12022243D0
:101AC00012041143A9608AE6BB782209013B1A423D
:101AD00000D05CE7012918D07B69994215D2380003
:101AE000FFF728FA012810D9431C90D02F687B6992
:101AF000984297D2E860023B023898420AD2BB78FB
:101B00005843BB6AC6182E6141E7022098E6A4003C
:101B1000E4B2FCE600262E6139E7AB69DB7A0428E3
:101B200000D08DE680E7C04654DA001044DA001099
:101B3000F8B54546DE4657464E464369E0B50400D3
:101B40000D00994200D398E0012914D9FF2326788B
:101B50005B009946023B98460127022E00D175E0B2
:101B6000032E38D0012E08D00120F0BCBB46B2466F
:101B7000A946A046F8BD0220F7E76B089A46AA449A
:101B80005346590A236A20009C466144FEF7BCFF75
:101B90000028E9D15346DB05DB0DE31830331B7811
:101BA00020009B4601239C46E2445346590A236A7F
:101BB0009C466144FEF7A8FF0028D5D153465A46FB
:101BC000DB05DB0DE31830331B781B0213432E4279
:101BD00055D01E091CE0236AE9099C462000614497
:101BE000FEF792FF0028BFD14246AB0013401A0017
:101BF0003032A218D6789178E31830331B78360645
:101C000009040E431E4353781B021E433601360956
:101C1000002E32D0012EAED06369AB42ABD9002288
:101C200029002000FFF71AFB00289ED123695A1CC7
:101C300020D00133236163793B43637163699E4222
:101C40001BD235002678022E00D089E7236A290AA4
:101C50009C4620006144FEF757FF002800D083E730
:101C60004A466B001340E31830335A781E7812024C
:101C70001643CDE76369B342E3D8002075E71E053C
:101C8000360DC5E7F0B5DE464E4657464546E0B54B
:101C9000002185B00600FFF7BBFC041E0AD0042813
:101CA00000D10724200005B0F0BCBB46B246A946CF
:101CB000A046F0BD3369356898460F239A46EC6A12
:101CC00044450ED02F002B793037002B59D10123FA
:101CD000424639006878FEF745FC002842D1434669
:101CE000EB6273691B78E52B01D0002B24D131699D
:101CF0003068FEF709FF041ED4D12022002170694C
:101D000008F0F8FB7369B26919001143890700D024
:101D1000F1E0511C591A022900D8ECE01168196051
:101D200051685960117A1972517A5972927A9A727D
:101D3000012233681A71B5E7F4880134A4B2002C8B
:101D4000AFD033699846002BABD057465346274057
:101D5000234209D035687B012F003037FF18F4800B
:101D60007761ACE701249DE701239C46E0444346AC
:101D7000F16835683361002928D12B89A342EAD85C
:101D80008FE70123220039006878FEF705FC002860
:101D9000E8D12A6AAB692871A21A9A4297D2EA78E6
:101DA0009146012A93D932002E004D46914600E01B
:101DB000B369E4182200012339007078013DFEF771
:101DC000EBFB012DF4D135004E4680E7AB782209BC
:101DD000013B1A42BFD1012921D06B6999421ED221
:101DE0002800FFF7A7F802000190012817D9431C2B
:101DF000B8D035686B69984213D2023A0292023B1E
:101E0000019AF260029A934200D885E0AB785A4377
:101E10001300AA6A90469844434633619BE7022424
:101E200040E72800F168FFF711FB031E019000D185
:101E300037E70128F3D0013394D035682B79002B94
:101E40006DD12800802200219200303008F052FB32
:101E5000019B35689A1E6B690292023B9A4200D33D
:101E600090E01100A86AAA78804651438844414610
:101E7000E962002A3CD000230394BB464446B146A5
:101E800098462F00012330372200390068782B71E3
:101E9000FEF782FB002800D064E72A6AAB6928714C
:101EA000A21A9A420ED2EE78012E01D80AE0AB694E
:101EB000E4182200012339006878013EFEF76CFB2C
:101EC000012EF4D14B4647461D680137EB6A5C1C76
:101ED000FBB29846AB78EC624345D2D84346A04665
:101EE00042465F464E46D31A98466B69039C023BB6
:101EF0004246EA6284E711781970517859709178F6
:101F00009970D178D9701179197151795971917984
:101F10009971D179D97105E7002398467CE7EB6A7E
:101F20006878984630239B46AB44424659462F3B3F
:101F3000FEF732FB002800D014E74246296AAB695D
:101F40002871521A9A421BD2EA789146012A17D96F
:101F500042463100A0462E0014004D46B9465F4669
:101F60008B4600E0B369E418220001233900707841
:101F7000013DFEF711FB012DF4D144464F465E466C
:101F800035685EE70021AA78884670E700B583B01F
:101F90000B1E019000911AD00978303908290FD909
:101FA00010490B68002B01D000201870019B002BFA
:101FB00015D000200B601870012A0AD003B000BDB4
:101FC00058783A28ECD1023300930029E8D00B204E
:101FD000F4E70022694601A8FEF7D6FDEEE70020EF
:101FE0000B60EBE760080020F0B54746CE4680B5B1
:101FF0008DB0040017000191002868D000231E2234
:1020000003603A4001A905A8FEF7BEFD051E05D0F4
:1020100028000DB0C0BCB946B046F0BD1F233B4000
:102020009846019902AB05A80B93FFF7C3FB002864
:102030000FD10A9E002E00D19BE01C233B420FD003
:102040001122F37A1A4246D17B0700D48DE008258D
:10205000DEE71C233B4201D004283ED00500D7E731
:10206000F37ADA0635D4BA0701D5DB0733D4082270
:1020700005983A4003D0424620231A439046C36A4B
:102080002662E3614346A3710023E371F37EB27ECF
:102090001B0213430278032A05D1727D377D120299
:1020A0003A43120413432361717F337FB27F0902E5
:1020B0001943F37F120411431B060B43E360002313
:1020C0002060A360A3616362C388A380A0E70925A1
:1020D0009EE704259CE707259AE705A8FFF7D2FDB0
:1020E000424608231A4390460A9E0028B6D1FEF7BE
:1020F00091FA83B21B0AF373030C33740023B07399
:10210000000E70740598F77EF37233777377B377A8
:10211000F377B27E03783F021743032B05D1737D1B
:10212000317D1B020B431B041F430023B376F37660
:102130003375737501330371002F9CD0012F1AD0B2
:1021400043699F4217D2C36A39009946FFF7F0FCF2
:10215000002883D10598013F4946C760FEF7D4FCAB
:10216000002800D07AE7059885E73B07BFD405989B
:1021700085E706254CE702254AE7C046F8B51D006D
:10218000002304000E0017002B6000281ED00368F7
:10219000002B1BD01A78002A18D08288D9880920F1
:1021A000914200D0F8BD5878FEF7DAF901230342D6
:1021B00010D1E0790028F5D1A279134208D02B0084
:1021C0003A0031002000FEF721FFEBE70920E9E7A4
:1021D0000720E7E70320E5E7F8B5041E60D00368B1
:1021E000002B5DD01A78002A5AD0D9888288092518
:1021F000914201D02800F8BD5878FEF7B1F90123CB
:102200001D00054003424DD1A3799A0645D54026CD
:102210001E420CD021002368A2695878283101237E
:10222000FEF7BAF900283FD1A379B343A371E1695E
:102230002068FEF769FC071E01D00500DAE72022BE
:10224000266AF37A1343F372E3683377A3891B0A90
:102250007377E389B377E37BF3772369B3769AB235
:102260001B0C120A33751B0AF2767375FEF7D2F94E
:10227000202283B21B0AB075F375030C000E33766F
:102280007076B774F774A37920689343A371012320
:102290000371FFF779F8002808D100232360A9E72C
:1022A0000925A7E70325A5E70125A3E70500A1E781
:1022B00010B501211620FEF759F801210920FEF77B
:1022C00055F801211020FEF751F80D4901220D4863
:1022D000FFF75CFE0C4B011E187003D00B4808F092
:1022E00019FB10BD0A4808F073FA0A4B0A4A190094
:1022F0001431FF3108C20B338B42FBD1F1E7C046EA
:102300008CF50010604800207DC6022090F500107A
:10231000C8F5001040110020946D002070B5254CC8
:102320002378522B00D070BD431EDBB20025062B54
:1023300031D9214B1871032829D9A022F02152004C
:102340005980082000211A80FEF710F8002109208A
:10235000FEF70CF83620FEF7C7F801210920FEF73A
:1023600005F8237801210820522B1CD0FDF7FEFF31
:1023700009200021FDF7FAFF0020FEF7B5F828003C
:10238000FEF7B2F801210920FDF7F0FFCBE7A0210D
:10239000F0224900D4E7094A5B00D55C064B18716E
:1023A0000328F4D9C9E7FDF7E1FF00210920FDF773
:1023B000DDFFE4E71004002010C60220F0F5001055
:1023C00070B5012182B005000F20FDF7CFFFFA2084
:1023D0004000FEF7ABF800210F20FDF7C7FFFA2001
:1023E0004000FEF7A3F801210F20FDF7BFFFFA2000
:1023F0004000FEF79BF86B469E1D0023002109203C
:102400003370FDF7B3FF00210820FDF7AFFFDC209C
:10241000FEF76AF86B46DC1D220001233100F44808
:102420000BF09AFA01210920FDF7A0FF2378F14C67
:10243000002108202370522B01D100F000FCFDF791
:1024400095FF00210920FDF791FF2120FEF74CF8B0
:1024500001210920FDF78AFF00210820FDF786FFF2
:1024600000210920FDF782FFC220FEF73DF801217F
:102470000920FDF77BFF237801210820522B00D192
:10248000D6E3FDF773FF09200021FDF76FFF002061
:10249000FEF72AF83320FEF727F801210920FDF77F
:1024A00065FF00210820FDF761FF00210920FDF7ED
:1024B0005DFFC520FEF718F801210920FDF756FF42
:1024C000237801210820522B01D101F0E1F9FDF719
:1024D0004DFF09200021FDF749FF0020FEF704F819
:1024E0000020FEF701F801210920FDF73FFF2378C6
:1024F00001210820522B01D101F0C2F9FDF736FF6E
:1025000009200021FDF732FF0020FDF7EDFF1E201E
:10251000FDF7EAFF01210920FDF728FF23780121BB
:102520000820522B01D101F0A3F9FDF71FFF09206C
:102530000021FDF71BFF0020FDF7D6FF8020FDF7EF
:10254000D3FF01210920FDF711FF00210820FDF72D
:102550000DFF00210920FDF709FFB120FDF7C4FFA1
:1025600001210920FDF702FF237801210820522BC9
:1025700001D101F075F9FDF7F9FE09200021FDF701
:10258000F5FE0020FDF7B0FFB020FDF7ADFF012103
:102590000920FDF7EBFE00210820FDF7E7FE0021F2
:1025A0000920FDF7E3FE3620FDF79EFF01210920FB
:1025B000FDF7DCFE237801210820522B01D101F028
:1025C00047F9FDF7D3FE09200021FDF7CFFE0020DB
:1025D000FDF78AFF2820FDF787FF01210920FDF77D
:1025E000C5FE00210820FDF7C1FE00210920FDF7EE
:1025F000BDFEE020FDF778FF01210920FDF7B6FEC2
:10260000237801210820522B01D101F019F9FDF79F
:10261000ADFE09200021FDF7A9FE0020FDF764FFB3
:102620000020FDF761FF01210920FDF79FFE2378BF
:1026300001210820522B01D101F0FAF8FDF796FE96
:1026400009200021FDF792FE0020FDF74DFF132029
:10265000FDF74AFF01210920FDF788FE23780121BB
:102660000820522B01D101F0DBF8FDF77FFE092095
:102670000021FDF77BFE0020FDF736FF1820FDF757
:1026800033FF01210920FDF771FE23780121082085
:10269000522B01D101F0BCF8FDF768FE09200021A2
:1026A000FDF764FE0020FDF71FFF0420FDF71CFF6F
:1026B00001210920FDF75AFE237801210820522B21
:1026C00001D101F09DF8FDF751FE09200021FDF731
:1026D0004DFE0020FDF708FF0F20FDF705FF01214B
:1026E0000920FDF743FE237801210820522B01D158
:1026F00001F07EF8FDF73AFE09200021FDF736FED5
:102700000020FDF7F1FE0620FDF7EEFE0121092075
:10271000FDF72CFE237801210820522B01D101F076
:102720005FF8FDF723FE09200021FDF71FFE0020C2
:10273000FDF7DAFE3A20FDF7D7FE01210920FDF76B
:1027400015FE237801210820522B01D101F040F819
:10275000FDF70CFE09200021FDF708FE0020FDF723
:10276000C3FE5620FDF7C0FE01210920FDF7FEFD46
:10277000237801210820522B01D101F021F8FDF727
:10278000F5FD09200021FDF7F1FD0020FDF7ACFE6D
:102790004D20FDF7A9FE01210920FDF7E7FD237873
:1027A00001210820522B01D101F002F8FDF7DEFDD6
:1027B00009200021FDF7DAFD0020FDF795FE03203A
:1027C000FDF792FE01210920FDF7D0FD23780121BC
:1027D0000820522B01D100F0E3FFFDF7C7FD0920CF
:1027E0000021FDF7C3FD0020FDF77EFE04E0C0469A
:1027F00000000440100400200A20FDF775FE0121AE
:102800000920FDF7B3FD237801210820522B01D1C7
:1028100000F0BEFFFDF7AAFD09200021FDF7A6FD8F
:102820000020FDF761FE0620FDF75EFE0121092074
:10283000FDF79CFD237801210820522B01D100F0E7
:102840009FFFFDF793FD09200021FDF78FFD00207C
:10285000FDF74AFE3020FDF747FE01210920FDF774
:1028600085FD237801210820522B01D100F080FF43
:10287000FDF77CFD09200021FDF778FD0020FDF724
:1028800033FE3E20FDF730FE01210920FDF76EFDED
:10289000237801210820522B01D100F061FFFDF7C0
:1028A00065FD09200021FDF761FD0020FDF71CFEFC
:1028B0000F20FDF719FE01210920FDF757FD00212A
:1028C0000820FDF753FD00210920FDF74FFDE12011
:1028D000FDF70AFE01210920FDF748FD23780121BB
:1028E0000820522B01D100F033FFFDF73FFD0920F6
:1028F0000021FDF73BFD0020FDF7F6FD0020FDF770
:10290000F3FD01210920FDF731FD23780121082085
:10291000522B01D100F014FFFDF728FD0920002102
:10292000FDF724FD0020FDF7DFFD1320FDF7DCFDA2
:1029300001210920FDF71AFD237801210820522BDF
:1029400001D100F0F5FEFDF711FD09200021FDF792
:102950000DFD0020FDF7C8FD1820FDF7C5FD012184
:102960000920FDF703FD237801210820522B01D116
:1029700000F0D6FEFDF7FAFC09200021FDF7F6FC79
:102980000020FDF7B1FD0120FDF7AEFD012109207A
:10299000FDF7ECFC237801210820522B01D100F037
:1029A000B7FEFDF7E3FC09200021FDF7DFFC002066
:1029B000FDF79AFD1120FDF797FD01210920FDF794
:1029C000D5FC237801210820522B01D100F098FE7C
:1029D000FDF7CCFC09200021FDF7C8FC0020FDF725
:1029E00083FD0620FDF780FD01210920FDF7BEFCD7
:1029F000237801210820522B01D100F079FEFDF748
:102A0000B5FC09200021FDF7B1FC0020FDF76CFDAD
:102A10003820FDF769FD01210920FDF7A7FC237887
:102A200001210820522B01D100F05AFEFDF79EFC37
:102A300009200021FDF79AFC0020FDF755FD342008
:102A4000FDF752FD01210920FDF790FC23780121BB
:102A50000820522B01D100F03BFEFDF787FC092036
:102A60000021FDF783FC0020FDF73EFD4D20FDF722
:102A70003BFD01210920FDF779FC23780121082085
:102A8000522B01D100F01CFEFDF770FC0920002143
:102A9000FDF76CFC0020FDF727FD0620FDF724FD67
:102AA00001210920FDF762FC237801210820522B27
:102AB00001D100F0FDFDFDF759FC09200021FDF7D3
:102AC00055FC0020FDF710FD0D20FDF70DFD012147
:102AD0000920FDF74BFC237801210820522B01D15E
:102AE00000F0DEFDFDF742FC09200021FDF73EFC71
:102AF0000020FDF7F9FC0B20FDF7F6FC0121092071
:102B0000FDF734FC237801210820522B01D100F07D
:102B1000BFFDFDF72BFC09200021FDF727FC00205D
:102B2000FDF7E2FC3120FDF7DFFC01210920FDF774
:102B30001DFC237801210820522B01D100F0A0FDBB
:102B4000FDF714FC09200021FDF710FC0020FDF723
:102B5000CBFC3720FDF7C8FC01210920FDF706FC5E
:102B6000237801210820522B01D100F081FDFDF7CF
:102B7000FDFB09200021FDF7F9FB0020FDF7B4FC67
:102B80000F20FDF7B1FC01210920FDF7EFFB00212B
:102B90000820FDF7EBFB00210920FDF7E7FB3A20B9
:102BA000FDF7A2FC01210920FDF7E0FB23780121BC
:102BB0000820522B01D100F053FDFDF7D7FB09206F
:102BC0000021FDF7D3FB0020FDF78EFC5520FDF71B
:102BD0008BFC01210920FDF7C9FB00210820FDF72E
:102BE000C5FB00210920FDF7C1FB1120FDF77CFC8E
:102BF00009200121FDF7BAFB7820FDF797FC0021A1
:102C00000820FDF7B3FB00210920FDF7AFFB2920C9
:102C1000FDF76AFC01210920FDF7A8FB2378522B60
:102C200001D100F0E6FC3220FDF780FC02B070BD5F
:102C3000FDF79CFB00210920FDF798FB2AE4FDF736
:102C400095FB00210920FDF791FB1120FDF74CFCBD
:102C500001210920FDF78AFB6420FDF767FC0021B4
:102C60000820FDF783FB00210920FDF77FFB3620BC
:102C7000FDF73AFC01210920FDF778FB23780121BB
:102C80000820522B01D100F06EFFFDF76FFB0920E9
:102C90000021FDF76BFB0020FDF726FC0020FDF76F
:102CA00023FC01210920FDF761FB00210820FDF72D
:102CB0005DFB00210920FDF759FB3A20FDF714FCCC
:102CC00001210920FDF752FB237801210820522B16
:102CD00001D100F040FFFDF749FB09200021FDF77D
:102CE00045FB0020FDF700FC5520FDF7FDFB012111
:102CF0000920FDF73BFB00210820FDF737FB0021F1
:102D00000920FDF733FBB220FDF7EEFB012109207E
:102D1000FDF72CFB237801210820522B01D100F074
:102D200012FFFDF723FB09200021FDF71FFB002008
:102D3000FDF7DAFB0C20FDF7D7FB01210920FDF799
:102D400015FB237801210820522B01D100F0F3FE5E
:102D5000FDF70CFB09200021FDF708FB0020FDF723
:102D6000C3FB0C20FDF7C0FB01210920FDF7FEFA93
:102D7000237801210820522B01D100F0D4FEFDF769
:102D8000F5FA09200021FDF7F1FA0020FDF7ACFB70
:102D90000020FDF7A9FB01210920FDF7E7FA2378C0
:102DA00001210820522B01D100F0B5FEFDF7DEFA1B
:102DB00009200021FDF7DAFA0020FDF795FB33200A
:102DC000FDF792FB01210920FDF7D0FA23780121BC
:102DD0000820522B01D100F096FEFDF7C7FA09201A
:102DE0000021FDF7C3FA0020FDF77EFB3320FDF73D
:102DF0007BFB01210920FDF7B9FA00210820FDF72E
:102E0000B5FA00210920FDF7B1FAB720FDF76CFBF8
:102E100001210920FDF7AAFA237801210820522B6D
:102E200001D100F068FEFDF7A1FA09200021FDF7AD
:102E30009DFA0020FDF758FB3520FDF755FB0121D9
:102E40000920FDF793FA00210820FDF78FFA0021F1
:102E50000920FDF78BFABB20FDF746FB0121092075
:102E6000FDF784FA237801210820522B01D100F0CC
:102E70003AFEFDF77BFA09200021FDF777FA0020E2
:102E8000FDF732FB2820FDF72FFB01210920FDF77C
:102E90006DFA00210820FDF769FA00210920FDF7ED
:102EA00065FAC020FDF720FB01210920FDF75EFA3D
:102EB000237801210820522B01D100F00CFEFDF7F0
:102EC00055FA09200021FDF751FA0020FDF70CFB0F
:102ED0003C20FDF709FB01210920FDF747FA0021FD
:102EE0000820FDF743FA00210920FDF73FFAC22030
:102EF000FDF7FAFA01210920FDF738FA23780121BC
:102F00000820522B01D100F0DEFDFDF72FFA092039
:102F10000021FDF72BFA0020FDF7E6FA0120FDF76E
:102F2000E3FA01210920FDF721FA00210820FDF72D
:102F30001DFA00210920FDF719FAC320FDF7D4FA84
:102F400001210920FDF712FA237801210820522BD4
:102F500001D100F0B0FDFDF709FA09200021FDF7CD
:102F600005FA0020FDF7C0FA0B20FDF7BDFA01219C
:102F70000920FDF7FBF900210820FDF7F7F90021F2
:102F80000920FDF7F3F9C420FDF7AEFA012109206D
:102F9000FDF7ECF9237801210820522B01D100F034
:102FA00082FDFDF7E3F909200021FDF7DFF900209C
:102FB000FDF79AFA2020FDF797FA01210920FDF785
:102FC000D5F900210820FDF7D1F900210920FDF7EE
:102FD000CDF9C620FDF788FA01210920FDF7C6F9D1
:102FE000237801210820522B01D100F054FDFDF778
:102FF000BDF909200021FDF7B9F90020FDF774FAA9
:103000000F20FDF771FA01210920FDF7AFF900212A
:103010000820FDF7ABF900210920FDF7A7F9D02022
:10302000FDF762FA01210920FDF7A0F923780121BB
:103030000820522B01D100F026FDFDF797F9092059
:103040000021FDF793F90020FDF74EFAA420FDF7CB
:103050004BFA01210920FDF789F923780121082085
:10306000522B01D100F007FDFDF780F90920002166
:10307000FDF77CF90020FDF737FAA120FDF734FABF
:1030800001210920FDF772F900210820FDF76EF9F2
:1030900000210920FDF76AF9E020FDF725FA01215A
:1030A0000920FDF763F9237801210820522B01D173
:1030B00000F0D9FCFDF75AF909200021FDF756F977
:1030C0000020FDF711FAD020FDF70EFA01210920AA
:1030D000FDF74CF9237801210820522B01D100F093
:1030E000BAFCFDF743F909200021FDF73FF9002064
:1030F000FDF7FAF90120FDF7F7F901210920FDF7A5
:1031000035F9237801210820522B01D100F09BFCD6
:10311000FDF72CF909200021FDF728F90020FDF723
:10312000E3F90820FDF7E0F901210920FDF71EF978
:10313000237801210820522B01D100F07CFCFDF7FF
:1031400015F909200021FDF711F90020FDF7CCF950
:103150000F20FDF7C9F901210920FDF707F92378B0
:1031600001210820522B01D100F05DFCFDF7FEF893
:1031700009200021FDF7FAF80020FDF7B5F911202C
:10318000FDF7B2F901210920FDF7F0F823780121BC
:103190000820522B01D100F03EFCFDF7E7F8092092
:1031A0000021FDF7E3F80020FDF79EF92A20FDF746
:1031B0009BF901210920FDF7D9F823780121082086
:1031C000522B01D100F01FFCFDF7D0F8092000219F
:1031D000FDF7CCF80020FDF787F93620FDF784F9DC
:1031E00001210920FDF7C2F8237801210820522B84
:1031F00001D100F000FCFDF7B9F809200021FDF72E
:10320000B5F80020FDF770F95520FDF76DF90121A3
:103210000920FDF7ABF8237801210820522B00D1BB
:10322000E2E3FDF7A3F809200021FDF79FF8002055
:10323000FDF75AF94420FDF757F901210920FDF760
:1032400095F8237801210820522B00D1C5E3FDF722
:103250008DF809200021FDF789F80020FDF744F9D9
:103260003A20FDF741F901210920FDF77FF8237885
:1032700001210820522B00D1A8E3FDF777F809209F
:103280000021FDF773F80020FDF72EF90B20FDF764
:103290002BF901210920FDF769F823780121082085
:1032A000522B00D186E3FDF761F809200021FDF7DC
:1032B0005DF80020FDF718F90620FDF715F901214A
:1032C0000920FDF753F8237801210820522B00D163
:1032D00069E3FDF74BF809200021FDF747F80020CE
:1032E000FDF702F91120FDF7FFF801210920FDF794
:1032F0003DF8237801210820522B00D14CE3FDF743
:1033000035F809200021FDF731F80020FDF7ECF831
:103310002020FDF7E9F801210920FDF727F8002119
:103320000820FDF723F800210920FDF71FF8E12010
:10333000FDF7DAF801210920FDF718F823780121BB
:103340000820522B00D120E3FDF710F809200021BE
:10335000FDF70CF80020FDF7C7F8D020FDF7C4F802
:1033600001210920FDF702F8237801210820522BC2
:1033700000D103E3FCF7FAFF09200021FCF7F6FF78
:103380000020FDF7B1F80220FDF7AEF80121092079
:10339000FCF7ECFF237801210820522B00D1E6E254
:1033A000FCF7E4FF09200021FCF7E0FF0020FDF717
:1033B0009BF80720FDF798F801210920FCF7D6FFBC
:1033C000237801210820522B00D1C9E2FCF7CEFF5F
:1033D00009200021FCF7CAFF0020FDF785F80A202C
:1033E000FDF782F801210920FCF7C0FF23780121B5
:1033F0000820522B00D1ACE2FCF7B8FF09200021D5
:10340000FCF7B4FF0020FDF76FF80B20FDF76CF818
:1034100001210920FCF7AAFF237801210820522B63
:1034200000D18FE2FCF7A2FF09200021FCF79EFFEC
:103430000020FDF759F81820FDF756F80121092062
:10344000FCF794FF237801210820522B00D172E26F
:10345000FCF78CFF09200021FCF788FF0020FDF716
:1034600043F83420FDF740F801210920FCF77EFFE6
:10347000237801210820522B00D155E2FCF776FF7A
:1034800009200021FCF772FF0020FDF72DF84320F2
:10349000FDF72AF801210920FCF768FF23780121B4
:1034A0000820522B00D138E2FCF760FF09200021F0
:1034B000FCF75CFF0020FDF717F84A20FDF714F831
:1034C00001210920FCF752FF237801210820522B0B
:1034D00000D11BE2FCF74AFF09200021FCF746FF60
:1034E0000020FDF701F82B20FCF7FEFF0121092049
:1034F000FCF73CFF237801210820522B00D1FEE18C
:10350000FCF734FF09200021FCF730FF0020FCF716
:10351000EBFF1B20FCF7E8FF01210920FCF726FF49
:10352000237801210820522B00D1E1E1FCF71EFF96
:1035300009200021FCF71AFF0020FCF7D5FF1C2012
:10354000FCF7D2FF01210920FCF710FF23780121AD
:103550000820522B00D1C4E1FCF708FF092000210C
:10356000FCF704FF0020FCF7BFFF2220FCF7BCFFA4
:1035700001210920FCF7FAFE237801210820522BB3
:1035800000D1A7E1FCF7F2FE09200021FCF7EEFED6
:103590000020FCF7A9FF1F20FCF7A6FF012109204E
:1035A000FCF7E4FE00210820FCF7E0FE00210920E2
:1035B000FCF7DCFE5520FCF797FF01210920FCF702
:1035C000D5FE237801210820522B00D17BE1FCF7A6
:1035D000CDFE09200021FCF7C9FE0020FCF784FF86
:1035E000B020FCF781FF01210920FCF7BFFEFFF7A7
:1035F00006FB6B1EDBB20026062B00D854E1F14B14
:103600001D71032D00D84BE1A022F02152005980FA
:10361000082000211A80FCF7A9FE00210920FCF7F0
:10362000A5FE3620FCF760FF01210920FCF79EFE75
:10363000237801210820522B00D13DE1FCF796FEB2
:1036400009200021FCF792FE0020FCF74DFF30001E
:10365000FCF74AFF01210920FCF788FEFFF7E3FA97
:10366000FCF784FE00210920FCF780FEFFF7AEFA8C
:10367000FCF77CFE00210920FCF778FEFFF780FABA
:10368000FCF774FE00210920FCF770FEFFF761FAD9
:10369000FCF76CFE00210920FCF768FEFFF742FAF8
:1036A000FCF764FE00210920FCF760FEFFF723FA17
:1036B000FCF75CFE00210920FCF758FEFFF704FA36
:1036C000FCF754FE00210920FCF750FEFFF7E5F956
:1036D000FCF74CFE00210920FCF748FEFFF7C6F975
:1036E000FCF744FE00210920FCF740FEFFF7A7F994
:1036F000FCF73CFE00210920FCF738FEFFF788F9B3
:10370000FCF734FE00210920FCF730FEFFF769F9D1
:10371000FCF72CFE00210920FCF728FEFFF74AF9F0
:10372000FCF724FE00210920FCF720FEFFF72BF90F
:10373000FCF71CFE00210920FCF718FEFFF70CF92E
:10374000FCF714FE00210920FCF710FEFFF7EDF84E
:10375000FCF70CFE00210920FCF708FEFFF7CEF86D
:10376000FCF704FE00210920FCF700FEFFF7A0F89B
:10377000FCF7FCFD00210920FCF7F8FDFFF781F8BC
:10378000FCF7F4FD00210920FCF7F0FDFFF762F8DB
:10379000FCF7ECFD00210920FCF7E8FDFFF743F8FA
:1037A000FCF7E4FD00210920FCF7E0FDFFF724F819
:1037B000FCF7DCFD00210920FCF7D8FDFEF7FFFF38
:1037C000FCF7D4FD00210920FCF7D0FDFEF7E0FF57
:1037D000FCF7CCFD00210920FCF7C8FDFEF7C1FF76
:1037E000FCF7C4FD00210920FCF7C0FDFEF7A2FF95
:1037F000FCF7BCFD00210920FCF7B8FDFEF783FFB4
:10380000FCF7B4FD00210920FCF7B0FDFEF764FFD2
:10381000FCF7ACFD00210920FCF7A8FDFEF745FFF1
:10382000FCF7A4FD00210920FCF7A0FDFEF726FF10
:10383000FCF79CFD00210920FCF798FDFEF707FF2F
:10384000FCF794FD00210920FCF790FDFEF7E8FE4F
:10385000FCF78CFD00210920FCF788FDFEF7BAFE7D
:10386000FCF784FD00210920FCF780FDFEF78CFEAB
:10387000FCF77CFD00210920FCF778FDFEF75EFED9
:10388000FCF774FD00210920FCF770FDFEF73FFEF8
:10389000FCF76CFD00210920FCF768FDFEF720FE17
:1038A000A021F0224900B2E6474A5B00D65C454BB6
:1038B0001D71032DF4D9A7E6FCF758FD002109205E
:1038C000FCF754FDC3E6FCF751FD00210920FCF78D
:1038D0004DFD85E6FCF74AFD00210920FCF746FD79
:1038E00059E6FCF743FD00210920FCF73FFD3CE6CB
:1038F000FCF73CFD00210920FCF738FD1FE6FCF732
:1039000035FD00210920FCF731FD02E6FCF72EFD14
:1039100000210920FCF72AFDE5E5FCF727FD002141
:103920000920FCF723FDC8E5FCF720FD0021092054
:10393000FCF71CFDABE5FCF719FD00210920FCF7A5
:1039400015FD8EE5FCF712FD00210920FCF70EFDA8
:1039500071E5FCF70BFD00210920FCF707FD54E59C
:10396000FCF704FD00210920FCF700FD37E5FCF71A
:10397000FDFC00210920FCF7F9FC1AE5FCF7F6FC38
:1039800000210920FCF7F2FCFDE4FCF7EFFC00212C
:103990000920FCF7EBFCE0E4FCF7E8FC002109203F
:1039A000FCF7E4FCB4E4FCF7E1FC00210920FCF79F
:1039B000DDFC97E4FCF7DAFC00210920FCF7D6FCDB
:1039C0007AE4C04610C60220F0F50010FCF7CEFCE9
:1039D00000210920FCF7CAFC58E4FCF7C7FC0021D1
:1039E0000920FCF7C3FC3BE4FCF7C0FC00210920E4
:1039F000FCF7BCFC1EE4FCF7B9FC00210920FCF735
:103A0000B5FCFFF701FCFCF7B1FC00210920FCF735
:103A1000ADFCFFF7E2FBFCF7A9FC00210920FCF755
:103A2000A5FCFFF7C3FBFCF7A1FC00210920FCF774
:103A30009DFCFFF7A4FBFCF799FC00210920FCF793
:103A400095FCFFF785FBFCF791FC00210920FCF7B2
:103A50008DFCFFF766FBFCF789FC00210920FCF7D1
:103A600085FCFFF747FBFCF781FC00210920FCF7F0
:103A70007DFCFFF728FBFCF779FC00210920FCF70F
:103A800075FCFFF7FAFAFCF771FC00210920FCF73E
:103A90006DFCFFF7DBFAFCF769FC00210920FCF75D
:103AA00065FCFFF7ADFAFCF761FC00210920FCF78B
:103AB0005DFCFFF77FFAFCF759FC00210920FCF7B9
:103AC00055FCFFF751FAFCF751FC00210920FCF7E7
:103AD0004DFCFFF723FAFCF749FC00210920FCF715
:103AE00045FCFFF7F5F9FCF741FC00210920FCF744
:103AF0003DFCFFF7C7F9FCF739FC00210920FCF772
:103B000035FCFFF799F9FCF731FC00210920FCF79F
:103B10002DFCFFF76BF9FCF729FC00210920FCF7CD
:103B200025FCFFF74CF9FCF721FC00210920FCF7EC
:103B30001DFCFFF72DF9FCF719FC00210920FCF70B
:103B400015FCFFF70EF9FCF711FC00210920FCF72A
:103B50000DFCFFF7EFF8FCF709FC00210920FCF74A
:103B600005FCFFF7C1F8FCF701FC00210920FCF778
:103B7000FDFBFFF793F8C046F8B5CE4647468046B2
:103B800080B508200F0000211C001500FCF7EEFB9B
:103B900000210920FCF7EAFB2A20FCF7A5FC012103
:103BA0000920FCF7E3FB43468A4E1B0A994633780B
:103BB00001210820522B00D1D4E0FCF7D7FB0920CB
:103BC0000021FCF7D3FB0020FCF78EFC4B46D8B25B
:103BD000FCF78AFC01210920FCF7C8FB337801219E
:103BE0000820522B00D1EEE0FCF7C0FB0920002199
:103BF000FCF7BCFB0020FCF777FC4346D8B2FCF78F
:103C000073FC013D01210920FCF7B0FB2B12984603
:103C1000337801210820522B00D1CDE0FCF7A6FB20
:103C200009200021FCF7A2FB4346180EFCF75CFCC0
:103C30004346D8B2FCF758FC01210920FCF796FB5B
:103C4000337801210820ADB2522B00D1ADE0FCF752
:103C50008DFB09200021FCF789FB0020FCF744FCC8
:103C6000E8B2FCF741FC01210920FCF77FFB0021B1
:103C70000820FCF77BFB00210920FCF777FB2B20B9
:103C8000FCF732FC01210920FCF770FB337801219D
:103C900008203D0A522B00D180E0FCF767FB092089
:103CA0000021FCF763FB0020FCF71EFCE8B2FCF7E8
:103CB0001BFC01210920FCF759FB33780121082066
:103CC000522B64D0FCF752FB09200021FCF74EFB7D
:103CD0000020FCF709FCF8B2FCF706FC01210920E2
:103CE000FCF744FB3378013C012108202512522BBC
:103CF00046D0FCF73BFB09200021FCF737FB280EE0
:103D0000FCF7F2FBE8B2FCF7EFFB01210920FCF71E
:103D10002DFB337801210820A4B2522B29D0FCF7C7
:103D200025FB09200021FCF721FB0020FCF7DCFB30
:103D3000E0B2FCF7D9FB01210920FCF717FB0021B9
:103D40000820FCF713FB00210920FCF70FFB2C20B7
:103D5000FCF7CAFB01210920FCF708FBC0BCB946EF
:103D6000B046F8BDFCF702FB00210920FCF7FEFA83
:103D70002CE7FCF7FBFA00210920FCF7F7FAD7E75C
:103D8000FCF7F4FA00210920FCF7F0FABAE7FCF797
:103D9000EDFA00210920FCF7E9FA9CE7FCF7E6FAC6
:103DA00000210920FCF7E2FA80E7FCF7DFFA0021A6
:103DB0000920FCF7DBFA53E7FCF7D8FA00210920C9
:103DC000FCF7D4FA34E7FCF7D1FA00210920FCF71C
:103DD000CDFA12E710040020F8B505000C00082009
:103DE0000021FCF7C3FA00210920FCF7BFFA2A20C2
:103DF000FCF77AFB01210920FCF7B8FA864E012175
:103E0000337808202F0A522B00D1CCE0FCF7AEFA11
:103E100009200021FCF7AAFA0020FCF765FBF8B2A4
:103E2000FCF762FB01210920FCF7A0FA337801219D
:103E30000820522B00D1E7E0FCF798FA0920002176
:103E4000FCF794FA0020FCF74FFBE8B2FCF74CFBC0
:103E500001210920FCF78AFA3378013D012108206D
:103E60002F12522B00D1C8E0FCF780FA0920002164
:103E7000FCF77CFA380EFCF737FBF8B2FCF734FBA2
:103E800001210920FCF772FA337801210820ADB234
:103E9000522B00D1AAE0FCF769FA09200021FCF7B7
:103EA00065FA0020FCF720FBE8B2FCF71DFB0121BE
:103EB0000920FCF75BFA00210820FCF757FA0021E3
:103EC0000920FCF753FA2B20FCF70EFB01210920F7
:103ED000FCF74CFA337801210820250A522B00D137
:103EE0007DE0FCF743FA09200021FCF73FFA0020AF
:103EF000FCF7FAFAE8B2FCF7F7FA01210920FCF71F
:103F000035FA337801210820522B61D0FCF72EFAC4
:103F100009200021FCF72AFA0020FCF7E5FAE0B2BC
:103F2000FCF7E2FA01210920FCF720FA3378013C82
:103F3000012108202512522B43D0FCF717FA092043
:103F40000021FCF713FA280EFCF7CEFAE8B2FCF7D2
:103F5000CBFA01210920FCF709FA33780121082066
:103F6000A4B2522B26D0FCF701FA09200021FCF75D
:103F7000FDF90020FCF7B8FAE0B2FCF7B5FA012130
:103F80000920FCF7F3F900210820FCF7EFF90021E4
:103F90000920FCF7EBF92C20FCF7A6FA01210920F7
:103FA000FCF7E4F9F8BDFCF7E1F900210920FCF782
:103FB000DDF934E7FCF7DAF900210920FCF7D6F93E
:103FC000DAE7FCF7D3F900210920FCF7CFF9BDE7C8
:103FD000FCF7CCF900210920FCF7C8F99FE7FCF7B2
:103FE000C5F900210920FCF7C1F983E7FCF7BEF908
:103FF00000210920FCF7BAF956E7FCF7B7F90021D0
:104000000920FCF7B3F938E7FCF7B0F900210920E3
:10401000FCF7ACF919E7C04610040020104B10B5AE
:1040200014001A88824202D35B888B4200D210BDF2
:104030000B000200FFF7A0FD01210820FCF796F914
:1040400000210920FCF792F9200AFCF74DFAE0B2B2
:10405000FCF74AFA01210920FCF788F9E7E7C04696
:1040600010C60220F0B5C64600B51C0006AB80465F
:104070000F0015001E88824201D98C4202D880BCF4
:10408000B846F0BD2300FFF777FD43460121ED1A46
:104090000820E41BFCF76AF9ADB200210920A4B2A4
:1040A0006C43FCF763F90025370AF6B23800FCF7D9
:1040B0001BFA01353000FCF717FAAC42F6D10121AA
:1040C0000920FCF753F9DAE7F8B5144B04001D8812
:1040D000002D02D05E88002E00D1F8BD33002A00EA
:1040E00000210020FFF748FD01210820FCF73EF9E0
:1040F000002109206E43FCF739F90025270AE4B2B4
:104100003800FCF7F1F901352000FCF7EDF9AE427B
:10411000F6D101210920FCF729F9DEE710C60220BB
:10412000F0B54E464546DE4657461C00E0B507262C
:1041300087B0019310AB0391198811AB8846198899
:1041400004900291A188203A0E40731E9E41CB0834
:10415000F3181600E08846435E4323689C460593A7
:104160006644002861D0039B013B9BB29A46324BC8
:104170009946002959D0049B0025581E5346013307
:104180009BB29B4680B21CE080232341471C134214
:1041900029D04B461A88BBB29A4209D34B465B885A
:1041A0005B4505D35146029AFFF738FF019B99887A
:1041B000073C63425C410135ADB23619B8B28D425D
:1041C00021D207241D4B32782C409845DCD1802326
:1041D0002341471C1342EBD0174B1A889446BAB2BE
:1041E0009445DCD2E4E74B461A88BBB29A42DFD34F
:1041F0004B465B885B45DBD351464246FFF70EFFDB
:10420000019B9988D4E74B0700D00136019B0398A6
:10421000DA8853461B1A02339BB29A4205D9534699
:1042200001339BB29A460029A5D107B0F0BCBB462A
:10423000B246A946A046F0BD10C60220FFFF00000E
:10424000F0B557464E464546DE46E0B50F001E0027
:10425000844614008FB00B9318AB1D8819ABA84689
:104260000A921D78121A1AAB1B780291D117069583
:104270005518F21B9946D3174D40D1185940089153
:10428000A4458941D3179A1A5A400592564A01907B
:104290005648114084460A0002216244BC46080088
:1042A0000992B445924108991040421E0C926A1A34
:1042B00000214B468A46079504925D0052009BB24E
:1042C000013D03920D93534601335BB29A46069B20
:1042D000012B06D10321504605F008FA49B2002906
:1042E0004FD0434B019A1B88934223D3404B029AF1
:1042F0005B8893421ED3002D1CDD0023019A994652
:104300000D9BD21A9346029AD71ABFB24E4600248A
:104310005E44B6B2E11901344246300089B2A4B21B
:10432000FFF77CFEA542F5DC4B4601339BB2994674
:104330009D42EBDC059B039A934211DC0A9A019B98
:104340009A424AD0049A0899521A099904928C46C2
:1043500063449BB201935300079A03939A42B2DBE2
:104360000B9A029B9A4238D00799049A8C460C9972
:1043700062448C4663449BB20293530004920393BD
:10438000A1E71B4B019A1B88934223D3184B029A37
:104390005B8893421ED3002D1CDD0023019A9946B1
:1043A0000D9BD21A9246029AD71ABFB24E460024EB
:1043B0005644B6B2E11901340022300089B2A4B2E9
:1043C000FFF72CFEAC42F5DB4B4601339BB299461E
:1043D000AB42EBDB00239A46ACE70FB0F0BCBB4628
:1043E000B246A946A046F0BD0200FFFFFFFF000055
:1043F00010C60220F0B54F464646D646C0B584B03A
:104400001F000CAB1B88140099460DAB1B780500F0
:104410009A462D4B0E001A889846904225D85B8804
:10442000994222D8944210D8534602930023019314
:104430004B46220000930B00FFF702FF43461A8809
:10444000954212D85B889E420FD89F420DD85346A2
:104450000293002301934B462A00009331003B0056
:104460002800FFF7EDFE43461A88944226D84346BB
:104470005B889F4222D89E4212D853460293002363
:1044800001934B4622000093390033002000FFF7D0
:10449000D7FE43461A88944210D85B88BB420DD39E
:1044A00095420BD853460293002301934B462A00B2
:1044B000009339003B002000FFF7C2FE04B0E0BCCF
:1044C000BA46B146A846F0BD10C60220F0B583B08A
:1044D00008AC278809AC26780AAC2478A4460C4C92
:1044E000258885420BD364888C4208D3954206D335
:1044F0009C4204D3002E04D00097FFF7B3FD03B015
:10450000F0BD644600970194FFF774FFF7E7C046DB
:1045100010C60220F0B557464E46DE464546E0B589
:1045200085B01F000EAB1B888A4603930FAB1B8818
:1045300081469B461F4B160019889846814231D30D
:10454000588850452ED31278002A2BD0BB88554668
:104550009C464C461DE0FB88EB18834201DD554626
:104560004C468C420CD885420AD85B460193039B8B
:104570002900009320003B00FFF7D2FDBB889C463A
:10458000727864440136A4B2002A0BD043461988DD
:1045900058886346E3188B42DDDDFB884C46ED18F6
:1045A000ADB2D9E705B0F0BCBB46B246A946A046BD
:1045B000F0BDC04610C60220F0B5C64600B50700E3
:1045C00084B03C493C4808F0FBFE0E2301AD6B442F
:1045D0002E00984600211020FBF7C8FE3800FBF79C
:1045E00083FFC820FBF7A6FF0020FBF78FFF84B2F4
:1045F0000020FBF78BFF2402A4B20443A4B20121E4
:104600001020E408FBF7B2FE3480C8200236FBF726
:1046100091FF4645DED12949274808F0D1FE2B8875
:104620006A88934201D92A806B802B88AA8893429A
:1046300001D92A80AB802B88EA88934201D92A804D
:10464000EB802B882A89934231D86B88AA889342C1
:1046500001D96A80AB806B88EA88934201D96A806D
:10466000EB806B882A8993421ED8AB88EA889342F4
:1046700001D9AA80EB80AB882A89934201D9AA800C
:104680002B812B89EA889A4200D9EB80AB88688815
:104690000321C018EB88C01880B205F04FF880B233
:1046A00004B080BCB846F0BD6A802B81DDE72B8169
:1046B000CBE7C046C0C62D000000044080F0FA02DF
:1046C000F8B5D020FFF778FF04009020FFF774FFC3
:1046D00006000A20FBF72EFFD020FFF76DFF050034
:1046E0009020FFF769FF07000A20FBF723FFAC4289
:1046F0000CD2230031330020AB4206DBBE420DD288
:10470000330031330020BB4210DAF8BD2B003133C7
:10471000A342F3DA0020AC42F7D1EAE73B003133A1
:10472000B34203DA0020BE42EFD1E9E7044B64193B
:10473000F61970106410D8809C800120E5E7C0460F
:104740001CC6022000B52A4B83B01B78522B1BD00D
:10475000284B1A7E062A0CD0002A21D1264A1A613B
:10476000264A5A61152252425A81123A9A8103B05E
:1047700000BD234A1A61234A5A61812292005A815C
:10478000162252429A81F2E71A4B1F4A1A611F4AB7
:104790005A616422FF325A81783AFF3A9A81E6E7F9
:1047A000032A0BD0052A13D1194A1A61194A5A61F2
:1047B000194A5A81142252429A81D8E7174A1A613B
:1047C000174A5A61162252425A81103A9A81CEE70C
:1047D0000020FFF779FCF8231B020193114B3C21C9
:1047E00000930020104B114AFFF794FEBFE7C0462C
:1047F000100400201CC6022010B3B73DEA060A3E92
:10480000239F07BE5950B83D6DABB9BDB6118F3D62
:10481000831808BE7826B43D050200005B25B83D2C
:10482000D05F083EFFFF00000004002000F60010EB
:1048300070B53A4C23885A1E062A38D80122002522
:10484000374B3848384902701E78384A0D70157059
:10485000002E1ED000250D700121057011701D70F5
:104860000720FDF75BFD0021314A0020FCF712F81C
:104870000420FDF753FD0E23238070BD284B1A78CA
:10488000002A47D10121274B1970274B1A70274B5B
:104890001A700720FDF742FD0021264A0020FBF791
:1048A000F9FF0420FDF73AFD00232380E5E70E2BF6
:1048B000E4D01A00083A052A19D801220025184B1D
:1048C000194918480A701E78184A05701570002E8C
:1048D000C0D10720FDF722FD0021174A0020FBF779
:1048E000D9FF0420FDF71AFD07232380C5E7002B1D
:1048F000E3D00B4B1A78002A0CD10A4B1B78002B03
:10490000C7D1094B1B78002BE3D1084B1B78002B38
:10491000B3D0A5E703480449044A9BE720040020DC
:1049200088C602201F04002082C6022083C60220FF
:104930005CF6001044F6001050F60010F0B5C646C4
:1049400000B584B00E280ED8814B80001B589F46BE
:104950000720FDF7E3FC7F4A00210020FBF79AFFC8
:104960000420FDF7DBFC04B080BCB846F0BD072096
:10497000FDF7D4FC0021784A0020FBF78BFF0420D0
:10498000FDF7CCFC754B1C780720FDF7C7FC220017
:104990000023A221FA20FBF77BFE0420FDF7BEFCDA
:1049A00000248C206E4D6F4F6F4E3A0041212B003A
:1049B000400001940096FFF7ADFD6C4B07201B787B
:1049C0009846FDF7ABFC002342468821FA20FBF70E
:1049D0005FFE0420FDF7A2FC8C202B003A005A2138
:1049E000019400964000FFF795FD2B007521604A69
:1049F00001940096E620FFF78DFD012397229B216D
:104A0000029301935200DB33F5200094FFF75EFD23
:104A10000720FDF783FC802008222B214000FBF7B4
:104A2000FBFD0420FDF77AFC9DE70720FDF776FCEF
:104A3000504A91E70720FDF771FC00214E4A002003
:104A4000FBF728FF0420FDF769FC4C4B9BE7072090
:104A5000FDF764FC4A4A7FE70720FDF75FFC002171
:104A6000484A0020FBF716FF0420FDF757FC3B4B9C
:104A700007201C789846FDF751FC22000023AE2148
:104A8000FA20FBF705FE0420FDF748FC00248C20EB
:104A9000334D344F344E3A0034212B004000019402
:104AA0000096FFF737FD43461B7807209846FDF731
:104AB00035FC424600239621FA20FBF7E9FD04204D
:104AC000FDF72CFC8C203A004C212B004000019477
:104AD0000096FFF71FFD254B07201B789846FDF732
:104AE0001DFC002342467C21FA20FBF7D1FD042067
:104AF000FDF714FC8C202B003A00662101940096EF
:104B00004000FFF707FD2B007E21194A0194009613
:104B100070E70720FDF702FC1B4A1DE70720FDF7A1
:104B2000FDFB1A4A18E70720FDF7F8FB184A13E7C0
:104B30000720FDF7F3FB174A0EE70720FDF7EEFB12
:104B4000154A09E70720FDF7E9FB144A04E7C046C8
:104B50000CF7001000F7001068F600101C0400208D
:104B60000804002074F60010FFFF00001D04002060
:104B700078F6001080F600108CF600101E0400205D
:104B800098F60010A4F60010B0F60010BCF6001065
:104B9000C8F60010D4F60010E4F60010F4F6001089
:104BA00070B50D00160004000720FDF7B7FB3200BA
:104BB0002900E0B2FBF76EFE0420FDF7AFFB70BDED
:104BC000F0B5040085B0032806D0052800D19DE08B
:104BD000012822D005B0F0BDCE4B1B78013B022B43
:104BE000F8D8CD4C200008F0F1FD05220621A25690
:104BF000615613019A1A13019B1A0A01521A920064
:104C00001B019B180722A2569B18C44A1360C44A72
:104C100012689B1AC34A1360DCE7C34E3578022D35
:104C200000D1F0E036D8002D77D0BB4F380008F027
:104C3000CDFD0523FB5607201D01EB1A1D01ED1AC2
:104C40000623FB562D011A01D21A9200AD18072235
:104C5000BA56B24BAD181D60B14BB24F1A68AD1ABF
:104C60003D60FDF75BFB0123EAB240213220FBF7F8
:104C70000FFD0420FDF752FBAC4B1A78002A00D13F
:104C8000F3E03B681A00AB3A082A00D82AE1B32BBC
:104C9000A0D9E7E0032D9DD19F4F380008F096FD85
:104CA0000523FB5607201D01EB1A1D01ED1A0623F3
:104CB000FB562D011A01D21A9200AD180722BA56DE
:104CC000964BAD181D60964B964F1A68AD1A3D6015
:104CD000FDF724FB0123EAB24021CD20FBF7D8FCED
:104CE0000420FDF71BFB914B1A78002A00D1DBE072
:104CF0003B689A1F042A00D8FDE01A000B3A042AE8
:104D000000D8FDE00F2B00D9ACE063E7884B1B789F
:104D1000013B032B00D864E75CE7844B1A78002A38
:104D200000D157E7002110201D7001F0EDF900219E
:104D3000012001F0E9F90021022001F0E5F900214C
:104D4000092001F0F3F900210A2001F0EFF9002118
:104D50000B2001F0EBF900210D2001F0E7F997227B
:104D6000DC239B2100955200F52002940194FFF76B
:104D7000ADFB0720FDF7D2FA80206E4D08222B21D3
:104D80004000FBF749FC0420FDF7C8FADC234D2264
:104D90009B211420029401940095FFF797FB0720B4
:104DA000FDF7BCFA01222B211E20FBF735FC042065
:104DB000FDF7B4FADC239A229B216120029401942E
:104DC0000095FFF783FB0720FDF7A8FA02222B21AD
:104DD0006B20FBF721FC0420FDF7A0FADC23E52281
:104DE0009B21AC20029401940095FFF76FFB0720F4
:104DF000FDF794FA03222B21B620FBF70DFC0420CB
:104E0000FDF78CFAE6E6444F380008F0DFFC052396
:104E1000FB5607201D01EB1A1D01ED1A0623FB5658
:104E20002D011A01D21A9200AD180722BA563B4B37
:104E3000AD181D603A4B3B4F1A68AD1A3D60FDF747
:104E40006DFA0123EAB240218220FBF721FC042005
:104E5000FDF764FA354B1A78002A1ED03B68092BFF
:104E600000D8B7E600233370B4E61C70324B012043
:104E7000197801F049F9314B0220197801F044F911
:104E80000121092001F052F901210A2001F04EF917
:104E900000210B2001F04AF99CE61C70274B0220F0
:104EA000197801F031F9EFE70C2110201C7001F0A6
:104EB0002BF90C21012001F027F90C21022001F02F
:104EC00023F90121092001F031F901210A2001F023
:104ED0002DF900210B2001F029F900210D2001F00E
:104EE00025F977E60021012001F00EF900210920C3
:104EF00001F01CF96EE601210D2001F017F969E6B9
:104F00000021102001F000F900210D2001F00EF920
:104F100060E6C0467EC6022014040020A0100020D7
:104F2000A41000203811002085C6022086C6022069
:104F300084C60220FFFF00001C0400201D04002086
:104F400070B5040084B0012816D0032804D00528C9
:104F500000D1D1E004B070BDBC4B1A8811001139EA
:104F60003E2972D859889739472900D980E1B84B32
:104F70001C78002CEED133E2B44B1A8811001139A1
:104F80003E2942D911005E393E2900D9CFE05B8825
:104F9000973B472BDED8AF4B1D78002DDAD102228C
:104FA000AD4E1A70300008F011FC05230622F356AE
:104FB000B2561901CB1A1901C91A13019B1A9B0089
:104FC0000901C9180723F356A448C918A44B19604E
:104FD00005F0A0FC9722A34B9B215200F5200093E3
:104FE0000294DC230194FFF771FA0720FDF796F98C
:104FF000802004222B214000FBF70EFB0420FDF74C
:105000008DF902940194009564E0598897394729F5
:1050100000D9B6E08F4B1E78002E00D127E28E4DCE
:105020000521062207236956AA560C01641A20019D
:10503000001B1401A41AEB56A40000010019C018AB
:105040000090894805F066FC84E711005E393E292E
:1050500000D9A5E05B88973B472B00D97AE77C4BCA
:105060001C78002C00D075E702227B4D1A702800B6
:1050700008F0ACFB05230622EB56AA561901CB1A01
:105080001901C91A13019B1A9B000901C9180723AA
:10509000EB567248C918724B0125196005F03AFCAD
:1050A0009722704B9B215200F52000930295DC2340
:1050B0000195FFF70BFA0720FDF730F98020042255
:1050C0002B214000FBF7A8FA0420FDF727F90295F1
:1050D00001950094DC239A229B216120FFF7F6F9C9
:1050E0000720FDF71BF906222B216B20FBF794FA12
:1050F0000420FDF713F92DE7544B1A8811001139DC
:105100003E2900D912E159889739472900D862E130
:10511000F13A3F2A00D91DE75B88973B472B00D91E
:1051200018E7524B1A78002A00D113E7AEE01100BD
:10513000AB393A2925D85B88973B472B00D909E73B
:10514000444B1D78002D00D004E70322424E1A7014
:10515000300008F03BFB05230622F356B256190136
:10516000CB1A1901C91A13019B1A9B000901C9180E
:105170000723F3563948C918394B196005F0CAFBA3
:1051800037E0F13A3F2A00D9E4E65B88973B472BAA
:1051900000D9DFE62F4B1A78002A00D1DAE675E055
:1051A0001100AB393A2963D85B88973B472B00D96C
:1051B000D0E6274B1D78002D00D0CBE6264C18708A
:1051C000200008F003FB05230622E356A25619012E
:1051D000CB1A1901C91A13019B1A9B000901C9189E
:1051E0000723E3561D48C9181D4B0124196005F01B
:1051F00091FB97221B4B9B215200F52000930294B8
:10520000DC230194FFF762F90720FDF787F880207F
:1052100004222B214000FBF7FFF90420FDF77EF864
:10522000029401940095E522DC239B21AC20FFF73A
:105230004DF90720FDF772F807222B21B620FBF766
:10524000EBF90420FDF76AF884E6C04638C6022070
:105250007EC6022085C602201404002048F70010F4
:10526000A4100020FFFF00005CF7001084C602209D
:10527000F13A3F2A00D96DE65B88973B472B00D96E
:1052800068E69E4B1A78002A00D163E600220124CA
:105290001A7000922F32DC239B21FF32F5200294FA
:1052A0000194FFF713F90720FDF738F88020082252
:1052B0002B21934D4000FBF7AFF90420FDF72EF8AA
:1052C000DC234D229B211420029401940095FFF7CA
:1052D000FDF80720FDF722F801222B211E20FBF705
:1052E0009BF90420FDF71AF8DC239A229B21612008
:1052F000029401940095FFF7E9F80720FDF70EF8F6
:1053000002222B216B20FBF787F90420FDF706F81A
:10531000E522DC239B21AC20029401940095FFF749
:10532000D5F80720FCF7FAFF032286E711005E3963
:105330003E290AD85B88973B472B00D90AE6714B78
:105340001C78002C00D005E68EE61100AB393A2916
:1053500000D9DDE65B88973B472B00D9FAE5694B1E
:105360001C78002C00D0F5E50322674D1A70280048
:1053700008F02CFA05230622EB56AA561901CB1A7F
:105380001901C91A13019B1A9B000901C9180723A7
:10539000EB565E48C9185E4B0125196005F0BAFA54
:1053A0009722574B9B215200F52000930295DC2356
:1053B0000195FFF78BF80720FCF7B0FF802004224F
:1053C0002B214000FBF728F90420FCF7A7FF0295EA
:1053D0000195009427E74B4B1C78002C00D0B9E5D1
:1053E0000125494E1D70300008F0F0F90523062212
:1053F000F356B2561901CB1A1901C91A13019B1A97
:105400009B000901C9180723F3564048C918404BAF
:10541000196005F07FFA9722394B9B2100935200C7
:10542000DC23F52002950195FFF750F80720FCF7E3
:1054300075FF802004222B214000FBF7EDF80420AB
:10544000FCF76CFFDC234D229B2114200295019573
:105450000094FFF73BF80720FCF760FF05222B21A3
:105460001E20FBF7D9F80420FCF758FF72E5264D03
:105470001870280008F0AAF905230622EB56AA5650
:105480001901CB1A1901C91A13019B1A9B000901B2
:10549000C9180723EB561D48C9181D4B196005F0A4
:1054A00039FA9722164B9B2100935200DC23F520FA
:1054B00002940194FFF70AF80720FCF72FFF8020E1
:1054C00004222B214000FBF7A7F80420FCF726FF5D
:1054D000DC234D229B211420029401940096FEF7B8
:1054E000F5FF0720FCF71AFF05222B211E20FBF7F2
:1054F00093F80420FCF712FF92E5C0467EC6022016
:10550000FFFF000084C602201404002048F70010AA
:10551000A4100020F8B5CE464746112080B5FAF712
:105520002FFF002800D073E0FFF7CAF8002822D12F
:10553000BD4FBE4E3B8835889846BD4C237A7F2BA5
:1055400003D8C023237263682360454558D273880B
:105550007A889A4254D96A1E302A00D996E0002BE4
:1055600000D1BCE0312B00D990E0B24C22880E2A49
:1055700000D98DE02BE1B04BAD4C1B78522B5BD0AA
:10558000237E032B00D126E1002B52D1A64F3B886E
:105590001800984604F036FF051CA08804F032FF7E
:1055A000216904F028FF011C281C04F00AFF051CD7
:1055B0000A23E05E04F026FF011C281C04F001FF12
:1055C00004F042FF994E85B23580788804F01AFFC6
:1055D0008146E08804F016FF616904F00CFF011CAD
:1055E000484604F0EEFE81460C23E05E04F00AFF1C
:1055F000011C484604F0E5FE04F026FF70809DE79C
:105600008C4C2088FFF7DCFAC0BCB946B046F8BD28
:105610000821874B5956187A002905DB00221A60A9
:10562000013A844C5A60ECE77F220240814C1A72A6
:10563000E7E7052B00D009E1E08804F0E3FE2169EB
:1056400004F0D9FE051C0A23E05E04F0DBFE011C19
:10565000281C04F0B9FE04F0F7FE744E85B23580C4
:10566000A08804F0CFFE616904F0C5FE071C0C237E
:10567000E05E04F0C7FE011C381C04F0A5FE04F037
:10568000E3FE694F70803B88984657E7694C228853
:1056900029000B3989B28C4655290DD819003539A6
:1056A0004E2900D909E1002A06D1012301202380D7
:1056B000FFF744F9228835E02900733989B2894619
:1056C000572916D8180034384F2812D8002A10D17C
:1056D000032303202380FFF731F9228822E02900E9
:1056E0002A00733989B28946524C0B3A92B29446D9
:1056F00022882F00723FBFB2582F19D81800963851
:105700004F2815D8002A13D1042307202380FCF743
:1057100005FE4A4A00210020FBF7BCF80420FCF7F4
:10572000FDFD2288D0B2FFF70BFC454B336068E7E4
:105730002800DB3880B2572810D8342149428846E7
:10574000984441464F2900D9A5E0002A06D10523F7
:1057500005202380FFF7F2F82288E3E7133DFF3DA1
:10576000ADB22D2D4DD9614655290AD83521494272
:105770008C469C4461464E2900D9BCE0072A00D1E2
:10578000CBE04946572906D8190034394F2902D8A9
:10579000072A00D1CFE0582F06D8190096394F2993
:1057A00002D8072A00D1CDE0572807D8190034398C
:1057B0004F2900D990E0072A00D1B5E02D2DB1D8AE
:1057C000013B262BAED80E2AACD10D232380FFF748
:1057D0002FF82288A6E7A08804F014FE216904F0BF
:1057E0000AFE051C0A23E05E04F00CFE011C281CC6
:1057F00004F0EAFD04F028FE0C4E85B23580E08806
:105800002FE7002BC7D0272BADD8002A01D0072ABD
:10581000A9D101220B4B0C481A7004F0D9FFFFF7F5
:1058200007F822887EE7C04610C6022038C602204C
:105830001CC60220200400201004002098F600104E
:10584000A000010088C6022070F70010414F3B887D
:105850001800984604F0D6FD051CE08804F0D2FD3F
:10586000216904F0C8FD011C281C04F0AAFD051CD8
:105870000A23E05E04F0C6FD011C281C04F0A1FD13
:1058800004F0E2FD344E85B23580788804F0BAFD2C
:105890008146A0889EE69721494288469844414621
:1058A0004E2900D95AE7002A00D057E706230720DF
:1058B0002380FCF733FD294A2CE7190096394F293C
:1058C00000D9F9E6002A00D0F6E60223072023805B
:1058D000FCF724FD224A1DE7190097394E2900D90B
:1058E0006CE7072A00D069E70D2307202380FCF727
:1058F00015FD1C4A0EE7962149428C469C446146A0
:105900004F2900D93DE7072A00D03AE709230720AD
:105910002380FCF703FD144AFCE6082307202380BC
:10592000FCF7FCFC114AF5E60C2307202380FCF76A
:10593000F5FC0F4AEEE60A2307202380FCF7EEFC75
:105940000C4AE7E60B2307202380FCF7E7FC0A4A12
:10595000E0E6C04610C6022038C60220B0F60010AD
:1059600080F6001000F70010C8F60010BCF600101A
:10597000F4F60010D4F60010E4F6001070B505003F
:1059800001211020FAF7F2FC054CD0202576FEF715
:1059900013FEA0809020FEF70FFEE08070BDC04691
:1059A0001CC6022070B505000E0016200121FAF772
:1059B000DDFCFF20FAF798FD00211620FAF7D6FC4F
:1059C0001B4C02E0013C002C25D0FF20FAF78CFD97
:1059D000FF28F7D140202843FAF786FD0020FAF788
:1059E00083FD0020FAF780FD0020FAF77DFD0020FE
:1059F000FAF77AFD3000FAF777FD0C2D14D0202449
:105A000003E0013CE4B2002C04D0FF20FAF76CFD67
:105A10000306F6D470BD01211620FAF7A7FCFF207B
:105A2000FAF762FDFF20F5E7FF20FAF75DFDE6E7F4
:105A3000FFFFFF0010B5FAF757FD10BD7047C046D5
:105A40007047C04610B5074C02E0013C002C06D060
:105A5000FF20FAF749FDFF28F7D1002010BD0120F3
:105A6000FCE7C046FFFFFF00F8B506000D0016205A
:105A700001211700FAF77AFCFF20FAF735FD002123
:105A80001620FAF773FC1D4C02E0013C002C27D0D5
:105A9000FF20FAF729FDFF28F7D140203043FAF71D
:105AA00023FD280EFAF720FD280CC0B2FAF71CFDE2
:105AB000280AC0B2FAF718FDE8B2FAF715FD380067
:105AC000FAF712FD0C2E14D0202403E0013CE4B2BE
:105AD000002C04D0FF20FAF707FD0306F6D4F8BD2A
