:020000041000EA
:1000000000B5324B212058609868022188439860DF
:10001000D860186158612E4B002199600221596106
:100020000121F02299502B49196001219960352056
:1000300000F044F80222904214D00621196600F024
:1000400034F8196E01211966002018661A6600F04E
:100050002CF8196E196E196E052000F02FF8012189
:100060000842F9D1002199601B49196000215960AB
:100070001A491B48016001219960EB211966A021F2
:10008000196600F012F800219960164914480160C1
:100090000121996001BC002800D000471248134993
:1000A000086003C880F30888084703B5996A0420EC
:1000B0000142FBD001200142F8D103BD02B5186610
:1000C0001866FFF7F2FF186E186E02BD00000240BE
:1000D000000000180000070000035F00212200005C
:1000E000F4000018222000A00001001008ED00E03C
:1000F00000000000000000000000000074B24E7A12
:1001000000200420F7010010C3010010C5010010F9
:10011000C1010010C1010010C1010010C101001097
:10012000C1010010C1010010C1010010C701001081
:10013000C1010010C1010010C9010010CB01001065
:10014000CD010010CD010010CD010010CD01001037
:10015000CD010010CD010010CD010010CD01001027
:10016000CD010010CD010010CD010010CD01001017
:10017000CD010010CD010010CD010010CD01001007
:10018000CD010010CD010010CD010010CD010010F7
:10019000CD010010CD010010CD010010CD010010E7
:1001A000CD010010CD010010CD010010CD010010D7
:1001B000CD010010CD010010CD010010CD010010C7
:1001C00000BE00BE00BE00BE00BE00BE00F04BF888
:1001D000103800BEF2EB8871ECF4001010F500103E
:1001E0003402001090A31AE700202149086006C8D5
:1001F00081F3088810471F48006800282FD10DA4FC
:100200000ECC002902D000F012F8F9E71A491B4A77
:10021000002000E001C19142FCD1194988471949E9
:1002200088471949884700BEFDE701C901C29A42C3
:10023000FBD3704710F50010C000002024050020FB
:1002400074F90010000004200000042074F900106C
:1002500000100420001004200000000070470B482C
:1002600008F09AFE0047EFF30580C0B27047000027
:1002700008ED00E0000000D02805002074C6022030
:10028000957800100D030010857900105756000076
:1002900006005250ABB36053A8F200100600525053
:1002A000861C0302B8F20010060052505422A29D90
:1002B000C8F2001005005250DE65F46874F90010B1
:1002C000F8B5C04610B5064C2378002B07D1054B76
:1002D000002B02D0044800E000BF0123237010BDB2
:1002E000380800200000000060D10010044B10B559
:1002F000002B03D00349044800E000BF10BDC046F6
:10030000000000003C08002060D1001010B500F093
:1003100001F8FCE710B500F071F800F039F801F0D1
:1003200049FF05F0E9FB05F04FFBC82104208900D7
:1003300001F0C8FF042005F01DF804F085F9002045
:1003400003F044FE04F0F6F900210020054A04F011
:10035000A3FB00210020044A04F09EFB04F0D2FD20
:10036000FCE7C04660D100106CD100100123D02200
:1003700083401206002901D0536170479361FCE766
:10038000D0231B065B68C340012018407047C0465D
:1003900010B50020D02405F099FE01232406A362A5
:1003A000012005F093FE02230220A36205F08EFED9
:1003B00004230320A36205F089FE08230420A3621E
:1003C00005F084FE10230022A3620121002005F025
:1003D00065FE00220121012005F060FE00220121BE
:1003E000022005F05BFE00220121032005F056FEED
:1003F00000220121042005F051FE10BDF0B5C646D3
:1004000000B584B02F4803AB02AA01A907F086F912
:10041000002803D12B492C4807F0B6FA039A029919
:10042000019807F03FF909F009FF0F2005F04EFE93
:10043000D024802324061B026362082005F046FEB8
:100440008023802680275B006362B6010D2005F0C3
:100450003DFEBF000920666205F038FE102067628D
:1004600005F034FE80235B0263621120984605F09C
:100470002DFE802380259B02A362ED03162005F04C
:1004800025FE002201211120656205F007FE43468A
:100490000E4963610E486761666165610CF09CFB03
:1004A00001210A2005F0E2FD01210B2005F0DEFD0F
:1004B00001210C2005F0DAFD002004B080BCB84614
:1004C000F0BDC04690D0030078D1001000093D0077
:1004D0000000044010B584B06B460F246C44D91D55
:1004E00008700123220003480CF02AFE207804B093
:1004F00010BDC0460000044010B582B06B46DC1D44
:10050000991D08700123220002480CF019FE207882
:1005100002B010BD0000044010B506F029FC10BD6B
:100520007047C046030010B50120002B00D010BD5D
:1005300005F052F80028FAD004F07CFFFF2004F008
:1005400075FF04F079FF0120F1E7C04600207047F5
:1005500070B50D00040011001A1E11D00120002CEE
:1005600000D070BD280005F015F90028F9D004F07E
:1005700061FFFF2004F05AFF04F05EFF0120F0E766
:100580000420EEE770B50D00040011001A1E0AD019
:100590000120002C00D070BD280005F06BF9431E2F
:1005A0009841C0B2F7E70420F5E7C04670B51400E3
:1005B0000125002808D102290FD007D8002911D021
:1005C00004F0D2FF00252060280070BD0425032917
:1005D000FAD1082300251380F6E780239B0000252D
:1005E0001380F1E700211620FFF7C0FE04F026FF7C
:1005F000431E98410121C5B21620FFF7B7FEE3E77D
:1006000000207047013AF8B51B4BD500AD184833B0
:10061000ED00ED18C8234746CE465B0180B5804605
:100620000E00002799463100404603F057FB012198
:100630000820FFF79BFE2C0000210920FFF796FE03
:10064000483C2088000AFFF745FF20780234FFF776
:1006500041FFAC42F5D1A023413701369B00FF3763
:10066000B6B2E5184F45DED101210920FFF77EFE25
:10067000C0BCB946B046F8BD44120020F0B5DE4615
:100680004E46454657460023E0B58146884614004D
:100690009B4683B0092A0BD910000A2108F0D6FC2A
:1006A0002000CDB20A2108F0D1FCC3B29B462C0039
:1006B000384B464614339C4601938C235B0100273C
:1006C0009A46A5002D19AD0065443100484603F057
:1006D00005FB01210820FFF749FE2C00002109201D
:1006E000FFF744FE143C2088000AFFF7F3FE207851
:1006F0000234FFF7EFFEAC42F5D1A02341370136BB
:100700009B00FF37B6B2E5185745DED1012109201D
:10071000FFF72CFE5B46002B30D09D00019B4E4620
:100720009C468C235B01002799465D440A3EAD0040
:10073000B6B265444146300003F0D0FA01210820EA
:10074000FFF714FE2C0000210920FFF70FFE143CD8
:100750002088000AFFF7BEFE20780234FFF7BAFEB9
:10076000A542F5D1414601318BB29846A0239B00AA
:100770009C464137FF3765444F45DBD101210920B5
:10078000FFF7F4FD03B0F0BCBB46B246A946A04655
:10079000F0BDC046804A0020F0B5DE4657464E46C2
:1007A00045469346E0B5674C0122A544029003916B
:1007B00004A8594601F09AFB634E644F1E223B0089
:1007C000310004A801F05CFC5946614809F02AFD9B
:1007D000B1887388090419435E4809F023FDB48980
:1007E000738924041C4321005B4809F01BFDB38A74
:1007F000728A1B04134319005848009309F012FD34
:10080000338BF28A1B04134319005548019309F0F6
:1008100009FDB18B534809F005FD04A801F05EFC09
:10082000514809F0FFFC0122594604A801F05EFB83
:100830003B002200310004A801F022FC4B4B1B7846
:10084000522B0CD004A801F049FC01208F239B00FF
:100850009D44F0BCBB46B246A946A046F0BD9622D8
:1008600092029446424B994663449846B4239B00B7
:10087000F418693BFF3B9A464D46B244B4223B0014
:100880003100520004A801F0FBFBB4223B005200EF
:10089000514604A801F0F4FB280032009378517807
:1008A000DB0889084901DB020B4311780332C908D0
:1008B0000B4303800230A242F0D1E135FF354545BC
:1008C000DCD16B460399188903F008FA012108204E
:1008D000FFF74CFD00210920FFF748FD2549264878
:1008E0000CF0F6F9594625480CF086FB002815D087
:1008F000594623480CF080FB002819D04C4620882C
:10090000000AFFF7E7FD20780234FFF7E3FD4445D6
:10091000F5D101210920FFF729FD93E7009A019BFA
:1009200013495A43520092B2164809F071FA89E706
:10093000009A019B0E495A43520092B2124809F0A4
:1009400067FA7FE7C4FDFFFFB40C002054080020C5
:10095000ACD10010B4D10010C8D10010DCD100100F
:10096000F4D100100CD2001020D200100804002096
:10097000E46D002080B2E60E0000044060D100105B
:100980006CD1001044120020804A0020002370B572
:100990000371013B04000D00C3624B1C09D00A0027
:1009A0002100012340783031FFF7D2FD00281FD10C
:1009B000E562124BE25A124B9A421BD12200663278
:1009C000538811881B040B430E4A1B021B0A9342D7
:1009D00012D08223E25A0C4B82349C466088000479
:1009E00010430002000A6044431E9841C0B270BD2B
:1009F0000320FCE70220FAE70020F8E72E020000BF
:100A000055AA000046415400BABEABFFF0B5C64639
:100A1000C66A04000D0000B58E4235D00700037988
:100A20003037002B0BD101232A0039006078FFF703
:100A30008FFD002826D1E56280BCB846F0BD0123B9
:100A4000320039004078FFF79DFD00281AD1226A54
:100A5000A3692071B21A9A42E5D2E2789046012A3F
:100A600001D8E0E7A369F618320001233900607865
:100A7000FFF788FD01235B429C46E0444346012B7F
:100A8000F0D1D0E70120D7E70020D5E7F0B5454603
:100A9000DE4657464E460023E0B50C68150083B08D
:100AA0000360002C00D1C4E02378303B082B00D831
:100AB000B6E0C84B1C68002C00D11DE1237804600F
:100AC000002B0FD06078FFF741FDC3070AD4002D3B
:100AD00000D10DE104231E000640034200D1FFE0D7
:100AE0000A26FDE0002300202380FFF71BFDC3073B
:100AF00000D5FFE0002D01D04307F1D400212000F4
:100B0000FFF744FF0600012800D194E0032800D13C
:100B10003AE10025002800D0E1E022003B321178C4
:100B2000537880221B0292000B43934200D0D6E000
:100B30004623E65A002E00D1666D4023A661E25C92
:100B4000531EE270012B00D9C9E03D23E75CA7707A
:100B5000002F00D1C3E07B1E1F4200D0BFE0412325
:100B6000E15C230041335B781B020B4398462381F1
:100B70001B0700D0B3E04323E15C230043335B78E1
:100B80001B020B4300D1236DE18F8B46002900D15E
:100B9000A5E072431100019242468A4612095A4466
:100BA0009244534500D29AE052469B1A9946390026
:100BB000180008F04BFAB94500D290E0864B9842F5
:100BC00000D8E3E0854B984200D821E15B46EB1862
:100BD00023625346EB18A362434602306061E5612D
:100BE000002B7CD1E36D800063627D4B9C466044AA
:100BF000400A864273D301235B422361E360813361
:100C00006371203BE35A012B00D182E00323754A34
:100C100023701388002601339BB21380E3805FE0CA
:100C200062783A2A00D044E702340C60002B00D1ED
:100C30003FE70B2654E0F9235B00E35C0027002B21
:100C40000CD0FB235B00E118E25C4B788F781B0231
:100C50001A43CB783F0417431B061F43624B002502
:100C6000E35C002B0BD0614BE2185178E55C090284
:100C700093782943D5781B0419432D060D43002290
:100C80005B4B9046E35C002B0CD05A4BE01842784B
:100C9000E15C120283781143C2781B040B431206F5
:100CA0001A4390460022544B9146E35C002B0CD033
:100CB000524BE0184278E15C120283781143C2780B
:100CC0001B040B4312061A439146002F45D1002DF9
:100CD0004BD14346002B4FD14B46002B0ED10D2656
:100CE000300003B0F0BCBB46B246A946A046F0BDFA
:100CF0000026F5E70326F3E70C26F1E74946200036
:100D0000FFF744FE4D46002800D106E70328E7D050
:100D1000E5E72000691CFFF779FE002800D075E7A1
:100D200043466371364BE25A364B9A4200D06DE728
:100D3000354B226B9A4200D068E785229200334BF4
:100D4000A2589A4200D061E7862387229B00920036
:100D5000E358A2582361E26058E739002000FFF70A
:100D600015FE0028B3D13D00D7E629002000FFF78B
:100D70000DFE0028ADD1D0E641462000FFF706FE6B
:100D800045460028A8D1C8E60126A9E75B464146AA
:100D9000EB18821CE561554462612362A56200295B
:100DA0009DD0019950008C466344636201238018F2
:100DB00040081A4080180A4A94466044400A864215
:100DC00000D28CE7012252422261E26081326271DC
:100DD0001DE7C04658080020F50F0000F5FF000091
:100DE000FF01000062C602200202000006020000AD
:100DF000120200001602000022020000260200007B
:100E00002E02000055AA00005252614172724161E7
:100E10005B464246EB180230E5615544606123624F
:100E2000A562002A00D15AE7019A40009446634423
:100E300063620223BFE7C046F0B5C64607780400E8
:100E40000D0000B5022F08D0032F3FD0012F17D07F
:100E50000120404280BCB846F0BD036A090A9C46A6
:100E60006144FFF7D3FD0028F2D1FF216D00490056
:100E70000D4064193034637820781B021843E9E789
:100E8000036A4E089C467618710A6144FFF7BEFD5E
:100E90000028DDD1F305DB0DE31830331B78013674
:100EA0009846236A710A9C4620006144FFF7AEFD14
:100EB0000028CDD14346F605F60DA419303420782C
:100EC000000218432F421FD00009C3E7036AC90973
:100ED0009C466144FFF79AFD0028B9D1FE21AD0080
:100EE00049000D402B003033E318D8789A78641904
:100EF00012040006303410435B7822781B02104342
:100F0000184300010009A5E70005000DA2E7C0464F
:100F1000F8B54E46DE46574645469B468468C3684C
:100F2000E0B51B1B06000F009946934200D991467D
:100F30004B46002B00D190E02200D305DD0D002BA5
:100F400041D13368500A99784C1E0440E4B2002C19
:100F500000D184E070695A690238023A904200D3A5
:100F60008CE0996A9A788C4650436044002800D1FE
:100F700084E080468021A0448900894500D386E032
:100F8000B26990451AD035004024B17928350C4219
:100F90000BD0587829000123FFF7F4FA002800D07D
:100FA000A0E0B379A343B371336858784246012374
:100FB0002900FFF7CDFA002800D093E04346B36143
:100FC000B368DD05ED0D80239B00591B494500D911
:100FD000494602242B00A4462933F3180634FB1A91
:100FE0009C459B41A446481E2A008445A4412832C2
:100FF0005B426442B2181C4200D177E03B001343CD
:101000009B0700D072E000238C08A400D558FD5047
:101010000433A342FAD103230C009C43230012198A
:10102000C01A3C198B4209D013782370002805D0D0
:1010300053786370012801D09378A370B368584641
:10104000CA185B461B68B2605B1803604B465B1AAC
:1010500099467F18002B00D06FE7002011E0002A8E
:1010600032D13069012809D9431C3BD03368706103
:101070005A690238023A904200D272E702230220F3
:10108000F371F0BCBB46B246A946A046F8BD49463E
:10109000490A8A4661188A4201D2121B9246524678
:1010A000D2B25878390013004246FFF751FA0028AF
:1010B00018D1B3795B0604D54246B3699B1A9A45A9
:1010C00030D853465902B9E7726A9246002A14D1C1
:1010D00071690129D2D95A699142CFD21800FFF71C
:1010E000ABFEBFE701230120F371CAE70023D05C08
:1010F000F85401339942FAD1A0E7042353449846A7
:1011000007F0A4FF53465B68002BB7D0424604E0CB
:101110000832C01A1368002BB0D09842F8D2536836
:10112000C0189FE73100320002205B02FB18293112
:101130002832591A88420BD219001143890707D166
:10114000515959518021043589008D42F8D1B8E7B1
:10115000515D59558021013589008D42F8D1B0E7A4
:10116000F8B54746CE46067804000D00904680B597
:10117000022E0BD0032E45D00227012E1AD00123B8
:1011800038002371C0BCB946B046F8BD036A090AED
:101190009C466144FFF73AFC071EF0D16B00FF2527
:1011A00042466D002B40E31830331A7092B2120A97
:1011B0005A70E4E74B08994689444B46590A036A3A
:1011C0009C466144FFF722FC071ED8D14B46DB0545
:1011D000DB0DE31830332E4233D00F2219784D4601
:1011E0001140424612010A431A70236A01359C4697
:1011F000690A200026716144FFF708FC00283DD0F1
:101200000700BCE7036AC9099C466144FFF7FEFB7F
:10121000071EB4D1FE21AD0049000D402B00414610
:101220003033E318DA786519120912070A4391B2CC
:10123000090A30352A705970110C120E9970DA7043
:101240009DE742461A704D46236A01359C46690A5D
:10125000200026716144FFF7D9FB0028D0D1ED05AD
:10126000ED0D65192B0042460F2130331B78120A11
:101270008B430A401A4330352A7080E74346ED0518
:10128000ED0D1A09D2B26519F5E7C046F8B5037934
:101290000400002B0BD12378032B29D0002200213E
:1012A0006078FFF783F9431E9841C0B2F8BD07008C
:1012B000C56A303701232A0039004078FFF762F908
:1012C00000283AD1226AA3692071AA1A9A42E2D26E
:1012D000E678012E01D8DEE7A369ED182A00012384
:1012E00039006078013EFFF74DF9012EF4D1D2E7C5
:1012F0006379012BD2D12500802230350021920064
:10130000280008F07FFD0E4B0E4A2900E2520E4BDA
:101310000E4A236385239B00E25022690433E25086
:10132000E2680433E250E36960785A1CE262012308
:10133000FFF728F900236371B0E70120B6E7C04644
:101340002E02000055AAFFFF5252614172724161A4
:10135000F0B54E464546DE465746E0B5894605009F
:1013600083B000291ED1C7684369002F34D10137EB
:10137000FF2252009346023A3C00924601349C42BE
:101380001FD3012F00D891E0022B1CD902242E7804
:10139000022E00D176E0032E57D0012E20D001245A
:1013A000644211E001290ED0436999420BD2FFF744
:1013B00043FD0400012806D96B69834204D84F46D7
:1013C000D6E7012CE3D80124200003B0F0BCBB46D3
:1013D000B246A946A046F0BDBB42C9D80127C7E71F
:1013E00063089846A0444346590A2B6A28009C4645
:1013F0006144FFF70BFB0028D1D14346DB05DB0D31
:10140000EB1830331B782800019301239C46E044FD
:101410004346590A2B6A9C466144FFF7F7FA0028B5
:10142000BDD14146CB05DB0DEB1830331B78019A5B
:101430001B02134326423BD01B09002B3BD0012B40
:10144000C1D0A74232D06B6998E72B6AE1099C466C
:1014500028006144FFF7DAFA0028A0D15346A20021
:101460001A40110030316918CB788878AA183032C8
:1014700012781B060004034313434A7812021343F5
:101480001B01D9E72B6A210A9C4628006144FFF71B
:10149000BDFA002800D082E75B4662001A40AA1815
:1014A00030325178137809020B43C6E700248BE7EA
:1014B0001B051B0DC1E76B69A34200D883E7210020
:1014C0002800134AFFF74CFE002803D0012800D162
:1014D00065E778E74B46002B0DD0012B00D172E772
:1014E0006B69994500D36EE7220049462800FFF753
:1014F00037FE0028EAD12B69EC605A1C00D163E763
:101500000122013B2B616B7913436B715CE7C04691
:10151000FFFFFF0FF0B557464546DE464E46E0B5A5
:10152000856807000C0083B0C180012D26D00668B5
:101530007369AB4222D9002D57D0B2781201904680
:10154000914200D291E0FF22520093469D4215D273
:1015500033789946022B00D195E0032B5AD0012B0A
:1015600014D001200BE0756A002D41D0B278120131
:101570009046914200D278E0012DE4D1022003B0E0
:10158000F0BCBB46B246A946A046F0BD6B089A46E1
:10159000AA445346590A336A30009C466144FFF717
:1015A00035FA0028DDD15346DB05DB0DF318303367
:1015B0001B783000019301239C46E2445346590AAC
:1015C000336A9C466144FFF721FA0028C9D151468D
:1015D000CB05DB0DF61830363378019A1B02134326
:1015E0004A462A4263D01D0932E03278032ABAD033
:1015F0000023FB603389A342C0D9726A2309944651
:1016000063443B610F210C403036640134190020E3
:101610007C61B4E7336AE9099C4630006144FFF716
:10162000F5F900289DD1FE22AB00520013401A00AC
:101630003032B218D5789178F31830331B782D06F4
:1016400009040D431D4353781B021D432D012D0931
:10165000012D93D93E687369AB4200D88EE74246AC
:10166000A41AA4B2444500D370E7FD60023B023DDA
:101670009D421FD2B3785D43B36A9C4665442309FB
:101680005D193D61BEE7336A290A9C46300061441A
:10169000FFF7BCF9002800D063E75B466D001D40F2
:1016A00076193036737835781B021D43D0E71B0559
:1016B0001D0DCDE70025E2E7F8B557464546DE4665
:1016C0004E46E0B50B7805008A462F2B53D05C2B95
:1016D00051D000245346AC601B781F2B54D956467A
:1016E000AB6932782F2A01D05C2A01D10136F8E7A4
:1016F00020221A705A709A70DA701A715A719A719F
:10170000DA711A725A729A723278202A19D9002123
:101710008C460831884602218A4603218B46711E79
:10172000894661469C462B00002445460127984681
:101730000B002F2A55D05C2A53D02E2A2AD09D4246
:1017400006D80620F0BCBB46B246A946A046F8BD66
:1017500051B2002905DA59460C43B449803A8A5CF3
:10176000E4B22221B24803E041780130002923D0BD
:101770008A42F9D1E5E701239C460024E24453461E
:10178000AC601B781F2BAAD800212800FFF7C2FEEF
:101790006C61D7E7082DD4D108230B25A400E4B24F
:1017A0004A460137D25D202AC3D842466346A8463E
:1017B000F619150004221DE011004139192906D837
:1017C00051460C43E4B26146CA540133E8E71100C4
:1017D00061391929F7D80121203A0C43E4B2D2B279
:1017E000F1E742461900A84663461500F61900299C
:1017F000A7D000221978E52901D1E03919704146B6
:10180000082900D105E103212140012901D10F312F
:101810000A430C210C40042C01D104390A43002155
:101820002800DA72FFF776FE002800D0F7E02C6877
:101830002F69B0463E0027000823FC6A9A46B4424E
:101840000ED0302291463B79B944002B31D101238F
:10185000320049467878FEF77BFE002859D1FE62B7
:101860006A691478002C5FD050465346D17A0840FC
:101870000B4261D0EC880134A4B2002C54D02E6904
:10188000002E51D00F23234099460F23234242D0EC
:101890002F684B465A013B00EC803033FC6A9B18A2
:1018A0006B61B442DCD0302291463B79B944002BC5
:1018B000CDD00123220049467878FEF763FE002848
:1018C00027D13A6ABB693871A21A9A42BFD2FA7814
:1018D0009346012ABBD931002A004E465D4689460F
:1018E000934600E0BB69E4182200012331007878B8
:1018F000013DFEF747FE012DF4D14B46B1461E00D7
:1019000049460123320078785D46FEF721FE002823
:10191000A5D0012016E7E96801362F682E6100295D
:1019200054D13B89A342B4D8AB69DB7A04205B076E
:1019300000D507E7052005E7AB691F78A74299D1D5
:1019400057785C78A74295D19F789478A74291D137
:10195000D778DC78A7428DD117791C79A74289D135
:1019600057795C79A74285D197799C79A74200D0B5
:1019700080E7D779DC79A74200D07BE7177A1C7A19
:10198000A74200D076E7577A5C7AA74200D071E789
:10199000977A9C7AA74200D06CE7DC7A46466407C7
:1019A00000D5CFE6C906C5D5D17E907E0902014398
:1019B00028680078032801D0A96092E6147D527D42
:1019C0001202224312041143A9608AE6BB7822095D
:1019D000013B1A4200D05CE7012918D07B6999428B
:1019E00015D23800FFF728FA012810D9431C90D0EF
:1019F0002F687B69984297D2E860023B0238984290
:101A00000AD2BB785843BB6AC6182E6141E7022050
:101A100098E6A400E4B2FCE600262E6139E7AB6943
:101A2000DB7A042800D08DE680E7C0463CD2001067
:101A30002CD20010F8B54546DE4657464E4643695F
:101A4000E0B504000D00994200D398E0012914D9B3
:101A5000FF2326785B009946023B98460127022E19
:101A600000D175E0032E38D0012E08D00120F0BC43
:101A7000BB46B246A946A046F8BD0220F7E76B0870
:101A80009A46AA445346590A236A20009C46614458
:101A9000FEF7BCFF0028E9D15346DB05DB0DE31858
:101AA00030331B7820009B4601239C46E24453467A
:101AB000590A236A9C466144FEF7A8FF0028D5D145
:101AC00053465A46DB05DB0DE31830331B781B0207
:101AD00013432E4255D01E091CE0236AE9099C4697
:101AE00020006144FEF792FF0028BFD14246AB00C0
:101AF00013401A003032A218D6789178E3183033A8
:101B00001B78360609040E431E4353781B021E43FE
:101B100036013609002E32D0012EAED06369AB42B9
:101B2000ABD9002229002000FFF71AFB00289ED124
:101B300023695A1C20D00133236163793B436371CD
:101B400063699E421BD235002678022E00D089E7B9
:101B5000236A290A9C4620006144FEF757FF0028AB
:101B600000D083E74A466B001340E31830335A78BD
:101B70001E7812021643CDE76369B342E3D8002012
:101B800075E71E05360DC5E7F0B5DE464E465746ED
:101B90004546E0B5002185B00600FFF7BBFC041EFA
:101BA0000AD0042800D10724200005B0F0BCBB46B1
:101BB000B246A946A046F0BD3369356898460F2362
:101BC0009A46EC6A44450ED02F002B793037002B13
:101BD00059D10123424639006878FEF7B9FC002844
:101BE00042D14346EB6273691B78E52B01D0002B91
:101BF00024D131693068FEF709FF041ED4D12022B8
:101C00000021706908F0FEF87369B2691900114388
:101C1000890700D0F1E0511C591A022900D8ECE0E4
:101C20001168196051685960117A1972517A5972A4
:101C3000927A9A72012233681A71B5E7F4880134F6
:101C4000A4B2002CAFD033699846002BABD05746D6
:101C500053462740234209D035687B012F00303797
:101C6000FF18F4807761ACE701249DE701239C46CF
:101C7000E0444346F16835683361002928D12B8957
:101C8000A342EAD88FE70123220039006878FEF7E3
:101C900079FC0028E8D12A6AAB692871A21A9A4215
:101CA00097D2EA789146012A93D932002E004D4608
:101CB000914600E0B369E4182200012339007078EE
:101CC000013DFEF75FFC012DF4D135004E4680E763
:101CD000AB782209013B1A42BFD1012921D06B699F
:101CE00099421ED22800FFF7A7F8020001900128B0
:101CF00017D9431CB8D035686B69984213D2023AA1
:101D00000292023B019AF260029A934200D885E067
:101D1000AB785A431300AA6A90469844434633610D
:101D20009BE7022440E72800F168FFF711FB031E40
:101D3000019000D137E70128F3D0013394D0356802
:101D40002B79002B6DD128008022002192003030A9
:101D500008F058F8019B35689A1E6B690292023BA5
:101D60009A4200D390E01100A86AAA7880465143B5
:101D700088444146E962002A3CD000230394BB46D4
:101D80004446B14698462F000123303722003900DF
:101D900068782B71FEF7F6FB002800D064E72A6A0A
:101DA000AB692871A21A9A420ED2EE78012E01D8A0
:101DB0000AE0AB69E4182200012339006878013E8B
:101DC000FEF7E0FB012EF4D14B4647461D68013774
:101DD000EB6A5C1CFBB29846AB78EC624345D2D808
:101DE0004346A04642465F464E46D31A98466B6924
:101DF000039C023B4246EA6284E7117819705178ED
:101E0000597091789970D178D97011791971517987
:101E1000597191799971D179D97105E70023984663
:101E20007CE7EB6A6878984630239B46AB44424691
:101E300059462F3BFEF7A6FB002800D014E7424688
:101E4000296AAB692871521A9A421BD2EA789146E4
:101E5000012A17D942463100A0462E0014004D46F3
:101E6000B9465F468B4600E0B369E41822000123BF
:101E700039007078013DFEF785FB012DF4D1444611
:101E80004F465E4635685EE70021AA78884670E7CF
:101E900000B583B00B1E019000911AD0097830393B
:101EA00008290FD910490B68002B01D000201870A9
:101EB000019B002B15D000200B601870012A0AD05E
:101EC00003B000BD58783A28ECD1023300930029C2
:101ED000E8D00B20F4E70022694601A8FEF7D6FD02
:101EE000EEE700200B60EBE758080020F0B547460E
:101EF000CE4680B58DB0040017000191002868D04F
:101F000000231E2203603A4001A905A8FEF7BEFD8A
:101F1000051E05D028000DB0C0BCB946B046F0BDC6
:101F20001F233B409846019902AB05A80B93FFF78E
:101F3000C3FB00280FD10A9E002E00D19BE01C237A
:101F40003B420FD01122F37A1A4246D17B0700D4CC
:101F50008DE00825DEE71C233B4201D004283ED05B
:101F60000500D7E7F37ADA0635D4BA0701D5DB07DF
:101F700033D4082205983A4003D0424620231A431E
:101F80009046C36A2662E3614346A3710023E3716E
:101F9000F37EB27E1B0213430278032A05D1727DC1
:101FA000377D12023A43120413432361717F337F5A
:101FB000B27F09021943F37F120411431B060B433E
:101FC000E36000232060A360A3616362C388A380F1
:101FD000A0E709259EE704259CE707259AE705A8C1
:101FE000FFF7D2FD424608231A4390460A9E002876
:101FF000B6D1FEF705FB83B21B0AF373030C3374EF
:102000000023B073000E70740598F77EF372337777
:102010007377B377F377B27E03783F021743032BCE
:1020200005D1737D317D1B020B431B041F4300232D
:10203000B376F3763375737501330371002F9CD03B
:10204000012F1AD043699F4217D2C36A39009946BB
:10205000FFF7F0FC002883D10598013F4946C7608F
:10206000FEF7D4FC002800D07AE7059885E73B0707
:10207000BFD4059885E706254CE702254AE7C04608
:10208000F8B51D00002304000E0017002B60002887
:102090001ED00368002B1BD01A78002A18D0828823
:1020A000D9880920914200D0F8BD5878FEF74EFA41
:1020B0000123034210D1E0790028F5D1A27913421F
:1020C00008D02B003A0031002000FEF721FFEBE79B
:1020D0000920E9E70720E7E70320E5E7F8B5041E54
:1020E00060D00368002B5DD01A78002A5AD0D988B6
:1020F00082880925914201D02800F8BD5878FEF762
:1021000025FA01231D00054003424DD1A3799A060B
:1021100045D540261E420CD021002368A26958787C
:1021200028310123FEF72EFA00283FD1A379B343CB
:10213000A371E1692068FEF769FC071E01D0050064
:10214000DAE72022266AF37A1343F372E3683377DF
:10215000A3891B0A7377E389B377E37BF37723695A
:10216000B3769AB21B0C120A33751B0AF27673759A
:10217000FEF746FA202283B21B0AB075F375030CF2
:10218000000E33767076B774F774A37920689343A2
:10219000A37101230371FFF779F8002808D1002308
:1021A0002360A9E70925A7E70325A5E70125A3E7FC
:1021B0000500A1E710B501211620FEF7D7F801218F
:1021C0000920FEF7D3F801211020FEF7CFF80D49C2
:1021D00001220D48FFF75CFE0C4B011E187003D066
:1021E0000B4808F01FF810BD0A4807F079FF0A4BAA
:1021F0000A4A19001431FF3108C20B338B42FBD15C
:10220000F1E7C04674ED00104C48002069C602207A
:1022100078ED0010B0ED00102C110020806D002032
:1022200070B5254C2378522B00D070BD431EDBB215
:102230000025062B31D9214B1871032829D9A0225A
:10224000F02152005980082000211A80FEF78EF8F4
:1022500000210920FEF78AF83620FEF73BF901211C
:102260000920FEF783F8237801210820522B1CD087
:10227000FEF77CF809200021FEF778F80020FEF731
:1022800029F92800FEF726F901210920FEF76EF84A
:10229000CBE7A021F0224900D4E7094A5B00D55CD6
:1022A000064B18710328F4D9C9E7FEF75FF800213F
:1022B0000920FEF75BF8E4E708040020FCC50220D3
:1022C000D8ED001070B5012182B005000F20FEF797
:1022D0004DF8FA204000FEF71FF900210F20FEF70D
:1022E00045F8FA204000FEF717F901210F20FEF70C
:1022F0003DF8FA204000FEF70FF96B469E1D0023C3
:10230000002109203370FEF731F800210820FEF784
:102310002DF8DC20FEF7DEF86B46DC1D22000123E1
:102320003100F4480AF00CFF01210920FEF71EF8E5
:102330002378F14C002108202370522B01D100F0AA
:1023400000FCFEF713F800210920FEF70FF821200A
:10235000FEF7C0F801210920FEF708F80021082047
:10236000FEF704F800210920FEF700F8C220FEF76E
:10237000B1F801210920FDF7F9FF23780121082098
:10238000522B00D1D6E3FDF7F1FF09200021FDF724
:10239000EDFF0020FEF79EF83320FEF79BF80121A9
:1023A0000920FDF7E3FF00210820FDF7DFFF0021F2
:1023B0000920FDF7DBFFC520FEF78CF8012109207D
:1023C000FDF7D4FF237801210820522B01D101F021
:1023D000E1F9FDF7CBFF09200021FDF7C7FF002041
:1023E000FEF778F80020FEF775F801210920FDF7C7
:1023F000BDFF237801210820522B01D101F0C2F941
:10240000FDF7B4FF09200021FDF7B0FF0020FEF723
:1024100061F81E20FEF75EF801210920FDF7A6FFF6
:10242000237801210820522B01D101F0A3F9FDF7F7
:102430009DFF09200021FDF799FF0020FEF74AF8D3
:102440008020FEF747F801210920FDF78FFF0021CA
:102450000820FDF78BFF00210920FDF787FFB12041
:10246000FEF738F801210920FDF780FF23780121CC
:102470000820522B01D101F075F9FDF777FF0920F3
:102480000021FDF773FF0020FEF724F8B020FEF7CF
:1024900021F801210920FDF769FF00210820FDF73F
:1024A00065FF00210920FDF761FF3620FEF712F8D5
:1024B00001210920FDF75AFF237801210820522B22
:1024C00001D101F047F9FDF751FF09200021FDF787
:1024D0004DFF0020FDF7FEFF2820FDF7FBFF012147
:1024E0000920FDF743FF00210820FDF73FFF0021F1
:1024F0000920FDF73BFFE020FDF7ECFF012109205B
:10250000FDF734FF237801210820522B01D101F07F
:1025100019F9FDF72BFF09200021FDF727FF002007
:10252000FDF7D8FF0020FDF7D5FF01210920FDF7B9
:102530001DFF237801210820522B01D101F0FAF868
:10254000FDF714FF09200021FDF710FF0020FDF723
:10255000C1FF1320FDF7BEFF01210920FDF706FF93
:10256000237801210820522B01D101F0DBF8FDF77F
:10257000FDFE09200021FDF7F9FE0020FDF7AAFF6E
:102580001820FDF7A7FF01210920FDF7EFFE2378B2
:1025900001210820522B01D101F0BCF8FDF7E6FE25
:1025A00009200021FDF7E2FE0020FDF793FF042043
:1025B000FDF790FF01210920FDF7D8FE23780121C6
:1025C0000820522B01D101F09DF8FDF7CFFE092024
:1025D0000021FDF7CBFE0020FDF77CFF0F20FDF76B
:1025E00079FF01210920FDF7C1FE23780121082090
:1025F000522B01D101F07EF8FDF7B8FE0920002131
:10260000FDF7B4FE0020FDF765FF0620FDF762FF31
:1026100001210920FDF7AAFE237801210820522B71
:1026200001D101F05FF8FDF7A1FE09200021FDF7BF
:102630009DFE0020FDF74EFF3A20FDF74BFF0121E4
:102640000920FDF793FE237801210820522B01D1A8
:1026500001F040F8FDF78AFE09200021FDF786FE13
:102660000020FDF737FF5620FDF734FF0121092038
:10267000FDF77CFE237801210820522B01D101F0C7
:1026800021F8FDF773FE09200021FDF76FFE002001
:10269000FDF720FF4D20FDF71DFF01210920FDF76B
:1026A00065FE237801210820522B01D101F002F8A8
:1026B000FDF75CFE09200021FDF758FE0020FDF724
:1026C00009FF0320FDF706FF01210920FDF74EFE5B
:1026D000237801210820522B01D100F0E3FFFDF700
:1026E00045FE09200021FDF741FE0020FDF7F2FE26
:1026F00004E0C04600000440080400200A20FDF762
:10270000E9FE01210920FDF731FE2378012108208F
:10271000522B01D100F0BEFFFDF728FE0920002159
:10272000FDF724FE0020FDF7D5FE0620FDF7D2FEC2
:1027300001210920FDF71AFE237801210820522BE0
:1027400001D100F09FFFFDF711FE09200021FDF7E8
:102750000DFE0020FDF7BEFE3020FDF7BBFE01217F
:102760000920FDF703FE237801210820522B01D117
:1027700000F080FFFDF7FAFD09200021FDF7F6FDCE
:102780000020FDF7A7FE3E20FDF7A4FE0121092051
:10279000FDF7ECFD237801210820522B01D100F038
:1027A00061FFFDF7E3FD09200021FDF7DFFD0020BB
:1027B000FDF790FE0F20FDF78DFE01210920FDF7AA
:1027C000D5FD00210820FDF7D1FD00210920FDF7EE
:1027D000CDFDE120FDF77EFE01210920FDF7C6FDBC
:1027E000237801210820522B01D100F033FFFDF79F
:1027F000BDFD09200021FDF7B9FD0020FDF76AFEAF
:102800000020FDF767FE01210920FDF7AFFD2378C9
:1028100001210820522B01D100F014FFFDF7A6FD85
:1028200009200021FDF7A2FD0020FDF753FE132033
:10283000FDF750FE01210920FDF798FD23780121C5
:102840000820522B01D100F0F5FEFDF78FFD092085
:102850000021FDF78BFD0020FDF73CFE1820FDF761
:1028600039FE01210920FDF781FD2378012108208F
:10287000522B01D100F0D6FEFDF778FD0920002192
:10288000FDF774FD0020FDF725FE0120FDF722FE77
:1028900001210920FDF76AFD237801210820522B30
:1028A00001D100F0B7FEFDF761FD09200021FDF721
:1028B0005DFD0020FDF70EFE1120FDF70BFE01214E
:1028C0000920FDF753FD237801210820522B01D167
:1028D00000F098FEFDF74AFD09200021FDF746FDB6
:1028E0000020FDF7F7FD0620FDF7F4FD012109208A
:1028F000FDF73CFD237801210820522B01D100F087
:1029000079FEFDF733FD09200021FDF72FFD0020A2
:10291000FDF7E0FD3820FDF7DDFD01210920FDF781
:1029200025FD237801210820522B01D100F05AFE09
:10293000FDF71CFD09200021FDF718FD0020FDF723
:10294000C9FD3420FDF7C6FD01210920FDF70EFD6C
:10295000237801210820522B01D100F03BFEFDF726
:1029600005FD09200021FDF701FD0020FDF7B2FD66
:102970004D20FDF7AFFD01210920FDF7F7FC23787D
:1029800001210820522B01D100F01CFEFDF7EEFCC6
:1029900009200021FDF7EAFC0020FDF79BFD062041
:1029A000FDF798FD01210920FDF7E0FC23780121C6
:1029B0000820522B01D100F0FDFDFDF7D7FC0920C6
:1029C0000021FDF7D3FC0020FDF784FD0D20FDF76D
:1029D00081FD01210920FDF7C9FC23780121082090
:1029E000522B01D100F0DEFDFDF7C0FC09200021D3
:1029F000FDF7BCFC0020FDF76DFD0B20FDF76AFD27
:102A000001210920FDF7B2FC237801210820522B77
:102A100001D100F0BFFDFDF7A9FC09200021FDF761
:102A2000A5FC0020FDF756FD3120FDF753FD0121E7
:102A30000920FDF79BFC237801210820522B01D1AE
:102A400000F0A0FDFDF792FC09200021FDF78EFCAF
:102A50000020FDF73FFD3720FDF73CFD0121092057
:102A6000FDF784FC237801210820522B01D100F0CE
:102A700081FDFDF77BFC09200021FDF777FC00209C
:102A8000FDF728FD0F20FDF725FD01210920FDF7A9
:102A90006DFC00210820FDF769FC00210920FDF7ED
:102AA00065FC3A20FDF716FD01210920FDF75EFCCB
:102AB000237801210820522B01D100F053FDFDF7AE
:102AC00055FC09200021FDF751FC0020FDF702FD17
:102AD0005520FDF7FFFC01210920FDF747FC0021EF
:102AE0000820FDF743FC00210920FDF73FFC1120E1
:102AF000FDF7F0FC09200121FDF738FC7820FDF7F7
:102B00000BFD00210820FDF731FC00210920FDF715
:102B10002DFC2920FDF7DEFC01210920FDF726FC14
:102B20002378522B01D100F0E6FC3220FDF7F4FCB3
:102B300002B070BDFDF71AFC00210920FDF716FC5C
:102B40002AE4FDF713FC00210920FDF70FFC1120FA
:102B5000FDF7C0FC01210920FDF708FC6420FDF70A
:102B6000DBFC00210820FDF701FC00210920FDF716
:102B7000FDFB3620FDF7AEFC01210920FDF7F6FB39
:102B8000237801210820522B01D100F06EFFFDF7C0
:102B9000EDFB09200021FDF7E9FB0020FDF79AFC81
:102BA0000020FDF797FC01210920FDF7DFFB002144
:102BB0000820FDF7DBFB00210920FDF7D7FB3A20B9
:102BC000FDF788FC01210920FDF7D0FB23780121C6
:102BD0000820522B01D100F040FFFDF7C7FB092070
:102BE0000021FDF7C3FB0020FDF774FC5520FDF725
:102BF00071FC01210920FDF7B9FB00210820FDF738
:102C0000B5FB00210920FDF7B1FBB220FDF762FC06
:102C100001210920FDF7AAFB237801210820522B6E
:102C200001D100F012FFFDF7A1FB09200021FDF703
:102C30009DFB0020FDF74EFC0C20FDF74BFC012115
:102C40000920FDF793FB237801210820522B01D1A5
:102C500000F0F3FEFDF78AFB09200021FDF786FB5B
:102C60000020FDF737FC0C20FDF734FC0121092082
:102C7000FDF77CFB237801210820522B01D100F0C5
:102C8000D4FEFDF773FB09200021FDF76FFB002048
:102C9000FDF720FC0020FDF71DFC01210920FDF7B8
:102CA00065FB237801210820522B01D100F0B5FEED
:102CB000FDF75CFB09200021FDF758FB0020FDF724
:102CC00009FC3320FDF706FC01210920FDF74EFB2E
:102CD000237801210820522B01D100F096FEFDF748
:102CE00045FB09200021FDF741FB0020FDF7F2FB29
:102CF0003320FDF7EFFB01210920FDF737FB002111
:102D00000820FDF733FB00210920FDF72FFBB7203A
:102D1000FDF7E0FB01210920FDF728FB23780121C5
:102D20000820522B01D100F068FEFDF71FFB09209F
:102D30000021FDF71BFB0020FDF7CCFB3520FDF744
:102D4000C9FB01210920FDF711FB00210820FDF737
:102D50000DFB00210920FDF709FBBB20FDF7BAFBA5
:102D600001210920FDF702FB237801210820522BC5
:102D700001D100F03AFEFDF7F9FA09200021FDF734
:102D8000F5FA0020FDF7A6FB2820FDF7A3FB0121A3
:102D90000920FDF7EBFA00210820FDF7E7FA0021F2
:102DA0000920FDF7E3FAC020FDF794FB012109207B
:102DB000FDF7DCFA237801210820522B01D100F025
:102DC0000CFEFDF7D3FA09200021FDF7CFFA002011
:102DD000FDF780FB3C20FDF77DFB01210920FDF77D
:102DE000C5FA00210820FDF7C1FA00210920FDF7EE
:102DF000BDFAC220FDF76EFB01210920FDF7B6FAEE
:102E0000237801210820522B01D100F0DEFDFDF7CF
:102E1000ADFA09200021FDF7A9FA0020FDF75AFBC1
:102E20000120FDF757FB01210920FDF79FFA002142
:102E30000820FDF79BFA00210920FDF797FAC3202F
:102E4000FDF748FB01210920FDF790FA23780121C5
:102E50000820522B01D100F0B0FDFDF787FA0920C0
:102E60000021FDF783FA0020FDF734FB0B20FDF76E
:102E700031FB01210920FDF779FA00210820FDF737
:102E800075FA00210920FDF771FAC420FDF722FB35
:102E900001210920FDF76AFA237801210820522B2D
:102EA00001D100F082FDFDF761FA09200021FDF754
:102EB0005DFA0020FDF70EFB2020FDF70BFB012142
:102EC0000920FDF753FA00210820FDF74FFA0021F1
:102ED0000920FDF74BFAC620FDF7FCFA0121092075
:102EE000FDF744FA237801210820522B01D100F08C
:102EF00054FDFDF73BFA09200021FDF737FA0020C9
:102F0000FDF7E8FA0F20FDF7E5FA01210920FDF7AA
:102F10002DFA00210820FDF729FA00210920FDF7EC
:102F200025FAD020FDF7D6FA01210920FDF71EFA77
:102F3000237801210820522B01D100F026FDFDF756
:102F400015FA09200021FDF711FA0020FDF7C2FA59
:102F5000A420FDF7BFFA01210920FDF707FA237825
:102F600001210820522B01D100F007FDFDF7FEF9E9
:102F700009200021FDF7FAF90020FDF7ABFAA120A6
:102F8000FDF7A8FA01210920FDF7F0F9002108203A
:102F9000FDF7ECF900210920FDF7E8F9E020FDF745
:102FA00099FA01210920FDF7E1F923780121082090
:102FB000522B01D100F0D9FCFDF7D8F909200021EE
:102FC000FDF7D4F90020FDF785FAD020FDF782FA4D
:102FD00001210920FDF7CAF9237801210820522B8D
:102FE00001D100F0BAFCFDF7C1F909200021FDF77D
:102FF000BDF90020FDF76EFA0120FDF76BFA012103
:103000000920FDF7B3F9237801210820522B01D1C3
:1030100000F09BFCFDF7AAF909200021FDF7A6F9B5
:103020000020FDF757FA0820FDF754FA0121092086
:10303000FDF79CF9237801210820522B01D100F0E3
:103040007CFCFDF793F909200021FDF78FF90020A2
:10305000FDF740FA0F20FDF73DFA01210920FDF7A9
:1030600085F9237801210820522B01D100F05DFC65
:10307000FDF77CF909200021FDF778F90020FDF724
:1030800029FA1120FDF726FA01210920FDF76EF932
:10309000237801210820522B01D100F03EFCFDF7DE
:1030A00065F909200021FDF761F90020FDF712FA0A
:1030B0002A20FDF70FFA01210920FDF757F923789F
:1030C00001210820522B01D100F01FFCFDF74EF921
:1030D00009200021FDF74AF90020FDF7FBF9362011
:1030E000FDF7F8F901210920FDF740F923780121C6
:1030F0000820522B01D100F000FCFDF737F9092020
:103100000021FDF733F90020FDF7E4F95520FDF724
:10311000E1F901210920FDF729F92378012108208F
:10312000522B00D1E2E3FDF721F909200021FDF740
:103130001DF90020FDF7CEF94420FDF7CBF9012160
:103140000920FDF713F9237801210820522B00D123
:10315000C5E3FDF70BF909200021FDF707F9002071
:10316000FDF7B8F93A20FDF7B5F901210920FDF77F
:10317000FDF8237801210820522B00D1A8E3FDF7A8
:10318000F5F809200021FDF7F1F80020FDF7A2F97C
:103190000B20FDF79FF901210920FDF7E7F82378BF
:1031A00001210820522B00D186E3FDF7DFF809202A
:1031B0000021FDF7DBF80020FDF78CF90620FDF774
:1031C00089F901210920FDF7D1F823780121082090
:1031D000522B00D169E3FDF7C9F809200021FDF762
:1031E000C5F80020FDF776F91120FDF773F90121EC
:1031F0000920FDF7BBF8237801210820522B00D1CC
:103200004CE3FDF7B3F809200021FDF7AFF80020EB
:10321000FDF760F92020FDF75DF901210920FDF798
:10322000A5F800210820FDF7A1F800210920FDF7ED
:103230009DF8E120FDF74EF901210920FDF796F8F0
:10324000237801210820522B00D120E3FDF78EF8CE
:1032500009200021FDF78AF80020FDF73BF9D02076
:10326000FDF738F901210920FDF780F823780121C5
:103270000820522B00D103E3FDF778F80920002144
:10328000FDF774F80020FDF725F90220FDF722F97B
:1032900001210920FDF76AF8237801210820522B2B
:1032A00000D1E6E2FDF762F809200021FDF75EF8A3
:1032B0000020FDF70FF90720FDF70CF90121092087
:1032C000FDF754F8237801210820522B00D1C9E2E0
:1032D000FDF74CF809200021FDF748F80020FDF724
:1032E000F9F80A20FDF7F6F801210920FDF73EF86C
:1032F000237801210820522B00D1ACE2FDF736F8EB
:1033000009200021FDF732F80020FDF7E3F80B203B
:10331000FDF7E0F801210920FDF728F823780121C5
:103320000820522B00D18FE2FDF720F80920002160
:10333000FDF71CF80020FDF7CDF81820FDF7CAF8BE
:1033400001210920FDF712F8237801210820522BD2
:1033500000D172E2FDF70AF809200021FDF706F816
:103360000020FDF7B7F83420FDF7B4F8012109205B
:10337000FCF7FCFF237801210820522B00D155E2F5
:10338000FCF7F4FF09200021FCF7F0FF0020FDF717
:10339000A1F84320FDF79EF801210920FCF7E6FF84
:1033A000237801210820522B00D138E2FCF7DEFF00
:1033B00009200021FCF7DAFF0020FDF78BF84A20F6
:1033C000FDF788F801210920FCF7D0FF23780121BF
:1033D0000820522B00D11BE2FCF7C8FF0920002176
:1033E000FCF7C4FF0020FDF775F82B20FDF772F8FD
:1033F00001210920FCF7BAFF237801210820522B74
:1034000000D1FEE1FCF7B2FF09200021FCF7AEFF7E
:103410000020FDF75FF81B20FDF75CF80121092073
:10342000FCF7A4FF237801210820522B00D1E1E111
:10343000FCF79CFF09200021FCF798FF0020FDF716
:1034400049F81C20FDF746F801210920FCF78EFF02
:10345000237801210820522B00D1C4E1FCF786FF1C
:1034600009200021FCF782FF0020FDF733F822201D
:10347000FDF730F801210920FCF778FF23780121BE
:103480000820522B00D1A7E1FCF770FF0920002192
:10349000FCF76CFF0020FDF71DF81F20FDF71AF860
:1034A00001210920FCF762FF00210820FCF75EFFE4
:1034B00000210920FCF75AFF5520FDF70BF80121E8
:1034C0000920FCF753FF237801210820522B00D15B
:1034D0007BE1FCF74BFF09200021FCF747FF0020B0
:1034E000FCF7F8FFB020FCF7F5FF01210920FCF7FD
:1034F0003DFFFFF706FB6B1EDBB20026062B00D854
:1035000054E1F14B1D71032D00D84BE1A022F021B5
:1035100052005980082000211A80FCF727FF002163
:103520000920FCF723FF3620FCF7D4FF01210920F6
:10353000FCF71CFF237801210820522B00D13DE12C
:10354000FCF714FF09200021FCF710FF0020FCF716
:10355000C1FF3000FCF7BEFF01210920FCF706FF88
:10356000FFF7E3FAFCF702FF00210920FCF7FEFE5B
:10357000FFF7AEFAFCF7FAFE00210920FCF7F6FE91
:10358000FFF780FAFCF7F2FE00210920FCF7EEFEBF
:10359000FFF761FAFCF7EAFE00210920FCF7E6FEDE
:1035A000FFF742FAFCF7E2FE00210920FCF7DEFEFD
:1035B000FFF723FAFCF7DAFE00210920FCF7D6FE1C
:1035C000FFF704FAFCF7D2FE00210920FCF7CEFE3B
:1035D000FFF7E5F9FCF7CAFE00210920FCF7C6FE5B
:1035E000FFF7C6F9FCF7C2FE00210920FCF7BEFE7A
:1035F000FFF7A7F9FCF7BAFE00210920FCF7B6FE99
:10360000FFF788F9FCF7B2FE00210920FCF7AEFEB7
:10361000FFF769F9FCF7AAFE00210920FCF7A6FED6
:10362000FFF74AF9FCF7A2FE00210920FCF79EFEF5
:10363000FFF72BF9FCF79AFE00210920FCF796FE14
:10364000FFF70CF9FCF792FE00210920FCF78EFE33
:10365000FFF7EDF8FCF78AFE00210920FCF786FE53
:10366000FFF7CEF8FCF782FE00210920FCF77EFE72
:10367000FFF7A0F8FCF77AFE00210920FCF776FEA0
:10368000FFF781F8FCF772FE00210920FCF76EFEBF
:10369000FFF762F8FCF76AFE00210920FCF766FEDE
:1036A000FFF743F8FCF762FE00210920FCF75EFEFD
:1036B000FFF724F8FCF75AFE00210920FCF756FE1C
:1036C000FEF7FFFFFCF752FE00210920FCF74EFE3B
:1036D000FEF7E0FFFCF74AFE00210920FCF746FE5A
:1036E000FEF7C1FFFCF742FE00210920FCF73EFE79
:1036F000FEF7A2FFFCF73AFE00210920FCF736FE98
:10370000FEF783FFFCF732FE00210920FCF72EFEB6
:10371000FEF764FFFCF72AFE00210920FCF726FED5
:10372000FEF745FFFCF722FE00210920FCF71EFEF4
:10373000FEF726FFFCF71AFE00210920FCF716FE13
:10374000FEF707FFFCF712FE00210920FCF70EFE32
:10375000FEF7E8FEFCF70AFE00210920FCF706FE52
:10376000FEF7BAFEFCF702FE00210920FCF7FEFD81
:10377000FEF78CFEFCF7FAFD00210920FCF7F6FDB0
:10378000FEF75EFEFCF7F2FD00210920FCF7EEFDDE
:10379000FEF73FFEFCF7EAFD00210920FCF7E6FDFD
:1037A000FEF720FEA021F0224900B2E6474A5B0066
:1037B000D65C454B1D71032DF4D9A7E6FCF7D6FD69
:1037C00000210920FCF7D2FDC3E6FCF7CFFD002164
:1037D0000920FCF7CBFD85E6FCF7C8FD0021092098
:1037E000FCF7C4FD59E6FCF7C1FD00210920FCF7F8
:1037F000BDFD3CE6FCF7BAFD00210920FCF7B6FD53
:103800001FE6FCF7B3FD00210920FCF7AFFD02E63F
:10381000FCF7ACFD00210920FCF7A8FDE5E5FCF76D
:10382000A5FD00210920FCF7A1FDC8E5FCF79EFDE0
:1038300000210920FCF79AFDABE5FCF797FD00217C
:103840000920FCF793FD8EE5FCF790FD002109208F
:10385000FCF78CFD71E5FCF789FD00210920FCF7E0
:1038600085FD54E5FCF782FD00210920FCF77EFD73
:1038700037E5FCF77BFD00210920FCF777FD1AE511
:10388000FCF774FD00210920FCF770FDFDE4FCF756
:103890006DFD00210920FCF769FDE0E4FCF766FD01
:1038A00000210920FCF762FDB4E4FCF75FFD002174
:1038B0000920FCF75BFD97E4FCF758FD0021092087
:1038C000FCF754FD7AE4C046FCC50220D8ED001098
:1038D000FCF74CFD00210920FCF748FD58E4FCF7FB
:1038E00045FD00210920FCF741FD3BE4FCF73EFDCE
:1038F00000210920FCF73AFD1EE4FCF737FD00210A
:103900000920FCF733FDFFF701FCFCF72FFD002138
:103910000920FCF72BFDFFF7E2FBFCF727FD002158
:103920000920FCF723FDFFF7C3FBFCF71FFD002177
:103930000920FCF71BFDFFF7A4FBFCF717FD002196
:103940000920FCF713FDFFF785FBFCF70FFD0021B5
:103950000920FCF70BFDFFF766FBFCF707FD0021D4
:103960000920FCF703FDFFF747FBFCF7FFFC0021F4
:103970000920FCF7FBFCFFF728FBFCF7F7FC002114
:103980000920FCF7F3FCFFF7FAFAFCF7EFFC002143
:103990000920FCF7EBFCFFF7DBFAFCF7E7FC002162
:1039A0000920FCF7E3FCFFF7ADFAFCF7DFFC002190
:1039B0000920FCF7DBFCFFF77FFAFCF7D7FC0021BE
:1039C0000920FCF7D3FCFFF751FAFCF7CFFC0021EC
:1039D0000920FCF7CBFCFFF723FAFCF7C7FC00211A
:1039E0000920FCF7C3FCFFF7F5F9FCF7BFFC002149
:1039F0000920FCF7BBFCFFF7C7F9FCF7B7FC002177
:103A00000920FCF7B3FCFFF799F9FCF7AFFC0021A4
:103A10000920FCF7ABFCFFF76BF9FCF7A7FC0021D2
:103A20000920FCF7A3FCFFF74CF9FCF79FFC0021F1
:103A30000920FCF79BFCFFF72DF9FCF797FC002110
:103A40000920FCF793FCFFF70EF9FCF78FFC00212F
:103A50000920FCF78BFCFFF7EFF8FCF787FC00214F
:103A60000920FCF783FCFFF7C1F8FCF77FFC00217D
:103A70000920FCF77BFCFFF793F8C046F8B5CE466B
:103A80004746804680B508200F0000211C00150025
:103A9000FCF76CFC00210920FCF768FC2A20FCF7ED
:103AA00019FD01210920FCF761FC43468A4E1B0ADF
:103AB0009946337801210820522B00D1D4E0FCF73D
:103AC00055FC09200021FCF751FC0020FCF702FD09
:103AD0004B46D8B2FCF7FEFC01210920FCF746FC5E
:103AE000337801210820522B00D1EEE0FCF73EFC98
:103AF00009200021FCF73AFC0020FCF7EBFC4346D0
:103B0000D8B2FCF7E7FC013D01210920FCF72EFCAF
:103B10002B129846337801210820522B00D1CDE09A
:103B2000FCF724FC09200021FCF720FC4346180E7A
:103B3000FCF7D0FC4346D8B2FCF7CCFC01210920AD
:103B4000FCF714FC337801210820ADB2522B00D1D0
:103B5000ADE0FCF70BFC09200021FCF707FC00207E
:103B6000FCF7B8FCE8B2FCF7B5FC01210920FCF732
:103B7000FDFB00210820FCF7F9FB00210920FCF7E0
:103B8000F5FB2B20FCF7A6FC01210920FCF7EEFB3E
:103B90003378012108203D0A522B00D180E0FCF748
:103BA000E5FB09200021FCF7E1FB0020FCF792FC7B
:103BB000E8B2FCF78FFC01210920FCF7D7FB337832
:103BC00001210820522B64D0FCF7D0FB09200021F2
:103BD000FCF7CCFB0020FCF77DFCF8B2FCF77AFC8C
:103BE00001210920FCF7C2FB3378013C01210820A8
:103BF0002512522B46D0FCF7B9FB09200021FCF717
:103C0000B5FB280EFCF766FCE8B2FCF763FC01216B
:103C10000920FCF7ABFB337801210820A4B2522B1A
:103C200029D0FCF7A3FB09200021FCF79FFB002013
:103C3000FCF750FCE0B2FCF74DFC01210920FCF739
:103C400095FB00210820FCF791FB00210920FCF7DF
:103C50008DFB2C20FCF73EFC01210920FCF786FBA4
:103C6000C0BCB946B046F8BDFCF780FB0021092076
:103C7000FCF77CFB2CE7FCF779FB00210920FCF723
:103C800075FBD7E7FCF772FB00210920FCF76EFB00
:103C9000BAE7FCF76BFB00210920FCF767FB9CE708
:103CA000FCF764FB00210920FCF760FB80E7FCF7D0
:103CB0005DFB00210920FCF759FB53E7FCF756FB9D
:103CC00000210920FCF752FB34E7FCF74FFB0021F1
:103CD0000920FCF74BFB12E708040020F8B50500AB
:103CE0000C0008200021FCF741FB00210920FCF713
:103CF0003DFB2A20FCF7EEFB01210920FCF736FBF7
:103D0000864E0121337808202F0A522B00D1CCE0B7
:103D1000FCF72CFB09200021FCF728FB0020FCF716
:103D2000D9FBF8B2FCF7D6FB01210920FCF71EFBFA
:103D3000337801210820522B00D1E7E0FCF716FB75
:103D400009200021FCF712FB0020FCF7C3FBE8B2BE
:103D5000FCF7C0FB01210920FCF708FB3378013D8B
:103D6000012108202F12522B00D1C8E0FCF7FEFAE7
:103D700009200021FCF7FAFA380EFCF7ABFBF8B289
:103D8000FCF7A8FB01210920FCF7F0FA33780121A8
:103D90000820ADB2522B00D1AAE0FCF7E7FA0920C7
:103DA0000021FCF7E3FA0020FCF794FBE8B2FCF7F3
:103DB00091FB01210920FCF7D9FA00210820FCF72A
:103DC000D5FA00210920FCF7D1FA2B20FCF782FB61
:103DD00001210920FCF7CAFA337801210820250ABD
:103DE000522B00D17DE0FCF7C1FA09200021FCF73D
:103DF000BDFA0020FCF76EFBE8B2FCF76BFB01217B
:103E00000920FCF7B3FA337801210820522B61D046
:103E1000FCF7ACFA09200021FCF7A8FA0020FCF717
:103E200059FBE0B2FCF756FB01210920FCF79EFA92
:103E30003378013C012108202512522B43D0FCF796
:103E400095FA09200021FCF791FA280EFCF742FBB5
:103E5000E8B2FCF73FFB01210920FCF787FA337831
:103E600001210820A4B2522B26D0FCF77FFA0920AA
:103E70000021FCF77BFA0020FCF72CFBE0B2FCF7FA
:103E800029FB01210920FCF771FA00210820FCF729
:103E90006DFA00210920FCF769FA2C20FCF71AFBC7
:103EA00001210920FCF762FAF8BDFCF75FFA002156
:103EB0000920FCF75BFA34E7FCF758FA00210920E7
:103EC000FCF754FADAE7FCF751FA00210920FCF775
:103ED0004DFABDE7FCF74AFA00210920FCF746FA43
:103EE0009FE7FCF743FA00210920FCF73FFA83E73C
:103EF000FCF73CFA00210920FCF738FA56E7FCF7FA
:103F000035FA00210920FCF731FA38E7FCF72EFAE0
:103F100000210920FCF72AFA19E7C046080400200E
:103F2000104B10B514001A88824202D35B888B4272
:103F300000D210BD0B000200FFF7A0FD01210820F8
:103F4000FCF714FA00210920FCF710FA200AFCF70C
:103F5000C1FAE0B2FCF7BEFA01210920FCF706FA2B
:103F6000E7E7C046FCC50220F0B5C64600B51C0018
:103F700006AB80460F0015001E88824201D98C4294
:103F800002D880BCB846F0BD2300FFF777FD43465A
:103F90000121ED1A0820E41BFCF7E8F9ADB200217D
:103FA0000920A4B26C43FCF7E1F90025370AF6B208
:103FB0003800FCF78FFA01353000FCF78BFAAC4281
:103FC000F6D101210920FCF7D1F9DAE7F8B5144B55
:103FD00004001D88002D02D05E88002E00D1F8BD9F
:103FE00033002A0000210020FFF748FD01210820AE
:103FF000FCF7BCF9002109206E43FCF7B7F9002556
:10400000270AE4B23800FCF765FA01352000FCF716
:1040100061FAAE42F6D101210920FCF7A7F9DEE7EB
:10402000FCC50220F0B54E464546DE4657461C000C
:10403000E0B5072687B0019310AB0391198811AB47
:104040008846198804900291A188203A0E40731E78
:104050009E41CB08F3181600E08846435E43236870
:104060009C4605936644002861D0039B013B9BB2AC
:104070009A46324B9946002959D0049B0025581E78
:10408000534601339BB29B4680B21CE08023234100
:10409000471C134229D04B461A88BBB29A4209D317
:1040A0004B465B885B4505D35146029AFFF738FFC4
:1040B000019B9988073C63425C410135ADB23619DA
:1040C000B8B28D4221D207241D4B32782C4098453E
:1040D000DCD180232341471C1342EBD0174B1A88B5
:1040E0009446BAB29445DCD2E4E74B461A88BBB298
:1040F0009A42DFD34B465B885B45DBD35146424651
:10410000FFF70EFF019B9988D4E74B0700D00136DB
:10411000019B0398DA8853461B1A02339BB29A42DA
:1041200005D9534601339BB29A460029A5D107B061
:10413000F0BCBB46B246A946A046F0BDFCC5022075
:10414000FFFF0000F0B557464E464546DE46E0B557
:104150000F001E00844614008FB00B9318AB1D880F
:1041600019ABA8460A921D78121A1AAB1B78029155
:10417000D11706955518F21B9946D3174D40D11803
:1041800059400891A4458941D3179A1A5A4005927B
:10419000564A01905648114084460A000221624462
:1041A000BC4608000992B445924108991040421E4D
:1041B0000C926A1A00214B468A46079504925D00CC
:1041C00052009BB2013D03920D93534601335BB203
:1041D0009A46069B012B06D10321504604F00EFFA0
:1041E00049B200294FD0434B019A1B88934223D3F5
:1041F000404B029A5B8893421ED3002D1CDD0023A6
:10420000019A99460D9BD21A9346029AD71ABFB2C9
:104210004E4600245E44B6B2E119013442463000F5
:1042200089B2A4B2FFF77CFEA542F5DC4B46013310
:104230009BB299469D42EBDC059B039A934211DCAD
:104240000A9A019B9A424AD0049A0899521A0999EB
:1042500004928C4663449BB201935300079A0393E4
:104260009A42B2DB0B9A029B9A4238D00799049A81
:104270008C460C9962448C4663449BB20293530073
:1042800004920393A1E71B4B019A1B88934223D30B
:10429000184B029A5B8893421ED3002D1CDD00232D
:1042A000019A99460D9BD21A9246029AD71ABFB22A
:1042B0004E4600245644B6B2E119013400223000C3
:1042C00089B2A4B2FFF72CFEAC42F5DB4B460133BA
:1042D0009BB29946AB42EBDB00239A46ACE70FB0AA
:1042E000F0BCBB46B246A946A046F0BD0200FFFFA7
:1042F000FFFF0000FCC50220F0B54F464646D646FB
:10430000C0B584B01F000CAB1B88140099460DABE0
:104310001B7805009A462D4B0E001A88984690424D
:1043200025D85B88994222D8944210D853460293EC
:10433000002301934B46220000930B00FFF702FF7E
:1043400043461A88954212D85B889E420FD89F42F6
:104350000DD853460293002301934B462A00009345
:1043600031003B002800FFF7EDFE43461A889442D7
:1043700026D843465B889F4222D89E4212D8534695
:104380000293002301934B4622000093390033002F
:104390002000FFF7D7FE43461A88944210D85B8866
:1043A000BB420DD395420BD8534602930023019391
:1043B0004B462A00009339003B002000FFF7C2FE65
:1043C00004B0E0BCBA46B146A846F0BDFCC5022028
:1043D000F0B583B008AC278809AC26780AAC2478FD
:1043E000A4460C4C258885420BD364888C4208D3A4
:1043F000954206D39C4204D3002E04D00097FFF7C9
:10440000B3FD03B0F0BD644600970194FFF774FF5D
:10441000F7E7C046FCC50220F0B557464E46DE46DB
:104420004546E0B585B01F000EAB1B888A46039356
:104430000FAB1B8881469B461F4B16001988984678
:10444000814231D3588850452ED31278002A2BD080
:10445000BB8855469C464C461DE0FB88EB188342C2
:1044600001DD55464C468C420CD885420AD85B4645
:104470000193039B2900009320003B00FFF7D2FD2E
:10448000BB889C46727864440136A4B2002A0BD0E3
:104490004346198858886346E3188B42DDDDFB8864
:1044A0004C46ED18ADB2D9E705B0F0BCBB46B246FC
:1044B000A946A046F0BDC046FCC50220F0B5C646E0
:1044C00000B5070084B03C493C4808F001FC0E23CD
:1044D00001AD6B442E00984600211020FBF746FFEB
:1044E0003800FBF7F7FFC820FCF71AF80020FCF7AC
:1044F00003F884B20020FBF7FFFF2402A4B20443B8
:10450000A4B201211020E408FBF730FF3480C8205A
:104510000236FCF705F84645DED12949274808F060
:10452000D7FB2B886A88934201D92A806B802B881D
:10453000AA88934201D92A80AB802B88EA889342CB
:1045400001D92A80EB802B882A89934231D86B8845
:10455000AA88934201D96A80AB806B88EA8893422B
:1045600001D96A80EB806B882A8993421ED8AB8878
:10457000EA88934201D9AA80EB80AB882A899342CA
:1045800001D9AA802B812B89EA889A4200D9EB8035
:10459000AB8868880321C018EB88C01880B204F08B
:1045A00055FD80B204B080BCB846F0BD6A802B8156
:1045B000DDE72B81CBE7C046C0C62D0000000440DC
:1045C00080F0FA02F8B5D020FFF778FF04009020C1
:1045D000FFF774FF06000A20FBF7A2FFD020FFF7C9
:1045E0006DFF05009020FFF769FF07000A20FBF729
:1045F00097FFAC420CD2230031330020AB4206DBE4
:10460000BE420DD2330031330020BB4210DAF8BD78
:104610002B003133A342F3DA0020AC42F7D1EAE7B2
:104620003B003133B34203DA0020BE42EFD1E9E769
:10463000044B6419F61970106410D8809C80012016
:10464000E5E7C04608C6022000B52A4B83B01B78B8
:10465000522B1BD0284B1A7E062A0CD0002A21D1BF
:10466000264A1A61264A5A61152252425A81123A42
:104670009A8103B000BD234A1A61234A5A618122FC
:1046800092005A81162252429A81F2E71A4B1F4A2F
:104690001A611F4A5A616422FF325A81783AFF3AFE
:1046A0009A81E6E7032A0BD0052A13D1194A1A6129
:1046B000194A5A61194A5A81142252429A81D8E7FA
:1046C000174A1A61174A5A61162252425A81103A01
:1046D0009A81CEE70020FFF779FCF8231B020193B3
:1046E000114B3C2100930020104B114AFFF794FE20
:1046F000BFE7C0460804002008C6022010B3B73D3B
:10470000EA060A3E239F07BE5950B83D6DABB9BDBE
:10471000B6118F3D831808BE7826B43D050200000F
:104720005B25B83DD05F083EFFFF0000F803002086
:10473000E8ED001070B53A4C23885A1E062A38D886
:1047400001220025374B3848384902701E78384A14
:104750000D701570002E1ED000250D700121057002
:1047600011701D700720FDF75BFD0021314A00200C
:10477000FCF712F80420FDF753FD0E23238070BDD3
:10478000284B1A78002A47D10121274B1970274B53
:104790001A70274B1A700720FDF742FD0021264AA8
:1047A0000020FBF7F9FF0420FDF73AFD00232380EA
:1047B000E5E70E2BE4D01A00083A052A19D80122A1
:1047C0000025184B194918480A701E78184A0570B8
:1047D0001570002EC0D10720FDF722FD0021174AD9
:1047E0000020FBF7D9FF0420FDF71AFD07232380E3
:1047F000C5E7002BE3D00B4B1A78002A0CD10A4BEB
:104800001B78002BC7D1094B1B78002BE3D1084B39
:104810001B78002BB3D0A5E703480449044A9BE763
:104820000E04002073C602200C0400206EC6022075
:104830006FC6022044EE00102CEE001038EE00107F
:10484000F0B5C64600B584B00E280ED87E4B800069
:104850001B589F460720FDF7E3FC7C4A00210020FF
:10486000FBF79AFF0420FDF7DBFC04B080BCB846E0
:10487000F0BD0720FDF7D4FC0021754A0020FBF7AE
:104880008BFF0420FDF7CCFC724B1C780720FDF752
:10489000C7FC2200A221FA20FBF7F0FE0420FDF75E
:1048A000BFFC00248C206C4D6C4F6D4E3A004121B2
:1048B0002B00400001940096FFF7AEFD694B0720E6
:1048C0001B789846FDF7ACFC42468821FA20FBF79E
:1048D000D5FE0420FDF7A4FC8C202B003A005A21C1
:1048E000019400964000FFF797FD2B0075215E4A6A
:1048F00001940096E620FFF78FFD012397229B216C
:10490000029301935200DB33F5200094FFF760FD22
:104910000720FDF785FC802008222B214000FBF7B3
:1049200071FE0420FDF77CFC9FE70720FDF778FC73
:104930004E4A93E70720FDF773FC00214C4A002004
:10494000FBF72AFF0420FDF76BFC4A4B9DE707208D
:10495000FDF766FC484A81E70720FDF761FC00216E
:10496000464A0020FBF718FF0420FDF759FC394B9D
:1049700007201C789846FDF753FC2200AE21FA2050
:10498000FBF77CFE0420FDF74BFC00248C20324D0D
:10499000324F334E3A0034212B00400001940096F0
:1049A000FFF73AFD43461B7807209846FDF738FC91
:1049B00042469621FA20FBF761FE0420FDF730FC09
:1049C0008C203A004C212B00400001940096FFF708
:1049D00023FD244B07201B789846FDF721FC424617
:1049E0007C21FA20FBF74AFE0420FDF719FC8C20FD
:1049F0002B003A006621019400964000FFF70CFD61
:104A00002B007E21184A0194009673E70720FDF7DA
:104A100007FC1B4A22E70720FDF702FC194A1DE7A5
:104A20000720FDF7FDFB184A18E70720FDF7F8FB04
:104A3000164A13E70720FDF7F3FB154A0EE7072098
:104A4000FDF7EEFB134A09E7F4EE0010E8EE001064
:104A500050EE001009040020000400205CEE00105D
:104A6000FFFF00000A04002060EE001068EE001056
:104A700074EE00100B04002080EE00108CEE00108D
:104A800098EE0010A4EE0010B0EE0010BCEE001086
:104A9000CCEE0010DCEE001070B50D001600040026
:104AA0000720FDF7BDFB32002900E0B2FBF774FEE2
:104AB0000420FDF7B5FB70BD30B5040085B00128BA
:104AC00016D0032804D0052800D191E005B030BDF0
:104AD000D34B1A88110011393E294ED8598897397D
:104AE000472900D902E1CF4B1C78002CEED1AAE176
:104AF000CB4B1A88110011393E2929D911005E3992
:104B00003E2900D98FE05B88973B472BDED8C64B08
:104B10001D78002DDAD102221A70C44B2D329B2150
:104B2000FF32029001900093F520DC23FFF750FC48
:104B30000720FDF775FB802004222B214000FBF7A6
:104B400061FD0420FDF76CFB0294019400953DE0AB
:104B500059889739472900D97DE0B34B1D78002D3E
:104B600000D19EE1FA208000FBF7D6FCB04BB148A3
:104B70001A685B6805F056FBA8E711005E393E290C
:104B800078D85B88973B472BA0D8A64B1C78002C85
:104B90009CD1022201251A70A44B2D329B21FF3299
:104BA000F52000930295DC230195FFF711FC072007
:104BB000FDF736FB802004222B214000FBF722FD6D
:104BC0000420FDF72DFB029501950094DC239A2229
:104BD0009B216120FFF7FCFB0720FDF721FB06224C
:104BE0002B216B20FBF70EFD0420FDF719FB6DE771
:104BF0008B4B1A88110011393E2900D9D4E059880D
:104C00009739472900D819E1F13A3F2A00D95DE7E1
:104C10005B88973B472B00D958E7874B1A78002AC7
:104C200000D153E770E01100AB393A2913D85B8803
:104C3000973B472B00D949E77B4B1D78002D00D0CF
:104C400044E703221A70794B2C3200930290DC2344
:104C50000190FF3225E0F13A3F2A00D936E75B8820
:104C6000973B472B00D931E76F4B1A78002A00D1C8
:104C70002CE749E01100AB393A2937D85B88973BDC
:104C8000472B00D922E7674B1D78002D00D01DE788
:104C90001870664B012497220093DC230294019440
:104CA00052009B21F520FFF793FB0720FDF7B8FA90
:104CB000802004222B214000FBF7A4FC0420FDF7F8
:104CC000AFFA029401940095E522DC239B21AC20ED
:104CD000FFF77EFB0720FDF7A3FA07222B21B62062
:104CE000FBF790FC0420FDF79BFAEFE6F13A3F2A30
:104CF00000D9EBE65B88973B472B00D9E6E6494BAA
:104D00001A78002A00D1E1E6002201241A700092EC
:104D10002F32DC239B21FF32F52002940194FFF710
:104D200057FB0720FDF77CFA802008222B213F4DFE
:104D30004000FBF767FC0420FDF772FADC234D22EC
:104D40009B211420029401940095FFF741FB07205A
:104D5000FDF766FA01222B211E20FBF753FC0420ED
:104D6000FDF75EFADC239A229B21612002940194D4
:104D70000095FFF72DFB0720FDF752FA02222B21A9
:104D80006B20FBF73FFC0420FDF74AFAE522DC2309
:104D90009B21AC20029401940095FFF719FB07209A
:104DA000FDF73EFA032299E711005E393E290AD841
:104DB0005B88973B472B00D988E61F4B1C78002C5B
:104DC00000D083E6E5E61100AB393A2900D91BE7AC
:104DD0005B88973B472B00D978E6174B1C78002C53
:104DE00000D073E6032201251A70104B2C329B2150
:104DF000FF32F52000930295DC230195FFF7E8FAD6
:104E00000720FDF70DFA802004222B214000FBF73C
:104E1000F9FB0420FDF704FA02950195009453E78D
:104E200024C602206AC6022071C60220FFFF0000CD
:104E30002805002030EF001070C602202F4B1C7890
:104E4000002C00D042E6012597221D702C4B9B219F
:104E500000935200DC23F52002950195FFF7B8FA84
:104E60000720FDF7DDF9802004222B214000FBF70D
:104E7000C9FB0420FDF7D4F9DC234D229B2114202B
:104E8000029501950094FFF7A3FA0720FDF7C8F9F2
:104E900005222B211E20FBF7B5FB0420FDF7C0F9EE
:104EA00014E697221870164B9B21029001900093F4
:104EB0005200DC23F520FFF78BFA0720FDF7B0F94D
:104EC000802004222B214000FBF79CFB0420FDF7EF
:104ED000A7F9DC234D229B21142002940194009514
:104EE000FFF776FA0720FDF79BF905222B211E20FC
:104EF000FBF788FB0420FDF793F933E670C6022028
:104F0000FFFF0000F8B5CE464746112080B5FBF7FD
:104F100037FA00286CD1FFF755FB002823D1BE4F8C
:104F2000BE4E3B8835889846BD4C237A7F2B03D8EC
:104F3000C023237263682360454563D273887A88EF
:104F40009A425FD96A1E302A00D990E0002B00D126
:104F5000BAE0312B00D98AE0B24A904612880E2A74
:104F600000D987E029E1B04BAD4C1B78522B54D0CF
:104F7000237E032B00D125E1002B4BD1A64F3B888C
:104F80001800984604F0C6FE051CA08804F0C2FE76
:104F9000216904F0B8FE011C281C04F09AFE051CCF
:104FA0000A23E05E04F0B6FE011C281C04F091FE0A
:104FB00004F0D2FE994E85B23580788804F0AAFEBE
:104FC0008146E08804F0A6FE616904F09CFE011CA5
:104FD000484604F07EFE81460C23E05E04F09AFE13
:104FE000011C484604F075FE04F0B6FE70809CE794
:104FF00008218B4B5956187A002907DB00221A60CA
:10500000013A5A60C0BCB946B046F8BD7F220240A2
:105010001A72F7E7052B00D010E1E08804F07AFE61
:10502000216904F070FE051C0A23E05E04F072FEA4
:10503000011C281C04F050FE04F08EFE774E85B251
:105040003580A08804F066FE616904F05CFE071CF0
:105050000C23E05E04F05EFE011C381C04F03CFEF4
:1050600004F07AFE6C4F70803B8898465DE76D4A8D
:105070009046128828000B3881B2894655290FD8EE
:10508000190035394E2900D910E1002A08D1012331
:10509000424601201380FFF7D3FB43461A8838E0CD
:1050A0002900733989B2572918D81C00343C4F2C79
:1050B00014D8002A12D10323424603201380FFF79D
:1050C000BFFB43461A8824E0280029000B3882B22F
:1050D0009146544A73399046128889B22C00723C2A
:1050E000A4B2582C1BD81F00963F4F2F17D8002A68
:1050F00015D14246042307201380FDF791F84B4A4F
:1051000000210020FBF748FB0420FDF789F8434607
:105110001A88D0B2FFF7D0FC454B336072E72F00FE
:10512000DB3FBFB2572F12D83420404284469C4404
:1051300060464F2800D9A6E0002A08D10523424640
:1051400005201380FFF77CFB43461A88E1E7133DF7
:10515000FF3DADB22D2D4BD94846552807D8180034
:1051600035384E2800D9C1E0072A00D1CEE05729B2
:1051700006D8190034394F2902D8072A00D1D5E0C2
:10518000582C06D8190096394F2902D8072A00D181
:10519000D4E0572F07D8190034394F2900D995E0AA
:1051A000072A00D1BAE02D2DB3D8013B262BB0D869
:1051B0000E2AAED10D2342461380FFF7BBFA4346B9
:1051C0001A88A6E7A08804F0A5FD216904F09BFDDC
:1051D000051C0A23E05E04F09DFD011C281C04F060
:1051E0007BFD04F0B9FD0D4E85B23580E08829E7DE
:1051F000002BC5D0272BAFD8002A01D0072AABD16E
:1052000001220C4B0C481A7004F06AFFFFF792FA67
:1052100043461A887DE7C046FCC5022024C602200A
:1052200008C602200E0400200804002080EE0010B2
:10523000A000010073C6022040EF0010434F3B88DE
:105240001800984604F066FD051CE08804F062FD35
:10525000216904F058FD011C281C04F03AFD051CCE
:105260000A23E05E04F056FD011C281C04F031FD09
:1052700004F072FD364E85B23580788804F04AFD20
:105280008146A0889EE69720404284469C44604622
:105290004E2800D95BE7002A00D058E74246062393
:1052A00007201380FCF7BCFF2A4A29E7190096392A
:1052B0004F2900D9F4E6002A00D0F1E64246022345
:1052C00007201380FCF7ACFF234A19E71900973930
:1052D0004E2900D967E7072A00D064E742460D232C
:1052E00007201380FCF79CFF1C4A09E7180096383A
:1052F0004F2800D93BE7072A00D038E74246092368
:1053000007201380FCF78CFF154AF9E64246082374
:1053100007201380FCF784FF124AF1E642460C2373
:1053200007201380FCF77CFF0F4AE9E642460A2378
:1053300007201380FCF774FF0C4AE1E642460B237A
:1053400007201380FCF76CFF094AD9E6FCC5022050
:1053500024C6022098EE001068EE0010E8EE00105F
:10536000B0EE0010A4EE0010DCEE0010BCEE001059
:10537000CCEE001070B5050001211020FAF7F6FF01
:10538000054CD0202576FFF799F8A0809020FFF7F4
:1053900095F8E08070BDC04608C6022070B50500D3
:1053A0000E0016200121FAF7E1FFFF20FBF792F82B
:1053B00000211620FAF7DAFF1B4C02E0013C002C1A
:1053C00025D0FF20FBF786F8FF28F7D1402028439F
:1053D000FBF780F80020FBF77DF80020FBF77AF858
:1053E0000020FBF777F80020FBF774F83000FBF79C
:1053F00071F80C2D14D0202403E0013CE4B2002C01
:1054000004D0FF20FBF766F80306F6D470BD012137
:105410001620FAF7ABFFFF20FBF75CF8FF20F5E75B
:10542000FF20FBF757F8E6E7FFFFFF0010B5FBF79B
:1054300051F810BD7047C0467047C04610B5074CC4
:1054400002E0013C002C06D0FF20FBF743F8FF28C8
:10545000F7D1002010BD0120FCE7C046FFFFFF0090
:10546000F8B506000D00162001211700FAF77EFF9F
:10547000FF20FBF72FF800211620FAF777FF1D4CCD
:1054800002E0013C002C27D0FF20FBF723F8FF2887
:10549000F7D140203043FBF71DF8280EFBF71AF830
:1054A000280CC0B2FBF716F8280AC0B2FBF712F8B6
:1054B000E8B2FBF70FF83800FBF70CF80C2E14D00D
:1054C000202403E0013CE4B2002C04D0FF20FBF7D1
:1054D00001F80306F6D4F8BD01211620FAF746FFBD
:1054E000FF20FAF7F7FFFF20F5E7FF20FAF7F2FFBA
:1054F000E6E7C046FFFFFF0070B501210500092067
:10550000FFF74CFF061E09D001211620FAF72EFFE7
:10551000FF20FAF7DFFF0126300070BD114C03E0D9
:10552000002CF1D0013CA4B2FF20FAF7D3FFFE28F3
:10553000F6D1002CE8D02C001034FF20FAF7CAFF77
:1055400028700135AC42F8D1FF20FAF7C3FFFF20E5
:10555000FAF7C0FF01211620FAF708FFFF20FAF73B
:10556000B9FFD9E7FFFF000000B585B06846FFF737
:10557000C3FF00282ED16B463F221B789343402B5C
:105580001FD06B46187ADB7980099B00C0186B46E8
:10559000C0229B7912019B0213400130C0186B4658
:1055A0005A790F2313406A46927AD2099B186A46A9
:1055B000517A062249000A409B18073B984005B0E3
:1055C00000BD6B46187A5B7A00020133C01880B2C6
:1055D0008002F4E70020F2E7F0B5CE46474680B5FA
:1055E0000121162083B0FAF7C1FE0A24013CFF20F6
:1055F000A4B2FAF76FFF002CF8D1152503E0013DA6
:10560000ADB2002D2DD095210020FFF7C7FE04007C
:1056100006000128F3D1D52100235B4F8722082003
:1056200049003B70FFF71CFF012831D101AB9846C0
:105630001C0002AEFF20FAF74DFF20700134B44287
:10564000F8D16B469B79012B54D001211620FAF733
:105650008DFEFF20FAF73EFF3C7863425C41E4B2E6
:105660000EE0494F3D7001211620FAF77FFEFF2022
:10567000FAF730FF3B78002B08D1002C00D1AA2488
:10568000200003B0C0BCB946B046F0BD0024F7E727
:1056900001213720FFF782FE01212920FFF77EFE3E
:1056A000012813D93E70394D394E03E0013DADB2AA
:1056B000B54244D001210120FFF770FE041EF5D150
:1056C0000024002D3BD100233B70CCE702232F4D5B
:1056D0002F4E3B7003E0013DADB2B5422FD001210A
:1056E0003720FFF75BFE01212920FFF757FE041E3C
:1056F000F1D1E5E76B46DB79AA2BA6D1244B234DEC
:10570000994603E0013DADB24D4522D0012137203D
:10571000FFF744FE802101222920C905FFF7A0FEE2
:10572000041EEFD1002D14D101211620FAF71EFE20
:10573000FF20FAF7CFFE3B78002BA0D0A0E7802116
:10574000012210208900FFF78BFE002800D18AE794
:10575000B9E701213A20FFF721FE002800D082E7B7
:10576000FF20FAF7B7FE4346187001239C46E04439
:10577000B045F5D16B461B795B0602D506233B701D
:1057800071E704233B706EE764C60220FEFF000051
:10579000FFFF0000F8B5344B06001B781700062BFE
:1057A00000D049020122012F39D01220FFF758FE04
:1057B00080239B009C4666442C4B2D4CF51803E03F
:1057C000002C1ED0013CA4B2FF20FAF783FEFE2875
:1057D000F6D1002C15D0FF20FAF77CFE2870013599
:1057E000B542F8D1FF20FAF775FEFF20FAF772FEF6
:1057F0008023013F9B00FFB2EE18002FDCD1002573
:1058000000E0012501210C20FFF7C8FD0121162031
:10581000FAF7ACFDFF20FAF75DFE2800F8BD112075
:10582000FFF71EFE051EF1D1114C03E0002C19D02C
:10583000013CA4B2FF20FAF74DFEFE28F6D1002C61
:1058400010D080239B00F418FF20FAF743FE30703D
:105850000136B442F8D1FF20FAF73CFEFF20FAF7F8
:1058600039FED3E70125D1E764C6022000FEFFFF21
:10587000FFFF0000F8B54746CE4680B5504B060006
:105880001B780C001700062B55D04C02012A66D05D
:10589000012B52D1012221001920FFF7E1FD8046A2
:1058A00000283CD180239B00F518E23BFF3B994642
:1058B000444C02E0013C002C24D0FF20FAF70AFE01
:1058C000FF28F7D1FC20FAF705FE340020780134D8
:1058D000FAF700FEA542F9D1FF20FAF7FBFDFF2001
:1058E000FAF7F8FDFF20FAF7F5FD4B4618400528BA
:1058F00008D180239B009C46013FFFB2664465446B
:10590000002FD5D12F4C02E0013C002C55D0FF20B8
:10591000FAF7E0FDFF28F7D1FD20FAF7DBFD0121C2
:105920001620FAF723FDFF20FAF7D4FD4046C0BC4D
:10593000B946B046F8BD012A11D001213720FFF742
:105940002DFD012239001720FFF78AFD01222100D9
:105950001920FFF785FD80460028E0D1A2E701224B
:1059600021001820FFF77CFD80460028D7D1154C78
:1059700002E0013C002C20D0FF20FAF7ABFDFF280D
:10598000F7D1FE20FAF7A6FD80239B00F4183078AB
:105990000136FAF79FFDA642F9D1FF20FAF79AFDEA
:1059A000FF20FAF797FDFF20FAF794FD1F2303402D
:1059B000052BB4D002239846B1E701239846AEE701
:1059C00064C60220FFFFFF00F0B500240F2585B05C
:1059D000204804F085FB204804F082FB1F4F204E36
:1059E000254232D078232200E1B21A401C421DD059
:1059F000782A1BD000230F220093300001336A4421
:105A000007F0A4FA002811DB164804F00BFC2B0069
:105A100023400F2B11D01448013404F003FC802CD8
:105A2000DED1124804F05CFB05B0F0BD104804F074
:105A3000F9FB2B0023400F2BEDD10A20013404F099
:105A4000FFFA802CEDD02542CCD12100380004F0A3
:105A5000E9FBC7E74CEF00105CEF001090EF00107F
:105A6000F804002048EF001098EF00109CEF0010A1
:105A7000A0EF001070B5002684B003AC60702670F3
:105A8000FFF7A2FF194D22000223402128000096B3
:105A900007F0F4F90123002200934021280007F0C9
:105AA000EDF90123002240212800009607F04EFA6C
:105AB000FF2101400E4804F0B5FB00210D4804F021
:105AC000B1FBFC2322002380402128000096FA3BF2
:105AD00007F0D4F9FD2322002380402128000096FE
