:020000041000EA
:1000000000B5324B212058609868022188439860DF
:10001000D860186158612E4B002199600221596106
:100020000121F02299502B49196001219960352056
:1000300000F044F80222904214D00621196600F024
:1000400034F8196E01211966002018661A6600F04E
:100050002CF8196E196E196E052000F02FF8012189
:100060000842F9D1002199601B49196000215960AB
:100070001A491B48016001219960EB211966A021F2
:10008000196600F012F800219960164914480160C1
:100090000121996001BC002800D000471248134993
:1000A000086003C880F30888084703B5996A0420EC
:1000B0000142FBD001200142F8D103BD02B5186610
:1000C0001866FFF7F2FF186E186E02BD00000240BE
:1000D000000000180000070000035F00212200005C
:1000E000F4000018222000A00001001008ED00E03C
:1000F00000000000000000000000000074B24E7A12
:1001000000200420F7010010C3010010C5010010F9
:10011000C1010010C1010010C1010010C101001097
:10012000C1010010C1010010C1010010C701001081
:10013000C1010010C1010010C9010010CB01001065
:10014000CD010010CD010010CD010010CD01001037
:10015000CD010010CD010010CD010010CD01001027
:10016000CD010010CD010010CD010010CD01001017
:10017000CD010010CD010010CD010010CD01001007
:10018000CD010010CD010010CD010010CD010010F7
:10019000CD010010CD010010CD010010CD010010E7
:1001A000CD010010CD010010CD010010CD010010D7
:1001B000CD010010CD010010CD010010CD010010C7
:1001C00000BE00BE00BE00BE00BE00BE00F04BF888
:1001D000103800BEF2EB8871DC0B0110000C01102E
:1001E0003402001090A31AE700202149086006C8D5
:1001F00081F3088810471F48006800282FD10DA4FC
:100200000ECC002902D000F012F8F9E71A491B4A77
:10021000002000E001C19142FCD1194988471949E9
:1002200088471949884700BEFDE701C901C29A42C3
:10023000FBD37047000C0110C000002024050020F3
:10024000641001100000042000000420641001105C
:1002500000100420001004200000000070470B482C
:1002600008F064FD0047EFF30580C0B2704700005E
:1002700008ED00E0000000D02805002054740220A2
:10028000297600100D030010197700105756000052
:1002900006005250ABB3605398090110060052504B
:1002A000861C0302A8090110060052505422A29D88
:1002B000B809011005005250DE65F46864100110A1
:1002C000F8B5C04610B5064C2378002B07D1054B76
:1002D000002B02D0044800E000BF0123237010BDB2
:1002E000300800200000000078CE0010044B10B54C
:1002F000002B03D00349044800E000BF10BDC046F6
:10030000000000003408002078CE001010B500F086
:1003100001F8FCE710B500F067F901F04DFF00F0BF
:1003200029F8C82000F0EEF905F048FA05F0F0F9D8
:10033000C8210420890001F0C7FF042004F0BEFE9C
:1003400004F0A2F904F016FA04F0CCFCFCE7C04675
:100350000123D02283401206002901D05361704747
:100360009361FCE7D0231B065B68C3400120184063
:100370007047C046F8B5CE464746042180B51920DF
:1003800005F03EFD0421002005F03AFD0421012086
:1003900005F036FD0423584E584D33600023584C69
:1003A00005202B60236005F083FC564908F018FDFA
:1003B00009F07AFB071C09F09FFBC3B218009846AE
:1003C00009F078FB011C381C09F04DFB8321C9059D
:1003D00009F063FB09F090FB4346C0B21B011843D0
:1003E000494B586505202F6805F062FC454908F027
:1003F000F7FC09F059FB804609F07EFBC3B21800F8
:10040000994609F057FB011C404609F02CFB83215B
:10041000C90509F042FB09F06FFB4B463A4A1B0144
:100420009446C0B21843BB00DB199B00634458607C
:100430000520276805F03CFC324908F0D1FC09F0A2
:1004400033FB804609F058FBC3B21800994609F007
:1004500031FB011C404609F006FB8321C90509F068
:100460001CFB09F049FB4B46274A1B019446C0B2CE
:100470001843BB00DB199B006344586033681700C6
:100480009800C018FA23800086189B0033612A6800
:10049000910089188900CD192B612468A2001219D6
:1004A0009200D4192361194B9C468023604407684D
:1004B0005B013F0C3F04184307606144086819431F
:1004C0000004000C0860624411681A43090C090416
:1004D00011600122100031681E4388433060100013
:1004E00029681D4388432860216823438A431A6092
:1004F000C0BCB946B046F8BD0C740220047402209A
:100500000874022040420F00000005400C00054026
:10051000194BF0B51B68194C9900C918FF238900C5
:100520000A191361164A070010683E048200121867
:100530009200101903611348006885002D18AD0062
:1005400028190361104B80249C4661440B686401A8
:1005500073401B0C21431B040B6062441068224350
:1005600078400004000C654410602B682C437340F5
:100570001B0C1B042360F0BD0C740220000005401E
:1005800004740220087402200C000540124B1A6803
:1005900093009B18114A9B0094468022634419687B
:1005A0005201090C1343090419600D4B19688B00A3
:1005B0005B189B006344196813430904090C196014
:1005C000084B19688B005B189B0063441968134340
:1005D000090C0904196070470C7402200C000540D6
:1005E0000474022008740220F0B5C64600B584B039
:1005F0002F4803AB02AA01A906F05AFF002803D135
:100600002B492C4807F08AF8039A0299019806F0C2
:1006100013FF09F0E3FC0F2005F022FCD024802317
:1006200024061B026362082005F01AFC8023802642
:1006300080275B006362B6010D2005F011FCBF004E
:100640000920666205F00CFC1020676205F008FCCA
:1006500080235B0263621120984605F001FC802331
:1006600080259B02A362ED03162005F0F9FB002212
:1006700001211120656205F0DBFB43460E496361F1
:100680000E486761666165610CF076F901210A2008
:1006900005F0B6FB01210B2005F0B2FB01210C2077
:1006A00005F0AEFB002004B080BCB846F0BDC046EB
:1006B00090D0030078CE001000093D0000000440F7
:1006C00010B584B06B460F246C44D91D087001230B
:1006D000220003480CF0C0FB207804B010BDC046D7
:1006E0000000044010B582B06B46DC1D991D0870F7
:1006F0000123220002480CF0AFFB207802B010BDAD
:100700000000044010B506F0FDF910BD7047C0466A
:10071000030010B50120002B00D010BD04F000FE36
:100720000028FAD004F02AFDFF2004F023FD04F095
:1007300027FD0120F1E7C0460020704770B50D008D
:10074000040011001A1E11D00120002C00D070BD31
:10075000280004F0C3FE0028F9D004F00FFDFF20AC
:1007600004F008FD04F00CFD0120F0E70420EEE7A2
:1007700070B50D00040011001A1E0AD00120002CD3
:1007800000D070BD280004F019FF431E9841C0B28C
:10079000F7E70420F5E7C04670B5140001250028EE
:1007A00008D102290FD007D8002911D004F080FD0C
:1007B00000252060280070BD04250329FAD10823F4
:1007C00000251380F6E780239B0000251380F1E7C6
:1007D00000211620FFF7BCFD04F0D4FC431E984115
:1007E0000121C5B21620FFF7B3FDE3E700207047F3
:1007F000F0B5DE4657464E464546E0B516005C4C21
:100800000122A5440290039104A8310001F070FB7D
:10081000584C594B1E22210004A89B4601F032FC83
:10082000638904A80093A389A78A0193638A258B0F
:100830009946E38A9A46A38B984601F051FC4346B9
:100840000020182B09D14B463F043B4319001F00E1
:100850004A4B01301A888A4208D08F239B009D445E
:10086000F0BCBB46B246A946A046F0BD52465B88E6
:100870002D041543AB42F0D10122310004A801F050
:1008800037FB019B21001A04009B04A81A435B4616
:1008900001F0F8FB3A4B1B78522B04D004A801F06E
:1008A0001FFC0120D9E7002F60D000239846693350
:1008B000FF339A46C146B846324EA244B4225B4644
:1008C0002100520004A801F0DDFBB4225B46514632
:1008D000520004A801F0D6FB002D1ED04B464A461C
:1008E0001B019B1A1B019C46624600230092590083
:1008F000009A591889B29818621897785278615CF2
:10090000FF089208FF0252013A43C9080133400030
:100910000A439BB28253AB42E9D34F460137BBB285
:1009200099464345CAD36B460399188903F0D8F911
:1009300001210820FFF70CFD00210920FFF708FD29
:10094000114912480CF094F896239B02F418308851
:10095000000AFFF7B5FE30780236FFF7B1FEB44269
:10096000F5D101210920FFF7F3FC97E7054EDAE7FF
:10097000C4FDFFFFAC0C00204C080020CC7302200B
:1009800010040020B01B002080B2E60E00000440DE
:10099000002370B50371013B04000D00C3624B1CC2
:1009A00009D00A002100012340783031FFF7C6FE4C
:1009B00000281FD1E562124BE25A124B9A421BD11A
:1009C00022006632538811881B040B430E4A1B0217
:1009D0001B0A934212D08223E25A0C4B82349C466B
:1009E0006088000410430002000A6044431E9841DE
:1009F000C0B270BD0320FCE70220FAE70020F8E750
:100A00002E02000055AA000046415400BABEABFFBA
:100A1000F0B5C646C66A04000D0000B58E4235D05A
:100A2000070003793037002B0BD101232A0039004E
:100A30006078FFF783FE002826D1E56280BCB846C7
:100A4000F0BD0123320039004078FFF791FE002805
:100A50001AD1226AA3692071B21A9A42E5D2E278C9
:100A60009046012A01D8E0E7A369F6183200012375
:100A700039006078FFF77CFE01235B429C46E0442E
:100A80004346012BF0D1D0E70120D7E70020D5E77E
:100A9000F0B54546DE4657464E460023E0B50C68A5
:100AA000150083B00360002C00D1C4E02378303BF4
:100AB000082B00D8B6E0C84B1C68002C00D11DE103
:100AC00023780460002B0FD06078FFF735FEC30752
:100AD0000AD4002D00D10DE104231E00064003427C
:100AE00000D1FFE00A26FDE0002300202380FFF76D
:100AF0000FFEC30700D5FFE0002D01D04307F1D45E
:100B000000212000FFF744FF0600012800D194E0F7
:100B1000032800D13AE10025002800D0E1E02200BE
:100B20003B321178537880221B0292000B43934290
:100B300000D0D6E04623E65A002E00D1666D402351
:100B4000A661E25C531EE270012B00D9C9E03D238F
:100B5000E75CA770002F00D1C3E07B1E1F4200D0CE
:100B6000BFE04123E15C230041335B781B020B4370
:100B7000984623811B0700D0B3E04323E15C2300A8
:100B800043335B781B020B4300D1236DE18F8B460F
:100B9000002900D1A5E072431100019242468A4625
:100BA00012095A449244534500D29AE052469B1A85
:100BB00099463900180008F013F9B94500D290E0C1
:100BC000864B984200D8E3E0854B984200D821E15B
:100BD0005B46EB1823625346EB18A3624346023090
:100BE0006061E561002B7CD1E36D800063627D4B29
:100BF0009C466044400A864273D301235B422361D2
:100C0000E36081336371203BE35A012B00D182E022
:100C10000323754A23701388002601339BB2138087
:100C2000E3805FE062783A2A00D044E702340C6047
:100C3000002B00D13FE70B2654E0F9235B00E35C77
:100C40000027002B0CD0FB235B00E118E25C4B7803
:100C50008F781B021A43CB783F0417431B061F43B0
:100C6000624B0025E35C002B0BD0614BE2185178FE
:100C7000E55C090293782943D5781B0419432D06B6
:100C80000D4300225B4B9046E35C002B0CD05A4B8B
:100C9000E0184278E15C120283781143C2781B04A9
:100CA0000B4312061A4390460022544B9146E35CD4
:100CB000002B0CD0524BE0184278E15C1202837892
:100CC0001143C2781B040B4312061A439146002FAE
:100CD00045D1002D4BD14346002B4FD14B46002B25
:100CE0000ED10D26300003B0F0BCBB46B246A9467B
:100CF000A046F0BD0026F5E70326F3E70C26F1E752
:100D000049462000FFF744FE4D46002800D106E783
:100D10000328E7D0E5E72000691CFFF779FE0028EB
:100D200000D075E743466371364BE25A364B9A4220
:100D300000D06DE7354B226B9A4200D068E78522E0
:100D40009200334BA2589A4200D061E78623872253
:100D50009B009200E358A2582361E26058E73900F3
:100D60002000FFF715FE0028B3D13D00D7E629008B
:100D70002000FFF70DFE0028ADD1D0E6414620004F
:100D8000FFF706FE45460028A8D1C8E60126A9E7D8
:100D90005B464146EB18821CE56155446261236263
:100DA000A56200299DD0019950008C46634463627E
:100DB0000123801840081A4080180A4A944660446B
:100DC000400A864200D28CE7012252422261E26050
:100DD000813262711DE7C04650080020F50F000007
:100DE000F5FF0000FF0100003E7402200202000037
:100DF000060200001202000016020000220200009B
:100E0000260200002E02000055AA00005252614145
:100E1000727241615B464246EB180230E56155440F
:100E200060612362A562002A00D15AE7019A40005E
:100E30009446634463620223BFE7C046F0B5C646EA
:100E4000077804000D0000B5022F08D0032F3FD013
:100E5000012F17D00120404280BCB846F0BD036A84
:100E6000090A9C466144FFF7D3FD0028F2D1FF2117
:100E70006D0049000D4064193034637820781B02FE
:100E80001843E9E7036A4E089C467618710A6144E4
:100E9000FFF7BEFD0028DDD1F305DB0DE31830338D
:100EA0001B7801369846236A710A9C4620006144EB
:100EB000FFF7AEFD0028CDD14346F605F60DA41987
:100EC00030342078000218432F421FD00009C3E7B6
:100ED000036AC9099C466144FFF79AFD0028B9D10D
:100EE000FE21AD0049000D402B003033E318D878C7
:100EF0009A78641912040006303410435B78227823
:100F00001B021043184300010009A5E70005000D6E
:100F1000A2E7C046F8B54E46DE46574645469B46D4
:100F20008468C368E0B51B1B06000F009946934216
:100F300000D991464B46002B00D190E02200D3050A
:100F4000DD0D002B41D13368500A99784C1E0440C6
:100F5000E4B2002C00D184E070695A690238023A88
:100F6000904200D38CE0996A9A788C465043604452
:100F7000002800D184E080468021A0448900894572
:100F800000D386E0B26990451AD035004024B1798B
:100F900028350C420BD0587829000123FFF7E8FBD5
:100FA000002800D0A0E0B379A343B3713368587828
:100FB000424601232900FFF7C1FB002800D093E03F
:100FC0004346B361B368DD05ED0D80239B00591BDB
:100FD000494500D9494602242B00A4462933F31879
:100FE0000634FB1A9C459B41A446481E2A008445B2
:100FF000A44128325B426442B2181C4200D177E01F
:101000003B0013439B0700D072E000238C08A40030
:10101000D558FD500433A342FAD103230C009C435E
:1010200023001219C01A3C198B4209D0137823707F
:10103000002805D053786370012801D09378A370FD
:10104000B3685846CA185B461B68B2605B180360F9
:101050004B465B1A99467F18002B00D06FE70020A3
:1010600011E0002A32D13069012809D9431C3BD054
:10107000336870615A690238023A904200D272E7CE
:1010800002230220F371F0BCBB46B246A946A0463B
:10109000F8BD4946490A8A4661188A4201D2121BA4
:1010A00092465246D2B25878390013004246FFF7B2
:1010B00045FB002818D1B3795B0604D54246B369D5
:1010C0009B1A9A4530D853465902B9E7726A92463C
:1010D000002A14D171690129D2D95A699142CFD21B
:1010E0001800FFF7ABFEBFE701230120F371CAE749
:1010F0000023D05CF85401339942FAD1A0E70423CD
:101100005344984607F06CFE53465B68002BB7D0FB
:10111000424604E00832C01A1368002BB0D098424F
:10112000F8D25368C0189FE73100320002205B02FA
:10113000FB1829312832591A88420BD21900114361
:10114000890707D1515959518021043589008D42B1
:10115000F8D1B8E7515D59558021013589008D429C
:10116000F8D1B0E7F8B54746CE46067804000D0042
:10117000904680B5022E0BD0032E45D00227012EBB
:101180001AD0012338002371C0BCB946B046F8BD5F
:10119000036A090A9C466144FFF73AFC071EF0D136
:1011A0006B00FF2542466D002B40E31830331A7068
:1011B00092B2120A5A70E4E74B08994689444B46AA
:1011C000590A036A9C466144FFF722FC071ED8D1E6
:1011D0004B46DB05DB0DE31830332E4233D00F22B4
:1011E00019784D461140424612010A431A70236A8B
:1011F00001359C46690A200026716144FFF708FC0E
:1012000000283DD00700BCE7036AC9099C46614439
:10121000FFF7FEFB071EB4D1FE21AD0049000D40D3
:101220002B0041463033E318DA78651912091207AA
:101230000A4391B2090A30352A705970110C120E06
:101240009970DA709DE742461A704D46236A01355F
:101250009C46690A200026716144FFF7D9FB0028EB
:10126000D0D1ED05ED0D65192B0042460F2130332D
:101270001B78120A8B430A401A4330352A7080E7E4
:101280004346ED05ED0D1A09D2B26519F5E7C046E2
:10129000F8B503790400002B0BD12378032B29D058
:1012A000002200216078FFF777FA431E9841C0B210
:1012B000F8BD0700C56A303701232A00390040789D
:1012C000FFF756FA00283AD1226AA3692071AA1AB8
:1012D0009A42E2D2E678012E01D8DEE7A369ED1842
:1012E0002A00012339006078013EFFF741FA012E00
:1012F000F4D1D2E76379012BD2D125008022303599
:1013000000219200280008F04DFC0E4B0E4A2900E7
:10131000E2520E4B0E4A236385239B00E250226962
:101320000433E250E2680433E250E36960785A1C07
:10133000E2620123FFF71CFA00236371B0E701208A
:10134000B6E7C0462E02000055AAFFFF5252614187
:1013500072724161F0B54E464546DE465746E0B5ED
:101360008946050083B000291ED1C7684369002F54
:1013700034D10137FF2252009346023A3C00924694
:1013800001349C421FD3012F00D891E0022B1CD9BD
:1013900002242E78022E00D176E0032E57D0012EA3
:1013A00020D00124644211E001290ED04369994202
:1013B0000BD2FFF743FD0400012806D96B69834275
:1013C00004D84F46D6E7012CE3D80124200003B00F
:1013D000F0BCBB46B246A946A046F0BDBB42C9D848
:1013E0000127C7E763089846A0444346590A2B6A79
:1013F00028009C466144FFF70BFB0028D1D14346EF
:10140000DB05DB0DEB1830331B782800019301233B
:101410009C46E0444346590A2B6A9C466144FFF7C8
:10142000F7FA0028BDD14146CB05DB0DEB18303370
:101430001B78019A1B02134326423BD01B09002B49
:101440003BD0012BC1D0A74232D06B6998E72B6A01
:10145000E1099C4628006144FFF7DAFA0028A0D190
:101460005346A2001A40110030316918CB788878B1
:10147000AA18303212781B060004034313434A783B
:10148000120213431B01D9E72B6A210A9C4628004C
:101490006144FFF7BDFA002800D082E75B46620096
:1014A0001A40AA1830325178137809020B43C6E764
:1014B00000248BE71B051B0DC1E76B69A34200D815
:1014C00083E721002800134AFFF74CFE002803D0D1
:1014D000012800D165E778E74B46002B0DD0012BA2
:1014E00000D172E76B69994500D36EE72200494647
:1014F0002800FFF737FE0028EAD12B69EC605A1C60
:1015000000D163E70122013B2B616B7913436B71BF
:101510005CE7C046FFFFFF0FF0B557464546DE4685
:101520004E46E0B5856807000C0083B0C180012DF0
:1015300026D006687369AB4222D9002D57D0B27805
:1015400012019046914200D291E0FF225200934650
:101550009D4215D233789946022B00D195E0032B9A
:101560005AD0012B14D001200BE0756A002D41D018
:10157000B27812019046914200D278E0012DE4D178
:10158000022003B0F0BCBB46B246A946A046F0BD5F
:101590006B089A46AA445346590A336A30009C465F
:1015A0006144FFF735FA0028DDD15346DB05DB0D3A
:1015B000F31830331B783000019301239C46E2443A
:1015C0005346590A336A9C466144FFF721FA0028C2
:1015D000C9D15146CB05DB0DF61830363378019A68
:1015E0001B0213434A462A4263D01D0932E0327877
:1015F000032ABAD00023FB603389A342C0D9726AA0
:101600002309944663443B610F210C40303664014A
:10161000341900207C61B4E7336AE9099C46300044
:101620006144FFF7F5F900289DD1FE22AB0052007E
:1016300013401A003032B218D5789178F31830334D
:101640001B782D0609040D431D4353781B021D43CF
:101650002D012D09012D93D93E687369AB4200D845
:101660008EE74246A41AA4B2444500D370E7FD6059
:10167000023B023D9D421FD2B3785D43B36A9C4654
:10168000654423095D193D61BEE7336A290A9C461A
:1016900030006144FFF7BCF9002800D063E75B46E7
:1016A0006D001D4076193036737835781B021D4366
:1016B000D0E71B051D0DCDE70025E2E7F8B557463D
:1016C0004546DE464E46E0B50B7805008A462F2B90
:1016D00053D05C2B51D000245346AC601B781F2B99
:1016E00054D95646AB6932782F2A01D05C2A01D1F1
:1016F0000136F8E720221A705A709A70DA701A715F
:101700005A719A71DA711A725A729A723278202A60
:1017100019D900218C460831884602218A460321C6
:101720008B46711E894661469C462B000024454627
:10173000012798460B002F2A55D05C2A53D02E2A19
:101740002AD09D4206D80620F0BCBB46B246A94628
:10175000A046F8BD51B2002905DA59460C43B449F8
:10176000803A8A5CE4B22221B24803E04178013039
:10177000002923D08A42F9D1E5E701239C460024C1
:10178000E2445346AC601B781F2BAAD800212800E6
:10179000FFF7C2FE6C61D7E7082DD4D108230B25D3
:1017A000A400E4B24A460137D25D202AC3D842469B
:1017B0006346A846F619150004221DE011004139C0
:1017C000192906D851460C43E4B26146CA54013384
:1017D000E8E7110061391929F7D80121203A0C43B3
:1017E000E4B2D2B2F1E742461900A84663461500BA
:1017F000F6190029A7D000221978E52901D1E0398E
:1018000019704146082900D105E103212140012931
:1018100001D10F310A430C210C40042C01D10439B1
:101820000A4300212800DA72FFF776FE002800D074
:10183000F7E02C682F69B0463E0027000823FC6AB9
:101840009A46B4420ED0302291463B79B944002BDF
:1018500031D10123320049467878FEF76FFF002826
:1018600059D1FE626A691478002C5FD05046534605
:10187000D17A08400B4261D0EC880134A4B2002C2C
:1018800054D02E69002E51D00F23234099460F23A8
:10189000234242D02F684B465A013B00EC80303344
:1018A000FC6A9B186B61B442DCD0302291463B79D4
:1018B000B944002BCDD00123220049467878FEF7A9
:1018C00057FF002827D13A6ABB693871A21A9A4299
:1018D000BFD2FA789346012ABBD931002A004E467E
:1018E0005D468946934600E0BB69E4182200012367
:1018F00031007878013DFEF73BFF012DF4D14B46D6
:10190000B1461E0049460123320078785D46FEF755
:1019100015FF0028A5D0012016E7E96801362F68D9
:101920002E61002954D13B89A342B4D8AB69DB7A3C
:1019300004205B0700D507E7052005E7AB691F78A2
:10194000A74299D157785C78A74295D19F7894782F
:10195000A74291D1D778DC78A7428DD117791C792D
:10196000A74289D157795C79A74285D197799C792B
:10197000A74200D080E7D779DC79A74200D07BE787
:10198000177A1C7AA74200D076E7577A5C7AA7428A
:1019900000D071E7977A9C7AA74200D06CE7DC7A96
:1019A0004646640700D5CFE6C906C5D5D17E907EF0
:1019B0000902014328680078032801D0A96092E653
:1019C000147D527D1202224312041143A9608AE65B
:1019D000BB782209013B1A4200D05CE7012918D0EC
:1019E0007B69994215D23800FFF728FA012810D9EF
:1019F000431C90D02F687B69984297D2E860023BE5
:101A0000023898420AD2BB785843BB6AC6182E6186
:101A100041E7022098E6A400E4B2FCE600262E612D
:101A200039E7AB69DB7A042800D08DE680E7C04651
:101A3000BCCE0010ACCE0010F8B54546DE46574689
:101A40004E464369E0B504000D00994200D398E08A
:101A5000012914D9FF2326785B009946023B98465A
:101A60000127022E00D175E0032E38D0012E08D0B8
:101A70000120F0BCBB46B246A946A046F8BD0220F4
:101A8000F7E76B089A46AA445346590A236A20008E
:101A90009C466144FEF7BCFF0028E9D15346DB05B4
:101AA000DB0DE31830331B7820009B4601239C4656
:101AB000E2445346590A236A9C466144FEF7A8FF54
:101AC0000028D5D153465A46DB05DB0DE3183033E9
:101AD0001B781B0213432E4255D01E091CE0236ABB
:101AE000E9099C4620006144FEF792FF0028BFD11F
:101AF0004246AB0013401A003032A218D6789178D3
:101B0000E31830331B78360609040E431E4353781E
:101B10001B021E4336013609002E32D0012EAED0F4
:101B20006369AB42ABD9002229002000FFF71AFB02
:101B300000289ED123695A1C20D001332361637988
:101B40003B43637163699E421BD235002678022EA7
:101B500000D089E7236A290A9C4620006144FEF7E9
:101B600057FF002800D083E74A466B001340E31874
:101B700030335A781E7812021643CDE76369B342B8
:101B8000E3D8002075E71E05360DC5E7F0B5DE4643
:101B90004E4657464546E0B5002185B00600FFF7A2
:101BA000BBFC041E0AD0042800D10724200005B085
:101BB000F0BCBB46B246A946A046F0BD33693568C5
:101BC00098460F239A46EC6A44450ED02F002B7995
:101BD0003037002B59D10123424639006878FEF78F
:101BE000ADFD002842D14346EB6273691B78E52BBB
:101BF00001D0002B24D131693068FEF709FF041EA3
:101C0000D4D120220021706907F0CCFF7369B2693A
:101C100019001143890700D0F1E0511C591A02291B
:101C200000D8ECE01168196051685960117A197296
:101C3000517A5972927A9A72012233681A71B5E711
:101C4000F4880134A4B2002CAFD033699846002B3D
:101C5000ABD0574653462740234209D035687B0115
:101C60002F003037FF18F4807761ACE701249DE73F
:101C700001239C46E0444346F168356833610029FE
:101C800028D12B89A342EAD88FE70123220039000B
:101C90006878FEF76DFD0028E8D12A6AAB692871E3
:101CA000A21A9A4297D2EA789146012A93D9320031
:101CB0002E004D46914600E0B369E418220001234E
:101CC00039007078013DFEF753FD012DF4D1350048
:101CD0004E4680E7AB782209013B1A42BFD1012969
:101CE00021D06B6999421ED22800FFF7A7F80200A5
:101CF0000190012817D9431CB8D035686B69984208
:101D000013D2023A0292023B019AF260029A934283
:101D100000D885E0AB785A431300AA6A90469844ED
:101D2000434633619BE7022440E72800F168FFF750
:101D300011FB031E019000D137E70128F3D00133D6
:101D400094D035682B79002B6DD12800802200219A
:101D50009200303007F026FF019B35689A1E6B69B0
:101D60000292023B9A4200D390E01100A86AAA783E
:101D70008046514388444146E962002A3CD0002312
:101D80000394BB464446B14698462F0001233037A2
:101D90002200390068782B71FEF7EAFC002800D099
:101DA00064E72A6AAB692871A21A9A420ED2EE78C9
:101DB000012E01D80AE0AB69E418220001233900A2
:101DC0006878013EFEF7D4FC012EF4D14B4647461D
:101DD0001D680137EB6A5C1CFBB29846AB78EC627D
:101DE0004345D2D84346A04642465F464E46D31AA4
:101DF00098466B69039C023B4246EA6284E711788D
:101E000019705178597091789970D178D970117989
:101E100019715179597191799971D179D97105E710
:101E2000002398467CE7EB6A6878984630239B4607
:101E3000AB44424659462F3BFEF79AFC002800D09F
:101E400014E74246296AAB692871521A9A421BD29A
:101E5000EA789146012A17D942463100A0462E0061
:101E600014004D46B9465F468B4600E0B369E4185E
:101E70002200012339007078013DFEF779FC012D25
:101E8000F4D144464F465E4635685EE70021AA78A5
:101E9000884670E700B583B00B1E019000911AD000
:101EA0000978303908290FD910490B68002B01D067
:101EB00000201870019B002B15D000200B601870BB
:101EC000012A0AD003B000BD58783A28ECD1023379
:101ED00000930029E8D00B20F4E70022694601A80E
:101EE000FEF7D6FDEEE700200B60EBE75008002080
:101EF000F0B54746CE4680B58DB00400170001917D
:101F0000002868D000231E2203603A4001A905A8DA
:101F1000FEF7BEFD051E05D028000DB0C0BCB946B9
:101F2000B046F0BD1F233B409846019902AB05A87F
:101F30000B93FFF7C3FB00280FD10A9E002E00D1A0
:101F40009BE01C233B420FD01122F37A1A4246D168
:101F50007B0700D48DE00825DEE71C233B4201D03F
:101F600004283ED00500D7E7F37ADA0635D4BA075D
:101F700001D5DB0733D4082205983A4003D0424606
:101F800020231A439046C36A2662E3614346A37145
:101F90000023E371F37EB27E1B0213430278032A0F
:101FA00005D1727D377D12023A4312041343236137
:101FB000717F337FB27F09021943F37F120411430B
:101FC0001B060B43E36000232060A360A3616362F0
:101FD000C388A380A0E709259EE704259CE7072581
:101FE0009AE705A8FFF7D2FD424608231A43904618
:101FF0000A9E0028B6D1FEF7F9FB83B21B0AF373E1
:10200000030C33740023B073000E70740598F77ED0
:10201000F37233777377B377F377B27E03783F0247
:102020001743032B05D1737D317D1B020B431B042A
:102030001F430023B376F376337573750133037151
:10204000002F9CD0012F1AD043699F4217D2C36A38
:1020500039009946FFF7F0FC002883D10598013F2D
:102060004946C760FEF7D4FC002800D07AE70598FF
:1020700085E73B07BFD4059885E706254CE7022591
:102080004AE7C046F8B51D00002304000E00170003
:102090002B6000281ED00368002B1BD01A78002A62
:1020A00018D08288D9880920914200D0F8BD58788C
:1020B000FEF742FB0123034210D1E0790028F5D15D
:1020C000A279134208D02B003A0031002000FEF71D
:1020D00021FFEBE70920E9E70720E7E70320E5E731
:1020E000F8B5041E60D00368002B5DD01A78002A72
:1020F0005AD0D98882880925914201D02800F8BD9C
:102100005878FEF719FB01231D00054003424DD10D
:10211000A3799A0645D540261E420CD0210023689B
:10212000A269587828310123FEF722FB00283FD10D
:10213000A379B343A371E1692068FEF769FC071E28
:1021400001D00500DAE72022266AF37A1343F372FE
:10215000E3683377A3891B0A7377E389B377E37B5B
:10216000F3772369B3769AB21B0C120A33751B0AF4
:10217000F2767375FEF73AFB202283B21B0AB07524
:10218000F375030C000E33767076B774F774A37989
:1021900020689343A37101230371FFF779F80028A6
:1021A00008D100232360A9E70925A7E70325A5E7B0
:1021B0000125A3E70500A1E710B501211620FEF7D0
:1021C000C7F801210920FEF7C3F801211020FEF70E
:1021D000BFF80D4901220D48FFF75CFE0C4B011EB4
:1021E000187003D00B4807F0EDFE10BD0A4807F049
:1021F00047FE0A4B0A4A19001431FF3108C20B335B
:102200008B42FBD1F1E7C046AC0401101819002045
:1022100047740220B0040110E8040110F4130020F8
:102220004C1B002070B5254C2378522B00D070BD7C
:10223000431EDBB20025062B31D9214B1871032830
:1022400029D9A022F02152005980082000211A80AB
:10225000FEF77EF800210920FEF77AF83620FEF717
:102260002FFA01210920FEF773F8237801210820B5
:10227000522B1CD0FEF76CF809200021FEF768F8FD
:102280000020FEF71DFA2800FEF71AFA01210920A6
:10229000FEF75EF8CBE7A021F0224900D4E7094A17
:1022A0005B00D55C064B18710328F4D9C9E7FEF72B
:1022B0004FF800210920FEF74BF8E4E71004002056
:1022C000CC7302201005011070B5012182B0050009
:1022D0000F20FEF73DF8FA204000FEF713FA002128
:1022E0000F20FEF735F8FA204000FEF70BFA012127
:1022F0000F20FEF72DF8FA204000FEF703FA6B4698
:102300009E1D0023002109203370FEF721F80021D3
:102310000820FEF71DF8DC20FEF7D2F96B46DC1D25
:10232000220001233100F4480AF096FD0121092022
:10233000FEF70EF82378F14C002108202370522B71
:1023400001D100F000FCFEF703F800210920FDF7A1
:10235000FFFF2120FEF7B4F901210920FDF7F8FF66
:1023600000210820FDF7F4FF00210920FDF7F0FF10
:10237000C220FEF7A5F901210920FDF7E9FF237826
:1023800001210820522B00D1D6E3FDF7E1FF0920FF
:102390000021FDF7DDFF0020FEF792F93320FEF764
:1023A0008FF901210920FDF7D3FF00210820FDF757
:1023B000CFFF00210920FDF7CBFFC520FEF780F9F4
:1023C00001210920FDF7C4FF237801210820522BA9
:1023D00001D101F0E1F9FDF7BBFF09200021FDF774
:1023E000B7FF0020FEF76CF90020FEF769F9012124
:1023F0000920FDF7ADFF237801210820522B01D1E0
:1024000001F0C2F9FDF7A4FF09200021FDF7A0FFAC
:102410000020FEF755F91E20FEF752F90121092090
:10242000FDF796FF237801210820522B01D101F0FE
:10243000A3F9FDF78DFF09200021FDF789FF00209A
:10244000FEF73EF98020FEF73BF901210920FDF758
:102450007FFF00210820FDF77BFF00210920FDF709
:1024600077FFB120FEF72CF901210920FDF770FF5D
:10247000237801210820522B01D101F075F9FDF7D5
:1024800067FF09200021FDF763FF0020FEF718F920
:10249000B020FEF715F901210920FDF759FF0021B1
:1024A0000820FDF755FF00210920FDF751FF3620D8
:1024B000FEF706F901210920FDF74AFF23780121E3
:1024C0000820522B01D101F047F9FDF741FF092007
:1024D0000021FDF73DFF0020FEF7F2F82820FEF76F
:1024E000EFF801210920FDF733FF00210820FDF757
:1024F0002FFF00210920FDF72BFFE020FEF7E0F879
:1025000001210920FDF724FF237801210820522B07
:1025100001D101F019F9FDF71BFF09200021FDF79A
:1025200017FF0020FEF7CCF80020FEF7C9F80121C4
:102530000920FDF70DFF237801210820522B01D13E
:1025400001F0FAF8FDF704FF09200021FDF700FF74
:102550000020FEF7B5F81320FEF7B2F8012109209C
:10256000FDF7F6FE237801210820522B01D101F05E
:10257000DBF8FDF7EDFE09200021FDF7E9FE002064
:10258000FEF79EF81820FEF79BF801210920FDF7C1
:10259000DFFE237801210820522B01D101F0BCF885
:1025A000FDF7D6FE09200021FDF7D2FE0020FEF740
:1025B00087F80420FEF784F801210920FDF7C8FE02
:1025C000237801210820522B01D101F09DF8FDF75D
:1025D000BFFE09200021FDF7BBFE0020FEF770F8CA
:1025E0000F20FEF76DF801210920FDF7B1FE2378D9
:1025F00001210820522B01D101F07EF8FDF7A8FE41
:1026000009200021FDF7A4FE0020FEF759F806205E
:10261000FEF756F801210920FDF79AFE23780121E3
:102620000820522B01D101F05FF8FDF791FE09203F
:102630000021FDF78DFE0020FEF742F83A20FEF75C
:102640003FF801210920FDF783FE237801210820AE
:10265000522B01D101F040F8FDF77AFE092000214C
:10266000FDF776FE0020FEF72BF85620FEF728F83F
:1026700001210920FDF76CFE237801210820522B4F
:1026800001D101F021F8FDF763FE09200021FDF7DB
:102690005FFE0020FEF714F84D20FEF711F801212F
:1026A0000920FDF755FE237801210820522B01D186
:1026B00001F002F8FDF74CFE09200021FDF748FE6D
:1026C0000020FDF7FDFF0320FDF7FAFF012109209F
:1026D000FDF73EFE237801210820522B01D100F0A6
:1026E000E3FFFDF735FE09200021FDF731FE002054
:1026F000FDF7E6FF04E0C04600000440100400209F
:102700000A20FDF7DDFF01210920FDF721FE2378D6
:1027100001210820522B01D100F0BEFFFDF718FE69
:1027200009200021FDF714FE0020FDF7C9FF062057
:10273000FDF7C6FF01210920FDF70AFE23780121DC
:102740000820522B01D100F09FFFFDF701FE092068
:102750000021FDF7FDFD0020FDF7B2FF3020FDF761
:10276000AFFF01210920FDF7F3FD237801210820A7
:10277000522B01D100F080FFFDF7EAFD0920002176
:10278000FDF7E6FD0020FDF79BFF3E20FDF798FFDB
:1027900001210920FDF7DCFD237801210820522BBF
:1027A00001D100F061FFFDF7D3FD09200021FDF705
:1027B000CFFD0020FDF784FF0F20FDF781FF0121F1
:1027C0000920FDF7C5FD00210820FDF7C1FD00210E
:1027D0000920FDF7BDFDE120FDF772FF0121092071
:1027E000FDF7B6FD237801210820522B01D100F01E
:1027F00033FFFDF7ADFD09200021FDF7A9FD002005
:10280000FDF75EFF0020FDF75BFF01210920FDF7CA
:102810009FFD237801210820522B01D100F014FFE5
:10282000FDF796FD09200021FDF792FD0020FDF740
:1028300047FF1320FDF744FF01210920FDF788FD24
:10284000237801210820522B01D100F0F5FEFDF77D
:102850007FFD09200021FDF77BFD0020FDF730FF03
:102860001820FDF72DFF01210920FDF771FD2378C8
:1028700001210820522B01D100F0D6FEFDF768FDA2
:1028800009200021FDF764FD0020FDF719FF01205C
:10289000FDF716FF01210920FDF75AFD23780121DC
:1028A0000820522B01D100F0B7FEFDF751FD0920A1
:1028B0000021FDF74DFD0020FDF702FF1120FDF77F
:1028C000FFFE01210920FDF743FD237801210820A7
:1028D000522B01D100F098FEFDF73AFD09200021AE
:1028E000FDF736FD0020FDF7EBFE0620FDF7E8FEC4
:1028F00001210920FDF72CFD237801210820522B0E
:1029000001D100F079FEFDF723FD09200021FDF73C
:102910001FFD0020FDF7D4FE3820FDF7D1FE012178
:102920000920FDF715FD237801210820522B01D144
:1029300000F05AFEFDF70CFD09200021FDF708FD0F
:102940000020FDF7BDFE3420FDF7BAFE012109206D
:10295000FDF7FEFC237801210820522B01D100F065
:102960003BFEFDF7F5FC09200021FDF7F1FC0020FE
:10297000FDF7A6FE4D20FDF7A3FE01210920FDF77E
:10298000E7FC237801210820522B01D100F01CFE26
:10299000FDF7DEFC09200021FDF7DAFC0020FDF741
:1029A0008FFE0620FDF78CFE01210920FDF7D0FCEB
:1029B000237801210820522B01D100F0FDFDFDF705
:1029C000C7FC09200021FDF7C3FC0020FDF778FEBD
:1029D0000D20FDF775FE01210920FDF7B9FC2378D4
:1029E00001210820522B01D100F0DEFDFDF7B0FCE3
:1029F00009200021FDF7ACFC0020FDF761FE0B2053
:102A0000FDF75EFE01210920FDF7A2FC23780121DC
:102A10000820522B01D100F0BFFDFDF799FC0920E1
:102A20000021FDF795FC0020FDF74AFE3120FDF75F
:102A300047FE01210920FDF78BFC237801210820A6
:102A4000522B01D100F0A0FDFDF782FC09200021EE
:102A5000FDF77EFC0020FDF733FE3720FDF730FE4A
:102A600001210920FDF774FC237801210820522B55
:102A700001D100F081FDFDF76BFC09200021FDF77D
:102A800067FC0020FDF71CFE0F20FDF719FE012159
:102A90000920FDF75DFC00210820FDF759FC00210D
:102AA0000920FDF755FC3A20FDF70AFE0121092017
:102AB000FDF74EFC237801210820522B01D100F0B4
:102AC00053FDFDF745FC09200021FDF741FC0020E6
:102AD000FDF7F6FD5520FDF7F3FD01210920FDF777
:102AE00037FC00210820FDF733FC00210920FDF709
:102AF0002FFC1120FDF7E4FD09200121FDF728FC42
:102B00007820FDF7FFFD00210820FDF721FC0021C2
:102B10000920FDF71DFC2920FDF7D2FD0121092028
:102B2000FDF716FC2378522B01D100F0E6FC322091
:102B3000FDF7E8FD02B070BDFDF70AFC0021092099
:102B4000FDF706FC2AE4FDF703FC00210920FDF750
:102B5000FFFB1120FDF7B4FD01210920FDF7F8FB73
:102B60006420FDF7CFFD00210820FDF7F1FB0021D7
:102B70000920FDF7EDFB3620FDF7A2FD012109201C
:102B8000FDF7E6FB237801210820522B01D100F04C
:102B90006EFFFDF7DDFB09200021FDF7D9FB0020CA
:102BA000FDF78EFD0020FDF78BFD01210920FDF7CB
:102BB000CFFB00210820FDF7CBFB00210920FDF70A
:102BC000C7FB3A20FDF77CFD01210920FDF7C0FB82
:102BD000237801210820522B01D100F040FFFDF79E
:102BE000B7FB09200021FDF7B3FB0020FDF768FDCE
:102BF0005520FDF765FD01210920FDF7A9FB002106
:102C00000820FDF7A5FB00210920FDF7A1FBB2205C
:102C1000FDF756FD01210920FDF79AFB23780121DC
:102C20000820522B01D100F012FFFDF791FB092083
:102C30000021FDF78DFB0020FDF742FD0C20FDF784
:102C40003FFD01210920FDF783FB237801210820A6
:102C5000522B01D100F0F3FEFDF77AFB0920002191
:102C6000FDF776FB0020FDF72BFD0C20FDF728FD7E
:102C700001210920FDF76CFB237801210820522B4C
:102C800001D100F0D4FEFDF763FB09200021FDF720
:102C90005FFB0020FDF714FD0020FDF711FD012171
:102CA0000920FDF755FB237801210820522B01D183
:102CB00000F0B5FEFDF74CFB09200021FDF748FBB5
:102CC0000020FDF7FDFC3320FDF7FAFC012109206F
:102CD000FDF73EFB237801210820522B01D100F0A3
:102CE00096FEFDF735FB09200021FDF731FB0020A2
:102CF000FDF7E6FC3320FDF7E3FC01210920FDF799
:102D000027FB00210820FDF723FB00210920FDF708
:102D10001FFBB720FDF7D4FC01210920FDF718FBAC
:102D2000237801210820522B01D100F068FEFDF725
:102D30000FFB09200021FDF70BFB0020FDF7C0FC75
:102D40003520FDF7BDFC01210920FDF701FB002125
:102D50000820FDF7FDFA00210920FDF7F9FABB2054
:102D6000FDF7AEFC01210920FDF7F2FA23780121DD
:102D70000820522B01D100F03AFEFDF7E9FA0920B4
:102D80000021FDF7E5FA0020FDF79AFC2820FDF769
:102D900097FC01210920FDF7DBFA00210820FDF74F
:102DA000D7FA00210920FDF7D3FAC020FDF788FCEF
:102DB00001210920FDF7CCFA237801210820522BAC
:102DC00001D100F00CFEFDF7C3FA09200021FDF748
:102DD000BFFA0020FDF774FC3C20FDF771FC0121D7
:102DE0000920FDF7B5FA00210820FDF7B1FA00210E
:102DF0000920FDF7ADFAC220FDF762FC0121092090
:102E0000FDF7A6FA237801210820522B01D100F00A
:102E1000DEFDFDF79DFA09200021FDF799FA00205B
:102E2000FDF74EFC0120FDF74BFC01210920FDF7C9
:102E30008FFA00210820FDF78BFA00210920FDF709
:102E400087FAC320FDF73CFC01210920FDF780FA39
:102E5000237801210820522B01D100F0B0FDFDF7AD
:102E600077FA09200021FDF773FA0020FDF728FC0E
:102E70000B20FDF725FC01210920FDF769FA00214F
:102E80000820FDF765FA00210920FDF761FAC4204A
:102E9000FDF716FC01210920FDF75AFA23780121DC
:102EA0000820522B01D100F082FDFDF751FA0920D4
:102EB0000021FDF74DFA0020FDF702FC2020FDF770
:102EC000FFFB01210920FDF743FA00210820FDF74F
:102ED0003FFA00210920FDF73BFAC620FDF7F0FB81
:102EE00001210920FDF734FA237801210820522B13
:102EF00001D100F054FDFDF72BFA09200021FDF768
:102F000027FA0020FDF7DCFB0F20FDF7D9FB01219C
:102F10000920FDF71DFA00210820FDF719FA00210C
:102F20000920FDF715FAD020FDF7CAFB0121092081
:102F3000FDF70EFA237801210820522B01D100F071
:102F400026FDFDF705FA09200021FDF701FA002012
:102F5000FDF7B6FBA420FDF7B3FB01210920FDF727
:102F6000F7F9237801210820522B01D100F007FD49
:102F7000FDF7EEF909200021FDF7EAF90020FDF741
:102F80009FFBA120FDF79CFB01210920FDF7E0F943
:102F900000210820FDF7DCF900210920FDF7D8F910
:102FA000E020FDF78DFB01210920FDF7D1F9237801
:102FB00001210820522B01D100F0D9FCFDF7C8F9FE
:102FC00009200021FDF7C4F90020FDF779FBD0208E
:102FD000FDF776FB01210920FDF7BAF923780121DD
:102FE0000820522B01D100F0BAFCFDF7B1F90920FD
:102FF0000021FDF7ADF90020FDF762FB0120FDF790
:103000005FFB01210920FDF7A3F9237801210820A6
:10301000522B01D100F09BFCFDF79AF90920002109
:10302000FDF796F90020FDF74BFB0820FDF748FB64
:1030300001210920FDF78CF9237801210820522B6A
:1030400001D100F07CFCFDF783F909200021FDF798
:103050007FF90020FDF734FB0F20FDF731FB012144
:103060000920FDF775F9237801210820522B01D1A1
:1030700000F05DFCFDF76CF909200021FDF768F90F
:103080000020FDF71DFB1120FDF71AFB012109208F
:10309000FDF75EF9237801210820522B01D100F0C1
:1030A0003EFCFDF755F909200021FDF751F90020FC
:1030B000FDF706FB2A20FDF703FB01210920FDF7A0
:1030C00047F9237801210820522B01D100F01FFC81
:1030D000FDF73EF909200021FDF73AF90020FDF740
:1030E000EFFA3620FDF7ECFA01210920FDF730F95F
:1030F000237801210820522B01D100F000FCFDF7BC
:1031000027F909200021FDF723F90020FDF7D8FA5F
:103110005520FDF7D5FA01210920FDF719F923788B
:1031200001210820522B00D1E2E3FDF711F909201B
:103130000021FDF70DF90020FDF7C2FA4420FDF74C
:10314000BFFA01210920FDF703F9237801210820A6
:10315000522B00D1C5E3FDF7FBF809200021FDF754
:10316000F7F80020FDF7ACFA3A20FDF7A9FA0121A3
:103170000920FDF7EDF8237801210820522B00D11A
:10318000A8E3FDF7E5F809200021FDF7E1F80020AC
:10319000FDF796FA0B20FDF793FA01210920FDF7C0
:1031A000D7F8237801210820522B00D186E3FDF7C0
:1031B000CFF809200021FDF7CBF80020FDF780FAB9
:1031C0000620FDF77DFA01210920FDF7C1F82378DB
:1031D00001210820522B00D169E3FDF7B9F809203D
:1031E0000021FDF7B5F80020FDF76AFA1120FDF780
:1031F00067FA01210920FDF7ABF8237801210820A7
:10320000522B00D14CE3FDF7A3F809200021FDF774
:103210009FF80020FDF754FA2020FDF751FA012114
:103220000920FDF795F800210820FDF791F800210D
:103230000920FDF78DF8E120FDF742FA0121092070
:10324000FDF786F8237801210820522B00D120E3D6
:10325000FDF77EF809200021FDF77AF80020FDF740
:103260002FFAD020FDF72CFA01210920FDF770F884
:10327000237801210820522B00D103E3FDF768F8E1
:1032800009200021FDF764F80020FDF719FA02205B
:10329000FDF716FA01210920FDF75AF823780121DC
:1032A0000820522B00D1E6E2FDF752F80920002158
:1032B000FDF74EF80020FDF703FA0720FDF700FAAE
:1032C00001210920FDF744F8237801210820522B21
:1032D00000D1C9E2FDF73CF809200021FDF738F8DC
:1032E0000020FDF7EDF90A20FDF7EAF90121092098
:1032F000FDF72EF8237801210820522B00D1ACE2F3
:10330000FDF726F809200021FDF722F80020FDF73F
:10331000D7F90B20FDF7D4F901210920FDF718F8A2
:10332000237801210820522B00D18FE2FDF710F8FD
:1033300009200021FDF70CF80020FDF7C1F9182045
:10334000FDF7BEF901210920FDF702F823780121DC
:103350000820522B00D172E2FCF7FAFF092000216D
:10336000FCF7F6FF0020FDF7ABF93420FDF7A8F9D4
:1033700001210920FCF7ECFF237801210820522BC2
:1033800000D155E2FCF7E4FF09200021FCF7E0FF43
:103390000020FDF795F94320FDF792F9012109205E
:1033A000FCF7D6FF237801210820522B00D138E208
:1033B000FCF7CEFF09200021FCF7CAFF0020FDF733
:1033C0007FF94A20FDF77CF901210920FCF7C0FFB5
:1033D000237801210820522B00D11BE2FCF7B8FF13
:1033E00009200021FCF7B4FF0020FDF769F92B202C
:1033F000FDF766F901210920FCF7AAFF23780121D6
:103400000820522B00D1FEE1FCF7A2FF0920002189
:10341000FCF79EFF0020FDF753F91B20FDF750F944
:1034200001210920FCF794FF237801210820522B69
:1034300000D1E1E1FCF78CFF09200021FCF788FFB7
:103440000020FDF73DF91C20FDF73AF90121092084
:10345000FCF77EFF237801210820522B00D1C4E124
:10346000FCF776FF09200021FCF772FF0020FDF732
:1034700027F92220FDF724F901210920FCF768FF34
:10348000237801210820522B00D1A7E1FCF760FF2F
:1034900009200021FCF75CFF0020FDF711F91F2037
:1034A000FDF70EF901210920FCF752FF0021082049
:1034B000FCF74EFF00210920FCF74AFF5520FDF7DD
:1034C000FFF801210920FCF743FF237801210820A0
:1034D000522B00D17BE1FCF73BFF09200021FCF7D8
:1034E00037FF0020FDF7ECF8B020FDF7E9F80121E7
:1034F0000920FCF72DFFFFF706FB6B1EDBB2002651
:10350000062B00D854E1F14B1D71032D00D84BE17F
:10351000A022F02152005980082000211A80FCF7D7
:1035200017FF00210920FCF713FF3620FDF7C8F82C
:1035300001210920FCF70CFF237801210820522BE0
:1035400000D13DE1FCF704FF09200021FCF700FF5A
:103550000020FDF7B5F83000FDF7B2F80121092091
:10356000FCF7F6FEFFF7E3FAFCF7F2FE0021092074
:10357000FCF7EEFEFFF7AEFAFCF7EAFE00210920A9
:10358000FCF7E6FEFFF780FAFCF7E2FE00210920D7
:10359000FCF7DEFEFFF761FAFCF7DAFE00210920F6
:1035A000FCF7D6FEFFF742FAFCF7D2FE0021092015
:1035B000FCF7CEFEFFF723FAFCF7CAFE0021092034
:1035C000FCF7C6FEFFF704FAFCF7C2FE0021092053
:1035D000FCF7BEFEFFF7E5F9FCF7BAFE0021092073
:1035E000FCF7B6FEFFF7C6F9FCF7B2FE0021092092
:1035F000FCF7AEFEFFF7A7F9FCF7AAFE00210920B1
:10360000FCF7A6FEFFF788F9FCF7A2FE00210920CF
:10361000FCF79EFEFFF769F9FCF79AFE00210920EE
:10362000FCF796FEFFF74AF9FCF792FE002109200D
:10363000FCF78EFEFFF72BF9FCF78AFE002109202C
:10364000FCF786FEFFF70CF9FCF782FE002109204B
:10365000FCF77EFEFFF7EDF8FCF77AFE002109206B
:10366000FCF776FEFFF7CEF8FCF772FE002109208A
:10367000FCF76EFEFFF7A0F8FCF76AFE00210920B8
:10368000FCF766FEFFF781F8FCF762FE00210920D7
:10369000FCF75EFEFFF762F8FCF75AFE00210920F6
:1036A000FCF756FEFFF743F8FCF752FE0021092015
:1036B000FCF74EFEFFF724F8FCF74AFE0021092034
:1036C000FCF746FEFEF7FFFFFCF742FE0021092053
:1036D000FCF73EFEFEF7E0FFFCF73AFE0021092072
:1036E000FCF736FEFEF7C1FFFCF732FE0021092091
:1036F000FCF72EFEFEF7A2FFFCF72AFE00210920B0
:10370000FCF726FEFEF783FFFCF722FE00210920CE
:10371000FCF71EFEFEF764FFFCF71AFE00210920ED
:10372000FCF716FEFEF745FFFCF712FE002109200C
:10373000FCF70EFEFEF726FFFCF70AFE002109202B
:10374000FCF706FEFEF707FFFCF702FE002109204A
:10375000FCF7FEFDFEF7E8FEFCF7FAFD002109206C
:10376000FCF7F6FDFEF7BAFEFCF7F2FD002109209A
:10377000FCF7EEFDFEF78CFEFCF7EAFD00210920C8
:10378000FCF7E6FDFEF75EFEFCF7E2FD00210920F6
:10379000FCF7DEFDFEF73FFEFCF7DAFD0021092015
:1037A000FCF7D6FDFEF720FEA021F0224900B2E68C
:1037B000474A5B00D65C454B1D71032DF4D9A7E643
:1037C000FCF7C6FD00210920FCF7C2FDC3E6FCF7AB
:1037D000BFFD00210920FCF7BBFD85E6FCF7B8FD25
:1037E00000210920FCF7B4FD59E6FCF7B1FD0021EA
:1037F0000920FCF7ADFD3CE6FCF7AAFD00210920FD
:10380000FCF7A6FD1FE6FCF7A3FD00210920FCF74D
:103810009FFD02E6FCF79CFD00210920FCF798FDC6
:10382000E5E5FCF795FD00210920FCF791FDC8E5D1
:10383000FCF78EFD00210920FCF78AFDABE5FCF7C3
:1038400087FD00210920FCF783FD8EE5FCF780FD54
:1038500000210920FCF77CFD71E5FCF779FD0021D2
:103860000920FCF775FD54E5FCF772FD00210920E5
:10387000FCF76EFD37E5FCF76BFD00210920FCF736
:1038800067FD1AE5FCF764FD00210920FCF760FDE7
:10389000FDE4FCF75DFD00210920FCF759FDE0E4A3
:1038A000FCF756FD00210920FCF752FDB4E4FCF7BB
:1038B0004FFD00210920FCF74BFD97E4FCF748FD84
:1038C00000210920FCF744FD7AE4C046CC730220B5
:1038D00010050110FCF73CFD00210920FCF738FD24
:1038E00058E4FCF735FD00210920FCF731FD3BE4ED
:1038F000FCF72EFD00210920FCF72AFD1EE4FCF751
:1039000027FD00210920FCF723FDFFF701FCFCF750
:103910001FFD00210920FCF71BFDFFF7E2FBFCF770
:1039200017FD00210920FCF713FDFFF7C3FBFCF78F
:103930000FFD00210920FCF70BFDFFF7A4FBFCF7AE
:1039400007FD00210920FCF703FDFFF785FBFCF7CD
:10395000FFFC00210920FCF7FBFCFFF766FBFCF7EE
:10396000F7FC00210920FCF7F3FCFFF747FBFCF70D
:10397000EFFC00210920FCF7EBFCFFF728FBFCF72C
:10398000E7FC00210920FCF7E3FCFFF7FAFAFCF75B
:10399000DFFC00210920FCF7DBFCFFF7DBFAFCF77A
:1039A000D7FC00210920FCF7D3FCFFF7ADFAFCF7A8
:1039B000CFFC00210920FCF7CBFCFFF77FFAFCF7D6
:1039C000C7FC00210920FCF7C3FCFFF751FAFCF704
:1039D000BFFC00210920FCF7BBFCFFF723FAFCF732
:1039E000B7FC00210920FCF7B3FCFFF7F5F9FCF761
:1039F000AFFC00210920FCF7ABFCFFF7C7F9FCF78F
:103A0000A7FC00210920FCF7A3FCFFF799F9FCF7BC
:103A10009FFC00210920FCF79BFCFFF76BF9FCF7EA
:103A200097FC00210920FCF793FCFFF74CF9FCF709
:103A30008FFC00210920FCF78BFCFFF72DF9FCF728
:103A400087FC00210920FCF783FCFFF70EF9FCF747
:103A50007FFC00210920FCF77BFCFFF7EFF8FCF767
:103A600077FC00210920FCF773FCFFF7C1F8FCF795
:103A70006FFC00210920FCF76BFCFFF793F8C046B0
:103A8000F8B5CE464746804680B508200F00002195
:103A90001C001500FCF75CFC00210920FCF758FC19
:103AA0002A20FCF70DFE01210920FCF751FC4346BA
:103AB0008A4E1B0A9946337801210820522B00D1E7
:103AC000D4E0FCF745FC09200021FCF741FC002074
:103AD000FCF7F6FD4B46D8B2FCF7F2FD01210920B8
:103AE000FCF736FC337801210820522B00D1EEE0A0
:103AF000FCF72EFC09200021FCF72AFC0020FCF733
:103B0000DFFD4346D8B2FCF7DBFD013D0121092072
:103B1000FCF71EFC2B129846337801210820522B0B
:103B200000D1CDE0FCF714FC09200021FCF710FCCB
:103B30004346180EFCF7C4FD4346D8B2FCF7C0FD5F
:103B400001210920FCF704FC337801210820ADB2E3
:103B5000522B00D1ADE0FCF7FBFB09200021FCF764
:103B6000F7FB0020FCF7ACFDE8B2FCF7A9FD012152
:103B70000920FCF7EDFB00210820FCF7E9FB002100
:103B80000920FCF7E5FB2B20FCF79AFD0121092019
:103B9000FCF7DEFB3378012108203D0A522B00D1CF
:103BA00080E0FCF7D5FB09200021FCF7D1FB0020C9
:103BB000FCF786FDE8B2FCF783FD01210920FCF744
:103BC000C7FB337801210820522B64D0FCF7C0FBDF
:103BD00009200021FCF7BCFB0020FCF771FDF8B2C6
:103BE000FCF76EFD01210920FCF7B2FB3378013CA4
:103BF000012108202512522B46D0FCF7A9FB0920F1
:103C00000021FCF7A5FB280EFCF75AFDE8B2FCF7F3
:103C100057FD01210920FCF79BFB33780121082087
:103C2000A4B2522B29D0FCF793FB09200021FCF70A
:103C30008FFB0020FCF744FDE0B2FCF741FD0121C1
:103C40000920FCF785FB00210820FCF781FB0021FF
:103C50000920FCF77DFB2C20FCF732FD0121092017
:103C6000FCF776FBC0BCB946B046F8BDFCF770FB6C
:103C700000210920FCF76CFB2CE7FCF769FB002115
:103C80000920FCF765FBD7E7FCF762FB0021092060
:103C9000FCF75EFBBAE7FCF75BFB00210920FCF7B1
:103CA00057FB9CE7FCF754FB00210920FCF750FB75
:103CB00080E7FCF74DFB00210920FCF749FB53E7A7
:103CC000FCF746FB00210920FCF742FB34E7FCF738
:103CD0003FFB00210920FCF73BFB12E7100400200A
:103CE000F8B505000C0008200021FCF731FB00218D
:103CF0000920FCF72DFB2A20FCF7E2FC012109201A
:103D0000FCF726FB864E0121337808202F0A522B20
:103D100000D1CCE0FCF71CFB09200021FCF718FBCC
:103D20000020FCF7CDFCF8B2FCF7CAFC0121092009
:103D3000FCF70EFB337801210820522B00D1E7E07D
:103D4000FCF706FB09200021FCF702FB0020FCF732
:103D5000B7FCE8B2FCF7B4FC01210920FCF7F8FA43
:103D60003378013D012108202F12522B00D1C8E0E9
:103D7000FCF7EEFA09200021FCF7EAFA380EFCF70E
:103D80009FFCF8B2FCF79CFC01210920FCF7E0FA4B
:103D9000337801210820ADB2522B00D1AAE0FCF704
:103DA000D7FA09200021FCF7D3FA0020FCF788FCA1
:103DB000E8B2FCF785FC01210920FCF7C9FA0021D3
:103DC0000820FCF7C5FA00210920FCF7C1FA2B20D6
:103DD000FCF776FC01210920FCF7BAFA33780121BF
:103DE0000820250A522B00D17DE0FCF7B1FA09200A
:103DF0000021FCF7ADFA0020FCF762FCE8B2FCF70A
:103E00005FFC01210920FCF7A3FA33780121082087
:103E1000522B61D0FCF79CFA09200021FCF798FA9C
:103E20000020FCF74DFCE0B2FCF74AFC0121092020
:103E3000FCF78EFA3378013C012108202512522B21
:103E400043D0FCF785FA09200021FCF781FA280EFF
:103E5000FCF736FCE8B2FCF733FC01210920FCF743
:103E600077FA337801210820A4B2522B26D0FCF730
:103E70006FFA09200021FCF76BFA0020FCF720FC08
:103E8000E0B2FCF71DFC01210920FCF761FA0021DA
:103E90000820FCF75DFA00210920FCF759FA2C20D4
:103EA000FCF70EFC01210920FCF752FAF8BDFCF7E3
:103EB0004FFA00210920FCF74BFA34E7FCF748FAE7
:103EC00000210920FCF744FADAE7FCF741FA002167
:103ED0000920FCF73DFABDE7FCF73AFA002109207A
:103EE000FCF736FA9FE7FCF733FA00210920FCF7CC
:103EF0002FFA83E7FCF72CFA00210920FCF728FAB7
:103F000056E7FCF725FA00210920FCF721FA38E7EB
:103F1000FCF71EFA00210920FCF71AFA19E7C0463F
:103F200010040020104B10B514001A88824202D3EE
:103F30005B888B4200D210BD0B000200FFF7A0FD92
:103F400001210820FCF704FA00210920FCF700FAFF
:103F5000200AFCF7B5FBE0B2FCF7B2FB0121092017
:103F6000FCF7F6F9E7E7C046CC730220F0B5C64689
:103F700000B51C0006AB80460F0015001E8882426B
:103F800001D98C4202D880BCB846F0BD2300FFF7AF
:103F900077FD43460121ED1A0820E41BFCF7D8F910
:103FA000ADB200210920A4B26C43FCF7D1F9002581
:103FB000370AF6B23800FCF783FB01353000FCF716
:103FC0007FFBAC42F6D101210920FCF7C1F9DAE709
:103FD000F8B5144B04001D88002D02D05E88002E19
:103FE00000D1F8BD33002A0000210020FFF748FD72
:103FF00001210820FCF7ACF9002109206E43FCF7F1
:10400000A7F90025270AE4B23800FCF759FB01356F
:104010002000FCF755FBAE42F6D101210920FCF748
:1040200097F9DEE7CC730220F0B54E464546DE46F2
:1040300057461C00E0B5072687B0019310AB0391EB
:10404000198811AB8846198804900291A188203AFA
:104050000E40731E9E41CB08F3181600E0884643BD
:104060005E4323689C4605936644002861D0039B09
:10407000013B9BB29A46324B9946002959D0049B8A
:104080000025581E534601339BB29B4680B21CE06C
:1040900080232341471C134229D04B461A88BBB2C8
:1040A0009A4209D34B465B885B4505D35146029A39
:1040B000FFF738FF019B9988073C63425C4101355B
:1040C000ADB23619B8B28D4221D207241D4B3278D9
:1040D0002C409845DCD180232341471C1342EBD070
:1040E000174B1A889446BAB29445DCD2E4E74B46A3
:1040F0001A88BBB29A42DFD34B465B885B45DBD361
:1041000051464246FFF70EFF019B9988D4E74B07C3
:1041100000D00136019B0398DA8853461B1A0233FC
:104120009BB29A4205D9534601339BB29A46002965
:10413000A5D107B0F0BCBB46B246A946A046F0BD2B
:10414000CC730220FFFF0000F0B557464E464546AF
:10415000DE46E0B50F001E00844614008FB00B93BE
:1041600018AB1D8819ABA8460A921D78121A1AAB13
:104170001B780291D11706955518F21B9946D31753
:104180004D40D11859400891A4458941D3179A1A36
:104190005A400592564A01905648114084460A00FA
:1041A00002216244BC4608000992B4459241089934
:1041B0001040421E0C926A1A00214B468A4607950F
:1041C00004925D0052009BB2013D03920D93534651
:1041D00001335BB29A46069B012B06D10321504660
:1041E00004F0D6FD49B200294FD0434B019A1B88F9
:1041F000934223D3404B029A5B8893421ED3002DF7
:104200001CDD0023019A99460D9BD21A9346029A0F
:10421000D71ABFB24E4600245E44B6B2E11901344B
:104220004246300089B2A4B2FFF77CFEA542F5DC1D
:104230004B4601339BB299469D42EBDC059B039AAA
:10424000934211DC0A9A019B9A424AD0049A089937
:10425000521A099904928C4663449BB2019353000D
:10426000079A03939A42B2DB0B9A029B9A4238D088
:104270000799049A8C460C9962448C4663449BB21D
:104280000293530004920393A1E71B4B019A1B88EE
:10429000934223D3184B029A5B8893421ED3002D7E
:1042A0001CDD0023019A99460D9BD21A9246029A70
:1042B000D71ABFB24E4600245644B6B2E1190134B3
:1042C00030000C4A89B2A4B2FFF72CFEAC42F5DBF9
:1042D0004B4601339BB29946AB42EBDB00239A4637
:1042E000ACE70FB0F0BCBB46B246A946A046F0BD55
:1042F0000200FFFFFFFF0000CC730220F0B54F4625
:104300004646D646C0B584B01F000CAB1B881400CF
:1043100099460DAB1B7805009A462D4B0E001A8866
:104320009846904225D85B88994222D8944210D86A
:1043300053460293002301934B46220000930B0047
:10434000FFF702FF43461A88954212D85B889E42C7
:104350000FD89F420DD853460293002301934B463A
:104360002A00009331003B002800FFF7EDFE434692
:104370001A88944226D843465B889F4222D89E42A0
:1043800012D853460293002301934B462200009318
:10439000390033002000FFF7D7FE43461A889442C5
:1043A00010D85B88BB420DD395420BD8534602937D
:1043B000002301934B462A00009339003B00200064
:1043C000FFF7C2FE04B0E0BCBA46B146A846F0BD55
:1043D000CC730220F0B585B00AAC26880BAC2778E8
:1043E0000CAC2478A446094C258885420CD36488FB
:1043F0008C4209D3954207D39C4205D3644601976A
:1044000002940096FFF7A0FE05B0F0BDCC73022029
:10441000F0B583B008AC278809AC26780AAC2478BC
:10442000A4460C4C258885420BD364888C4208D363
:10443000954206D39C4204D3002E04D00097FFF788
:1044400095FD03B0F0BD644600970194FFF756FF59
:10445000F7E7C046CC730220F0B557464E46DE461D
:104460004546E0B585B01F000EAB1B888A46039316
:104470000FAB1B8881469B461F4B16001988984638
:10448000814231D3588850452ED31278002A2BD040
:10449000BB8855469C464C461DE0FB88EB18834282
:1044A00001DD55464C468C420CD885420AD85B4605
:1044B0000193039B2900009320003B00FFF7B4FD0C
:1044C000BB889C46727864440136A4B2002A0BD0A3
:1044D0004346198858886346E3188B42DDDDFB8824
:1044E0004C46ED18ADB2D9E705B0F0BCBB46B246BC
:1044F000A946A046F0BDC046CC730220F0B5C64622
:1045000000B5070084B03C493C4808F0B1FA0E23DE
:1045100001AD6B442E00984600211020FBF718FFD8
:104520003800FCF7CDF8C820FCF7F0F80020FCF7C5
:10453000D9F884B20020FCF7D5F82402A4B20443D1
:10454000A4B201211020E408FBF702FF3480C82048
:104550000236FCF7DBF84645DED12949274808F04A
:1045600087FA2B886A88934201D92A806B802B882E
:10457000AA88934201D92A80AB802B88EA8893428B
:1045800001D92A80EB802B882A89934231D86B8805
:10459000AA88934201D96A80AB806B88EA889342EB
:1045A00001D96A80EB806B882A8993421ED8AB8838
:1045B000EA88934201D9AA80EB80AB882A8993428A
:1045C00001D9AA802B812B89EA889A4200D9EB80F5
:1045D000AB8868880321C018EB88C01880B204F04B
:1045E000FFFB80B204B080BCB846F0BD6A802B816E
:1045F000DDE72B81CBE7C046C0C62D00000004409C
:1046000080A81201F8B5D020FFF778FF04009020B1
:10461000FFF774FF06000A20FCF778F8D020FFF7B8
:104620006DFF05009020FFF769FF07000A20FCF7E7
:104630006DF8AC420CD2230031330020AB4206DBD4
:10464000BE420DD2330031330020BB4210DAF8BD38
:104650002B003133A342F3DA0020AC42F7D1EAE772
:104660003B003133B34203DA0020BE42EFD1E9E729
:10467000044B6419F61970106410D8809C800120D6
:10468000E5E7C046D873022010B52A4B82B01B78EC
:10469000522B1BD0284B1A7E062A0CD0002A21D17F
:1046A000264A1A61264A5A61152252425A81123A02
:1046B0009A8102B010BD234A1A61234A5A618122AD
:1046C00092005A81162252429A81F2E71A4B1F4AEF
:1046D0001A611F4A5A616422FF325A81783AFF3ABE
:1046E0009A81E6E7032A0BD0052A13D1194A1A61E9
:1046F000194A5A61194A5A81142252429A81D8E7BA
:10470000174A1A61174A5A61162252425A81103AC0
:104710009A81CEE7144C2000FFF75AFCF8231B02C5
:1047200001933C210020114B114A0094FFF794FEA5
:10473000BFE7C04610040020D873022010B3B73D75
:10474000EA060A3E239F07BE5950B83D6DABB9BD7E
:10475000B6118F3D831808BE7826B43D05020000CF
:104760005B25B83DD05F083EFFFF0000F803002046
:1047700020050110F0B501260025802785B007200F
:10478000FDF750FD174C0021174A0020FCF730F8C8
:104790000420FDF747FD7F006E2382222A213E2060
:1047A000029601950094FFF733FE3A006E232A210A
:1047B000BE20029601950094FFF72AFECD238222A7
:1047C0008A213E20029601950094FFF721FECD2319
:1047D0003A008A21BE20029601950094FFF718FE48
:1047E00005B0F0BDFFFF000064050110F0B5CE4636
:1047F000474601240C2280B5424E85B03223002169
:104800003520029401940096FF32FFF701FEA023A9
:104810005B00002598460F3B42463221002002945F
:1048200001950095FF3BFFF7D5FD374F0F21052080
:10483000364B374A01950096FFF70EFE0F214620B2
:10484000344B354A01950096FFF706FE4246009725
:10485000F0233321002002940194FFF7D9FD009743
:1048600081238B224621142002940194FFF7D0FD6E
:1048700082238C2246211420029401950095FFF793
:10488000C7FD264B00975A212820254A01959946B5
:10489000FFF7E2FD2C23FF339846962742467F0020
:1048A0004621B420029401940096AA3BFFF7B0FD84
:1048B0003A0082234621B420029401950095FFF727
:1048C000A7FD4B465A21CD20164A01950096FFF7C9
:1048D000C3FD154B42460093A521DB23142002940F
:1048E0000194FFF795FDDC233A00A52114200294E2
:1048F00001950095FFF78CFD05B0C0BCB946B046E8
:10490000F0BDC046FF070000FFFF0000F8030020D5
:104910007C0501100004002084050110080400201B
:10492000940501109C05011030840000F0B5C646C6
:1049300000B5454C84B02378002B09D1434B1C783B
:10494000002C48D0FBF722FE04B080BCB846F0BD76
:104950003F4B1D78002DF7D1832201263D4B3E4F62
:1049600052001A809E7046218123142000977B3AC2
:1049700002960196FFF74CFD384B5A212820384A01
:10498000009701959846FFF767FD2C22354F81234C
:104990004621B420FF32029601960097FFF738FDBA
:1049A00043465A21CD20304A01950097FFF754FD28
:1049B0002C22DB23A5211420FF32029601960097BA
:1049C000FFF726FD0122C721012000F019FF2378FF
:1049D000002BB9D1B2E70125224F812300978B220A
:1049E0004621142002950195FFF712FD1B4E0097FA
:1049F00033005A2128201A4A0194FFF72DFD2C225A
:104A0000154F81234621B420029501950097FF326E
:104A1000FFF7FEFC33005A21CD20134A0194009782
:104A2000FFF71AFD2C22114BA52100931420DB2344
:104A300002950195FF32FFF7EBFCC722012101200F
:104A400000F0DEFE7EE7C0464C7402204E74022069
:104A50004D7402200C190020FF07000008040020FC
:104A600094050110FFFF00009C0501103084000038
:104A7000F0B5C64601250C2200B5704E84B0322335
:104A800000213520029501950096FF32FFF7C0FC0A
:104A9000A0235B00002498460F3B424632210020B1
:104AA000029501940094FF3BFFF794FC644F0F21A3
:104AB0003B000320634A01940096FFF7CDFC1420CD
:104AC0003B000F21604A01940096FF30FFF7C4FCC1
:104AD0000F216E205D4B5E4A01940096FFF7BCFCEF
:104AE0005C4B424600933321F02300200295019550
:104AF000FFF78EFC8C2364223C210A20029501954D
:104B00000096FFF785FC8C2364223C210A20029545
:104B100001940094FFF77CFC3B005A211E204E4A72
:104B200001940096FFF798FC8C23CD223C21732042
:104B3000029501950096FFF76BFC8C23CD223C215A
:104B40007320029501940094FFF762FC3B005A2108
:104B50008020424A01940096FFF77EFC9B235B0075
:104B600098463C214246DC20029501950096AA3BDE
:104B7000FFF74EFC42468C233C21DC200295019439
:104B80000094FFF745FC3B005A21E920344A019488
:104B90000096FFF761FCE623642296210A20029525
:104BA00001950096FFF734FCE623642296210A2043
:104BB000029501940094FFF72BFC3B00B9211E20C5
:104BC000284A01940096FFF747FCE623CD22962160
:104BD0007320029501950096FFF71AFCE623CD227B
:104BE00096217320029501940094FFF711FC3B007D
:104BF000B92191201C4A01940096FFF72DFC4246F2
:104C0000E6239621DC20029501950096FFF700FC33
:104C10004246E6239621DC20029501940094FFF79A
:104C2000F7FB3B00B921E120104A01940096FFF701
:104C300013FC04B080BCB846F0BDC046FF070000BE
:104C4000F80300207C050110A405011000040020D9
:104C5000AC050110FFFF000094050110B405011020
:104C6000BC050110C4050110CC050110D0050110D0
:104C700010B5154A1378052B0ED814499B00CB5854
:104C80009F460720FDF7CEFA114A00210020FBF7CE
:104C9000AFFD0420FDF7C6FA10BD002313700D4AC6
:104CA0001380FFF767FDF7E70720FDF7BBFA0A4A15
:104CB000EBE70720FDF7B6FA084AE6E70720FDF71D
:104CC000B1FA074AE1E7C0464F7402200C06011012
:104CD000D805011040740220E4050110F40501100C
:104CE00000060110F0B5CE46474680B5112085B0CC
:104CF000FBF738FB002800D07DE0FFF783FC00289D
:104D000034D1C64FC64E3B8835889846C54C237A69
:104D10007F2B03D8C023237263682360A84574D90E
:104D200073887A889A4270D9BF4F6A1E3C88302AAD
:104D300000D99FE05A1E302A00D99BE0002C00D1F8
:104D40009CE0FFF717FD00250023B84C3B80257041
:104D5000B74BB84C1D702378002B56D0FBF716FCD0
:104D60000122B54B25701A703C889EE0B34BAD4CC8
:104D70001B78522B54D0237E032B00D19EE0002BB6
:104D80004CD1A64F3B881800984604F093FE051CB2
:104D9000A08804F08FFE216904F07FFE011C281C0E
:104DA00004F061FE051C0A23E05E04F083FE011C92
:104DB000281C04F058FE04F09FFE994E85B2358001
:104DC000788804F077FE8146E08804F073FE61691C
:104DD00004F063FE011C484604F045FE81460C23A6
:104DE000E05E04F067FE011C484604F03CFE04F05F
:104DF00083FE70808BE708218A4B5956187A002968
:104E000008DB00221A60013A5A6005B0C0BCB946FE
:104E1000B046F0BD7F2202401A72F6E7052B77D12B
:104E2000E08804F047FE216904F037FE051C0A23E0
:104E3000E05E04F03FFE011C281C04F017FE04F0A5
:104E40005BFE774E85B23580A08804F033FE616941
:104E500004F023FE071C0C23E05E04F02BFE011C73
:104E6000381C04F003FE04F047FE6C4F70803B8852
:104E700098464CE72A00BF3A402A35D92A003F3AE3
:104E8000422A00D88DE02A00153A92B2762A64D8D8
:104E90001A00473A302A02D8032C00D1DAE0A63BA8
:104EA000352B02D8032C00D18AE0022CADD15F4C07
:104EB000FFF7DEFE237801332370A6E7A08804F015
:104EC000F9FD216904F0E9FD051C0A23E05E04F008
:104ED000F1FD011C281C04F0C9FD04F00DFE504E2C
:104EE00085B23580E088B0E71A002B3A422A44D8D0
:104EF000002CC8D10720FDF795F90021504A002069
:104F0000FBF776FC0420FDF78DF901233B807CE75D
:104F1000424F3B881800984604F0CCFD051CE08801
:104F200004F0C8FD216904F0B8FD011C281C04F040
:104F30009AFD051C0A23E05E04F0BCFD011C281C40
:104F400004F091FD04F0D8FD354E85B235807888A7
:104F500004F0B0FD8146A08837E72900B5397629ED
:104F600006D819004739302902D8032C00D17DE03A
:104F70008B2149008A4298D891E72A003F3A422A79
:104F800000D983E01A008B3A412A00D97BE7002C34
:104F900000D078E7FFF72AFC2A4B1C6003233B80F4
:104FA00033E71A002B3A422AECD8002C00D06AE7EB
:104FB00001231F4A1D4C1370237001333B8077E798
:104FC0001C4B1B78002B00D11FE728001821143838
:104FD0000302181AFF3103F0DBFE1A4D023C286071
:104FE00080B2FBF795FA184B3288A5211420029461
:104FF00001940093DB23FFF70BFA2C22134B30882C
:10500000A521029401940093FF32DB23FFF700FAFD
:1050100029680F4804F0D6FF3C8846E7CC7302208D
:10502000F4730220D8730220407402204F740220CF
:105030004B7402204D7402204E7402201004002094
:1050400070050110C0730220FF070000FFFF000081
:1050500024060110154B023C1C70FFF767FC002270
:10506000134B1A70134B1C703C881EE700240F4B27
:105070001C70FFF75BFCFBF789FA01220E4B1C60EA
:105080000B4B1A700B4B1C703C880EE71A008B3AC6
:10509000412A00D9F7E6002C00D0F4E6FFF7E8FC3F
:1050A00000F0F8FB01233B80AFE6C0464C740220C1
:1050B0004E7402204D740220C073022070B50500AA
:1050C00001211020FBF744F9054CD0202576FFF78D
:1050D00015FAA0809020FFF711FAE08070BDC0465D
:1050E000D873022070B505000E0016200121FBF7D1
:1050F0002FF9FF20FBF7E4FA00211620FBF728F92F
:105100001B4C02E0013C002C25D0FF20FBF7D8FA15
:10511000FF28F7D140202843FBF7D2FA0020FBF705
:10512000CFFA0020FBF7CCFA0020FBF7C9FA0020E9
:10513000FBF7C6FA3000FBF7C3FA0C2D14D020247D
:1051400003E0013CE4B2002C04D0FF20FBF7B8FAE6
:105150000306F6D470BD01211620FBF7F9F8FF20F5
:10516000FBF7AEFAFF20F5E7FF20FBF7A9FAE6E729
:10517000FFFFFF0010B5FBF7A3FA10BD7047C04654
:105180007047C04610B5074C02E0013C002C06D029
:10519000FF20FBF795FAFF28F7D1002010BD012072
:1051A000FCE7C046FFFFFF00F8B506000D00162023
:1051B00001211700FBF7CCF8FF20FBF781FA002153
:1051C0001620FBF7C5F81D4C02E0013C002C27D04F
:1051D000FF20FBF775FAFF28F7D140203043FBF79B
:1051E0006FFA280EFBF76CFA280CC0B2FBF768FACE
:1051F000280AC0B2FBF764FAE8B2FBF761FA38009C
:10520000FBF75EFA0C2E14D0202403E0013CE4B23C
:10521000002C04D0FF20FBF753FA0306F6D4F8BDA8
:1052200001211620FBF794F8FF20FBF749FAFF2035
:10523000F5E7FF20FBF744FAE6E7C046FFFFFF0073
:1052400070B5012105000920FFF74CFF061E09D0AB
:1052500001211620FBF77CF8FF20FBF731FA01262D
:10526000300070BD114C03E0002CF1D0013CA4B221
:10527000FF20FBF725FAFE28F6D1002CE8D02C0001
:105280001034FF20FBF71CFA28700135AC42F8D12E
:10529000FF20FBF715FAFF20FBF712FA0121162079
:1052A000FBF756F8FF20FBF70BFAD9E7FFFF0000EA
:1052B00000B585B06846FFF7C3FF00282ED16B46C6
:1052C0003F221B789343402B1FD06B46187ADB7923
:1052D00080099B00C0186B46C0229B7912019B027B
:1052E00013400130C0186B465A790F2313406A46A9
:1052F000927AD2099B186A46517A062249000A40DE
:105300009B18073B984005B000BD6B46187A5B7A46
:1053100000020133C01880B28002F4E70020F2E7F7
:10532000F0B5CE46474680B50121162083B0FBF785
:105330000FF80A24013CFF20A4B2FBF7C1F9002CAE
:10534000F8D1152503E0013DADB2002D2DD09521FA
:105350000020FFF7C7FE040006000128F3D1D52185
:1053600000235B4F8722082049003B70FFF71CFF9A
:10537000012831D101AB98461C0002AEFF20FBF79B
:105380009FF920700134B442F8D16B469B79012B10
:1053900054D001211620FAF7DBFFFF20FBF790F92C
:1053A0003C7863425C41E4B20EE0494F3D7001211C
:1053B0001620FAF7CDFFFF20FBF782F93B78002B90
:1053C00008D1002C00D1AA24200003B0C0BCB946EB
:1053D000B046F0BD0024F7E701213720FFF782FE39
:1053E00001212920FFF77EFE012813D93E70394D97
:1053F000394E03E0013DADB2B54244D00121012058
:10540000FFF770FE041EF5D10024002D3BD10023D0
:105410003B70CCE702232F4D2F4E3B7003E0013D44
:10542000ADB2B5422FD001213720FFF75BFE01213D
:105430002920FFF757FE041EF1D1E5E76B46DB7923
:10544000AA2BA6D1244B234D994603E0013DADB2D2
:105450004D4522D001213720FFF744FE8021012253
:105460002920C905FFF7A0FE041EEFD1002D14D19D
:1054700001211620FAF76CFFFF20FBF721F93B789A
:10548000002BA0D0A0E78021012210208900FFF787
:105490008BFE002800D18AE7B9E701213A20FFF707
:1054A00021FE002800D082E7FF20FBF709F94346E0
:1054B000187001239C46E044B045F5D16B461B793A
:1054C0005B0602D506233B7071E704233B706EE751
:1054D00042740220FEFF0000FFFF0000F8B5344BCD
:1054E00006001B781700062B00D049020122012F6D
:1054F00039D01220FFF758FE80239B009C4666445B
:105500002C4B2D4CF51803E0002C1ED0013CA4B20E
:10551000FF20FBF7D5F8FE28F6D1002C15D0FF2090
:10552000FBF7CEF828700135B542F8D1FF20FBF724
:10553000C7F8FF20FBF7C4F88023013F9B00FFB2B0
:10554000EE18002FDCD1002500E0012501210C2000
:10555000FFF7C8FD01211620FAF7FAFEFF20FBF73E
:10556000AFF82800F8BD1120FFF71EFE051EF1D18F
:10557000114C03E0002C19D0013CA4B2FF20FBF732
:105580009FF8FE28F6D1002C10D080239B00F41841
:10559000FF20FBF795F830700136B442F8D1FF20B8
:1055A000FBF78EF8FF20FBF78BF8D3E70125D1E757
:1055B0004274022000FEFFFFFFFF0000F8B54746DF
:1055C000CE4680B5504B06001B780C001700062B0A
:1055D00055D04C02012A66D0012B52D10122210064
:1055E0001920FFF7E1FD804600283CD180239B0075
:1055F000F518E23BFF3B9946444C02E0013C002C8D
:1056000024D0FF20FBF75CF8FF28F7D1FC20FBF744
:1056100057F8340020780134FBF752F8A542F9D14D
:10562000FF20FBF74DF8FF20FBF74AF8FF20FBF7C0
:1056300047F84B461840052808D180239B009C461C
:10564000013FFFB266446544002FD5D12F4C02E0E4
:10565000013C002C55D0FF20FBF732F8FF28F7D192
:10566000FD20FBF72DF801211620FAF771FEFF202F
:10567000FBF726F84046C0BCB946B046F8BD012A43
:1056800011D001213720FFF72DFD0122390017200D
:10569000FFF78AFD012221001920FFF785FD8046D2
:1056A0000028E0D1A2E7012221001820FFF77CFDAD
:1056B00080460028D7D1154C02E0013C002C20D0B8
:1056C000FF20FAF7FDFFFF28F7D1FE20FAF7F8FFD9
:1056D00080239B00F41830780136FAF7F1FFA642D8
:1056E000F9D1FF20FAF7ECFFFF20FAF7E9FFFF20DE
:1056F000FAF7E6FF1F230340052BB4D00223984698
:10570000B1E701239846AEE742740220FFFFFF0095
:10571000F0B500240F2585B0204804F0B1FB2048E7
:1057200004F0AEFB1F4F204E254232D078232200DA
:10573000E1B21A401C421DD0782A1BD000230F2250
:105740000093300001336A4407F0D0FA002811DBDF
:10575000164804F037FC2B0023400F2B11D01448BF
:10576000013404F02FFC802CDED1124804F088FBB9
:1057700005B0F0BD104804F025FC2B0023400F2B92
:10578000EDD10A20013404F02BFB802CEDD0254212
:10579000CCD12100380004F015FCC7E73406011015
:1057A0004406011078060110F804002030060110AC
:1057B00080060110840601108806011010B50E49FC
:1057C0000E4807F001FA03211A2000F019FB03210B
:1057D0001B2000F015FB002201211A2000F028FBFD
:1057E000002201211B2000F023FBC820FAF78AFFCA
:1057F000FFF78EFF10BDC046A0860100F804002010
:10580000F0B5D6464F464646C0B5451EAD0084B0FD
:10581000EDB203ACAB1D23701C4B00269A4607006B
:1058200091466170884622000223802150460096EE
:1058300007F0F4F9EB1D237022006670022380212B
:105840005046009607F0EAF97B1C9B0023704B46FC
:10585000220063708021022350460096093507F02C
:10586000DDF92200257066700223802150460096E3
:1058700007F0D4F94B4642463900054804F0A2FB34
:1058800004B0E0BCBA46B146A846F0BDF80400201A
:105890008C060110012310B50A4C84B0009300223D
:1058A0008021200007F0BAF9002302AA009380218A
:1058B0000133200007F01AFA02A9034804F082FB22
:1058C00004B010BDF8040020A806011010B5052092
:1058D00000F0EEF9014B186010BDC04654080020DE
:1058E000F0B54546DE4657464E46E0B583B00192D8
:1058F0000C9A050088469A4200D974E01A0E934625
:105900001E023000002359460C9A03F0ABFA374BC5
:105910006C009C466419A4006444636807008342D9
:1059200000D260602B1FDBB29946012B35D9C02312
:1059300080229B01234312011A602D4BAD0059595F
:105940009A46002905D0586903F04AFA0130013817
:10595000FDD1019A236852015340E0221A4080236E
:105960005B0123431A604A46012A2FD980238022F3
:105970009B01234312011A60300000233A0059466C
:10598000676003F06FFA53465851012003B0F0BC32
:10599000BB46B246A946A046F0BD4346012BC6D140
:1059A000C02303229B0123431A60023AA3681A42D0
:1059B000FCD0019A236852015A40E0231A40802308
:1059C0005B0123431A600A4AAD00924642462168B1
:1059D000514003220A401A60012243469A40A368BC
:1059E0001A42FCD0C2E70020D0E7C0460080004049
:1059F0006013002030B50C2083B001F0B5FC00F03E
:105A0000CDF900280ED0944B944A1A605A609A60DF
:105A1000DA601A615A619A61DA611A62904A5A62CE
:105A200003B030BD8F4CA06701F0F2FC01228E4B19
:105A30001A60636C012BFCD103228C4B1A60894ADB
:105A4000936B012BFCD101330121894A89480093D2
:105A5000043301F031FC0523874A00930121874874
:105A600001F02AFC864B5A68FF2A02D88022520095
:105A70005A608022784C7D4B21691201804D1A605A
:105A8000002905D0606903F0ABF901300138FDD180
:105A9000E0217B4B02201A681140802252012A43E8
:105AA00011601968484003210140116004219A687F
:105AB0001142FCD08022802192012A430901116009
:105AC000802252005A606F4B23616F4B5968FF2947
:105AD00000D85A600321644A6B4B116002399A68FE
