:020000041000EA
:1000000000B5324B212058609868022188439860DF
:10001000D860186158612E4B002199600221596106
:100020000121F02299502B49196001219960352056
:1000300000F044F80222904214D00621196600F024
:1000400034F8196E01211966002018661A6600F04E
:100050002CF8196E196E196E052000F02FF8012189
:100060000842F9D1002199601B49196000215960AB
:100070001A491B48016001219960EB211966A021F2
:10008000196600F012F800219960164914480160C1
:100090000121996001BC002800D000471248134993
:1000A000086003C880F30888084703B5996A0420EC
:1000B0000142FBD001200142F8D103BD02B5186610
:1000C0001866FFF7F2FF186E186E02BD00000240BE
:1000D000000000180000070000035F00212200005C
:1000E000F4000018222000A00001001008ED00E03C
:1000F00000000000000000000000000074B24E7A12
:1001000000200420F7010010C3010010C5010010F9
:10011000C1010010C1010010C1010010C101001097
:10012000C1010010C1010010C1010010C701001081
:10013000C1010010C1010010C9010010CB01001065
:10014000CD010010CD010010CD010010CD01001037
:10015000CD010010CD010010CD010010CD01001027
:10016000CD010010CD010010CD010010CD01001017
:10017000CD010010CD010010CD010010CD01001007
:10018000CD010010CD010010CD010010CD010010F7
:10019000CD010010CD010010CD010010CD010010E7
:1001A000CD010010CD010010CD010010CD010010D7
:1001B000CD010010CD010010CD010010CD010010C7
:1001C00000BE00BE00BE00BE00BE00BE00F04BF888
:1001D000103800BEF2EB8871A40A0110C80A0110A1
:1001E0003402001090A31AE700202149086006C8D5
:1001F00081F3088810471F48006800282FD10DA4FC
:100200000ECC002902D000F012F8F9E71A491B4A77
:10021000002000E001C19142FCD1194988471949E9
:1002200088471949884700BEFDE701C901C29A42C3
:10023000FBD37047C80A0110C0000020340500201D
:100240003C0F011000000420000004203C0F0110AE
:1002500000100420001004200000000070470B482C
:100260000AF096F80047EFF30580C0B2704700002F
:1002700008ED00E0000000D0380500208CC6022008
:100280008D8C00100D0300107D8D0010575600005E
:1002900006005250ABB36053600801100600525084
:1002A000861C030270080110060052505422A29DC1
:1002B0008008011005005250DE65F4683C0F011003
:1002C000F8B5C04610B5064C2378002B07D1054B76
:1002D000002B02D0044800E000BF0123237010BDB2
:1002E000400800200000000080E60010044B10B51C
:1002F000002B03D00349044800E000BF10BDC046F6
:10030000000000004408002080E6001010B500F056
:1003100001F8FCE710B500F071F800F039F801F0D1
:10032000C5FF06F0CDFD06F0D7FCC82104208900EA
:1003300002F044F8042006F0A5F904F001FA0020C8
:1003400003F0C0FE05F07EFA00210020054A04F00B
:10035000BFFB00210020044A04F0BAFB05F05EFF59
:10036000FCE7C04680E600108CE600100123D02296
:1003700083401206002901D0536170479361FCE766
:10038000D0231B065B68C340012018407047C0465D
:1003900010B50020D02407F07DF801232406A362C5
:1003A000012007F077F802230220A36207F072F819
:1003B00004230320A36207F06DF808230420A3623E
:1003C00007F068F810230022A3620121002007F043
:1003D00049F800220121012007F044F80022012100
:1003E000022007F03FF800220121032007F03AF82D
:1003F00000220121042007F035F810BDF0B5C646F3
:1004000000B584B0324803AB02AA01A908F082FB10
:10041000002803D12E492F4808F0B2FC039A029914
:10042000019808F03BFB0BF005F90DF0E1FF2A48BD
:100430000DF0FAFF0021402007F07EFE0F2007F0AC
:1004400029F8D024802324061B026362062007F0CB
:1004500021F88026402380276362B6010D2007F033
:1004600019F80720666207F015F81020676207F098
:1004700011F880235B0263621120984607F00AF8A6
:10048000802380259B02A362ED03162007F002F86B
:10049000002201211120656206F0E4FF43460F4966
:1004A00063610F486761666165610DF091FD01212F
:1004B0000A2006F0BFFF01210B2006F0BBFF01213F
:1004C0000C2006F0B7FF002004B080BCB846F0BD99
:1004D00090D0030098E60010F803002000093D00CA
:1004E0000000044010B584B06B460F246C44D91D45
:1004F00008700123220003480EF0B2F8207804B0FF
:1005000010BDC0460000044010B582B06B46DC1D33
:10051000991D08700123220002480EF0A1F82078EE
:1005200002B010BD0000044010B507F01DFE10BD64
:100530007047C046030010B50120002B00D010BD4D
:1005400006F0D2F90028FAD006F0FCF8FF2006F0F9
:10055000F5F806F0F9F80120F1E7C04600207047F1
:1005600070B50D00040011001A1E11D00120002CDE
:1005700000D070BD280006F095FA0028F9D006F0EA
:10058000E1F8FF2006F0DAF806F0DEF80120F0E7E7
:100590000420EEE770B50D00040011001A1E0AD009
:1005A0000120002C00D070BD280006F0EBFA431E9D
:1005B0009841C0B2F7E70420F5E7C04670B51400D3
:1005C0000125002808D102290FD007D8002911D011
:1005D00006F052F900252060280070BD042503298B
:1005E000FAD1082300251380F6E780239B0000251D
:1005F0001380F1E700211620FFF7B8FE06F0A6F8F9
:10060000431E98410121C5B21620FFF7AFFEE3E774
:1006100000207047013AF8B51B4BD500AD184833A0
:10062000ED00ED18C8234746CE465B0180B58046F5
:100630000E00002799463100404603F0CBFB012114
:100640000620FFF793FE2C0000210720FFF78EFE07
:10065000483C2088000AFFF745FF20780234FFF766
:1006600041FFAC42F5D1A023413701369B00FF3753
:10067000B6B2E5184F45DED101210720FFF776FE1F
:10068000C0BCB946B046F8BD58120020F0B5574678
:100690004E464546DE46E0B517005A4253416322B6
:1006A0005B42934385B0643380460E000093632F12
:1006B00000D8D2E00A21380009F0C4FE3800CCB2DC
:1006C000642109F0BFFEC8B20A2109F0BBFEC3B223
:1006D0009B466421380009F0B5FE5A46C3B21A435E
:1006E00003930292009A694B9446A5002D19143386
:1006F0006D00654401939C46002399468C23370086
:100700005B014E469A46B9466D0065443900404645
:1007100003F060FB01210620FFF728FE2C000021DA
:100720000720FFF723FE143C2088000AFFF7DAFEBB
:1007300020780234FFF7D6FEAC42F5D1A023413633
:1007400001379B00FF36BFB2E5185645DED10121C7
:100750000720FFF70BFE029B002B73D043460A3B9A
:100760009BB29A465B469D00009B5D449C46019B64
:100770006D0065449C4600234F4699468C235B01DF
:100780004E469B46B9466D0065443900504603F01D
:1007900021FB01210620FFF7E9FD2C0000210720A5
:1007A000FFF7E4FD143C2088000AFFF79BFE207849
:1007B0000234FFF797FEAC42F5D1A0234136013752
:1007C0009B00FF36BFB2E5185E45DED1039B4E4667
:1007D000002B37D09C469F00009B67449C46019BA2
:1007E0007F0067449C460023454698468C23143D71
:1007F000ADB25B0199462B00454698467F006744A1
:100800003100404603F0E6FA01210620FFF7AEFD75
:100810003C0000210720FFF7A9FD143C2088000AB6
:10082000FFF760FE20780234FFF75CFEA742F5D1A7
:10083000A0239B009C4641350136FF35B6B2674484
:100840004D45DDD101210720FFF790FD05B0F0BC3B
:10085000BB46B246A946A046F0BD3B000A3B592B19
:100860000ED80A21380009F0EDFD3800CCB20A217B
:1008700009F0E8FDC3B29B4602930023039331E7DE
:1008800000233C009B46029303932BE7944A0020ED
:10089000F0B5DE4657464E4645469346E0B5674CB2
:1008A0000122A5440290039104A8594601F09AFB45
:1008B000634E644F1E223B00310004A801F05CFC33
:1008C000594661480AF0AAFEB188738809041943A1
:1008D0005E480AF0A3FEB489738924041C432100F6
:1008E0005B480AF09BFEB38A728A1B04134319000B
:1008F000584800930AF092FE338BF28A1B0413438C
:100900001900554801930AF089FEB18B53480AF04B
:1009100085FE04A801F05EFC51480AF07FFE01222A
:10092000594604A801F05EFB3B002200310004A8F8
:1009300001F022FC4B4B1B78522B0CD004A801F089
:1009400049FC01208F239B009D44F0BCBB46B2466E
:10095000A946A046F0BD962292029446424B994683
:1009600063449846B4239B00F418693BFF3B9A46C6
:100970004D46B244B4223B003100520004A801F0BD
:10098000FBFBB4223B005200514604A801F0F4FBEB
:100990002800320093785178DB0889084901DB028E
:1009A0000B4311780332C9080B4303800230A24283
:1009B000F0D1E135FF354545DCD16B460399188907
:1009C00003F008FA01210620FFF7D0FC00210720E0
:1009D000FFF7CCFC254926480DF076FB5946254803
:1009E0000DF09AFD002815D0594623480DF094FDCE
:1009F000002819D04C462088000AFFF773FD2078A4
:100A00000234FFF76FFD4445F5D101210720FFF7C0
:100A1000ADFC93E7009A019B13495A43520092B2EE
:100A200016480AF0F1FB89E7009A019B0E495A43E8
:100A3000520092B212480AF0E7FB7FE7C4FDFFFFC5
:100A4000BC0C00205C080020CCE60010D4E60010AE
:100A5000E8E60010FCE6001014E700102CE7001098
:100A600040E7001010040020F86D002080B2E60E70
:100A70000000044080E600108CE6001058120020B0
:100A8000944A0020002370B50371013B04000D005F
:100A9000C3624B1C09D00A00210001234078303189
:100AA000FFF75EFD00281FD1E562124BE25A124BA0
:100AB0009A421BD122006632538811881B040B43D3
:100AC0000E4A1B021B0A934212D08223E25A0C4B9D
:100AD00082349C466088000410430002000A60448F
:100AE000431E9841C0B270BD0320FCE70220FAE724
:100AF0000020F8E72E02000055AA000046415400ED
:100B0000BABEABFFF0B5C646C66A04000D0000B51C
:100B10008E4235D0070003793037002B0BD10123EB
:100B20002A0039006078FFF71BFD002826D1E56216
:100B300080BCB846F0BD0123320039004078FFF791
:100B400029FD00281AD1226AA3692071B21A9A429B
:100B5000E5D2E2789046012A01D8E0E7A369F618C9
:100B60003200012339006078FFF714FD01235B4256
:100B70009C46E0444346012BF0D1D0E70120D7E763
:100B80000020D5E7F0B54546DE4657464E460023E1
:100B9000E0B50C68150083B00360002C00D1C4E000
:100BA0002378303B082B00D8B6E0C84B1C68002CDB
:100BB00000D11DE123780460002B0FD06078FFF78F
:100BC000CDFCC3070AD4002D00D10DE104231E0083
:100BD0000640034200D1FFE00A26FDE0002300208A
:100BE0002380FFF7A7FCC30700D5FFE0002D01D04D
:100BF0004307F1D400212000FFF744FF060001283D
:100C000000D194E0032800D13AE10025002800D06B
:100C1000E1E022003B321178537880221B029200DF
:100C20000B43934200D0D6E04623E65A002E00D173
:100C3000666D4023A661E25C531EE270012B00D971
:100C4000C9E03D23E75CA770002F00D1C3E07B1E05
:100C50001F4200D0BFE04123E15C230041335B78B9
:100C60001B020B43984623811B0700D0B3E04323AC
:100C7000E15C230043335B781B020B4300D1236DFF
:100C8000E18F8B46002900D1A5E07243110001924B
:100C900042468A4612095A449244534500D29AE089
:100CA00052469B1A99463900180009F0CBFBB9450A
:100CB00000D290E0864B984200D8E3E0854B984202
:100CC00000D821E15B46EB1823625346EB18A36280
:100CD000434602306061E561002B7CD1E36D80000A
:100CE00063627D4B9C466044400A864273D3012375
:100CF0005B422361E36081336371203BE35A012B44
:100D000000D182E00323754A237013880026013343
:100D10009BB21380E3805FE062783A2A00D044E718
:100D200002340C60002B00D13FE70B2654E0F9237E
:100D30005B00E35C0027002B0CD0FB235B00E11879
:100D4000E25C4B788F781B021A43CB783F04174341
:100D50001B061F43624B0025E35C002B0BD0614B4D
:100D6000E2185178E55C090293782943D5781B0491
:100D700019432D060D4300225B4B9046E35C002B8C
:100D80000CD05A4BE0184278E15C12028378114390
:100D9000C2781B040B4312061A4390460022544BA0
:100DA0009146E35C002B0CD0524BE0184278E15C9A
:100DB000120283781143C2781B040B4312061A43B4
:100DC0009146002F45D1002D4BD14346002B4FD1EA
:100DD0004B46002B0ED10D26300003B0F0BCBB46B5
:100DE000B246A946A046F0BD0026F5E70326F3E784
:100DF0000C26F1E749462000FFF744FE4D46002847
:100E000000D106E70328E7D0E5E72000691CFFF7DB
:100E100079FE002800D075E743466371364BE25AED
:100E2000364B9A4200D06DE7354B226B9A4200D088
:100E300068E785229200334BA2589A4200D061E7BE
:100E4000862387229B009200E358A2582361E26028
:100E500058E739002000FFF715FE0028B3D13D0008
:100E6000D7E629002000FFF70DFE0028ADD1D0E61F
:100E700041462000FFF706FE45460028A8D1C8E6F7
:100E80000126A9E75B464146EB18821CE561554403
:100E900062612362A56200299DD0019950008C46B1
:100EA000634463620123801840081A4080180A4A8C
:100EB00094466044400A864200D28CE701225242A6
:100EC0002261E260813262711DE7C0466008002045
:100ED000F50F0000F5FF0000FF01000076C60220BC
:100EE00002020000060200001202000016020000CA
:100EF00022020000260200002E02000055AA000077
:100F000052526141727241615B464246EB180230B7
:100F1000E561554460612362A562002A00D15AE769
:100F2000019A40009446634463620223BFE7C046CF
:100F3000F0B5C646077804000D0000B5022F08D0B2
:100F4000032F3FD0012F17D00120404280BCB8466C
:100F5000F0BD036A090A9C466144FFF7D3FD0028EF
:100F6000F2D1FF216D0049000D40641930346378DF
:100F700020781B021843E9E7036A4E089C4676185E
:100F8000710A6144FFF7BEFD0028DDD1F305DB0DDA
:100F9000E31830331B7801369846236A710A9C4661
:100FA00020006144FFF7AEFD0028CDD14346F60591
:100FB000F60DA41930342078000218432F421FD0B8
:100FC0000009C3E7036AC9099C466144FFF79AFD1B
:100FD0000028B9D1FE21AD0049000D402B0030336F
:100FE000E318D8789A786419120400063034104354
:100FF0005B7822781B021043184300010009A5E723
:101000000005000DA2E7C046F8B54E46DE4657463D
:1010100045469B468468C368E0B51B1B06000F006D
:101020009946934200D991464B46002B00D190E05F
:101030002200D305DD0D002B41D13368500A997889
:101040004C1E0440E4B2002C00D184E070695A695F
:101050000238023A904200D38CE0996A9A788C4622
:1010600050436044002800D184E080468021A044A1
:101070008900894500D386E0B26990451AD03500D1
:101080004024B17928350C420BD05878290001232F
:10109000FFF780FA002800D0A0E0B379A343B37132
:1010A00033685878424601232900FFF759FA00288F
:1010B00000D093E04346B361B368DD05ED0D8023B6
:1010C0009B00591B494500D9494602242B00A446E0
:1010D0002933F3180634FB1A9C459B41A446481E4D
:1010E0002A008445A44128325B426442B2181C4263
:1010F00000D177E03B0013439B0700D072E0002350
:101100008C08A400D558FD500433A342FAD1032320
:101110000C009C4323001219C01A3C198B4209D0C1
:1011200013782370002805D053786370012801D00C
:101130009378A370B3685846CA185B461B68B260C0
:101140005B1803604B465B1A99467F18002B00D052
:101150006FE7002011E0002A32D13069012809D957
:10116000431C3BD0336870615A690238023A90429E
:1011700000D272E702230220F371F0BCBB46B246F4
:10118000A946A046F8BD4946490A8A4661188A42DE
:1011900001D2121B92465246D2B25878390013003F
:1011A0004246FFF7DDF9002818D1B3795B0604D574
:1011B0004246B3699B1A9A4530D853465902B9E75B
:1011C000726A9246002A14D171690129D2D95A69EA
:1011D0009142CFD21800FFF7ABFEBFE701230120F9
:1011E000F371CAE70023D05CF85401339942FAD175
:1011F000A0E704235344984609F024F953465B685A
:10120000002BB7D0424604E00832C01A1368002B06
:10121000B0D09842F8D25368C0189FE7310032002E
:1012200002205B02FB1829312832591A88420BD25E
:1012300019001143890707D15159595180210435AB
:1012400089008D42F8D1B8E7515D595580210135AB
:1012500089008D42F8D1B0E7F8B54746CE4606780A
:1012600004000D00904680B5022E0BD0032E45D011
:101270000227012E1AD0012338002371C0BCB946C1
:10128000B046F8BD036A090A9C466144FFF73AFC80
:10129000071EF0D16B00FF2542466D002B40E3187E
:1012A00030331A7092B2120A5A70E4E74B0899462A
:1012B00089444B46590A036A9C466144FFF722FC65
:1012C000071ED8D14B46DB05DB0DE31830332E4229
:1012D00033D00F2219784D461140424612010A437D
:1012E0001A70236A01359C46690A20002671614400
:1012F000FFF708FC00283DD00700BCE7036AC909D6
:101300009C466144FFF7FEFB071EB4D1FE21AD00F1
:1013100049000D402B0041463033E318DA78651957
:10132000120912070A4391B2090A30352A7059701E
:10133000110C120E9970DA709DE742461A704D46F4
:10134000236A01359C46690A200026716144FFF733
:10135000D9FB0028D0D1ED05ED0D65192B004246D3
:101360000F2130331B78120A8B430A401A43303561
:101370002A7080E74346ED05ED0D1A09D2B26519D2
:10138000F5E7C046F8B503790400002B0BD12378AC
:10139000032B29D0002200216078FFF70FF9431EAC
:1013A0009841C0B2F8BD0700C56A303701232A0052
:1013B00039004078FFF7EEF800283AD1226AA36995
:1013C0002071AA1A9A42E2D2E678012E01D8DEE70D
:1013D000A369ED182A00012339006078013EFFF768
:1013E000D9F8012EF4D1D2E76379012BD2D12500AF
:1013F0008022303500219200280009F0FFFE0E4BBC
:101400000E4A2900E2520E4B0E4A236385239B00AD
:10141000E25022690433E250E2680433E250E369A7
:1014200060785A1CE2620123FFF7B4F8002363716D
:10143000B0E70120B6E7C0462E02000055AAFFFF24
:101440005252614172724161F0B54E464546DE46E8
:101450005746E0B58946050083B000291ED1C7680C
:101460004369002F34D10137FF2252009346023ADC
:101470003C00924601349C421FD3012F00D891E0DA
:10148000022B1CD902242E78022E00D176E0032EE6
:1014900057D0012E20D00124644211E001290ED042
:1014A000436999420BD2FFF743FD0400012806D996
:1014B0006B69834204D84F46D6E7012CE3D8012458
:1014C000200003B0F0BCBB46B246A946A046F0BD22
:1014D000BB42C9D80127C7E763089846A0444346E2
:1014E000590A2B6A28009C466144FFF70BFB002831
:1014F000D1D14346DB05DB0DEB1830331B782800D8
:10150000019301239C46E0444346590A2B6A9C46BA
:101510006144FFF7F7FA0028BDD14146CB05DB0D4A
:10152000EB1830331B78019A1B02134326423BD041
:101530001B09002B3BD0012BC1D0A74232D06B69D5
:1015400098E72B6AE1099C4628006144FFF7DAFA24
:101550000028A0D15346A2001A401100303169186A
:10156000CB788878AA18303212781B06000403431F
:1015700013434A78120213431B01D9E72B6A210A4D
:101580009C4628006144FFF7BDFA002800D082E79E
:101590005B4662001A40AA1830325178137809026B
:1015A0000B43C6E700248BE71B051B0DC1E76B69E6
:1015B000A34200D883E721002800134AFFF74CFE1E
:1015C000002803D0012800D165E778E74B46002BBF
:1015D0000DD0012B00D172E76B69994500D36EE7FE
:1015E000220049462800FFF737FE0028EAD12B6980
:1015F000EC605A1C00D163E70122013B2B616B793F
:1016000013436B715CE7C046FFFFFF0FF0B5574611
:101610004546DE464E46E0B5856807000C0083B0BF
:10162000C180012D26D006687369AB4222D9002DF6
:1016300057D0B27812019046914200D291E0FF2239
:10164000520093469D4215D233789946022B00D121
:1016500095E0032B5AD0012B14D001200BE0756AC2
:10166000002D41D0B27812019046914200D278E02C
:10167000012DE4D1022003B0F0BCBB46B246A9461E
:10168000A046F0BD6B089A46AA445346590A336AED
:1016900030009C466144FFF735FA0028DDD15346FF
:1016A000DB05DB0DF31830331B7830000193012389
:1016B0009C46E2445346590A336A9C466144FFF70C
:1016C00021FA0028C9D15146CB05DB0DF61830367A
:1016D0003378019A1B0213434A462A4263D01D09FC
:1016E00032E03278032ABAD00023FB603389A34268
:1016F000C0D9726A2309944663443B610F210C40B0
:1017000030366401341900207C61B4E7336AE9099A
:101710009C4630006144FFF7F5F900289DD1FE2278
:10172000AB00520013401A003032B218D5789178CD
:10173000F31830331B782D0609040D431D435378ED
:101740001B021D432D012D09012D93D93E6873699C
:10175000AB4200D88EE74246A41AA4B2444500D357
:1017600070E7FD60023B023D9D421FD2B3785D43AE
:10177000B36A9C46654423095D193D61BEE7336A3F
:10178000290A9C4630006144FFF7BCF9002800D0CC
:1017900063E75B466D001D40761930367378357807
:1017A0001B021D43D0E71B051D0DCDE70025E2E719
:1017B000F8B557464546DE464E46E0B50B7805007F
:1017C0008A462F2B53D05C2B51D000245346AC605B
:1017D0001B781F2B54D95646AB6932782F2A01D07B
:1017E0005C2A01D10136F8E720221A705A709A70EB
:1017F000DA701A715A719A71DA711A725A729A728F
:101800003278202A19D900218C46083188460221D5
:101810008A4603218B46711E894661469C462B00F1
:1018200000244546012798460B002F2A55D05C2AF4
:1018300053D02E2A2AD09D4206D80620F0BCBB46A3
:10184000B246A946A046F8BD51B2002905DA59466C
:101850000C43B449803A8A5CE4B22221B24803E0E6
:1018600041780130002923D08A42F9D1E5E70123EC
:101870009C460024E2445346AC601B781F2BAAD838
:1018800000212800FFF7C2FE6C61D7E7082DD4D1F4
:1018900008230B25A400E4B24A460137D25D202A72
:1018A000C3D842466346A846F619150004221DE037
:1018B00011004139192906D851460C43E4B261465A
:1018C000CA540133E8E7110061391929F7D8012119
:1018D000203A0C43E4B2D2B2F1E742461900A846DE
:1018E00063461500F6190029A7D000221978E529CA
:1018F00001D1E03919704146082900D105E10321E1
:101900002140012901D10F310A430C210C40042C44
:1019100001D104390A4300212800DA72FFF776FE6C
:10192000002800D0F7E02C682F69B0463E00270061
:101930000823FC6A9A46B4420ED0302291463B7985
:10194000B944002B31D10123320049467878FEF7A3
:1019500007FE002859D1FE626A691478002C5FD016
:1019600050465346D17A08400B4261D0EC8801348E
:10197000A4B2002C54D02E69002E51D00F23234046
:1019800099460F23234242D02F684B465A013B0011
:10199000EC803033FC6A9B186B61B442DCD030229F
:1019A00091463B79B944002BCDD001232200494612
:1019B0007878FEF7EFFD002827D13A6ABB693871C5
:1019C000A21A9A42BFD2FA789346012ABBD93100B3
:1019D0002A004E465D468946934600E0BB69E418FE
:1019E0002200012331007878013DFEF7D3FD012D5F
:1019F000F4D14B46B1461E004946012332007878A7
:101A00005D46FEF7ADFD0028A5D0012016E7E96888
:101A100001362F682E61002954D13B89A342B4D8E6
:101A2000AB69DB7A04205B0700D507E7052005E7F3
:101A3000AB691F78A74299D157785C78A74295D1B6
:101A40009F789478A74291D1D778DC78A7428DD13E
:101A500017791C79A74289D157795C79A74285D13A
:101A600097799C79A74200D080E7D779DC79A742A3
:101A700000D07BE7177A1C7AA74200D076E7577A26
:101A80005C7AA74200D071E7977A9C7AA74200D08F
:101A90006CE7DC7A4646640700D5CFE6C906C5D5B3
:101AA000D17E907E0902014328680078032801D086
:101AB000A96092E6147D527D120222431204114362
:101AC000A9608AE6BB782209013B1A4200D05CE794
:101AD000012918D07B69994215D23800FFF728FAFE
:101AE000012810D9431C90D02F687B69984297D267
:101AF000E860023B023898420AD2BB785843BB6A7E
:101B0000C6182E6141E7022098E6A400E4B2FCE684
:101B100000262E6139E7AB69DB7A042800D08DE618
:101B200080E7C0465CE700104CE70010F8B545467A
:101B3000DE4657464E464369E0B504000D00994223
:101B400000D398E0012914D9FF2326785B00994639
:101B5000023B98460127022E00D175E0032E38D0B3
:101B6000012E08D00120F0BCBB46B246A946A046D3
:101B7000F8BD0220F7E76B089A46AA445346590A73
:101B8000236A20009C466144FEF7BCFF0028E9D18F
:101B90005346DB05DB0DE31830331B7820009B46F2
:101BA00001239C46E2445346590A236A9C466144F9
:101BB000FEF7A8FF0028D5D153465A46DB05DB0DBA
:101BC000E31830331B781B0213432E4255D01E09F5
:101BD0001CE0236AE9099C4620006144FEF792FF5D
:101BE0000028BFD14246AB0013401A003032A21881
:101BF000D6789178E31830331B78360609040E4303
:101C00001E4353781B021E4336013609002E32D084
:101C1000012EAED06369AB42ABD90022290020006F
:101C2000FFF71AFB00289ED123695A1C20D00133EC
:101C3000236163793B43637163699E421BD2350024
:101C40002678022E00D089E7236A290A9C462000C4
:101C50006144FEF757FF002800D083E74A466B0037
:101C60001340E31830335A781E7812021643CDE73A
:101C70006369B342E3D8002075E71E05360DC5E75A
:101C8000F0B5DE464E4657464546E0B5002185B0E4
:101C90000600FFF7BBFC041E0AD0042800D107246D
:101CA000200005B0F0BCBB46B246A946A046F0BD38
:101CB0003369356898460F239A46EC6A44450ED03E
:101CC0002F002B793037002B59D1012342463900A0
:101CD0006878FEF745FC002842D14346EB62736901
:101CE0001B78E52B01D0002B24D131693068FEF739
:101CF00009FF041ED4D120220021706909F07EFA68
:101D00007369B26919001143890700D0F1E0511CD1
:101D1000591A022900D8ECE011681960516859601D
:101D2000117A1972517A5972927A9A720122336831
:101D30001A71B5E7F4880134A4B2002CAFD033692E
:101D40009846002BABD0574653462740234209D034
:101D500035687B012F003037FF18F4807761ACE7DE
:101D600001249DE701239C46E0444346F168356821
:101D70003361002928D12B89A342EAD88FE70123B8
:101D8000220039006878FEF705FC0028E8D12A6AAD
:101D9000AB692871A21A9A4297D2EA789146012A31
:101DA00093D932002E004D46914600E0B369E41805
:101DB0002200012339007078013DFEF7EBFB012D75
:101DC000F4D135004E4680E7AB782209013B1A4238
:101DD000BFD1012921D06B6999421ED22800FFF79B
:101DE000A7F802000190012817D9431CB8D0356824
:101DF0006B69984213D2023A0292023B019AF26056
:101E0000029A934200D885E0AB785A431300AA6A3D
:101E100090469844434633619BE7022440E72800FC
:101E2000F168FFF711FB031E019000D137E701288D
:101E3000F3D0013394D035682B79002B6DD1280075
:101E4000802200219200303009F0D8F9019B3568DA
:101E50009A1E6B690292023B9A4200D390E01100F5
:101E6000A86AAA788046514388444146E962002A1C
:101E70003CD000230394BB464446B14698462F000D
:101E8000012330372200390068782B71FEF782FB7E
:101E9000002800D064E72A6AAB692871A21A9A4226
:101EA0000ED2EE78012E01D80AE0AB69E4182200C8
:101EB000012339006878013EFEF76CFB012EF4D156
:101EC0004B4647461D680137EB6A5C1CFBB29846DF
:101ED000AB78EC624345D2D84346A04642465F46C3
:101EE0004E46D31A98466B69039C023B4246EA620F
:101EF00084E7117819705178597091789970D17878
:101F0000D970117919715179597191799971D17982
:101F1000D97105E7002398467CE7EB6A6878984614
:101F200030239B46AB44424659462F3BFEF732FBDB
:101F3000002800D014E74246296AAB692871521A7A
:101F40009A421BD2EA789146012A17D942463100BB
:101F5000A0462E0014004D46B9465F468B4600E071
:101F6000B369E4182200012339007078013DFEF7BF
:101F700011FB012DF4D144464F465E4635685EE7BD
:101F80000021AA78884670E700B583B00B1E019047
:101F900000911AD00978303908290FD910490B68F7
:101FA000002B01D000201870019B002B15D00020C1
:101FB0000B601870012A0AD003B000BD58783A2887
:101FC000ECD1023300930029E8D00B20F4E7002283
:101FD000694601A8FEF7D6FDEEE700200B60EBE7AF
:101FE00060080020F0B54746CE4680B58DB00400AD
:101FF00017000191002868D000231E2203603A4098
:1020000001A905A8FEF7BEFD051E05D028000DB0EC
:10201000C0BCB946B046F0BD1F233B40984601996D
:1020200002AB05A80B93FFF7C3FB00280FD10A9E54
:10203000002E00D19BE01C233B420FD01122F37AEB
:102040001A4246D17B0700D48DE00825DEE71C2329
:102050003B4201D004283ED00500D7E7F37ADA06E8
:1020600035D4BA0701D5DB0733D4082205983A40A6
:1020700003D0424620231A439046C36A2662E36196
:102080004346A3710023E371F37EB27E1B02134328
:102090000278032A05D1727D377D12023A43120479
:1020A00013432361717F337FB27F09021943F37FAA
:1020B000120411431B060B43E36000232060A3605E
:1020C000A3616362C388A380A0E709259EE7042576
:1020D0009CE707259AE705A8FFF7D2FD42460823AB
:1020E0001A4390460A9E0028B6D1FEF791FA83B2B1
:1020F0001B0AF373030C33740023B073000E707467
:102100000598F77EF37233777377B377F377B27E00
:1021100003783F021743032B05D1737D317D1B02EA
:102120000B431B041F430023B376F376337573759B
:1021300001330371002F9CD0012F1AD043699F42B5
:1021400017D2C36A39009946FFF7F0FC002883D103
:102150000598013F4946C760FEF7D4FC002800D02F
:102160007AE7059885E73B07BFD4059885E70625FC
:102170004CE702254AE7C046F8B51D0000230400DD
:102180000E0017002B6000281ED00368002B1BD008
:102190001A78002A18D08288D9880920914200D064
:1021A000F8BD5878FEF7DAF90123034210D1E0793F
:1021B0000028F5D1A279134208D02B003A00310053
:1021C0002000FEF721FFEBE70920E9E70720E7E71A
:1021D0000320E5E7F8B5041E60D00368002B5DD04E
:1021E0001A78002A5AD0D98882880925914201D0CC
:1021F0002800F8BD5878FEF7B1F901231D0005400D
:1022000003424DD1A3799A0645D540261E420CD0F3
:1022100021002368A269587828310123FEF7BAF912
:1022200000283FD1A379B343A371E1692068FEF789
:1022300069FC071E01D00500DAE72022266AF37A3E
:102240001343F372E3683377A3891B0A7377E38937
:10225000B377E37BF3772369B3769AB21B0C120A48
:1022600033751B0AF2767375FEF7D2F9202283B21A
:102270001B0AB075F375030C000E33767076B774D5
:10228000F774A37920689343A37101230371FFF7C7
:1022900079F8002808D100232360A9E70925A7E7DA
:1022A0000325A5E70125A3E70500A1E710B5012156
:1022B0001620FEF75BF801210720FEF757F80121F1
:1022C0001020FEF753F80D4901220D48FFF75CFE80
:1022D0000C4B011E187003D00B4809F09FF910BD7C
:1022E0000A4809F0F9F80A4B0A4A19001431FF317B
:1022F00008C20B338B42FBD1F1E7C04694020110B8
:10230000604800207DC6022098020110D002011012
:1023100040110020946D002070B5254C2378522B7D
:1023200000D070BD431EDBB20025062B31D9214BF6
:102330001871032829D9A022F021520059800620C3
:1023400000211A80FEF712F800210720FEF70EF890
:102350003620FEF7C7F801210720FEF707F823789B
:1023600001210620522B1CD0FEF700F80720002187
:10237000FDF7FCFF0020FEF7B5F82800FEF7B2F8E5
:1023800001210720FDF7F2FFCBE7A021F022490051
:10239000D4E7094A5B00D55C064B18710328F4D9D1
:1023A000C9E7FDF7E3FF00210720FDF7DFFFE4E7C2
:1023B0001004002010C60220F802011070B501219F
:1023C00082B005000F20FDF7D1FFFA204000FEF794
:1023D000ABF800210F20FDF7C9FFFA204000FEF7FF
:1023E000A3F801210F20FDF7C1FFFA204000FEF7FE
:1023F0009BF86B469E1D0023002107203370FDF7DC
:10240000B5FF00210620FDF7B1FFDC20FEF76AF8DA
:102410006B46DC1D220001233100F4480CF020F94A
:1024200001210720FDF7A2FF2378F14C00210620AF
:102430002370522B01D100F000FCFDF797FF002123
:102440000720FDF793FF2120FEF74CF8012107201C
:10245000FDF78CFF00210620FDF788FF00210720F3
:10246000FDF784FFC220FEF73DF801210720FDF7AC
:102470007DFF237801210620522B00D1D6E3FDF702
:1024800075FF07200021FDF771FF0020FEF72AF8F5
:102490003320FEF727F801210720FDF767FF002111
:1024A0000620FDF763FF00210720FDF75FFFC52031
:1024B000FEF718F801210720FDF758FF23780121C6
:1024C0000620522B01D101F0E1F9FDF74FFF072063
:1024D0000021FDF74BFF0020FEF704F80020FEF777
:1024E00001F801210720FDF741FF23780121062093
:1024F000522B01D101F0C2F9FDF738FF072000216E
:10250000FDF734FF0020FDF7EDFF1E20FDF7EAFF89
:1025100001210720FDF72AFF237801210620522BF5
:1025200001D101F0A3F9FDF721FF07200021FDF7FC
:102530001DFF0020FDF7D6FF8020FDF7D3FF01210E
:102540000720FDF713FF00210620FDF70FFF0021F4
:102550000720FDF70BFFB120FDF7C4FF0121072085
:10256000FDF704FF237801210620522B01D101F051
:1025700075F9FDF7FBFE07200021FDF7F7FE0020AF
:10258000FDF7B0FFB020FDF7ADFF01210720FDF7FB
:10259000EDFE00210620FDF7E9FE00210720FDF7F2
:1025A000E5FE3620FDF79EFF01210720FDF7DEFE48
:1025B000237801210620522B01D101F047F9FDF7C4
:1025C000D5FE07200021FDF7D1FE0020FDF78AFF90
:1025D0002820FDF787FF01210720FDF7C7FE002116
:1025E0000620FDF7C3FE00210720FDF7BFFEE02017
:1025F000FDF778FF01210720FDF7B8FE23780121C0
:102600000620522B01D101F019F9FDF7AFFE07208A
:102610000021FDF7ABFE0020FDF764FF0020FDF771
:1026200061FF01210720FDF7A1FE2378012106208B
:10263000522B01D101F0FAF8FDF798FE0720002196
:10264000FDF794FE0020FDF74DFF1320FDF74AFF34
:1026500001210720FDF78AFE237801210620522B55
:1026600001D101F0DBF8FDF781FE07200021FDF725
:102670007DFE0020FDF736FF1820FDF733FF012116
:102680000720FDF773FE237801210620522B01D18C
:1026900001F0BCF8FDF76AFE07200021FDF766FE99
:1026A0000020FDF71FFF0420FDF71CFF012107207C
:1026B000FDF75CFE237801210620522B01D101F0A9
:1026C0009DF8FDF753FE07200021FDF74FFE002087
:1026D000FDF708FF0F20FDF705FF01210720FDF79B
:1026E00045FE237801210620522B01D101F07EF80E
:1026F000FDF73CFE07200021FDF738FE0020FDF726
:10270000F1FE0620FDF7EEFE01210720FDF72EFE6B
:10271000237801210620522B01D101F05FF8FDF74B
:1027200025FE07200021FDF721FE0020FDF7DAFE3F
:102730003A20FDF7D7FE01210720FDF717FE237889
:1027400001210620522B01D101F040F8FDF70EFEC9
:1027500007200021FDF70AFE0020FDF7C3FE5620EA
:10276000FDF7C0FE01210720FDF700FE23780121BF
:102770000620522B01D101F021F8FDF7F7FD0720CB
:102780000021FDF7F3FD0020FDF7ACFE4D20FDF725
:10279000A9FE01210720FDF7E9FD2378012106208C
:1027A000522B01D101F002F8FDF7E0FD07200021D6
:1027B000FDF7DCFD0020FDF795FE0320FDF792FEFE
:1027C00001210720FDF7D2FD237801210620522B9D
:1027D00001D100F0E3FFFDF7C9FD07200021FDF75F
:1027E000C5FD0020FDF77EFE04E0C0460000044069
:1027F000100400200A20FDF775FE01210720FDF7D7
:10280000B5FD237801210620522B01D100F0BEFF37
:10281000FDF7ACFD07200021FDF7A8FD0020FDF726
:1028200061FE0620FDF75EFE01210720FDF79EFDFB
:10283000237801210620522B01D100F09FFFFDF7E4
:1028400095FD07200021FDF791FD0020FDF74AFED0
:102850003020FDF747FE01210720FDF787FD237893
:1028600001210620522B01D100F080FFFDF77EFDF3
:1028700007200021FDF77AFD0020FDF733FE3E2002
:10288000FDF730FE01210720FDF770FD23780121BF
:102890000620522B01D100F061FFFDF767FD0720F4
:1028A0000021FDF763FD0020FDF71CFE0F20FDF762
:1028B00019FE01210720FDF759FD00210620FDF733
:1028C00055FD00210720FDF751FDE120FDF70AFE2F
:1028D00001210720FDF74AFD237801210620522B14
:1028E00001D100F033FFFDF741FD07200021FDF786
:1028F0003DFD0020FDF7F6FD0020FDF7F3FD012171
:102900000720FDF733FD237801210620522B01D14A
:1029100000F014FFFDF72AFD07200021FDF726FD3A
:102920000020FDF7DFFD1320FDF7DCFD012107206E
:10293000FDF71CFD237801210620522B01D100F068
:10294000F5FEFDF713FD07200021FDF70FFD002028
:10295000FDF7C8FD1820FDF7C5FD01210720FDF793
:1029600005FD237801210620522B01D100F0D6FE6F
:10297000FDF7FCFC07200021FDF7F8FC0020FDF727
:10298000B1FD0120FDF7AEFD01210720FDF7EEFCB2
:10299000237801210620522B01D100F0B7FEFDF76C
:1029A000E5FC07200021FDF7E1FC0020FDF79AFD82
:1029B0001120FDF797FD01210720FDF7D7FC2378B3
:1029C00001210620522B01D100F098FEFDF7CEFC2C
:1029D00007200021FDF7CAFC0020FDF783FD06203B
:1029E000FDF780FD01210720FDF7C0FC23780121C0
:1029F0000620522B01D100F079FEFDF7B7FC07202D
:102A00000021FDF7B3FC0020FDF76CFD3820FDF739
:102A100069FD01210720FDF7A9FC2378012106208B
:102A2000522B01D100F05AFEFDF7A0FC0720002137
:102A3000FDF79CFC0020FDF755FD3420FDF752FD0D
:102A400001210720FDF792FC237801210620522B5B
:102A500001D100F03BFEFDF789FC07200021FDF7C6
:102A600085FC0020FDF73EFD4D20FDF73BFD0121DB
:102A70000720FDF77BFC237801210620522B01D192
:102A800000F01CFEFDF772FC07200021FDF76EFC34
:102A90000020FDF727FD0620FDF724FD012107207A
:102AA000FDF764FC237801210620522B01D100F0B0
:102AB000FDFDFDF75BFC07200021FDF757FC002022
:102AC000FDF710FD0D20FDF70DFD01210720FDF79D
:102AD0004DFC237801210620522B01D100F0DEFDB0
:102AE000FDF744FC07200021FDF740FC0020FDF726
:102AF000F9FC0B20FDF7F6FC01210720FDF736FC61
:102B0000237801210620522B01D100F0BFFDFDF7F3
:102B10002DFC07200021FDF729FC0020FDF7E2FC39
:102B20003120FDF7DFFC01210720FDF71FFC237892
:102B300001210620522B01D100F0A0FDFDF716FC6B
:102B400007200021FDF712FC0020FDF7CBFC372009
:102B5000FDF7C8FC01210720FDF708FC23780121BF
:102B60000620522B01D100F081FDFDF7FFFB07206D
:102B70000021FDF7FBFB0020FDF7B4FC0F20FDF763
:102B8000B1FC01210720FDF7F1FB00210620FDF734
:102B9000EDFB00210720FDF7E9FB3A20FDF7A2FC41
:102BA00001210720FDF7E2FB237801210620522BAB
:102BB00001D100F053FDFDF7D9FB07200021FDF7FF
:102BC000D5FB0020FDF78EFC5520FDF78BFC012185
:102BD0000720FDF7CBFB00210620FDF7C7FB0021F6
:102BE0000720FDF7C3FB1120FDF77CFC0720012126
:102BF000FDF7BCFB7820FDF797FC00210620FDF7D0
:102C0000B5FB00210720FDF7B1FB2920FDF76AFC89
:102C100001210720FDF7AAFB2378522B01D100F0F8
:102C2000E6FC3220FDF780FC02B070BDFDF79EFB94
:102C300000210720FDF79AFB2AE4FDF797FB00210E
:102C40000720FDF793FB1120FDF74CFC0121072025
:102C5000FDF78CFB6420FDF767FC00210620FDF7E3
:102C600085FB00210720FDF781FB3620FDF73AFCAC
:102C700001210720FDF77AFB237801210620522B42
:102C800001D100F06EFFFDF771FB07200021FDF779
:102C90006DFB0020FDF726FC0020FDF723FC012141
:102CA0000720FDF763FB00210620FDF75FFB0021F5
:102CB0000720FDF75BFB3A20FDF714FC01210720FC
:102CC000FDF754FB237801210620522B01D100F09F
:102CD00040FFFDF74BFB07200021FDF747FB0020DD
:102CE000FDF700FC5520FDF7FDFB01210720FDF756
:102CF0003DFB00210620FDF739FB00210720FDF7F1
:102D000035FBB220FDF7EEFB01210720FDF72EFB7E
:102D1000237801210620522B01D100F012FFFDF78C
:102D200025FB07200021FDF721FB0020FDF7DAFB42
:102D30000C20FDF7D7FB01210720FDF717FB2378B7
:102D400001210620522B01D100F0F3FEFDF70EFB0E
:102D500007200021FDF70AFB0020FDF7C3FB0C2034
:102D6000FDF7C0FB01210720FDF700FB23780121BF
:102D70000620522B01D100F0D4FEFDF7F7FA072010
:102D80000021FDF7F3FA0020FDF7ACFB0020FDF772
:102D9000A9FB01210720FDF7E9FA2378012106208C
:102DA000522B01D100F0B5FEFDF7E0FA072000211B
:102DB000FDF7DCFA0020FDF795FB3320FDF792FBD1
:102DC00001210720FDF7D2FA237801210620522B9A
:102DD00001D100F096FEFDF7C9FA07200021FDF7AA
:102DE000C5FA0020FDF77EFB3320FDF77BFB0121B8
:102DF0000720FDF7BBFA00210620FDF7B7FA0021F6
:102E00000720FDF7B3FAB720FDF76CFB012107207F
:102E1000FDF7ACFA237801210620522B01D100F0F6
:102E200068FEFDF7A3FA07200021FDF79FFA0020B6
:102E3000FDF758FB3520FDF755FB01210720FDF775
:102E400095FA00210620FDF791FA00210720FDF7F1
:102E50008DFABB20FDF746FB01210720FDF786FA1E
:102E6000237801210620522B01D100F03AFEFDF714
:102E70007DFA07200021FDF779FA0020FDF732FBEB
:102E80002820FDF72FFB01210720FDF76FFA002115
:102E90000620FDF76BFA00210720FDF767FAC02036
:102EA000FDF720FB01210720FDF760FA23780121BF
:102EB0000620522B01D100F00CFEFDF757FA072037
:102EC0000021FDF753FA0020FDF70CFB3C20FDF735
:102ED00009FB01210720FDF749FA00210620FDF733
:102EE00045FA00210720FDF741FAC220FDF7FAFA62
:102EF00001210720FDF73AFA237801210620522B01
:102F000001D100F0DEFDFDF731FA07200021FDF7C9
:102F10002DFA0020FDF7E6FA0120FDF7E3FA012182
:102F20000720FDF723FA00210620FDF71FFA0021F4
:102F30000720FDF71BFAC320FDF7D4FA0121072073
:102F4000FDF714FA237801210620522B01D100F05D
:102F5000B0FDFDF70BFA07200021FDF707FA00206E
:102F6000FDF7C0FA0B20FDF7BDFA01210720FDF7A0
:102F7000FDF900210620FDF7F9F900210720FDF7F2
:102F8000F5F9C420FDF7AEFA01210720FDF7EEF9AF
:102F9000237801210620522B01D100F082FDFDF79C
:102FA000E5F907200021FDF7E1F90020FDF79AFA85
:102FB0002020FDF797FA01210720FDF7D7F900211E
:102FC0000620FDF7D3F900210720FDF7CFF9C62031
:102FD000FDF788FA01210720FDF7C8F923780121C0
:102FE0000620522B01D100F054FDFDF7BFF9072058
:102FF0000021FDF7BBF90020FDF774FA0F20FDF763
:1030000071FA01210720FDF7B1F900210620FDF733
:10301000ADF900210720FDF7A9F9D020FDF762FAEC
:1030200001210720FDF7A2F9237801210620522B68
:1030300001D100F026FDFDF799F907200021FDF7E9
:1030400095F90020FDF74EFAA420FDF74BFA012177
:103050000720FDF78BF9237801210620522B01D19F
:1030600000F007FDFDF782F907200021FDF77EF94A
:103070000020FDF737FAA120FDF734FA01210720DF
:10308000FDF774F900210620FDF770F900210720F3
:10309000FDF76CF9E020FDF725FA01210720FDF787
:1030A00065F9237801210620522B01D100F0D9FCCB
:1030B000FDF75CF907200021FDF758F90020FDF726
:1030C00011FAD020FDF70EFA01210720FDF74EF985
:1030D000237801210620522B01D100F0BAFCFDF724
:1030E00045F907200021FDF741F90020FDF7FAF925
:1030F0000120FDF7F7F901210720FDF737F92378C3
:1031000001210620522B01D100F09BFCFDF72EF986
:1031100007200021FDF72AF90020FDF7E3F9082038
:10312000FDF7E0F901210720FDF720F923780121BF
:103130000620522B01D100F07CFCFDF717F9072087
:103140000021FDF713F90020FDF7CCF90F20FDF762
:10315000C9F901210720FDF709F92378012106208B
:10316000522B01D100F05DFCFDF700F90720002192
:10317000FDF7FCF80020FDF7B5F91120FDF7B2F9D5
:1031800001210720FDF7F2F8237801210620522BB8
:1031900001D100F03EFCFDF7E9F807200021FDF722
:1031A000E5F80020FDF79EF92A20FDF79BF90121A3
:1031B0000720FDF7DBF8237801210620522B01D1EF
:1031C00000F01FFCFDF7D2F807200021FDF7CEF834
:1031D0000020FDF787F93620FDF784F9012107204B
:1031E000FDF7C4F8237801210620522B01D100F00D
:1031F00000FCFDF7BBF807200021FDF7B7F8002021
:10320000FDF770F95520FDF76DF901210720FDF755
:10321000ADF8237801210620522B00D1E2E3FDF71F
:10322000A5F807200021FDF7A1F80020FDF75AF9C5
:103230004420FDF757F901210720FDF797F823787F
:1032400001210620522B00D1C5E3FDF78FF807209E
:103250000021FDF78BF80020FDF744F93A20FDF737
:1032600041F901210720FDF781F82378012106208B
:10327000522B00D1A8E3FDF779F807200021FDF7D4
:1032800075F80020FDF72EF90B20FDF72BF9012131
:103290000720FDF76BF8237801210620522B00D17F
:1032A00086E3FDF763F807200021FDF75FF80020B3
:1032B000FDF718F90620FDF715F901210720FDF7A4
:1032C00055F8237801210620522B00D169E3FDF740
:1032D0004DF807200021FDF749F80020FDF702F91D
:1032E0001120FDF7FFF801210720FDF73FF82378B3
:1032F00001210620522B00D14CE3FDF737F80720BF
:103300000021FDF733F80020FDF7ECF82020FDF751
:10331000E9F801210720FDF729F800210620FDF733
:1033200025F800210720FDF721F8E120FDF7DAF864
:1033300001210720FDF71AF8237801210620522BDE
:1033400000D120E3FDF712F807200021FDF70EF869
:103350000020FDF7C7F8D020FDF7C4F801210720B1
:10336000FDF704F8237801210620522B00D103E356
:10337000FCF7FCFF07200021FCF7F8FF0020FDF719
:10338000B1F80220FDF7AEF801210720FCF7EEFFAF
:10339000237801210620522B00D1E6E2FCF7E6FF5C
:1033A00007200021FCF7E2FF0020FDF79BF8072033
:1033B000FDF798F801210720FCF7D8FF23780121B9
:1033C0000620522B00D1C9E2FCF7D0FF07200021D4
:1033D000FCF7CCFF0020FDF785F80A20FDF782F806
:1033E00001210720FCF7C2FF237801210620522B80
:1033F00000D1ACE2FCF7BAFF07200021FCF7B6FFD2
:103400000020FDF76FF80B20FDF76CF80121072075
:10341000FCF7ACFF237801210620522B00D18FE26C
:10342000FCF7A4FF07200021FCF7A0FF0020FDF718
:1034300059F81820FDF756F801210720FCF796FFF0
:10344000237801210620522B00D172E2FCF78EFF77
:1034500007200021FCF78AFF0020FDF743F8342005
:10346000FDF740F801210720FCF780FF23780121B8
:103470000620522B00D155E2FCF778FF07200021EF
:10348000FCF774FF0020FDF72DF84320FDF72AF824
:1034900001210720FCF76AFF237801210620522B27
:1034A00000D138E2FCF762FF07200021FCF75EFF45
:1034B0000020FDF717F84A20FDF714F80121072036
:1034C000FCF754FF237801210620522B00D11BE288
:1034D000FCF74CFF07200021FCF748FF0020FDF718
:1034E00001F82B20FCF7FEFF01210720FCF73EFF2F
:1034F000237801210620522B00D1FEE1FCF736FF94
:1035000007200021FCF732FF0020FCF7EBFF1B2017
:10351000FCF7E8FF01210720FCF728FF23780121B1
:103520000620522B00D1E1E1FCF720FF072000210B
:10353000FCF71CFF0020FCF7D5FF1C20FCF7D2FF96
:1035400001210720FCF712FF237801210620522BCE
:1035500000D1C4E1FCF70AFF07200021FCF706FFB9
:103560000020FCF7BFFF2220FCF7BCFF0121072051
:10357000FCF7FCFE237801210620522B00D1A7E1A5
:10358000FCF7F4FE07200021FCF7F0FE0020FCF71A
:10359000A9FF1F20FCF7A6FF01210720FCF7E6FE8C
:1035A00000210620FCF7E2FE00210720FCF7DEFEEA
:1035B0005520FCF797FF01210720FCF7D7FE237861
:1035C00001210620522B00D17BE1FCF7CFFE072022
:1035D0000021FCF7CBFE0020FCF784FFB020FCF7B5
:1035E00081FF01210720FCF7C1FEFFF706FB6B1EE0
:1035F000DBB20026062B00D854E1F14B1D71032DE0
:1036000000D84BE1A022F021520059800620002171
:103610001A80FCF7ABFE00210720FCF7A7FE36203E
:10362000FCF760FF01210720FCF7A0FE23780121B1
:103630000620522B00D13DE1FCF798FE0720002127
:10364000FCF794FE0020FCF74DFF3000FCF74AFF2A
:1036500001210720FCF78AFEFFF7E3FAFCF786FE5C
:1036600000210720FCF782FEFFF7AEFAFCF77EFE92
:1036700000210720FCF77AFEFFF780FAFCF776FEC0
:1036800000210720FCF772FEFFF761FAFCF76EFEDF
:1036900000210720FCF76AFEFFF742FAFCF766FEFE
:1036A00000210720FCF762FEFFF723FAFCF75EFE1D
:1036B00000210720FCF75AFEFFF704FAFCF756FE3C
:1036C00000210720FCF752FEFFF7E5F9FCF74EFE5C
:1036D00000210720FCF74AFEFFF7C6F9FCF746FE7B
:1036E00000210720FCF742FEFFF7A7F9FCF73EFE9A
:1036F00000210720FCF73AFEFFF788F9FCF736FEB9
:1037000000210720FCF732FEFFF769F9FCF72EFED7
:1037100000210720FCF72AFEFFF74AF9FCF726FEF6
:1037200000210720FCF722FEFFF72BF9FCF71EFE15
:1037300000210720FCF71AFEFFF70CF9FCF716FE34
:1037400000210720FCF712FEFFF7EDF8FCF70EFE54
:1037500000210720FCF70AFEFFF7CEF8FCF706FE73
:1037600000210720FCF702FEFFF7A0F8FCF7FEFDA2
:1037700000210720FCF7FAFDFFF781F8FCF7F6FDC2
:1037800000210720FCF7F2FDFFF762F8FCF7EEFDE1
:1037900000210720FCF7EAFDFFF743F8FCF7E6FD00
:1037A00000210720FCF7E2FDFFF724F8FCF7DEFD1F
:1037B00000210720FCF7DAFDFEF7FFFFFCF7D6FD3E
:1037C00000210720FCF7D2FDFEF7E0FFFCF7CEFD5D
:1037D00000210720FCF7CAFDFEF7C1FFFCF7C6FD7C
:1037E00000210720FCF7C2FDFEF7A2FFFCF7BEFD9B
:1037F00000210720FCF7BAFDFEF783FFFCF7B6FDBA
:1038000000210720FCF7B2FDFEF764FFFCF7AEFDD8
:1038100000210720FCF7AAFDFEF745FFFCF7A6FDF7
:1038200000210720FCF7A2FDFEF726FFFCF79EFD16
:1038300000210720FCF79AFDFEF707FFFCF796FD35
:1038400000210720FCF792FDFEF7E8FEFCF78EFD55
:1038500000210720FCF78AFDFEF7BAFEFCF786FD83
:1038600000210720FCF782FDFEF78CFEFCF77EFDB1
:1038700000210720FCF77AFDFEF75EFEFCF776FDDF
:1038800000210720FCF772FDFEF73FFEFCF76EFDFE
:1038900000210720FCF76AFDFEF720FEA021F022A0
:1038A0004900B2E6474A5B00D65C454B1D71032DCB
:1038B000F4D9A7E6FCF75AFD00210720FCF756FDD6
:1038C000C3E6FCF753FD00210720FCF74FFD85E61A
:1038D000FCF74CFD00210720FCF748FD59E6FCF7FA
:1038E00045FD00210720FCF741FD3CE6FCF73EFDCD
:1038F00000210720FCF73AFD1FE6FCF737FD002109
:103900000720FCF733FD02E6FCF730FD002107201D
:10391000FCF72CFDE5E5FCF729FD00210720FCF76D
:1039200025FDC8E5FCF722FD00210720FCF71EFD60
:10393000ABE5FCF71BFD00210720FCF717FD8EE52A
:10394000FCF714FD00210720FCF710FD71E5FCF7E2
:103950000DFD00210720FCF709FD54E5FCF706FDED
:1039600000210720FCF702FD37E5FCF7FFFC0021F2
:103970000720FCF7FBFC1AE5FCF7F8FC0021072008
:10398000FCF7F4FCFDE4FCF7F1FC00210720FCF758
:10399000EDFCE0E4FCF7EAFC00210720FCF7E6FC84
:1039A000B4E4FCF7E3FC00210720FCF7DFFC97E41C
:1039B000FCF7DCFC00210720FCF7D8FC7AE4C046C9
:1039C00010C60220F8020110FCF7D0FC00210720ED
:1039D000FCF7CCFC58E4FCF7C9FC00210720FCF7FD
:1039E000C5FC3BE4FCF7C2FC00210720FCF7BEFC51
:1039F0001EE4FCF7BBFC00210720FCF7B7FCFFF737
:103A000001FCFCF7B3FC00210720FCF7AFFCFFF73B
:103A1000E2FBFCF7ABFC00210720FCF7A7FCFFF75B
:103A2000C3FBFCF7A3FC00210720FCF79FFCFFF77A
:103A3000A4FBFCF79BFC00210720FCF797FCFFF799
:103A400085FBFCF793FC00210720FCF78FFCFFF7B8
:103A500066FBFCF78BFC00210720FCF787FCFFF7D7
:103A600047FBFCF783FC00210720FCF77FFCFFF7F6
:103A700028FBFCF77BFC00210720FCF777FCFFF715
:103A8000FAFAFCF773FC00210720FCF76FFCFFF744
:103A9000DBFAFCF76BFC00210720FCF767FCFFF763
:103AA000ADFAFCF763FC00210720FCF75FFCFFF791
:103AB0007FFAFCF75BFC00210720FCF757FCFFF7BF
:103AC00051FAFCF753FC00210720FCF74FFCFFF7ED
:103AD00023FAFCF74BFC00210720FCF747FCFFF71B
:103AE000F5F9FCF743FC00210720FCF73FFCFFF74A
:103AF000C7F9FCF73BFC00210720FCF737FCFFF778
:103B000099F9FCF733FC00210720FCF72FFCFFF7A5
:103B10006BF9FCF72BFC00210720FCF727FCFFF7D3
:103B20004CF9FCF723FC00210720FCF71FFCFFF7F2
:103B30002DF9FCF71BFC00210720FCF717FCFFF711
:103B40000EF9FCF713FC00210720FCF70FFCFFF730
:103B5000EFF8FCF70BFC00210720FCF707FCFFF750
:103B6000C1F8FCF703FC00210720FCF7FFFBFFF77F
:103B700093F8C046F8B5CE464746804680B5062045
:103B80000F0000211C001500FCF7F0FB00210720AE
:103B9000FCF7ECFB2A20FCF7A5FC01210720FCF731
:103BA000E5FB43468A4E1B0A9946337801210620DD
:103BB000522B00D1D4E0FCF7D9FB07200021FCF701
:103BC000D5FB0020FCF78EFC4B46D8B2FCF78AFCF4
:103BD00001210720FCF7CAFB337801210620522B74
:103BE00000D1EEE0FCF7C2FB07200021FCF7BEFB92
:103BF0000020FCF777FC4346D8B2FCF773FC013D8C
:103C000001210720FCF7B2FB2B12984633780121E3
:103C10000620522B00D1CDE0FCF7A8FB07200021A5
:103C2000FCF7A4FB4346180EFCF75CFC4346D8B2F5
:103C3000FCF758FC01210720FCF798FB33780121A1
:103C40000620ADB2522B00D1ADE0FCF78FFB072070
:103C50000021FCF78BFB0020FCF744FCE8B2FCF7EA
:103C600041FC01210720FCF781FB00210620FCF725
:103C70007DFB00210720FCF779FB2B20FCF732FCB1
:103C800001210720FCF772FB3378012106203D0A51
:103C9000522B00D180E0FCF769FB07200021FCF7E4
:103CA00065FB0020FCF71EFCE8B2FCF71BFC0121C1
:103CB0000720FCF75BFB337801210620522B64D0F0
:103CC000FCF754FB07200021FCF750FB0020FCF719
:103CD00009FCF8B2FCF706FC01210720FCF746FBC3
:103CE0003378013C012106202512522B46D0FCF7E7
:103CF0003DFB07200021FCF739FB280EFCF7F2FB07
:103D0000E8B2FCF7EFFB01210720FCF72FFB33782B
:103D100001210620A4B2522B29D0FCF727FB072053
:103D20000021FCF723FB0020FCF7DCFBE0B2FCF7F2
:103D3000D9FB01210720FCF719FB00210620FCF725
:103D400015FB00210720FCF711FB2C20FCF7CAFB18
:103D500001210720FCF70AFBC0BCB946B046F8BDFC
:103D6000FCF704FB00210720FCF700FB2CE7FCF725
:103D7000FDFA00210720FCF7F9FAD7E7FCF7F6FA7D
:103D800000210720FCF7F2FABAE7FCF7EFFA00216E
:103D90000720FCF7EBFA9CE7FCF7E8FA0021072084
:103DA000FCF7E4FA80E7FCF7E1FA00210720FCF7D2
:103DB000DDFA53E7FCF7DAFA00210720FCF7D6FA20
:103DC00034E7FCF7D3FA00210720FCF7CFFA12E71B
:103DD00010040020F8B505000C0006200021FCF7B7
:103DE000C5FA00210720FCF7C1FA2A20FCF77AFB6C
:103DF00001210720FCF7BAFA864E0121337806200C
:103E00002F0A522B00D1CCE0FCF7B0FA072000219A
:103E1000FCF7ACFA0020FCF765FBF8B2FCF762FB9C
:103E200001210720FCF7A2FA337801210620522B4A
:103E300000D1E7E0FCF79AFA07200021FCF796FA98
:103E40000020FCF74FFBE8B2FCF74CFB01210720F8
:103E5000FCF78CFA3378013D012106202F12522BFA
:103E600000D1C8E0FCF782FA07200021FCF77EFAB7
:103E7000380EFCF737FBF8B2FCF734FB01210720C2
:103E8000FCF774FA337801210620ADB2522B00D131
:103E9000AAE0FCF76BFA07200021FCF767FA002084
:103EA000FCF720FBE8B2FCF71DFB01210720FCF723
:103EB0005DFA00210620FCF759FA00210720FCF7E3
:103EC00055FA2B20FCF70EFB01210720FCF74EFAD8
:103ED000337801210620250A522B00D17DE0FCF722
:103EE00045FA07200021FCF741FA0020FCF7FAFA16
:103EF000E8B2FCF7F7FA01210720FCF737FA33782C
:103F000001210620522B61D0FCF730FA0720002156
:103F1000FCF72CFA0020FCF7E5FAE0B2FCF7E2FA35
:103F200001210720FCF722FA3378013C0121062009
:103F30002512522B43D0FCF719FA07200021FCF779
:103F400015FA280EFCF7CEFAE8B2FCF7CBFA0121FD
:103F50000720FCF70BFA337801210620A4B2522B7C
:103F600026D0FCF703FA07200021FCF7FFF9002018
:103F7000FCF7B8FAE0B2FCF7B5FA01210720FCF72C
:103F8000F5F900210620FCF7F1F900210720FCF7E4
:103F9000EDF92C20FCF7A6FA01210720FCF7E6F941
:103FA000F8BDFCF7E3F900210720FCF7DFF934E75F
:103FB000FCF7DCF900210720FCF7D8F9DAE7FCF779
:103FC000D5F900210720FCF7D1F9BDE7FCF7CEF9C0
:103FD00000210720FCF7CAF99FE7FCF7C7F9002189
:103FE0000720FCF7C3F983E7FCF7C0F9002107209D
:103FF000FCF7BCF956E7FCF7B9F900210720FCF7FC
:10400000B5F938E7FCF7B2F900210720FCF7AEF963
:1040100019E7C04610040020104B10B514001A8890
:10402000824202D35B888B4200D210BD0B0002009B
:10403000FFF7A0FD01210620FCF798F900210720D9
:10404000FCF794F9200AFCF74DFAE0B2FCF74AFAC3
:1040500001210720FCF78AF9E7E7C04610C60220D5
:10406000F0B5C64600B51C0006AB80460F00150033
:104070001E88824201D98C4202D880BCB846F0BD6D
:104080002300FFF777FD43460121ED1A0620E41BCC
:10409000FCF76CF9ADB200210720A4B26C43FCF729
:1040A00065F90025370AF6B23800FCF71BFA01352E
:1040B0003000FCF717FAAC42F6D101210720FCF7DB
:1040C00055F9DAE7F8B5144B04001D88002D02D02D
:1040D0005E88002E00D1F8BD33002A0000210020A8
:1040E000FFF748FD01210620FCF740F900210720D9
:1040F0006E43FCF73BF90025270AE4B23800FCF7D1
:10410000F1F901352000FCF7EDF9AE42F6D10121BD
:104110000720FCF72BF9DEE710C60220F0B54E466B
:104120004546DE4657461C00E0B5072687B001939A
:1041300010AB0391198811AB88461988049002913D
:10414000A188203A0E40731E9E41CB08F31816003A
:10415000E08846435E4323689C46059366440028F6
:1041600061D0039B013B9BB29A46324B9946002992
:1041700059D0049B0025581E534601339BB29B46E1
:1041800080B21CE080232341471C134229D04B46B8
:104190001A88BBB29A4209D34B465B885B4505D36C
:1041A0005146029AFFF738FF019B9988073C63420A
:1041B0005C410135ADB23619B8B28D4221D2072427
:1041C0001D4B32782C409845DCD180232341471C7D
:1041D0001342EBD0174B1A889446BAB29445DCD2FE
:1041E000E4E74B461A88BBB29A42DFD34B465B8862
:1041F0005B45DBD351464246FFF70EFF019B998892
:10420000D4E74B0700D00136019B0398DA88534668
:104210001B1A02339BB29A4205D9534601339BB213
:104220009A460029A5D107B0F0BCBB46B246A946C4
:10423000A046F0BD10C60220FFFF0000F0B55746B3
:104240004E464546DE46E0B50F001E00844614008B
:104250008FB00B9318AB1D8819ABA8460A921D7836
:10426000121A1AAB1B780291D11706955518F21B3A
:104270009946D3174D40D11859400891A44589411A
:10428000D3179A1A5A400592564A0190564811403F
:1042900084460A0002216244BC4608000992B445E3
:1042A000924108991040421E0C926A1A00214B4616
:1042B0008A46079504925D0052009BB2013D03922D
:1042C0000D93534601335BB29A46069B012B06D1F0
:1042D0000321504606F08EF849B200294FD0434BD7
:1042E000019A1B88934223D3404B029A5B889342E6
:1042F0001ED3002D1CDD0023019A99460D9BD21A76
:104300009346029AD71ABFB24E4600245E44B6B214
:10431000E11901344246300089B2A4B2FFF77CFEB5
:10432000A542F5DC4B4601339BB299469D42EBDC3E
:10433000059B039A934211DC0A9A019B9A424AD048
:10434000049A0899521A099904928C4663449BB2C4
:1043500001935300079A03939A42B2DB0B9A029B94
:104360009A4238D00799049A8C460C9962448C463C
:1043700063449BB20293530004920393A1E71B4B47
:10438000019A1B88934223D3184B029A5B8893426D
:104390001ED3002D1CDD0023019A99460D9BD21AD5
:1043A0009246029AD71ABFB24E4600245644B6B27D
:1043B000E11901340022300089B2A4B2FFF72CFECB
:1043C000AC42F5DB4B4601339BB29946AB42EBDB8B
:1043D00000239A46ACE70FB0F0BCBB46B246A946F4
:1043E000A046F0BD0200FFFFFFFF000010C6022044
:1043F000F0B54F464646D646C0B584B01F000CAB5C
:104400001B88140099460DAB1B7805009A462D4B6E
:104410000E001A889846904225D85B88994222D887
:10442000944210D853460293002301934B46220036
:1044300000930B00FFF702FF43461A88954212D8FB
:104440005B889E420FD89F420DD8534602930023AB
:1044500001934B462A00009331003B002800FFF7F0
:10446000EDFE43461A88944226D843465B889F4215
:1044700022D89E4212D853460293002301934B4602
:1044800022000093390033002000FFF7D7FE434697
:104490001A88944210D85B88BB420DD395420BD842
:1044A00053460293002301934B462A0000933900A0
:1044B0003B002000FFF7C2FE04B0E0BCBA46B146A4
:1044C000A846F0BD10C60220F0B583B008AC27881E
:1044D00009AC26780AAC2478A4460C4C2588854281
:1044E0000BD364888C4208D3954206D39C4204D3F4
:1044F000002E04D00097FFF7B3FD03B0F0BD644673
:1045000000970194FFF774FFF7E7C04610C602203A
:10451000F0B557464E46DE464546E0B585B01F002D
:104520000EAB1B888A4603930FAB1B8881469B46C4
:104530001F4B160019889846814231D35888504540
:104540002ED31278002A2BD0BB8855469C464C4669
:104550001DE0FB88EB18834201DD55464C468C423A
:104560000CD885420AD85B460193039B290000932F
:1045700020003B00FFF7D2FDBB889C467278644464
:104580000136A4B2002A0BD04346198858886346E6
:10459000E3188B42DDDDFB884C46ED18ADB2D9E760
:1045A00005B0F0BCBB46B246A946A046F0BDC04629
:1045B00010C60220F0B5C64600B5070084B03C49DD
:1045C0003C4809F081FD0E2301AD6B442E00984656
:1045D00000211020FBF7CAFE3800FBF783FFC8203C
:1045E000FBF7A6FF0020FBF78FFF84B20020FBF74C
:1045F0008BFF2402A4B20443A4B201211020E408DA
:10460000FBF7B4FE3480C8200236FBF791FF464525
:10461000DED12949274809F057FD2B886A88934243
:1046200001D92A806B802B88AA88934201D92A80DD
:10463000AB802B88EA88934201D92A80EB802B88B3
:104640002A89934231D86B88AA88934201D96A801B
:10465000AB806B88EA88934201D96A80EB806B88D3
:104660002A8993421ED8AB88EA88934201D9AA804E
:10467000EB80AB882A89934201D9AA802B812B89B0
:10468000EA889A4200D9EB80AB8868880321C01879
:10469000EB88C01880B205F0D5FE80B204B080BCB3
:1046A000B846F0BD6A802B81DDE72B81CBE7C046A1
:1046B000C0C62D000000044080F0FA02F8B5D020FA
:1046C000FFF778FF04009020FFF774FF06000A2030
:1046D000FBF72EFFD020FFF76DFF05009020FFF7BE
:1046E00069FF07000A20FBF723FFAC420CD223002E
:1046F00031330020AB4206DBBE420DD233003133F2
:104700000020BB4210DAF8BD2B003133A342F3DAAC
:104710000020AC42F7D1EAE73B003133B34203DA81
:104720000020BE42EFD1E9E7044B6419F61970107E
:104730006410D8809C800120E5E7C0461CC602209A
:1047400000B52A4B83B01B78522B1BD0284B1A7E06
:10475000062A0CD0002A21D1264A1A61264A5A611B
:10476000152252425A81123A9A8103B000BD234A5F
:104770001A61234A5A61812292005A8116225242BA
:104780009A81F2E71A4B1F4A1A611F4A5A61642242
:10479000FF325A81783AFF3A9A81E6E7032A0BD032
:1047A000052A13D1194A1A61194A5A61194A5A81BC
:1047B000142252429A81D8E7174A1A61174A5A615D
:1047C000162252425A81103A9A81CEE70020FFF712
:1047D00079FCF8231B020193114B3C21009300202C
:1047E000104B114AFFF794FEBFE7C04610040020AB
:1047F0001CC6022010B3B73DEA060A3E239F07BE3F
:104800005950B83D6DABB9BDB6118F3D831808BE88
:104810007826B43D050200005B25B83DD05F083E18
:10482000FFFF00000004002008030110F0B5C64699
:1048300000B584B00E280ED88D4B80001B589F46C3
:104840000720FDF769FD8B4A00210020FCF720F8C6
:104850000420FDF761FD04B080BCB846F0BD002423
:104860000720FDF759FD0021834A0020FCF710F8CE
:104870000420FDF751FD814B1C70814B1D780720F2
:10488000FDF74AFD2A000023A221FA20FBF7FEFED5
:104890000420FDF741FD8C207A4E7B4D7B4F2A0092
:1048A00033004121019400974000FFF731FE784B1F
:1048B00007201B789846FDF72FFD424600238821EC
:1048C000FA20FBF7E3FE0420FDF726FD8C203300E1
:1048D0002A005A21019400974000FFF719FE012396
:1048E00097229B21029301935200DB33F520009421
:1048F000FFF7EAFD0720FDF70FFD802008222B219E
:104900004000FBF787FE0420FDF706FDA3E7072024
:10491000FDF702FD5F4A97E700240720FDF7FCFC46
:1049200000215D4A0020FBF7B3FF0420FDF7F4FCF3
:10493000524B1C70594BA1E70720FDF7EDFC584A7C
:1049400082E700240720FDF7E7FC0021554A0020FC
:10495000FBF79EFF0420FDF7DFFC484B07201C708F
:10496000514B1D78FDF7D8FC2A000023AE21FA2018
:10497000FBF78CFE0420FDF7CFFC8C20414F424E0C
:10498000424D32003B003421019400954000FFF776
:10499000BFFD464B07201B789846FDF7BDFC4246FD
:1049A00000239621FA20FBF771FE0420FDF7B4FCEA
:1049B0008C2032003B004C21019400954000FFF711
:1049C000A7FD334B07201B789846FDF7A5FC424610
:1049D00000237C21FA20FBF759FE0420FDF79CFC04
:1049E0008C203B0032006621019400954000FFF7C7
:1049F0008FFD0123322204209B2102930193FF3279
:104A0000DB330094FF30FFF75FFD0720FDF784FCE8
:104A10000A2008222B21FF30FBF7FCFD0420FDF7C4
:104A20007BFCB121CC20224B224A01940095FFF758
:104A30006FFD10E70720FDF76FFC1F4A04E7072012
:104A4000FDF76AFC1D4AFFE60720FDF765FC1C4ADE
:104A5000FAE60720FDF760FC1A4AF5E60720FDF7A5
:104A60005BFC194AF0E60720FDF756FC174AEBE617
:104A7000F0030110E40301104C03011089C6022069
:104A80001C0400200804002058030110FFFF000050
:104A90001D0400205C030110680301101E040020A7
:104AA00074030110800301101F0400202104002062
:104AB000000400208C03011094030110A0030110D6
:104AC000AC030110B8030110C8030110D803011092
:104AD00070B50D00160004000720FDF71DFC320024
:104AE0002900E0B2FBF7D4FE0420FDF715FC70BDF1
:104AF00070B584B0032806D0052800D1A3E00128B2
:104B000043D004B070BDD0221206536801219B0728
:104B100000D5F2E053685B08194204D1D14B1A78F2
:104B2000002A00D0F4E0D04D2C78022C00D1E7E12F
:104B300000D94EE1002C00D13EE2CC4C200009F01F
:104B4000C9FC05220621A256615613019A1A1301C7
:104B50009B1A0A01521A92001B019B180722A256A7
:104B60009B18C34A1360C34A12689B1AC24A136057
:104B7000C24A1178002901D100F081FC052B01D82F
:104B800000F063FC00232B70BBE7D02212065368B1
:104B90005B08184200D08EE053685B08184204D1CD
:104BA000B04B1A78002A00D090E0B54D2C78022C3A
:104BB00000D175E100D9C2E0002C00D1DBE1AB4EA1
:104BC000300009F087FC0523F35607201C01E31A87
:104BD0001C01E41A0623F35624011A01D21A92008A
:104BE000A4180722B256A24BA4181C60A14BA24ED7
:104BF0001A68A41A3460FDF78FFB0123E2B240214A
:104C00003220FBF743FD0420FDF786FB9D4B1A780D
:104C1000002A01D100F022FC3368E52B01D900F015
:104C2000FFFCD0220123120651680B4201D100F093
:104C30005CFD5268134200D163E7934B0120197861
:104C400002F0E6F85DE7D0221206536801219B07C7
:104C500010D453685B08194203D1824B1A78002A9A
:104C600012D18A4D2B78042B00D94AE7884A9B0041
:104C7000D3589F467B4B1C78002C01D100F086FC5A
:104C8000526852081142ECD100259B221D7001236D
:104C9000804C029301937F21E62000948C335200D4
:104CA000FFF712FC7F21E6207B4B7C4A01950094A4
:104CB000FFF72EFCD5E76B4B1C78002C01D100F0E0
:104CC0004FFC52685208104200D06EE700259B222C
:104CD0001D7001236F4C029301937521E62000940F
:104CE00082335200FFF7F0FB7521E6206A4B6B4AD6
:104CF00001950094FFF70CFC57E75A4B1C78002CE9
:104D000001D100F017FC52685208114200D00AE7A6
:104D100000259B221D7001235E4C02930193752197
:104D2000E620009482335200FFF7CEFB7521E62087
:104D3000594B5A4A01950094FFF7EAFBF3E6032C1E
:104D400000D0DEE6494E300009F0C4FB0523F356DF
:104D500007201C01E31A1C01E41A0623F356240160
:104D60001A01D21A9200A4180722B256404BA41876
:104D70001C60404B404E1A68A41A3460FDF7CCFA10
:104D80000123E2B24021CD20FBF780FC0420FDF797
:104D9000C3FA3C4B1A78002A00D1A8E333689A1F63
:104DA0000E2A01D800F008FC1A00153A042A01D88E
:104DB00000F09BFC053A012A01D800F0FDFC1A0026
:104DC0001C3A092A01D800F0F7FB252B00D9D9E6B7
:104DD00097E6032C00D094E6244E300009F07AFBCD
:104DE0000523F35607201C01E31A1C01E41A0623CD
:104DF000F35624011A01D21A9200A4180722B256BF
:104E00001B4BA4181C601B4B1B4E1A68A41A346061
:104E1000FDF782FA0123E2B24021CD20FBF736FCF8
:104E20000420FDF779FA154B1A78002A00D133E3F4
:104E300033689A1E032A00D8BEE39A1F012A01D8BC
:104E400000F08EFC1A00083A022A01D800F071FC2A
:104E50001A000B3A042A00D8BEE30F2B00D991E6C2
:104E60004FE6C04689C602207EC6022014040020F8
:104E7000A0100020A4100020381100207FC60220BE
:104E800087C6022088C602201C04002085C6022096
:104E90003C040110FFFF000008040020340401104E
:104EA000D64E300009F016FB0523F35607201C01EF
:104EB000E31A1C01E41A0623F35624011A01D21A3C
:104EC0009200A4180722B256CD4BA4181C60CD4BFB
:104ED000CD4E1A68A41A3460FDF71EFA0123E2B21F
:104EE00040218220FBF7D2FB0420FDF715FAC74BC7
:104EF0001A78002A2FD03368092B00D942E600E641
:104F0000BE4E300009F0E6FA0523F35607201C01D7
:104F1000E31A1C01E41A0623F35624011A01D21ADB
:104F20009200A4180722B256B54BA4181C60B54BCA
:104F3000B54E1A68A41A3460FDF7EEF90123E2B207
:104F400040218220FBF7A2FB0420FDF7E5F9B04BDE
:104F50001A78002ACFD101321A70AE4B022019788C
:104F600001F056FF01210A2001F064FF00210B200F
:104F700001F060FFC5E5A54B1A78002A00D1C0E515
:104F8000002105201C7001F043FF0021012001F0E9
:104F90003FFF0021022001F03BFF0021092001F02A
:104FA00049FF00210A2001F045FF00210B2001F0FC
:104FB00041FF00210D2027E0954B1A78002A00D1EF
:104FC0009FE5002102201C7001F022FF0021032038
:104FD00001F01EFF0021042001F01AFF002105202E
:104FE00001F016FF00210A2001F024FF00210B2010
:104FF00001F020FF00210C2001F01CFF00210D20FA
:1050000001F018FF00210E2001F014FF0125972266
:10501000DC239B2100945200F52002950195FFF7B7
:1050200053FA0720FDF778F980207B4C08222B21CA
:105030004000FBF7EFFA0420FDF76EF9DC234D2268
:105040009B211420029501950094FFF73DFA07205B
:10505000FDF762F901222B211E20FBF7DBFA042069
:10506000FDF75AF9DC239A229B21612002950195D4
:105070000094FFF729FA0720FDF74EF902222B21B1
:105080006B20FBF7C7FA0420FDF746F9DC23E52285
:105090009B21AC20029501950094FFF715FA07209B
:1050A000FDF73AF903222B21B620FBF7B3FA0420CF
:1050B000FDF732F925E5514E300009F00BFA0523D2
:1050C000F35607201C01E31A1C01E41A0623F356C9
:1050D00024011A01D21A9200A4180722B256484B92
:1050E000A4181C60474B484E1A68A41A3460FDF798
:1050F00013F90123E2B240219920FBF7C7FA0420FB
:10510000FDF70AF9454B1A78002A00D1BEE2336850
:105110009A1E032A00D84FE29A1F012A00D833E3CF
:105120001A00083A022A00D803E3033A042A00D8F6
:105130004DE31A00103A022A00D8DCE21A00133AB2
:10514000072A00D93EE2D02212065268920700D404
:1051500042E21A00223A012A00D8F4E2023A042A72
:1051600000D839E2053A012A00D8ECE22B2B00D115
:1051700037E31A002C3A0B2A31D9352B00D901E537
:10518000BFE41E4E300009F0A5F90523F3560720B1
:105190001C01E31A1C01E41A0623F35624011A0128
:1051A000D21A9200A4180722B256154BA4181C60FC
:1051B000144B154E1A68A41A3460FDF7ADF801239C
:1051C000E2B240215D20FBF761FA0420FDF7A4F86C
:1051D000124B1A78002A00D08DE601321A700D4B5E
:1051E0000220197801F014FE01210A2001F022FEAC
:1051F00001210B2001F01EFE83E4C04614040020B0
:10520000A0100020A41000203811002088C6022021
:105210007FC602201D040020FFFF000086C602207A
:10522000F04E300009F056F90523F35607201C0113
:10523000E31A1C01E41A0623F35624011A01D21AB8
:105240009200A4180722B256E74BA4181C60E74B43
:10525000E74E1A68A41A3460FDF75EF80123E2B243
:1052600040211D20FBF712FA0420FDF755F8E14B11
:105270001A78002A00D1E2E133687FE4DD4B1A7826
:10528000002A00D13DE40026002102201E7001F01A
:10529000BFFD0021032001F0BBFD0021042001F02F
:1052A000B7FD0021052001F0B3FD00210A2001F027
:1052B000C1FD01210B2001F0BDFD00210C2001F0FA
:1052C000B9FD00210D2001F0B5FD00210F200124C2
:1052D00001F0B0FD32220420DC239B21FF32029436
:1052E00001940096FF30FFF7EFF80720FDF714F860
:1052F0000A20C14D08222B21FF30FBF78BF9042037
:10530000FDF70AF8DC233C229B210E200294019435
:105310000095FFF7D9F80720FCF7FEFF01222B21AB
:105320001320FBF777F90420FCF7F6FFDC237B2240
:105330009B214E20029401940095FFF7C5F80720A9
:10534000FCF7EAFF02222B215320FBF763F904202C
:10535000FCF7E2FFDC23B8229B218A20029401940F
:105360000095FFF7B1F80720FCF7D6FF03222B21A9
:105370008F20FBF74FF90420FCF7CEFFDC23F5224A
:105380009B21C720029401940095FFF79DF8B1215D
:10539000CA209A4B9A4A01960095FFF7B9F8FFF791
:1053A000B0FB904E300009F095F80523F356072026
:1053B0001C01E31A1C01E41A0623F35624011A0106
:1053C000D21A9200A4180722B256874BA4181C6068
:1053D000864B874E1A68A41A3460FCF79DFF0123A0
:1053E000E2B24021DB20FBF751F90420FCF794FFE7
:1053F000804B1A78002A00D12EE133685A1E052A04
:1054000000D8E9E0072B00D19DE11A00083A042AF0
:1054100000D8E1E00D2B00D195E1063A042A00D82E
:10542000DAE0132B00D18EE1063A042A00D8D3E04B
:10543000192B00D187E1063A042A00D8CCE01E2BB4
:1054400001D9FFF79FFBFFF75CFBD0231B065B68CE
:105450009B0701D5FFF755FBFFF794FB01321A704C
:10546000684B0120197801F0D3FC674B02201978B2
:1054700001F0CEFC0121092001F0DCFC72E50123E2
:105480001370624B0320197801F0C2FC01210E2039
:1054900001F0D0FCFFF735FB01321A705C4B0520A0
:1054A000197801F0B5FC584B0220197801F0B0FCD6
:1054B000564B0320197801F0ABFC0021042001F0C9
:1054C000A7FC01210A2001F0B5FC00210B2001F00E
:1054D000B1FC01210C2001F0ADFC01210D2001F0F7
:1054E000A9FC00210E2001F0A5FCFFF70AFB013208
:1054F0001A70484B0520197801F08AFC414B0120B5
:10550000197801F085FC404B0220197801F080FCED
:105510000121092001F08EFC01210A2001F08AFC02
:1055200000210B2001F086FC00210D2001F082FCFF
:10553000FFF7E7FA9B22304D1970E62002910191A6
:105540008323009552007431FEF7BEFF7521E620DB
:10555000314B324A01940095FEF7DAFFFFF7E3FA88
:105560009B22254D18707521029001908323009590
:105570005200E530FEF7A8FF7521E620264B274AAA
:1055800001940095FEF7C4FFFFF70FFB9B221A4D15
:105590001970E620029101918D23009552007E3111
:1055A000FEF792FF7F21E6201B4B1C4A01940095D9
:1055B000FEF7AEFFFFF755FB0021052001F028FCA8
:1055C000FFF79FFA1A001B3A012A00D8BBE01A0025
:1055D0001D3A042A00D9BCE50021042001F018FC82
:1055E000FFF78FFA14040020A0100020A410002060
:1055F0003811002086C60220FFFF000000040020B2
:105600008C0301101C0400201D0400201E04002037
:105610001104002024040020080400202C040110A0
:105620001A00E73A082A00D994E00021012001F08D
:10563000EFFB0021092001F0FDFBFFF762FA0132C8
:105640001A707B4B0420197801F0E2FB01210F2036
:1056500001F0F0FBFFF755FA01321A70754B042088
:10566000197801F0D5FB744B0220197801F0D0FBBA
:1056700000210A2001F0DEFB01210B2001F0DAFB02
:1056800001210F2001F0D6FBFFF73BFA01321A701F
:105690006A4B0520197801F0BBFB674B0220197893
:1056A00001F0B6FB0021032001F0B2FB604B0420A7
:1056B000197801F0ADFB01210A2001F0BBFB0121AB
:1056C0000B2001F0B7FB00210C2001F0B3FB0121FE
:1056D0000D2001F0AFFB00210E2001F0ABFB0021FB
:1056E0000F2001F0A7FBFFF70CFA0021012001F0C9
:1056F0008FFBFFF706FA504B0220197801F088FB68
:105700004B4B0420197801F083FB00210F2001F09E
:1057100091FB00210C2001F08DFB00210A2001F0FB
:1057200089FB01210B2001F085FB0021032001F002
:105730006FFB0021052001F06BFB00210D2001F023
:1057400079FBFFF7DEF93B4B0420197801F060FB91
:10575000FFF7D7F9EF2B01D9FFF714FAFFF7D1F9CB
:10576000364B0520197801F053FB0021032001F08E
:105770004FFB2F4B0420197801F04AFB00210C202D
:1057800001F058FBFFF7BDF92C4B0520197801F00B
:105790003FFB2B4B0320197801F03AFB002104203A
:1057A00001F036FB01210C2001F044FB00210E200A
:1057B00001F040FBFFF7A5F901210D2001F03AFBB4
:1057C0001E4B0520197801F023FBFFF79AF9002101
:1057D000032001F01DFB00210C2001F02BFBFFF743
:1057E00090F90021022001F013FB0021032001F0B9
:1057F0000FFB0021042001F00BFB0021052001F02C
:1058000007FB00210A2001F015FB01210B2001F00C
:1058100011FB00210C2001F00DFB00210D2001F0F7
:1058200009FB00210F2001F005FBFFF76AF9C046D4
:105830001F040020210400201D040020110400206A
:105840001E040020F8B53F4C2088431E062B41D88B
:10585000012200263C4B3D4D3D492A701F783D4AB0
:105860000E701670002F1ED00020087001212870C5
:10587000117018700720FCF74FFD0021364A0020F8
:10588000FBF706F80420FCF747FD0E232380F8BD44
:105890002D4B1A78002A50D101212C4B19702C4B1A
:1058A0001A702C4B1A7000252C4BC0B21D702C4B5B
:1058B0001D702C4B1D70FFF71BF90720FCF72CFD0A
:1058C0000021294A0020FAF7E3FF0420FCF724FD19
:1058D0002580DCE70E28DBD00300083B052B19D818
:1058E00001220020184B1A49184D0A701E78194AD7
:1058F00028701070002EB7D10720FCF70DFD002195
:105900001A4A0020FAF7C4FF0420FCF705FD07231C
:105910002380BCE70028E3D00B4B1A78002A0CD177
:105920000A4B1B78002BBED1094B1B78002BE3D10F
:10593000084B1B78002BAAD09CE7044D0449054A6C
:1059400092E7C046220400208BC6022020040020DB
:1059500083C6022084C602206804011087C6022084
:105960007EC6022085C60220500401105C0401108E
:1059700070B5040084B001285DD0032804D0052848
:1059800000D11AE104B070BDD94B1A881100113949
:105990003E2900D9BAE059889739472900D912E23F
:1059A000D44B1C78002CEDD10125D34E1D70300056
:1059B00008F090FD05230622F356B2561901CB1AC2
:1059C0001901C91A13019B1A9B000901C918072361
:1059D000F356CA48C918CA4B196005F01FFE972232
:1059E000C84B9B2100935200DC23F52002950195C2
:1059F000FEF76AFD0720FCF78FFC802004222B2194
:105A00004000FAF707FE0420FCF786FCDC234D2259
:105A10009B211420029501950094FEF755FD072067
:105A2000FCF77AFC05222B211E20FAF7F3FD042057
:105A3000FCF772FCA6E7AE4B1A88110011393E291B
:105A400044D911005E393E2900D917E15B88973BA4
:105A5000472B00D996E7AC4B1D78002D00D091E77D
:105A60000222A54E1A70300008F034FD05230622EC
:105A7000F356B2561901CB1A1901C91A13019B1A10
:105A80009B000901C9180723F3569C48C9189C4B71
:105A9000196005F0C3FD97229A4B9B215200F52017
:105AA00000930294DC230194FEF70EFD0720FCF71F
:105AB00033FC802004222B214000FAF7ABFD0420A8
:105AC000FCF72AFC02940194009564E05988973908
:105AD000472900D9FCE08C4B1E78002E00D14CE306
